{
	"contracts/MyToken.sol": {
		"MyToken": {
			"abi": [
				{
					"inputs": [],
					"stateMutability": "nonpayable",
					"type": "constructor"
				},
				{
					"anonymous": false,
					"inputs": [
						{
							"indexed": true,
							"internalType": "address",
							"name": "owner",
							"type": "address"
						},
						{
							"indexed": true,
							"internalType": "address",
							"name": "spender",
							"type": "address"
						},
						{
							"indexed": false,
							"internalType": "uint256",
							"name": "value",
							"type": "uint256"
						}
					],
					"name": "Approval",
					"type": "event"
				},
				{
					"anonymous": false,
					"inputs": [
						{
							"indexed": true,
							"internalType": "address",
							"name": "previousOwner",
							"type": "address"
						},
						{
							"indexed": true,
							"internalType": "address",
							"name": "newOwner",
							"type": "address"
						}
					],
					"name": "OwnershipTransferred",
					"type": "event"
				},
				{
					"anonymous": false,
					"inputs": [
						{
							"indexed": true,
							"internalType": "address",
							"name": "from",
							"type": "address"
						},
						{
							"indexed": true,
							"internalType": "address",
							"name": "to",
							"type": "address"
						},
						{
							"indexed": false,
							"internalType": "uint256",
							"name": "value",
							"type": "uint256"
						}
					],
					"name": "Transfer",
					"type": "event"
				},
				{
					"inputs": [
						{
							"internalType": "address",
							"name": "owner",
							"type": "address"
						},
						{
							"internalType": "address",
							"name": "spender",
							"type": "address"
						}
					],
					"name": "allowance",
					"outputs": [
						{
							"internalType": "uint256",
							"name": "",
							"type": "uint256"
						}
					],
					"stateMutability": "view",
					"type": "function"
				},
				{
					"inputs": [
						{
							"internalType": "address",
							"name": "spender",
							"type": "address"
						},
						{
							"internalType": "uint256",
							"name": "amount",
							"type": "uint256"
						}
					],
					"name": "approve",
					"outputs": [
						{
							"internalType": "bool",
							"name": "",
							"type": "bool"
						}
					],
					"stateMutability": "nonpayable",
					"type": "function"
				},
				{
					"inputs": [
						{
							"internalType": "address",
							"name": "account",
							"type": "address"
						}
					],
					"name": "balanceOf",
					"outputs": [
						{
							"internalType": "uint256",
							"name": "",
							"type": "uint256"
						}
					],
					"stateMutability": "view",
					"type": "function"
				},
				{
					"inputs": [],
					"name": "checkBalance",
					"outputs": [
						{
							"internalType": "uint256",
							"name": "",
							"type": "uint256"
						}
					],
					"stateMutability": "view",
					"type": "function"
				},
				{
					"inputs": [],
					"name": "checkInsurance",
					"outputs": [
						{
							"components": [
								{
									"internalType": "address",
									"name": "cAddress",
									"type": "address"
								},
								{
									"internalType": "string",
									"name": "cName",
									"type": "string"
								},
								{
									"internalType": "uint256",
									"name": "cAge",
									"type": "uint256"
								},
								{
									"internalType": "string",
									"name": "cGender",
									"type": "string"
								},
								{
									"internalType": "string",
									"name": "cNationality",
									"type": "string"
								},
								{
									"internalType": "uint256",
									"name": "cBalance",
									"type": "uint256"
								},
								{
									"internalType": "uint256",
									"name": "startInsurance",
									"type": "uint256"
								},
								{
									"internalType": "uint256",
									"name": "endInsurance",
									"type": "uint256"
								}
							],
							"internalType": "struct MyToken.Customer",
							"name": "",
							"type": "tuple"
						}
					],
					"stateMutability": "view",
					"type": "function"
				},
				{
					"inputs": [
						{
							"internalType": "address",
							"name": "",
							"type": "address"
						}
					],
					"name": "customers",
					"outputs": [
						{
							"internalType": "address",
							"name": "cAddress",
							"type": "address"
						},
						{
							"internalType": "string",
							"name": "cName",
							"type": "string"
						},
						{
							"internalType": "uint256",
							"name": "cAge",
							"type": "uint256"
						},
						{
							"internalType": "string",
							"name": "cGender",
							"type": "string"
						},
						{
							"internalType": "string",
							"name": "cNationality",
							"type": "string"
						},
						{
							"internalType": "uint256",
							"name": "cBalance",
							"type": "uint256"
						},
						{
							"internalType": "uint256",
							"name": "startInsurance",
							"type": "uint256"
						},
						{
							"internalType": "uint256",
							"name": "endInsurance",
							"type": "uint256"
						}
					],
					"stateMutability": "view",
					"type": "function"
				},
				{
					"inputs": [],
					"name": "decimals",
					"outputs": [
						{
							"internalType": "uint8",
							"name": "",
							"type": "uint8"
						}
					],
					"stateMutability": "view",
					"type": "function"
				},
				{
					"inputs": [
						{
							"internalType": "address",
							"name": "spender",
							"type": "address"
						},
						{
							"internalType": "uint256",
							"name": "subtractedValue",
							"type": "uint256"
						}
					],
					"name": "decreaseAllowance",
					"outputs": [
						{
							"internalType": "bool",
							"name": "",
							"type": "bool"
						}
					],
					"stateMutability": "nonpayable",
					"type": "function"
				},
				{
					"inputs": [
						{
							"internalType": "address",
							"name": "spender",
							"type": "address"
						},
						{
							"internalType": "uint256",
							"name": "addedValue",
							"type": "uint256"
						}
					],
					"name": "increaseAllowance",
					"outputs": [
						{
							"internalType": "bool",
							"name": "",
							"type": "bool"
						}
					],
					"stateMutability": "nonpayable",
					"type": "function"
				},
				{
					"inputs": [],
					"name": "insuranceAddress",
					"outputs": [
						{
							"internalType": "address",
							"name": "",
							"type": "address"
						}
					],
					"stateMutability": "view",
					"type": "function"
				},
				{
					"inputs": [],
					"name": "name",
					"outputs": [
						{
							"internalType": "string",
							"name": "",
							"type": "string"
						}
					],
					"stateMutability": "view",
					"type": "function"
				},
				{
					"inputs": [],
					"name": "owner",
					"outputs": [
						{
							"internalType": "address",
							"name": "",
							"type": "address"
						}
					],
					"stateMutability": "view",
					"type": "function"
				},
				{
					"inputs": [
						{
							"internalType": "string",
							"name": "newcName",
							"type": "string"
						},
						{
							"internalType": "uint256",
							"name": "newcAge",
							"type": "uint256"
						},
						{
							"internalType": "string",
							"name": "newcGender",
							"type": "string"
						},
						{
							"internalType": "string",
							"name": "newcNationality",
							"type": "string"
						}
					],
					"name": "registerCustomer",
					"outputs": [],
					"stateMutability": "payable",
					"type": "function"
				},
				{
					"inputs": [],
					"name": "renounceOwnership",
					"outputs": [],
					"stateMutability": "nonpayable",
					"type": "function"
				},
				{
					"inputs": [],
					"name": "symbol",
					"outputs": [
						{
							"internalType": "string",
							"name": "",
							"type": "string"
						}
					],
					"stateMutability": "view",
					"type": "function"
				},
				{
					"inputs": [],
					"name": "totalSales",
					"outputs": [
						{
							"internalType": "uint256",
							"name": "",
							"type": "uint256"
						}
					],
					"stateMutability": "view",
					"type": "function"
				},
				{
					"inputs": [],
					"name": "totalSupply",
					"outputs": [
						{
							"internalType": "uint256",
							"name": "",
							"type": "uint256"
						}
					],
					"stateMutability": "view",
					"type": "function"
				},
				{
					"inputs": [
						{
							"internalType": "address",
							"name": "to",
							"type": "address"
						},
						{
							"internalType": "uint256",
							"name": "amount",
							"type": "uint256"
						}
					],
					"name": "transfer",
					"outputs": [
						{
							"internalType": "bool",
							"name": "",
							"type": "bool"
						}
					],
					"stateMutability": "nonpayable",
					"type": "function"
				},
				{
					"inputs": [
						{
							"internalType": "address",
							"name": "from",
							"type": "address"
						},
						{
							"internalType": "address",
							"name": "to",
							"type": "address"
						},
						{
							"internalType": "uint256",
							"name": "amount",
							"type": "uint256"
						}
					],
					"name": "transferFrom",
					"outputs": [
						{
							"internalType": "bool",
							"name": "",
							"type": "bool"
						}
					],
					"stateMutability": "nonpayable",
					"type": "function"
				},
				{
					"inputs": [
						{
							"internalType": "address",
							"name": "newOwner",
							"type": "address"
						}
					],
					"name": "transferOwnership",
					"outputs": [],
					"stateMutability": "nonpayable",
					"type": "function"
				}
			],
			"devdoc": {
				"events": {
					"Approval(address,address,uint256)": {
						"details": "Emitted when the allowance of a `spender` for an `owner` is set by a call to {approve}. `value` is the new allowance."
					},
					"Transfer(address,address,uint256)": {
						"details": "Emitted when `value` tokens are moved from one account (`from`) to another (`to`). Note that `value` may be zero."
					}
				},
				"kind": "dev",
				"methods": {
					"allowance(address,address)": {
						"details": "See {IERC20-allowance}."
					},
					"approve(address,uint256)": {
						"details": "See {IERC20-approve}. NOTE: If `amount` is the maximum `uint256`, the allowance is not updated on `transferFrom`. This is semantically equivalent to an infinite approval. Requirements: - `spender` cannot be the zero address."
					},
					"balanceOf(address)": {
						"details": "See {IERC20-balanceOf}."
					},
					"decimals()": {
						"details": "Returns the number of decimals used to get its user representation. For example, if `decimals` equals `2`, a balance of `505` tokens should be displayed to a user as `5.05` (`505 / 10 ** 2`). Tokens usually opt for a value of 18, imitating the relationship between Ether and Wei. This is the default value returned by this function, unless it's overridden. NOTE: This information is only used for _display_ purposes: it in no way affects any of the arithmetic of the contract, including {IERC20-balanceOf} and {IERC20-transfer}."
					},
					"decreaseAllowance(address,uint256)": {
						"details": "Atomically decreases the allowance granted to `spender` by the caller. This is an alternative to {approve} that can be used as a mitigation for problems described in {IERC20-approve}. Emits an {Approval} event indicating the updated allowance. Requirements: - `spender` cannot be the zero address. - `spender` must have allowance for the caller of at least `subtractedValue`."
					},
					"increaseAllowance(address,uint256)": {
						"details": "Atomically increases the allowance granted to `spender` by the caller. This is an alternative to {approve} that can be used as a mitigation for problems described in {IERC20-approve}. Emits an {Approval} event indicating the updated allowance. Requirements: - `spender` cannot be the zero address."
					},
					"name()": {
						"details": "Returns the name of the token."
					},
					"owner()": {
						"details": "Returns the address of the current owner."
					},
					"renounceOwnership()": {
						"details": "Leaves the contract without owner. It will not be possible to call `onlyOwner` functions. Can only be called by the current owner. NOTE: Renouncing ownership will leave the contract without an owner, thereby disabling any functionality that is only available to the owner."
					},
					"symbol()": {
						"details": "Returns the symbol of the token, usually a shorter version of the name."
					},
					"totalSupply()": {
						"details": "See {IERC20-totalSupply}."
					},
					"transfer(address,uint256)": {
						"details": "See {IERC20-transfer}. Requirements: - `to` cannot be the zero address. - the caller must have a balance of at least `amount`."
					},
					"transferFrom(address,address,uint256)": {
						"details": "See {IERC20-transferFrom}. Emits an {Approval} event indicating the updated allowance. This is not required by the EIP. See the note at the beginning of {ERC20}. NOTE: Does not update the allowance if the current allowance is the maximum `uint256`. Requirements: - `from` and `to` cannot be the zero address. - `from` must have a balance of at least `amount`. - the caller must have allowance for ``from``'s tokens of at least `amount`."
					},
					"transferOwnership(address)": {
						"details": "Transfers ownership of the contract to a new account (`newOwner`). Can only be called by the current owner."
					}
				},
				"version": 1
			},
			"evm": {
				"assembly": "    /* \"contracts/MyToken.sol\":168:2155  contract MyToken is ERC20, Ownable {... */\n  mstore(0x40, 0x80)\n    /* \"contracts/MyToken.sol\":285:286  0 */\n  0x00\n    /* \"contracts/MyToken.sol\":260:286  uint public totalSales = 0 */\n  0x07\n  sstore\n    /* \"contracts/MyToken.sol\":326:368  0x2eB004ddE18E064725717A31d74F2027Da5b4fa4 */\n  0x2eb004dde18e064725717a31d74f2027da5b4fa4\n    /* \"contracts/MyToken.sol\":292:368  address public insuranceAddress = 0x2eB004ddE18E064725717A31d74F2027Da5b4fa4 */\n  0x08\n  exp(0x0100, 0x00)\n  dup2\n  sload\n  dup2\n  0xffffffffffffffffffffffffffffffffffffffff\n  mul\n  not\n  and\n  swap1\n  dup4\n  0xffffffffffffffffffffffffffffffffffffffff\n  and\n  mul\n  or\n  swap1\n  sstore\n  pop\n    /* \"contracts/MyToken.sol\":906:970  constructor() ERC20(\"Osama Insurance Smart Contract\", \"OISC\") {} */\n  callvalue\n  dup1\n  iszero\n  tag_1\n  jumpi\n  0x00\n  dup1\n  revert\ntag_1:\n  pop\n    /* \"@openzeppelin/contracts/token/ERC20/ERC20.sol\":1980:2093  constructor(string memory name_, string memory symbol_) {... */\n  mload(0x40)\n  dup1\n  0x40\n  add\n  0x40\n  mstore\n  dup1\n  0x1e\n  dup2\n  mstore\n  0x20\n  add\n  0x4f73616d6120496e737572616e636520536d61727420436f6e74726163740000\n  dup2\n  mstore\n  pop\n  mload(0x40)\n  dup1\n  0x40\n  add\n  0x40\n  mstore\n  dup1\n  0x04\n  dup2\n  mstore\n  0x20\n  add\n  0x4f49534300000000000000000000000000000000000000000000000000000000\n  dup2\n  mstore\n  pop\n    /* \"@openzeppelin/contracts/token/ERC20/ERC20.sol\":2054:2059  name_ */\n  dup2\n    /* \"@openzeppelin/contracts/token/ERC20/ERC20.sol\":2046:2051  _name */\n  0x03\n    /* \"@openzeppelin/contracts/token/ERC20/ERC20.sol\":2046:2059  _name = name_ */\n  swap1\n  dup2\n  tag_6\n  swap2\n  swap1\n  tag_7\n  jump\t// in\ntag_6:\n  pop\n    /* \"@openzeppelin/contracts/token/ERC20/ERC20.sol\":2079:2086  symbol_ */\n  dup1\n    /* \"@openzeppelin/contracts/token/ERC20/ERC20.sol\":2069:2076  _symbol */\n  0x04\n    /* \"@openzeppelin/contracts/token/ERC20/ERC20.sol\":2069:2086  _symbol = symbol_ */\n  swap1\n  dup2\n  tag_8\n  swap2\n  swap1\n  tag_7\n  jump\t// in\ntag_8:\n  pop\n    /* \"@openzeppelin/contracts/token/ERC20/ERC20.sol\":1980:2093  constructor(string memory name_, string memory symbol_) {... */\n  pop\n  pop\n    /* \"@openzeppelin/contracts/access/Ownable.sol\":936:968  _transferOwnership(_msgSender()) */\n  tag_10\n    /* \"@openzeppelin/contracts/access/Ownable.sol\":955:967  _msgSender() */\n  tag_11\n    /* \"@openzeppelin/contracts/access/Ownable.sol\":955:965  _msgSender */\n  shl(0x20, tag_12)\n    /* \"@openzeppelin/contracts/access/Ownable.sol\":955:967  _msgSender() */\n  0x20\n  shr\n  jump\t// in\ntag_11:\n    /* \"@openzeppelin/contracts/access/Ownable.sol\":936:954  _transferOwnership */\n  shl(0x20, tag_13)\n    /* \"@openzeppelin/contracts/access/Ownable.sol\":936:968  _transferOwnership(_msgSender()) */\n  0x20\n  shr\n  jump\t// in\ntag_10:\n    /* \"contracts/MyToken.sol\":168:2155  contract MyToken is ERC20, Ownable {... */\n  jump(tag_15)\n    /* \"@openzeppelin/contracts/utils/Context.sol\":640:736  function _msgSender() internal view virtual returns (address) {... */\ntag_12:\n    /* \"@openzeppelin/contracts/utils/Context.sol\":693:700  address */\n  0x00\n    /* \"@openzeppelin/contracts/utils/Context.sol\":719:729  msg.sender */\n  caller\n    /* \"@openzeppelin/contracts/utils/Context.sol\":712:729  return msg.sender */\n  swap1\n  pop\n    /* \"@openzeppelin/contracts/utils/Context.sol\":640:736  function _msgSender() internal view virtual returns (address) {... */\n  swap1\n  jump\t// out\n    /* \"@openzeppelin/contracts/access/Ownable.sol\":2426:2613  function _transferOwnership(address newOwner) internal virtual {... */\ntag_13:\n    /* \"@openzeppelin/contracts/access/Ownable.sol\":2499:2515  address oldOwner */\n  0x00\n    /* \"@openzeppelin/contracts/access/Ownable.sol\":2518:2524  _owner */\n  0x05\n  0x00\n  swap1\n  sload\n  swap1\n  0x0100\n  exp\n  swap1\n  div\n  0xffffffffffffffffffffffffffffffffffffffff\n  and\n    /* \"@openzeppelin/contracts/access/Ownable.sol\":2499:2524  address oldOwner = _owner */\n  swap1\n  pop\n    /* \"@openzeppelin/contracts/access/Ownable.sol\":2543:2551  newOwner */\n  dup2\n    /* \"@openzeppelin/contracts/access/Ownable.sol\":2534:2540  _owner */\n  0x05\n  0x00\n    /* \"@openzeppelin/contracts/access/Ownable.sol\":2534:2551  _owner = newOwner */\n  0x0100\n  exp\n  dup2\n  sload\n  dup2\n  0xffffffffffffffffffffffffffffffffffffffff\n  mul\n  not\n  and\n  swap1\n  dup4\n  0xffffffffffffffffffffffffffffffffffffffff\n  and\n  mul\n  or\n  swap1\n  sstore\n  pop\n    /* \"@openzeppelin/contracts/access/Ownable.sol\":2597:2605  newOwner */\n  dup2\n    /* \"@openzeppelin/contracts/access/Ownable.sol\":2566:2606  OwnershipTransferred(oldOwner, newOwner) */\n  0xffffffffffffffffffffffffffffffffffffffff\n  and\n    /* \"@openzeppelin/contracts/access/Ownable.sol\":2587:2595  oldOwner */\n  dup2\n    /* \"@openzeppelin/contracts/access/Ownable.sol\":2566:2606  OwnershipTransferred(oldOwner, newOwner) */\n  0xffffffffffffffffffffffffffffffffffffffff\n  and\n  0x8be0079c531659141344cd1fd0a4f28419497f9722a3daafe3b4186f6b6457e0\n  mload(0x40)\n  mload(0x40)\n  dup1\n  swap2\n  sub\n  swap1\n  log3\n    /* \"@openzeppelin/contracts/access/Ownable.sol\":2489:2613  {... */\n  pop\n    /* \"@openzeppelin/contracts/access/Ownable.sol\":2426:2613  function _transferOwnership(address newOwner) internal virtual {... */\n  pop\n  jump\t// out\n    /* \"#utility.yul\":7:106   */\ntag_18:\n    /* \"#utility.yul\":59:65   */\n  0x00\n    /* \"#utility.yul\":93:98   */\n  dup2\n    /* \"#utility.yul\":87:99   */\n  mload\n    /* \"#utility.yul\":77:99   */\n  swap1\n  pop\n    /* \"#utility.yul\":7:106   */\n  swap2\n  swap1\n  pop\n  jump\t// out\n    /* \"#utility.yul\":112:292   */\ntag_19:\n    /* \"#utility.yul\":160:237   */\n  0x4e487b7100000000000000000000000000000000000000000000000000000000\n    /* \"#utility.yul\":157:158   */\n  0x00\n    /* \"#utility.yul\":150:238   */\n  mstore\n    /* \"#utility.yul\":257:261   */\n  0x41\n    /* \"#utility.yul\":254:255   */\n  0x04\n    /* \"#utility.yul\":247:262   */\n  mstore\n    /* \"#utility.yul\":281:285   */\n  0x24\n    /* \"#utility.yul\":278:279   */\n  0x00\n    /* \"#utility.yul\":271:286   */\n  revert\n    /* \"#utility.yul\":298:478   */\ntag_20:\n    /* \"#utility.yul\":346:423   */\n  0x4e487b7100000000000000000000000000000000000000000000000000000000\n    /* \"#utility.yul\":343:344   */\n  0x00\n    /* \"#utility.yul\":336:424   */\n  mstore\n    /* \"#utility.yul\":443:447   */\n  0x22\n    /* \"#utility.yul\":440:441   */\n  0x04\n    /* \"#utility.yul\":433:448   */\n  mstore\n    /* \"#utility.yul\":467:471   */\n  0x24\n    /* \"#utility.yul\":464:465   */\n  0x00\n    /* \"#utility.yul\":457:472   */\n  revert\n    /* \"#utility.yul\":484:804   */\ntag_21:\n    /* \"#utility.yul\":528:534   */\n  0x00\n    /* \"#utility.yul\":565:566   */\n  0x02\n    /* \"#utility.yul\":559:563   */\n  dup3\n    /* \"#utility.yul\":555:567   */\n  div\n    /* \"#utility.yul\":545:567   */\n  swap1\n  pop\n    /* \"#utility.yul\":612:613   */\n  0x01\n    /* \"#utility.yul\":606:610   */\n  dup3\n    /* \"#utility.yul\":602:614   */\n  and\n    /* \"#utility.yul\":633:651   */\n  dup1\n    /* \"#utility.yul\":623:704   */\n  tag_43\n  jumpi\n    /* \"#utility.yul\":689:693   */\n  0x7f\n    /* \"#utility.yul\":681:687   */\n  dup3\n    /* \"#utility.yul\":677:694   */\n  and\n    /* \"#utility.yul\":667:694   */\n  swap2\n  pop\n    /* \"#utility.yul\":623:704   */\ntag_43:\n    /* \"#utility.yul\":751:753   */\n  0x20\n    /* \"#utility.yul\":743:749   */\n  dup3\n    /* \"#utility.yul\":740:754   */\n  lt\n    /* \"#utility.yul\":720:738   */\n  dup2\n    /* \"#utility.yul\":717:755   */\n  sub\n    /* \"#utility.yul\":714:798   */\n  tag_44\n  jumpi\n    /* \"#utility.yul\":770:788   */\n  tag_45\n  tag_20\n  jump\t// in\ntag_45:\n    /* \"#utility.yul\":714:798   */\ntag_44:\n    /* \"#utility.yul\":535:804   */\n  pop\n    /* \"#utility.yul\":484:804   */\n  swap2\n  swap1\n  pop\n  jump\t// out\n    /* \"#utility.yul\":810:951   */\ntag_22:\n    /* \"#utility.yul\":859:863   */\n  0x00\n    /* \"#utility.yul\":882:885   */\n  dup2\n    /* \"#utility.yul\":874:885   */\n  swap1\n  pop\n    /* \"#utility.yul\":905:908   */\n  dup2\n    /* \"#utility.yul\":902:903   */\n  0x00\n    /* \"#utility.yul\":895:909   */\n  mstore\n    /* \"#utility.yul\":939:943   */\n  0x20\n    /* \"#utility.yul\":936:937   */\n  0x00\n    /* \"#utility.yul\":926:944   */\n  keccak256\n    /* \"#utility.yul\":918:944   */\n  swap1\n  pop\n    /* \"#utility.yul\":810:951   */\n  swap2\n  swap1\n  pop\n  jump\t// out\n    /* \"#utility.yul\":957:1050   */\ntag_23:\n    /* \"#utility.yul\":994:1000   */\n  0x00\n    /* \"#utility.yul\":1041:1043   */\n  0x20\n    /* \"#utility.yul\":1036:1038   */\n  0x1f\n    /* \"#utility.yul\":1029:1034   */\n  dup4\n    /* \"#utility.yul\":1025:1039   */\n  add\n    /* \"#utility.yul\":1021:1044   */\n  div\n    /* \"#utility.yul\":1011:1044   */\n  swap1\n  pop\n    /* \"#utility.yul\":957:1050   */\n  swap2\n  swap1\n  pop\n  jump\t// out\n    /* \"#utility.yul\":1056:1163   */\ntag_24:\n    /* \"#utility.yul\":1100:1108   */\n  0x00\n    /* \"#utility.yul\":1150:1155   */\n  dup3\n    /* \"#utility.yul\":1144:1148   */\n  dup3\n    /* \"#utility.yul\":1140:1156   */\n  shl\n    /* \"#utility.yul\":1119:1156   */\n  swap1\n  pop\n    /* \"#utility.yul\":1056:1163   */\n  swap3\n  swap2\n  pop\n  pop\n  jump\t// out\n    /* \"#utility.yul\":1169:1562   */\ntag_25:\n    /* \"#utility.yul\":1238:1244   */\n  0x00\n    /* \"#utility.yul\":1288:1289   */\n  0x08\n    /* \"#utility.yul\":1276:1286   */\n  dup4\n    /* \"#utility.yul\":1272:1290   */\n  mul\n    /* \"#utility.yul\":1311:1408   */\n  tag_50\n    /* \"#utility.yul\":1341:1407   */\n  0xffffffffffffffffffffffffffffffffffffffffffffffffffffffffffffffff\n    /* \"#utility.yul\":1330:1339   */\n  dup3\n    /* \"#utility.yul\":1311:1408   */\n  tag_24\n  jump\t// in\ntag_50:\n    /* \"#utility.yul\":1429:1468   */\n  tag_51\n    /* \"#utility.yul\":1459:1467   */\n  dup7\n    /* \"#utility.yul\":1448:1457   */\n  dup4\n    /* \"#utility.yul\":1429:1468   */\n  tag_24\n  jump\t// in\ntag_51:\n    /* \"#utility.yul\":1417:1468   */\n  swap6\n  pop\n    /* \"#utility.yul\":1501:1505   */\n  dup1\n    /* \"#utility.yul\":1497:1506   */\n  not\n    /* \"#utility.yul\":1490:1495   */\n  dup5\n    /* \"#utility.yul\":1486:1507   */\n  and\n    /* \"#utility.yul\":1477:1507   */\n  swap4\n  pop\n    /* \"#utility.yul\":1550:1554   */\n  dup1\n    /* \"#utility.yul\":1540:1548   */\n  dup7\n    /* \"#utility.yul\":1536:1555   */\n  and\n    /* \"#utility.yul\":1529:1534   */\n  dup5\n    /* \"#utility.yul\":1526:1556   */\n  or\n    /* \"#utility.yul\":1516:1556   */\n  swap3\n  pop\n    /* \"#utility.yul\":1245:1562   */\n  pop\n  pop\n    /* \"#utility.yul\":1169:1562   */\n  swap4\n  swap3\n  pop\n  pop\n  pop\n  jump\t// out\n    /* \"#utility.yul\":1568:1645   */\ntag_26:\n    /* \"#utility.yul\":1605:1612   */\n  0x00\n    /* \"#utility.yul\":1634:1639   */\n  dup2\n    /* \"#utility.yul\":1623:1639   */\n  swap1\n  pop\n    /* \"#utility.yul\":1568:1645   */\n  swap2\n  swap1\n  pop\n  jump\t// out\n    /* \"#utility.yul\":1651:1711   */\ntag_27:\n    /* \"#utility.yul\":1679:1682   */\n  0x00\n    /* \"#utility.yul\":1700:1705   */\n  dup2\n    /* \"#utility.yul\":1693:1705   */\n  swap1\n  pop\n    /* \"#utility.yul\":1651:1711   */\n  swap2\n  swap1\n  pop\n  jump\t// out\n    /* \"#utility.yul\":1717:1859   */\ntag_28:\n    /* \"#utility.yul\":1767:1776   */\n  0x00\n    /* \"#utility.yul\":1800:1853   */\n  tag_55\n    /* \"#utility.yul\":1818:1852   */\n  tag_56\n    /* \"#utility.yul\":1827:1851   */\n  tag_57\n    /* \"#utility.yul\":1845:1850   */\n  dup5\n    /* \"#utility.yul\":1827:1851   */\n  tag_26\n  jump\t// in\ntag_57:\n    /* \"#utility.yul\":1818:1852   */\n  tag_27\n  jump\t// in\ntag_56:\n    /* \"#utility.yul\":1800:1853   */\n  tag_26\n  jump\t// in\ntag_55:\n    /* \"#utility.yul\":1787:1853   */\n  swap1\n  pop\n    /* \"#utility.yul\":1717:1859   */\n  swap2\n  swap1\n  pop\n  jump\t// out\n    /* \"#utility.yul\":1865:1940   */\ntag_29:\n    /* \"#utility.yul\":1908:1911   */\n  0x00\n    /* \"#utility.yul\":1929:1934   */\n  dup2\n    /* \"#utility.yul\":1922:1934   */\n  swap1\n  pop\n    /* \"#utility.yul\":1865:1940   */\n  swap2\n  swap1\n  pop\n  jump\t// out\n    /* \"#utility.yul\":1946:2215   */\ntag_30:\n    /* \"#utility.yul\":2056:2095   */\n  tag_60\n    /* \"#utility.yul\":2087:2094   */\n  dup4\n    /* \"#utility.yul\":2056:2095   */\n  tag_28\n  jump\t// in\ntag_60:\n    /* \"#utility.yul\":2117:2208   */\n  tag_61\n    /* \"#utility.yul\":2166:2207   */\n  tag_62\n    /* \"#utility.yul\":2190:2206   */\n  dup3\n    /* \"#utility.yul\":2166:2207   */\n  tag_29\n  jump\t// in\ntag_62:\n    /* \"#utility.yul\":2158:2164   */\n  dup5\n    /* \"#utility.yul\":2151:2155   */\n  dup5\n    /* \"#utility.yul\":2145:2156   */\n  sload\n    /* \"#utility.yul\":2117:2208   */\n  tag_25\n  jump\t// in\ntag_61:\n    /* \"#utility.yul\":2111:2115   */\n  dup3\n    /* \"#utility.yul\":2104:2209   */\n  sstore\n    /* \"#utility.yul\":2022:2215   */\n  pop\n    /* \"#utility.yul\":1946:2215   */\n  pop\n  pop\n  pop\n  jump\t// out\n    /* \"#utility.yul\":2221:2294   */\ntag_31:\n    /* \"#utility.yul\":2266:2269   */\n  0x00\n    /* \"#utility.yul\":2221:2294   */\n  swap1\n  jump\t// out\n    /* \"#utility.yul\":2300:2489   */\ntag_32:\n    /* \"#utility.yul\":2377:2409   */\n  tag_65\n  tag_31\n  jump\t// in\ntag_65:\n    /* \"#utility.yul\":2418:2483   */\n  tag_66\n    /* \"#utility.yul\":2476:2482   */\n  dup2\n    /* \"#utility.yul\":2468:2474   */\n  dup5\n    /* \"#utility.yul\":2462:2466   */\n  dup5\n    /* \"#utility.yul\":2418:2483   */\n  tag_30\n  jump\t// in\ntag_66:\n    /* \"#utility.yul\":2353:2489   */\n  pop\n    /* \"#utility.yul\":2300:2489   */\n  pop\n  pop\n  jump\t// out\n    /* \"#utility.yul\":2495:2681   */\ntag_33:\n    /* \"#utility.yul\":2555:2675   */\ntag_68:\n    /* \"#utility.yul\":2572:2575   */\n  dup2\n    /* \"#utility.yul\":2565:2570   */\n  dup2\n    /* \"#utility.yul\":2562:2576   */\n  lt\n    /* \"#utility.yul\":2555:2675   */\n  iszero\n  tag_70\n  jumpi\n    /* \"#utility.yul\":2626:2665   */\n  tag_71\n    /* \"#utility.yul\":2663:2664   */\n  0x00\n    /* \"#utility.yul\":2656:2661   */\n  dup3\n    /* \"#utility.yul\":2626:2665   */\n  tag_32\n  jump\t// in\ntag_71:\n    /* \"#utility.yul\":2599:2600   */\n  0x01\n    /* \"#utility.yul\":2592:2597   */\n  dup2\n    /* \"#utility.yul\":2588:2601   */\n  add\n    /* \"#utility.yul\":2579:2601   */\n  swap1\n  pop\n    /* \"#utility.yul\":2555:2675   */\n  jump(tag_68)\ntag_70:\n    /* \"#utility.yul\":2495:2681   */\n  pop\n  pop\n  jump\t// out\n    /* \"#utility.yul\":2687:3230   */\ntag_34:\n    /* \"#utility.yul\":2788:2790   */\n  0x1f\n    /* \"#utility.yul\":2783:2786   */\n  dup3\n    /* \"#utility.yul\":2780:2791   */\n  gt\n    /* \"#utility.yul\":2777:3223   */\n  iszero\n  tag_73\n  jumpi\n    /* \"#utility.yul\":2822:2860   */\n  tag_74\n    /* \"#utility.yul\":2854:2859   */\n  dup2\n    /* \"#utility.yul\":2822:2860   */\n  tag_22\n  jump\t// in\ntag_74:\n    /* \"#utility.yul\":2906:2935   */\n  tag_75\n    /* \"#utility.yul\":2924:2934   */\n  dup5\n    /* \"#utility.yul\":2906:2935   */\n  tag_23\n  jump\t// in\ntag_75:\n    /* \"#utility.yul\":2896:2904   */\n  dup2\n    /* \"#utility.yul\":2892:2936   */\n  add\n    /* \"#utility.yul\":3089:3091   */\n  0x20\n    /* \"#utility.yul\":3077:3087   */\n  dup6\n    /* \"#utility.yul\":3074:3092   */\n  lt\n    /* \"#utility.yul\":3071:3120   */\n  iszero\n  tag_76\n  jumpi\n    /* \"#utility.yul\":3110:3118   */\n  dup2\n    /* \"#utility.yul\":3095:3118   */\n  swap1\n  pop\n    /* \"#utility.yul\":3071:3120   */\ntag_76:\n    /* \"#utility.yul\":3133:3213   */\n  tag_77\n    /* \"#utility.yul\":3189:3211   */\n  tag_78\n    /* \"#utility.yul\":3207:3210   */\n  dup6\n    /* \"#utility.yul\":3189:3211   */\n  tag_23\n  jump\t// in\ntag_78:\n    /* \"#utility.yul\":3179:3187   */\n  dup4\n    /* \"#utility.yul\":3175:3212   */\n  add\n    /* \"#utility.yul\":3162:3173   */\n  dup3\n    /* \"#utility.yul\":3133:3213   */\n  tag_33\n  jump\t// in\ntag_77:\n    /* \"#utility.yul\":2792:3223   */\n  pop\n  pop\n    /* \"#utility.yul\":2777:3223   */\ntag_73:\n    /* \"#utility.yul\":2687:3230   */\n  pop\n  pop\n  pop\n  jump\t// out\n    /* \"#utility.yul\":3236:3353   */\ntag_35:\n    /* \"#utility.yul\":3290:3298   */\n  0x00\n    /* \"#utility.yul\":3340:3345   */\n  dup3\n    /* \"#utility.yul\":3334:3338   */\n  dup3\n    /* \"#utility.yul\":3330:3346   */\n  shr\n    /* \"#utility.yul\":3309:3346   */\n  swap1\n  pop\n    /* \"#utility.yul\":3236:3353   */\n  swap3\n  swap2\n  pop\n  pop\n  jump\t// out\n    /* \"#utility.yul\":3359:3528   */\ntag_36:\n    /* \"#utility.yul\":3403:3409   */\n  0x00\n    /* \"#utility.yul\":3436:3487   */\n  tag_81\n    /* \"#utility.yul\":3484:3485   */\n  0x00\n    /* \"#utility.yul\":3480:3486   */\n  not\n    /* \"#utility.yul\":3472:3477   */\n  dup5\n    /* \"#utility.yul\":3469:3470   */\n  0x08\n    /* \"#utility.yul\":3465:3478   */\n  mul\n    /* \"#utility.yul\":3436:3487   */\n  tag_35\n  jump\t// in\ntag_81:\n    /* \"#utility.yul\":3432:3488   */\n  not\n    /* \"#utility.yul\":3517:3521   */\n  dup1\n    /* \"#utility.yul\":3511:3515   */\n  dup4\n    /* \"#utility.yul\":3507:3522   */\n  and\n    /* \"#utility.yul\":3497:3522   */\n  swap2\n  pop\n    /* \"#utility.yul\":3410:3528   */\n  pop\n    /* \"#utility.yul\":3359:3528   */\n  swap3\n  swap2\n  pop\n  pop\n  jump\t// out\n    /* \"#utility.yul\":3533:3828   */\ntag_37:\n    /* \"#utility.yul\":3609:3613   */\n  0x00\n    /* \"#utility.yul\":3755:3784   */\n  tag_83\n    /* \"#utility.yul\":3780:3783   */\n  dup4\n    /* \"#utility.yul\":3774:3778   */\n  dup4\n    /* \"#utility.yul\":3755:3784   */\n  tag_36\n  jump\t// in\ntag_83:\n    /* \"#utility.yul\":3747:3784   */\n  swap2\n  pop\n    /* \"#utility.yul\":3817:3820   */\n  dup3\n    /* \"#utility.yul\":3814:3815   */\n  0x02\n    /* \"#utility.yul\":3810:3821   */\n  mul\n    /* \"#utility.yul\":3804:3808   */\n  dup3\n    /* \"#utility.yul\":3801:3822   */\n  or\n    /* \"#utility.yul\":3793:3822   */\n  swap1\n  pop\n    /* \"#utility.yul\":3533:3828   */\n  swap3\n  swap2\n  pop\n  pop\n  jump\t// out\n    /* \"#utility.yul\":3833:5228   */\ntag_7:\n    /* \"#utility.yul\":3950:3987   */\n  tag_85\n    /* \"#utility.yul\":3983:3986   */\n  dup3\n    /* \"#utility.yul\":3950:3987   */\n  tag_18\n  jump\t// in\ntag_85:\n    /* \"#utility.yul\":4052:4070   */\n  0xffffffffffffffff\n    /* \"#utility.yul\":4044:4050   */\n  dup2\n    /* \"#utility.yul\":4041:4071   */\n  gt\n    /* \"#utility.yul\":4038:4094   */\n  iszero\n  tag_86\n  jumpi\n    /* \"#utility.yul\":4074:4092   */\n  tag_87\n  tag_19\n  jump\t// in\ntag_87:\n    /* \"#utility.yul\":4038:4094   */\ntag_86:\n    /* \"#utility.yul\":4118:4156   */\n  tag_88\n    /* \"#utility.yul\":4150:4154   */\n  dup3\n    /* \"#utility.yul\":4144:4155   */\n  sload\n    /* \"#utility.yul\":4118:4156   */\n  tag_21\n  jump\t// in\ntag_88:\n    /* \"#utility.yul\":4203:4270   */\n  tag_89\n    /* \"#utility.yul\":4263:4269   */\n  dup3\n    /* \"#utility.yul\":4255:4261   */\n  dup3\n    /* \"#utility.yul\":4249:4253   */\n  dup6\n    /* \"#utility.yul\":4203:4270   */\n  tag_34\n  jump\t// in\ntag_89:\n    /* \"#utility.yul\":4297:4298   */\n  0x00\n    /* \"#utility.yul\":4321:4325   */\n  0x20\n    /* \"#utility.yul\":4308:4325   */\n  swap1\n  pop\n    /* \"#utility.yul\":4353:4355   */\n  0x1f\n    /* \"#utility.yul\":4345:4351   */\n  dup4\n    /* \"#utility.yul\":4342:4356   */\n  gt\n    /* \"#utility.yul\":4370:4371   */\n  0x01\n    /* \"#utility.yul\":4365:4983   */\n  dup2\n  eq\n  tag_91\n  jumpi\n    /* \"#utility.yul\":5027:5028   */\n  0x00\n    /* \"#utility.yul\":5044:5050   */\n  dup5\n    /* \"#utility.yul\":5041:5118   */\n  iszero\n  tag_92\n  jumpi\n    /* \"#utility.yul\":5093:5102   */\n  dup3\n    /* \"#utility.yul\":5088:5091   */\n  dup8\n    /* \"#utility.yul\":5084:5103   */\n  add\n    /* \"#utility.yul\":5078:5104   */\n  mload\n    /* \"#utility.yul\":5069:5104   */\n  swap1\n  pop\n    /* \"#utility.yul\":5041:5118   */\ntag_92:\n    /* \"#utility.yul\":5144:5211   */\n  tag_93\n    /* \"#utility.yul\":5204:5210   */\n  dup6\n    /* \"#utility.yul\":5197:5202   */\n  dup3\n    /* \"#utility.yul\":5144:5211   */\n  tag_37\n  jump\t// in\ntag_93:\n    /* \"#utility.yul\":5138:5142   */\n  dup7\n    /* \"#utility.yul\":5131:5212   */\n  sstore\n    /* \"#utility.yul\":5000:5222   */\n  pop\n    /* \"#utility.yul\":4335:5222   */\n  jump(tag_90)\n    /* \"#utility.yul\":4365:4983   */\ntag_91:\n    /* \"#utility.yul\":4417:4421   */\n  0x1f\n    /* \"#utility.yul\":4413:4422   */\n  not\n    /* \"#utility.yul\":4405:4411   */\n  dup5\n    /* \"#utility.yul\":4401:4423   */\n  and\n    /* \"#utility.yul\":4451:4488   */\n  tag_94\n    /* \"#utility.yul\":4483:4487   */\n  dup7\n    /* \"#utility.yul\":4451:4488   */\n  tag_22\n  jump\t// in\ntag_94:\n    /* \"#utility.yul\":4510:4511   */\n  0x00\n    /* \"#utility.yul\":4524:4732   */\ntag_95:\n    /* \"#utility.yul\":4538:4545   */\n  dup3\n    /* \"#utility.yul\":4535:4536   */\n  dup2\n    /* \"#utility.yul\":4532:4546   */\n  lt\n    /* \"#utility.yul\":4524:4732   */\n  iszero\n  tag_97\n  jumpi\n    /* \"#utility.yul\":4617:4626   */\n  dup5\n    /* \"#utility.yul\":4612:4615   */\n  dup10\n    /* \"#utility.yul\":4608:4627   */\n  add\n    /* \"#utility.yul\":4602:4628   */\n  mload\n    /* \"#utility.yul\":4594:4600   */\n  dup3\n    /* \"#utility.yul\":4587:4629   */\n  sstore\n    /* \"#utility.yul\":4668:4669   */\n  0x01\n    /* \"#utility.yul\":4660:4666   */\n  dup3\n    /* \"#utility.yul\":4656:4670   */\n  add\n    /* \"#utility.yul\":4646:4670   */\n  swap2\n  pop\n    /* \"#utility.yul\":4715:4717   */\n  0x20\n    /* \"#utility.yul\":4704:4713   */\n  dup6\n    /* \"#utility.yul\":4700:4718   */\n  add\n    /* \"#utility.yul\":4687:4718   */\n  swap5\n  pop\n    /* \"#utility.yul\":4561:4565   */\n  0x20\n    /* \"#utility.yul\":4558:4559   */\n  dup2\n    /* \"#utility.yul\":4554:4566   */\n  add\n    /* \"#utility.yul\":4549:4566   */\n  swap1\n  pop\n    /* \"#utility.yul\":4524:4732   */\n  jump(tag_95)\ntag_97:\n    /* \"#utility.yul\":4760:4766   */\n  dup7\n    /* \"#utility.yul\":4751:4758   */\n  dup4\n    /* \"#utility.yul\":4748:4767   */\n  lt\n    /* \"#utility.yul\":4745:4924   */\n  iszero\n  tag_98\n  jumpi\n    /* \"#utility.yul\":4818:4827   */\n  dup5\n    /* \"#utility.yul\":4813:4816   */\n  dup10\n    /* \"#utility.yul\":4809:4828   */\n  add\n    /* \"#utility.yul\":4803:4829   */\n  mload\n    /* \"#utility.yul\":4861:4909   */\n  tag_99\n    /* \"#utility.yul\":4903:4907   */\n  0x1f\n    /* \"#utility.yul\":4895:4901   */\n  dup10\n    /* \"#utility.yul\":4891:4908   */\n  and\n    /* \"#utility.yul\":4880:4889   */\n  dup3\n    /* \"#utility.yul\":4861:4909   */\n  tag_36\n  jump\t// in\ntag_99:\n    /* \"#utility.yul\":4853:4859   */\n  dup4\n    /* \"#utility.yul\":4846:4910   */\n  sstore\n    /* \"#utility.yul\":4768:4924   */\n  pop\n    /* \"#utility.yul\":4745:4924   */\ntag_98:\n    /* \"#utility.yul\":4970:4971   */\n  0x01\n    /* \"#utility.yul\":4966:4967   */\n  0x02\n    /* \"#utility.yul\":4958:4964   */\n  dup9\n    /* \"#utility.yul\":4954:4968   */\n  mul\n    /* \"#utility.yul\":4950:4972   */\n  add\n    /* \"#utility.yul\":4944:4948   */\n  dup9\n    /* \"#utility.yul\":4937:4973   */\n  sstore\n    /* \"#utility.yul\":4372:4983   */\n  pop\n  pop\n  pop\n    /* \"#utility.yul\":4335:5222   */\ntag_90:\n  pop\n    /* \"#utility.yul\":3925:5228   */\n  pop\n  pop\n  pop\n    /* \"#utility.yul\":3833:5228   */\n  pop\n  pop\n  jump\t// out\n    /* \"contracts/MyToken.sol\":168:2155  contract MyToken is ERC20, Ownable {... */\ntag_15:\n  dataSize(sub_0)\n  dup1\n  dataOffset(sub_0)\n  0x00\n  codecopy\n  0x00\n  return\nstop\n\nsub_0: assembly {\n        /* \"contracts/MyToken.sol\":168:2155  contract MyToken is ERC20, Ownable {... */\n      mstore(0x40, 0x80)\n      jumpi(tag_1, lt(calldatasize, 0x04))\n      shr(0xe0, calldataload(0x00))\n      dup1\n      0x70a08231\n      gt\n      tag_22\n      jumpi\n      dup1\n      0xa9059cbb\n      gt\n      tag_23\n      jumpi\n      dup1\n      0xa9059cbb\n      eq\n      tag_17\n      jumpi\n      dup1\n      0xb3523b0b\n      eq\n      tag_18\n      jumpi\n      dup1\n      0xc71daccb\n      eq\n      tag_19\n      jumpi\n      dup1\n      0xdd62ed3e\n      eq\n      tag_20\n      jumpi\n      dup1\n      0xf2fde38b\n      eq\n      tag_21\n      jumpi\n      jump(tag_1)\n    tag_23:\n      dup1\n      0x70a08231\n      eq\n      tag_12\n      jumpi\n      dup1\n      0x715018a6\n      eq\n      tag_13\n      jumpi\n      dup1\n      0x8da5cb5b\n      eq\n      tag_14\n      jumpi\n      dup1\n      0x95d89b41\n      eq\n      tag_15\n      jumpi\n      dup1\n      0xa457c2d7\n      eq\n      tag_16\n      jumpi\n      jump(tag_1)\n    tag_22:\n      dup1\n      0x313ce567\n      gt\n      tag_24\n      jumpi\n      dup1\n      0x313ce567\n      eq\n      tag_7\n      jumpi\n      dup1\n      0x336989ae\n      eq\n      tag_8\n      jumpi\n      dup1\n      0x36fdde7c\n      eq\n      tag_9\n      jumpi\n      dup1\n      0x39509351\n      eq\n      tag_10\n      jumpi\n      dup1\n      0x6605ff66\n      eq\n      tag_11\n      jumpi\n      jump(tag_1)\n    tag_24:\n      dup1\n      0x06fdde03\n      eq\n      tag_2\n      jumpi\n      dup1\n      0x095ea7b3\n      eq\n      tag_3\n      jumpi\n      dup1\n      0x18160ddd\n      eq\n      tag_4\n      jumpi\n      dup1\n      0x23b872dd\n      eq\n      tag_5\n      jumpi\n      dup1\n      0x2401273c\n      eq\n      tag_6\n      jumpi\n    tag_1:\n      0x00\n      dup1\n      revert\n        /* \"@openzeppelin/contracts/token/ERC20/ERC20.sol\":2158:2256  function name() public view virtual override returns (string memory) {... */\n    tag_2:\n      callvalue\n      dup1\n      iszero\n      tag_25\n      jumpi\n      0x00\n      dup1\n      revert\n    tag_25:\n      pop\n      tag_26\n      tag_27\n      jump\t// in\n    tag_26:\n      mload(0x40)\n      tag_28\n      swap2\n      swap1\n      tag_29\n      jump\t// in\n    tag_28:\n      mload(0x40)\n      dup1\n      swap2\n      sub\n      swap1\n      return\n        /* \"@openzeppelin/contracts/token/ERC20/ERC20.sol\":4444:4641  function approve(address spender, uint256 amount) public virtual override returns (bool) {... */\n    tag_3:\n      callvalue\n      dup1\n      iszero\n      tag_30\n      jumpi\n      0x00\n      dup1\n      revert\n    tag_30:\n      pop\n      tag_31\n      0x04\n      dup1\n      calldatasize\n      sub\n      dup2\n      add\n      swap1\n      tag_32\n      swap2\n      swap1\n      tag_33\n      jump\t// in\n    tag_32:\n      tag_34\n      jump\t// in\n    tag_31:\n      mload(0x40)\n      tag_35\n      swap2\n      swap1\n      tag_36\n      jump\t// in\n    tag_35:\n      mload(0x40)\n      dup1\n      swap2\n      sub\n      swap1\n      return\n        /* \"@openzeppelin/contracts/token/ERC20/ERC20.sol\":3255:3361  function totalSupply() public view virtual override returns (uint256) {... */\n    tag_4:\n      callvalue\n      dup1\n      iszero\n      tag_37\n      jumpi\n      0x00\n      dup1\n      revert\n    tag_37:\n      pop\n      tag_38\n      tag_39\n      jump\t// in\n    tag_38:\n      mload(0x40)\n      tag_40\n      swap2\n      swap1\n      tag_41\n      jump\t// in\n    tag_40:\n      mload(0x40)\n      dup1\n      swap2\n      sub\n      swap1\n      return\n        /* \"@openzeppelin/contracts/token/ERC20/ERC20.sol\":5203:5459  function transferFrom(address from, address to, uint256 amount) public virtual override returns (bool) {... */\n    tag_5:\n      callvalue\n      dup1\n      iszero\n      tag_42\n      jumpi\n      0x00\n      dup1\n      revert\n    tag_42:\n      pop\n      tag_43\n      0x04\n      dup1\n      calldatasize\n      sub\n      dup2\n      add\n      swap1\n      tag_44\n      swap2\n      swap1\n      tag_45\n      jump\t// in\n    tag_44:\n      tag_46\n      jump\t// in\n    tag_43:\n      mload(0x40)\n      tag_47\n      swap2\n      swap1\n      tag_36\n      jump\t// in\n    tag_47:\n      mload(0x40)\n      dup1\n      swap2\n      sub\n      swap1\n      return\n        /* \"contracts/MyToken.sol\":292:368  address public insuranceAddress = 0x2eB004ddE18E064725717A31d74F2027Da5b4fa4 */\n    tag_6:\n      callvalue\n      dup1\n      iszero\n      tag_48\n      jumpi\n      0x00\n      dup1\n      revert\n    tag_48:\n      pop\n      tag_49\n      tag_50\n      jump\t// in\n    tag_49:\n      mload(0x40)\n      tag_51\n      swap2\n      swap1\n      tag_52\n      jump\t// in\n    tag_51:\n      mload(0x40)\n      dup1\n      swap2\n      sub\n      swap1\n      return\n        /* \"@openzeppelin/contracts/token/ERC20/ERC20.sol\":3104:3195  function decimals() public view virtual override returns (uint8) {... */\n    tag_7:\n      callvalue\n      dup1\n      iszero\n      tag_53\n      jumpi\n      0x00\n      dup1\n      revert\n    tag_53:\n      pop\n      tag_54\n      tag_55\n      jump\t// in\n    tag_54:\n      mload(0x40)\n      tag_56\n      swap2\n      swap1\n      tag_57\n      jump\t// in\n    tag_56:\n      mload(0x40)\n      dup1\n      swap2\n      sub\n      swap1\n      return\n        /* \"contracts/MyToken.sol\":209:254  mapping(address => Customer) public customers */\n    tag_8:\n      callvalue\n      dup1\n      iszero\n      tag_58\n      jumpi\n      0x00\n      dup1\n      revert\n    tag_58:\n      pop\n      tag_59\n      0x04\n      dup1\n      calldatasize\n      sub\n      dup2\n      add\n      swap1\n      tag_60\n      swap2\n      swap1\n      tag_61\n      jump\t// in\n    tag_60:\n      tag_62\n      jump\t// in\n    tag_59:\n      mload(0x40)\n      tag_63\n      swap9\n      swap8\n      swap7\n      swap6\n      swap5\n      swap4\n      swap3\n      swap2\n      swap1\n      tag_64\n      jump\t// in\n    tag_63:\n      mload(0x40)\n      dup1\n      swap2\n      sub\n      swap1\n      return\n        /* \"contracts/MyToken.sol\":2035:2153  function checkInsurance() public onlyOwner view returns (Customer memory){... */\n    tag_9:\n      callvalue\n      dup1\n      iszero\n      tag_65\n      jumpi\n      0x00\n      dup1\n      revert\n    tag_65:\n      pop\n      tag_66\n      tag_67\n      jump\t// in\n    tag_66:\n      mload(0x40)\n      tag_68\n      swap2\n      swap1\n      tag_69\n      jump\t// in\n    tag_68:\n      mload(0x40)\n      dup1\n      swap2\n      sub\n      swap1\n      return\n        /* \"@openzeppelin/contracts/token/ERC20/ERC20.sol\":5854:6088  function increaseAllowance(address spender, uint256 addedValue) public virtual returns (bool) {... */\n    tag_10:\n      callvalue\n      dup1\n      iszero\n      tag_70\n      jumpi\n      0x00\n      dup1\n      revert\n    tag_70:\n      pop\n      tag_71\n      0x04\n      dup1\n      calldatasize\n      sub\n      dup2\n      add\n      swap1\n      tag_72\n      swap2\n      swap1\n      tag_33\n      jump\t// in\n    tag_72:\n      tag_73\n      jump\t// in\n    tag_71:\n      mload(0x40)\n      tag_74\n      swap2\n      swap1\n      tag_36\n      jump\t// in\n    tag_74:\n      mload(0x40)\n      dup1\n      swap2\n      sub\n      swap1\n      return\n        /* \"contracts/MyToken.sol\":260:286  uint public totalSales = 0 */\n    tag_11:\n      callvalue\n      dup1\n      iszero\n      tag_75\n      jumpi\n      0x00\n      dup1\n      revert\n    tag_75:\n      pop\n      tag_76\n      tag_77\n      jump\t// in\n    tag_76:\n      mload(0x40)\n      tag_78\n      swap2\n      swap1\n      tag_41\n      jump\t// in\n    tag_78:\n      mload(0x40)\n      dup1\n      swap2\n      sub\n      swap1\n      return\n        /* \"@openzeppelin/contracts/token/ERC20/ERC20.sol\":3419:3544  function balanceOf(address account) public view virtual override returns (uint256) {... */\n    tag_12:\n      callvalue\n      dup1\n      iszero\n      tag_79\n      jumpi\n      0x00\n      dup1\n      revert\n    tag_79:\n      pop\n      tag_80\n      0x04\n      dup1\n      calldatasize\n      sub\n      dup2\n      add\n      swap1\n      tag_81\n      swap2\n      swap1\n      tag_61\n      jump\t// in\n    tag_81:\n      tag_82\n      jump\t// in\n    tag_80:\n      mload(0x40)\n      tag_83\n      swap2\n      swap1\n      tag_41\n      jump\t// in\n    tag_83:\n      mload(0x40)\n      dup1\n      swap2\n      sub\n      swap1\n      return\n        /* \"@openzeppelin/contracts/access/Ownable.sol\":1824:1925  function renounceOwnership() public virtual onlyOwner {... */\n    tag_13:\n      callvalue\n      dup1\n      iszero\n      tag_84\n      jumpi\n      0x00\n      dup1\n      revert\n    tag_84:\n      pop\n      tag_85\n      tag_86\n      jump\t// in\n    tag_85:\n      stop\n        /* \"@openzeppelin/contracts/access/Ownable.sol\":1201:1286  function owner() public view virtual returns (address) {... */\n    tag_14:\n      callvalue\n      dup1\n      iszero\n      tag_87\n      jumpi\n      0x00\n      dup1\n      revert\n    tag_87:\n      pop\n      tag_88\n      tag_89\n      jump\t// in\n    tag_88:\n      mload(0x40)\n      tag_90\n      swap2\n      swap1\n      tag_52\n      jump\t// in\n    tag_90:\n      mload(0x40)\n      dup1\n      swap2\n      sub\n      swap1\n      return\n        /* \"@openzeppelin/contracts/token/ERC20/ERC20.sol\":2369:2471  function symbol() public view virtual override returns (string memory) {... */\n    tag_15:\n      callvalue\n      dup1\n      iszero\n      tag_91\n      jumpi\n      0x00\n      dup1\n      revert\n    tag_91:\n      pop\n      tag_92\n      tag_93\n      jump\t// in\n    tag_92:\n      mload(0x40)\n      tag_94\n      swap2\n      swap1\n      tag_29\n      jump\t// in\n    tag_94:\n      mload(0x40)\n      dup1\n      swap2\n      sub\n      swap1\n      return\n        /* \"@openzeppelin/contracts/token/ERC20/ERC20.sol\":6575:7002  function decreaseAllowance(address spender, uint256 subtractedValue) public virtual returns (bool) {... */\n    tag_16:\n      callvalue\n      dup1\n      iszero\n      tag_95\n      jumpi\n      0x00\n      dup1\n      revert\n    tag_95:\n      pop\n      tag_96\n      0x04\n      dup1\n      calldatasize\n      sub\n      dup2\n      add\n      swap1\n      tag_97\n      swap2\n      swap1\n      tag_33\n      jump\t// in\n    tag_97:\n      tag_98\n      jump\t// in\n    tag_96:\n      mload(0x40)\n      tag_99\n      swap2\n      swap1\n      tag_36\n      jump\t// in\n    tag_99:\n      mload(0x40)\n      dup1\n      swap2\n      sub\n      swap1\n      return\n        /* \"@openzeppelin/contracts/token/ERC20/ERC20.sol\":3740:3929  function transfer(address to, uint256 amount) public virtual override returns (bool) {... */\n    tag_17:\n      callvalue\n      dup1\n      iszero\n      tag_100\n      jumpi\n      0x00\n      dup1\n      revert\n    tag_100:\n      pop\n      tag_101\n      0x04\n      dup1\n      calldatasize\n      sub\n      dup2\n      add\n      swap1\n      tag_102\n      swap2\n      swap1\n      tag_33\n      jump\t// in\n    tag_102:\n      tag_103\n      jump\t// in\n    tag_101:\n      mload(0x40)\n      tag_104\n      swap2\n      swap1\n      tag_36\n      jump\t// in\n    tag_104:\n      mload(0x40)\n      dup1\n      swap2\n      sub\n      swap1\n      return\n        /* \"contracts/MyToken.sol\":1229:1918  function registerCustomer(string memory newcName, uint newcAge, string memory newcGender, string memory newcNationality) public onlyOwner payable{... */\n    tag_18:\n      tag_105\n      0x04\n      dup1\n      calldatasize\n      sub\n      dup2\n      add\n      swap1\n      tag_106\n      swap2\n      swap1\n      tag_107\n      jump\t// in\n    tag_106:\n      tag_108\n      jump\t// in\n    tag_105:\n      stop\n        /* \"contracts/MyToken.sol\":1924:2029  function checkBalance() public onlyOwner view returns (uint){... */\n    tag_19:\n      callvalue\n      dup1\n      iszero\n      tag_109\n      jumpi\n      0x00\n      dup1\n      revert\n    tag_109:\n      pop\n      tag_110\n      tag_111\n      jump\t// in\n    tag_110:\n      mload(0x40)\n      tag_112\n      swap2\n      swap1\n      tag_41\n      jump\t// in\n    tag_112:\n      mload(0x40)\n      dup1\n      swap2\n      sub\n      swap1\n      return\n        /* \"@openzeppelin/contracts/token/ERC20/ERC20.sol\":3987:4136  function allowance(address owner, address spender) public view virtual override returns (uint256) {... */\n    tag_20:\n      callvalue\n      dup1\n      iszero\n      tag_113\n      jumpi\n      0x00\n      dup1\n      revert\n    tag_113:\n      pop\n      tag_114\n      0x04\n      dup1\n      calldatasize\n      sub\n      dup2\n      add\n      swap1\n      tag_115\n      swap2\n      swap1\n      tag_116\n      jump\t// in\n    tag_115:\n      tag_117\n      jump\t// in\n    tag_114:\n      mload(0x40)\n      tag_118\n      swap2\n      swap1\n      tag_41\n      jump\t// in\n    tag_118:\n      mload(0x40)\n      dup1\n      swap2\n      sub\n      swap1\n      return\n        /* \"@openzeppelin/contracts/access/Ownable.sol\":2074:2272  function transferOwnership(address newOwner) public virtual onlyOwner {... */\n    tag_21:\n      callvalue\n      dup1\n      iszero\n      tag_119\n      jumpi\n      0x00\n      dup1\n      revert\n    tag_119:\n      pop\n      tag_120\n      0x04\n      dup1\n      calldatasize\n      sub\n      dup2\n      add\n      swap1\n      tag_121\n      swap2\n      swap1\n      tag_61\n      jump\t// in\n    tag_121:\n      tag_122\n      jump\t// in\n    tag_120:\n      stop\n        /* \"@openzeppelin/contracts/token/ERC20/ERC20.sol\":2158:2256  function name() public view virtual override returns (string memory) {... */\n    tag_27:\n        /* \"@openzeppelin/contracts/token/ERC20/ERC20.sol\":2212:2225  string memory */\n      0x60\n        /* \"@openzeppelin/contracts/token/ERC20/ERC20.sol\":2244:2249  _name */\n      0x03\n        /* \"@openzeppelin/contracts/token/ERC20/ERC20.sol\":2237:2249  return _name */\n      dup1\n      sload\n      tag_124\n      swap1\n      tag_125\n      jump\t// in\n    tag_124:\n      dup1\n      0x1f\n      add\n      0x20\n      dup1\n      swap2\n      div\n      mul\n      0x20\n      add\n      mload(0x40)\n      swap1\n      dup2\n      add\n      0x40\n      mstore\n      dup1\n      swap3\n      swap2\n      swap1\n      dup2\n      dup2\n      mstore\n      0x20\n      add\n      dup3\n      dup1\n      sload\n      tag_126\n      swap1\n      tag_125\n      jump\t// in\n    tag_126:\n      dup1\n      iszero\n      tag_127\n      jumpi\n      dup1\n      0x1f\n      lt\n      tag_128\n      jumpi\n      0x0100\n      dup1\n      dup4\n      sload\n      div\n      mul\n      dup4\n      mstore\n      swap2\n      0x20\n      add\n      swap2\n      jump(tag_127)\n    tag_128:\n      dup3\n      add\n      swap2\n      swap1\n      0x00\n      mstore\n      keccak256(0x00, 0x20)\n      swap1\n    tag_129:\n      dup2\n      sload\n      dup2\n      mstore\n      swap1\n      0x01\n      add\n      swap1\n      0x20\n      add\n      dup1\n      dup4\n      gt\n      tag_129\n      jumpi\n      dup3\n      swap1\n      sub\n      0x1f\n      and\n      dup3\n      add\n      swap2\n    tag_127:\n      pop\n      pop\n      pop\n      pop\n      pop\n      swap1\n      pop\n        /* \"@openzeppelin/contracts/token/ERC20/ERC20.sol\":2158:2256  function name() public view virtual override returns (string memory) {... */\n      swap1\n      jump\t// out\n        /* \"@openzeppelin/contracts/token/ERC20/ERC20.sol\":4444:4641  function approve(address spender, uint256 amount) public virtual override returns (bool) {... */\n    tag_34:\n        /* \"@openzeppelin/contracts/token/ERC20/ERC20.sol\":4527:4531  bool */\n      0x00\n        /* \"@openzeppelin/contracts/token/ERC20/ERC20.sol\":4543:4556  address owner */\n      dup1\n        /* \"@openzeppelin/contracts/token/ERC20/ERC20.sol\":4559:4571  _msgSender() */\n      tag_131\n        /* \"@openzeppelin/contracts/token/ERC20/ERC20.sol\":4559:4569  _msgSender */\n      tag_132\n        /* \"@openzeppelin/contracts/token/ERC20/ERC20.sol\":4559:4571  _msgSender() */\n      jump\t// in\n    tag_131:\n        /* \"@openzeppelin/contracts/token/ERC20/ERC20.sol\":4543:4571  address owner = _msgSender() */\n      swap1\n      pop\n        /* \"@openzeppelin/contracts/token/ERC20/ERC20.sol\":4581:4613  _approve(owner, spender, amount) */\n      tag_133\n        /* \"@openzeppelin/contracts/token/ERC20/ERC20.sol\":4590:4595  owner */\n      dup2\n        /* \"@openzeppelin/contracts/token/ERC20/ERC20.sol\":4597:4604  spender */\n      dup6\n        /* \"@openzeppelin/contracts/token/ERC20/ERC20.sol\":4606:4612  amount */\n      dup6\n        /* \"@openzeppelin/contracts/token/ERC20/ERC20.sol\":4581:4589  _approve */\n      tag_134\n        /* \"@openzeppelin/contracts/token/ERC20/ERC20.sol\":4581:4613  _approve(owner, spender, amount) */\n      jump\t// in\n    tag_133:\n        /* \"@openzeppelin/contracts/token/ERC20/ERC20.sol\":4630:4634  true */\n      0x01\n        /* \"@openzeppelin/contracts/token/ERC20/ERC20.sol\":4623:4634  return true */\n      swap2\n      pop\n      pop\n        /* \"@openzeppelin/contracts/token/ERC20/ERC20.sol\":4444:4641  function approve(address spender, uint256 amount) public virtual override returns (bool) {... */\n      swap3\n      swap2\n      pop\n      pop\n      jump\t// out\n        /* \"@openzeppelin/contracts/token/ERC20/ERC20.sol\":3255:3361  function totalSupply() public view virtual override returns (uint256) {... */\n    tag_39:\n        /* \"@openzeppelin/contracts/token/ERC20/ERC20.sol\":3316:3323  uint256 */\n      0x00\n        /* \"@openzeppelin/contracts/token/ERC20/ERC20.sol\":3342:3354  _totalSupply */\n      sload(0x02)\n        /* \"@openzeppelin/contracts/token/ERC20/ERC20.sol\":3335:3354  return _totalSupply */\n      swap1\n      pop\n        /* \"@openzeppelin/contracts/token/ERC20/ERC20.sol\":3255:3361  function totalSupply() public view virtual override returns (uint256) {... */\n      swap1\n      jump\t// out\n        /* \"@openzeppelin/contracts/token/ERC20/ERC20.sol\":5203:5459  function transferFrom(address from, address to, uint256 amount) public virtual override returns (bool) {... */\n    tag_46:\n        /* \"@openzeppelin/contracts/token/ERC20/ERC20.sol\":5300:5304  bool */\n      0x00\n        /* \"@openzeppelin/contracts/token/ERC20/ERC20.sol\":5316:5331  address spender */\n      dup1\n        /* \"@openzeppelin/contracts/token/ERC20/ERC20.sol\":5334:5346  _msgSender() */\n      tag_137\n        /* \"@openzeppelin/contracts/token/ERC20/ERC20.sol\":5334:5344  _msgSender */\n      tag_132\n        /* \"@openzeppelin/contracts/token/ERC20/ERC20.sol\":5334:5346  _msgSender() */\n      jump\t// in\n    tag_137:\n        /* \"@openzeppelin/contracts/token/ERC20/ERC20.sol\":5316:5346  address spender = _msgSender() */\n      swap1\n      pop\n        /* \"@openzeppelin/contracts/token/ERC20/ERC20.sol\":5356:5394  _spendAllowance(from, spender, amount) */\n      tag_138\n        /* \"@openzeppelin/contracts/token/ERC20/ERC20.sol\":5372:5376  from */\n      dup6\n        /* \"@openzeppelin/contracts/token/ERC20/ERC20.sol\":5378:5385  spender */\n      dup3\n        /* \"@openzeppelin/contracts/token/ERC20/ERC20.sol\":5387:5393  amount */\n      dup6\n        /* \"@openzeppelin/contracts/token/ERC20/ERC20.sol\":5356:5371  _spendAllowance */\n      tag_139\n        /* \"@openzeppelin/contracts/token/ERC20/ERC20.sol\":5356:5394  _spendAllowance(from, spender, amount) */\n      jump\t// in\n    tag_138:\n        /* \"@openzeppelin/contracts/token/ERC20/ERC20.sol\":5404:5431  _transfer(from, to, amount) */\n      tag_140\n        /* \"@openzeppelin/contracts/token/ERC20/ERC20.sol\":5414:5418  from */\n      dup6\n        /* \"@openzeppelin/contracts/token/ERC20/ERC20.sol\":5420:5422  to */\n      dup6\n        /* \"@openzeppelin/contracts/token/ERC20/ERC20.sol\":5424:5430  amount */\n      dup6\n        /* \"@openzeppelin/contracts/token/ERC20/ERC20.sol\":5404:5413  _transfer */\n      tag_141\n        /* \"@openzeppelin/contracts/token/ERC20/ERC20.sol\":5404:5431  _transfer(from, to, amount) */\n      jump\t// in\n    tag_140:\n        /* \"@openzeppelin/contracts/token/ERC20/ERC20.sol\":5448:5452  true */\n      0x01\n        /* \"@openzeppelin/contracts/token/ERC20/ERC20.sol\":5441:5452  return true */\n      swap2\n      pop\n      pop\n        /* \"@openzeppelin/contracts/token/ERC20/ERC20.sol\":5203:5459  function transferFrom(address from, address to, uint256 amount) public virtual override returns (bool) {... */\n      swap4\n      swap3\n      pop\n      pop\n      pop\n      jump\t// out\n        /* \"contracts/MyToken.sol\":292:368  address public insuranceAddress = 0x2eB004ddE18E064725717A31d74F2027Da5b4fa4 */\n    tag_50:\n      0x08\n      0x00\n      swap1\n      sload\n      swap1\n      0x0100\n      exp\n      swap1\n      div\n      0xffffffffffffffffffffffffffffffffffffffff\n      and\n      dup2\n      jump\t// out\n        /* \"@openzeppelin/contracts/token/ERC20/ERC20.sol\":3104:3195  function decimals() public view virtual override returns (uint8) {... */\n    tag_55:\n        /* \"@openzeppelin/contracts/token/ERC20/ERC20.sol\":3162:3167  uint8 */\n      0x00\n        /* \"@openzeppelin/contracts/token/ERC20/ERC20.sol\":3186:3188  18 */\n      0x12\n        /* \"@openzeppelin/contracts/token/ERC20/ERC20.sol\":3179:3188  return 18 */\n      swap1\n      pop\n        /* \"@openzeppelin/contracts/token/ERC20/ERC20.sol\":3104:3195  function decimals() public view virtual override returns (uint8) {... */\n      swap1\n      jump\t// out\n        /* \"contracts/MyToken.sol\":209:254  mapping(address => Customer) public customers */\n    tag_62:\n      mstore(0x20, 0x06)\n      dup1\n      0x00\n      mstore\n      keccak256(0x00, 0x40)\n      0x00\n      swap2\n      pop\n      swap1\n      pop\n      dup1\n      0x00\n      add\n      0x00\n      swap1\n      sload\n      swap1\n      0x0100\n      exp\n      swap1\n      div\n      0xffffffffffffffffffffffffffffffffffffffff\n      and\n      swap1\n      dup1\n      0x01\n      add\n      dup1\n      sload\n      tag_143\n      swap1\n      tag_125\n      jump\t// in\n    tag_143:\n      dup1\n      0x1f\n      add\n      0x20\n      dup1\n      swap2\n      div\n      mul\n      0x20\n      add\n      mload(0x40)\n      swap1\n      dup2\n      add\n      0x40\n      mstore\n      dup1\n      swap3\n      swap2\n      swap1\n      dup2\n      dup2\n      mstore\n      0x20\n      add\n      dup3\n      dup1\n      sload\n      tag_144\n      swap1\n      tag_125\n      jump\t// in\n    tag_144:\n      dup1\n      iszero\n      tag_145\n      jumpi\n      dup1\n      0x1f\n      lt\n      tag_146\n      jumpi\n      0x0100\n      dup1\n      dup4\n      sload\n      div\n      mul\n      dup4\n      mstore\n      swap2\n      0x20\n      add\n      swap2\n      jump(tag_145)\n    tag_146:\n      dup3\n      add\n      swap2\n      swap1\n      0x00\n      mstore\n      keccak256(0x00, 0x20)\n      swap1\n    tag_147:\n      dup2\n      sload\n      dup2\n      mstore\n      swap1\n      0x01\n      add\n      swap1\n      0x20\n      add\n      dup1\n      dup4\n      gt\n      tag_147\n      jumpi\n      dup3\n      swap1\n      sub\n      0x1f\n      and\n      dup3\n      add\n      swap2\n    tag_145:\n      pop\n      pop\n      pop\n      pop\n      pop\n      swap1\n      dup1\n      0x02\n      add\n      sload\n      swap1\n      dup1\n      0x03\n      add\n      dup1\n      sload\n      tag_148\n      swap1\n      tag_125\n      jump\t// in\n    tag_148:\n      dup1\n      0x1f\n      add\n      0x20\n      dup1\n      swap2\n      div\n      mul\n      0x20\n      add\n      mload(0x40)\n      swap1\n      dup2\n      add\n      0x40\n      mstore\n      dup1\n      swap3\n      swap2\n      swap1\n      dup2\n      dup2\n      mstore\n      0x20\n      add\n      dup3\n      dup1\n      sload\n      tag_149\n      swap1\n      tag_125\n      jump\t// in\n    tag_149:\n      dup1\n      iszero\n      tag_150\n      jumpi\n      dup1\n      0x1f\n      lt\n      tag_151\n      jumpi\n      0x0100\n      dup1\n      dup4\n      sload\n      div\n      mul\n      dup4\n      mstore\n      swap2\n      0x20\n      add\n      swap2\n      jump(tag_150)\n    tag_151:\n      dup3\n      add\n      swap2\n      swap1\n      0x00\n      mstore\n      keccak256(0x00, 0x20)\n      swap1\n    tag_152:\n      dup2\n      sload\n      dup2\n      mstore\n      swap1\n      0x01\n      add\n      swap1\n      0x20\n      add\n      dup1\n      dup4\n      gt\n      tag_152\n      jumpi\n      dup3\n      swap1\n      sub\n      0x1f\n      and\n      dup3\n      add\n      swap2\n    tag_150:\n      pop\n      pop\n      pop\n      pop\n      pop\n      swap1\n      dup1\n      0x04\n      add\n      dup1\n      sload\n      tag_153\n      swap1\n      tag_125\n      jump\t// in\n    tag_153:\n      dup1\n      0x1f\n      add\n      0x20\n      dup1\n      swap2\n      div\n      mul\n      0x20\n      add\n      mload(0x40)\n      swap1\n      dup2\n      add\n      0x40\n      mstore\n      dup1\n      swap3\n      swap2\n      swap1\n      dup2\n      dup2\n      mstore\n      0x20\n      add\n      dup3\n      dup1\n      sload\n      tag_154\n      swap1\n      tag_125\n      jump\t// in\n    tag_154:\n      dup1\n      iszero\n      tag_155\n      jumpi\n      dup1\n      0x1f\n      lt\n      tag_156\n      jumpi\n      0x0100\n      dup1\n      dup4\n      sload\n      div\n      mul\n      dup4\n      mstore\n      swap2\n      0x20\n      add\n      swap2\n      jump(tag_155)\n    tag_156:\n      dup3\n      add\n      swap2\n      swap1\n      0x00\n      mstore\n      keccak256(0x00, 0x20)\n      swap1\n    tag_157:\n      dup2\n      sload\n      dup2\n      mstore\n      swap1\n      0x01\n      add\n      swap1\n      0x20\n      add\n      dup1\n      dup4\n      gt\n      tag_157\n      jumpi\n      dup3\n      swap1\n      sub\n      0x1f\n      and\n      dup3\n      add\n      swap2\n    tag_155:\n      pop\n      pop\n      pop\n      pop\n      pop\n      swap1\n      dup1\n      0x05\n      add\n      sload\n      swap1\n      dup1\n      0x06\n      add\n      sload\n      swap1\n      dup1\n      0x07\n      add\n      sload\n      swap1\n      pop\n      dup9\n      jump\t// out\n        /* \"contracts/MyToken.sol\":2035:2153  function checkInsurance() public onlyOwner view returns (Customer memory){... */\n    tag_67:\n        /* \"contracts/MyToken.sol\":2092:2107  Customer memory */\n      tag_158\n      tag_159\n      jump\t// in\n    tag_158:\n        /* \"@openzeppelin/contracts/access/Ownable.sol\":1094:1107  _checkOwner() */\n      tag_161\n        /* \"@openzeppelin/contracts/access/Ownable.sol\":1094:1105  _checkOwner */\n      tag_162\n        /* \"@openzeppelin/contracts/access/Ownable.sol\":1094:1107  _checkOwner() */\n      jump\t// in\n    tag_161:\n        /* \"contracts/MyToken.sol\":2125:2134  customers */\n      0x06\n        /* \"contracts/MyToken.sol\":2125:2146  customers[msg.sender] */\n      0x00\n        /* \"contracts/MyToken.sol\":2135:2145  msg.sender */\n      caller\n        /* \"contracts/MyToken.sol\":2125:2146  customers[msg.sender] */\n      0xffffffffffffffffffffffffffffffffffffffff\n      and\n      0xffffffffffffffffffffffffffffffffffffffff\n      and\n      dup2\n      mstore\n      0x20\n      add\n      swap1\n      dup2\n      mstore\n      0x20\n      add\n      0x00\n      keccak256\n        /* \"contracts/MyToken.sol\":2118:2146  return customers[msg.sender] */\n      mload(0x40)\n      dup1\n      0x0100\n      add\n      0x40\n      mstore\n      swap1\n      dup2\n      0x00\n      dup3\n      add\n      0x00\n      swap1\n      sload\n      swap1\n      0x0100\n      exp\n      swap1\n      div\n      0xffffffffffffffffffffffffffffffffffffffff\n      and\n      0xffffffffffffffffffffffffffffffffffffffff\n      and\n      0xffffffffffffffffffffffffffffffffffffffff\n      and\n      dup2\n      mstore\n      0x20\n      add\n      0x01\n      dup3\n      add\n      dup1\n      sload\n      tag_164\n      swap1\n      tag_125\n      jump\t// in\n    tag_164:\n      dup1\n      0x1f\n      add\n      0x20\n      dup1\n      swap2\n      div\n      mul\n      0x20\n      add\n      mload(0x40)\n      swap1\n      dup2\n      add\n      0x40\n      mstore\n      dup1\n      swap3\n      swap2\n      swap1\n      dup2\n      dup2\n      mstore\n      0x20\n      add\n      dup3\n      dup1\n      sload\n      tag_165\n      swap1\n      tag_125\n      jump\t// in\n    tag_165:\n      dup1\n      iszero\n      tag_166\n      jumpi\n      dup1\n      0x1f\n      lt\n      tag_167\n      jumpi\n      0x0100\n      dup1\n      dup4\n      sload\n      div\n      mul\n      dup4\n      mstore\n      swap2\n      0x20\n      add\n      swap2\n      jump(tag_166)\n    tag_167:\n      dup3\n      add\n      swap2\n      swap1\n      0x00\n      mstore\n      keccak256(0x00, 0x20)\n      swap1\n    tag_168:\n      dup2\n      sload\n      dup2\n      mstore\n      swap1\n      0x01\n      add\n      swap1\n      0x20\n      add\n      dup1\n      dup4\n      gt\n      tag_168\n      jumpi\n      dup3\n      swap1\n      sub\n      0x1f\n      and\n      dup3\n      add\n      swap2\n    tag_166:\n      pop\n      pop\n      pop\n      pop\n      pop\n      dup2\n      mstore\n      0x20\n      add\n      0x02\n      dup3\n      add\n      sload\n      dup2\n      mstore\n      0x20\n      add\n      0x03\n      dup3\n      add\n      dup1\n      sload\n      tag_169\n      swap1\n      tag_125\n      jump\t// in\n    tag_169:\n      dup1\n      0x1f\n      add\n      0x20\n      dup1\n      swap2\n      div\n      mul\n      0x20\n      add\n      mload(0x40)\n      swap1\n      dup2\n      add\n      0x40\n      mstore\n      dup1\n      swap3\n      swap2\n      swap1\n      dup2\n      dup2\n      mstore\n      0x20\n      add\n      dup3\n      dup1\n      sload\n      tag_170\n      swap1\n      tag_125\n      jump\t// in\n    tag_170:\n      dup1\n      iszero\n      tag_171\n      jumpi\n      dup1\n      0x1f\n      lt\n      tag_172\n      jumpi\n      0x0100\n      dup1\n      dup4\n      sload\n      div\n      mul\n      dup4\n      mstore\n      swap2\n      0x20\n      add\n      swap2\n      jump(tag_171)\n    tag_172:\n      dup3\n      add\n      swap2\n      swap1\n      0x00\n      mstore\n      keccak256(0x00, 0x20)\n      swap1\n    tag_173:\n      dup2\n      sload\n      dup2\n      mstore\n      swap1\n      0x01\n      add\n      swap1\n      0x20\n      add\n      dup1\n      dup4\n      gt\n      tag_173\n      jumpi\n      dup3\n      swap1\n      sub\n      0x1f\n      and\n      dup3\n      add\n      swap2\n    tag_171:\n      pop\n      pop\n      pop\n      pop\n      pop\n      dup2\n      mstore\n      0x20\n      add\n      0x04\n      dup3\n      add\n      dup1\n      sload\n      tag_174\n      swap1\n      tag_125\n      jump\t// in\n    tag_174:\n      dup1\n      0x1f\n      add\n      0x20\n      dup1\n      swap2\n      div\n      mul\n      0x20\n      add\n      mload(0x40)\n      swap1\n      dup2\n      add\n      0x40\n      mstore\n      dup1\n      swap3\n      swap2\n      swap1\n      dup2\n      dup2\n      mstore\n      0x20\n      add\n      dup3\n      dup1\n      sload\n      tag_175\n      swap1\n      tag_125\n      jump\t// in\n    tag_175:\n      dup1\n      iszero\n      tag_176\n      jumpi\n      dup1\n      0x1f\n      lt\n      tag_177\n      jumpi\n      0x0100\n      dup1\n      dup4\n      sload\n      div\n      mul\n      dup4\n      mstore\n      swap2\n      0x20\n      add\n      swap2\n      jump(tag_176)\n    tag_177:\n      dup3\n      add\n      swap2\n      swap1\n      0x00\n      mstore\n      keccak256(0x00, 0x20)\n      swap1\n    tag_178:\n      dup2\n      sload\n      dup2\n      mstore\n      swap1\n      0x01\n      add\n      swap1\n      0x20\n      add\n      dup1\n      dup4\n      gt\n      tag_178\n      jumpi\n      dup3\n      swap1\n      sub\n      0x1f\n      and\n      dup3\n      add\n      swap2\n    tag_176:\n      pop\n      pop\n      pop\n      pop\n      pop\n      dup2\n      mstore\n      0x20\n      add\n      0x05\n      dup3\n      add\n      sload\n      dup2\n      mstore\n      0x20\n      add\n      0x06\n      dup3\n      add\n      sload\n      dup2\n      mstore\n      0x20\n      add\n      0x07\n      dup3\n      add\n      sload\n      dup2\n      mstore\n      pop\n      pop\n      swap1\n      pop\n        /* \"contracts/MyToken.sol\":2035:2153  function checkInsurance() public onlyOwner view returns (Customer memory){... */\n      swap1\n      jump\t// out\n        /* \"@openzeppelin/contracts/token/ERC20/ERC20.sol\":5854:6088  function increaseAllowance(address spender, uint256 addedValue) public virtual returns (bool) {... */\n    tag_73:\n        /* \"@openzeppelin/contracts/token/ERC20/ERC20.sol\":5942:5946  bool */\n      0x00\n        /* \"@openzeppelin/contracts/token/ERC20/ERC20.sol\":5958:5971  address owner */\n      dup1\n        /* \"@openzeppelin/contracts/token/ERC20/ERC20.sol\":5974:5986  _msgSender() */\n      tag_180\n        /* \"@openzeppelin/contracts/token/ERC20/ERC20.sol\":5974:5984  _msgSender */\n      tag_132\n        /* \"@openzeppelin/contracts/token/ERC20/ERC20.sol\":5974:5986  _msgSender() */\n      jump\t// in\n    tag_180:\n        /* \"@openzeppelin/contracts/token/ERC20/ERC20.sol\":5958:5986  address owner = _msgSender() */\n      swap1\n      pop\n        /* \"@openzeppelin/contracts/token/ERC20/ERC20.sol\":5996:6060  _approve(owner, spender, allowance(owner, spender) + addedValue) */\n      tag_181\n        /* \"@openzeppelin/contracts/token/ERC20/ERC20.sol\":6005:6010  owner */\n      dup2\n        /* \"@openzeppelin/contracts/token/ERC20/ERC20.sol\":6012:6019  spender */\n      dup6\n        /* \"@openzeppelin/contracts/token/ERC20/ERC20.sol\":6049:6059  addedValue */\n      dup6\n        /* \"@openzeppelin/contracts/token/ERC20/ERC20.sol\":6021:6046  allowance(owner, spender) */\n      tag_182\n        /* \"@openzeppelin/contracts/token/ERC20/ERC20.sol\":6031:6036  owner */\n      dup6\n        /* \"@openzeppelin/contracts/token/ERC20/ERC20.sol\":6038:6045  spender */\n      dup10\n        /* \"@openzeppelin/contracts/token/ERC20/ERC20.sol\":6021:6030  allowance */\n      tag_117\n        /* \"@openzeppelin/contracts/token/ERC20/ERC20.sol\":6021:6046  allowance(owner, spender) */\n      jump\t// in\n    tag_182:\n        /* \"@openzeppelin/contracts/token/ERC20/ERC20.sol\":6021:6059  allowance(owner, spender) + addedValue */\n      tag_183\n      swap2\n      swap1\n      tag_184\n      jump\t// in\n    tag_183:\n        /* \"@openzeppelin/contracts/token/ERC20/ERC20.sol\":5996:6004  _approve */\n      tag_134\n        /* \"@openzeppelin/contracts/token/ERC20/ERC20.sol\":5996:6060  _approve(owner, spender, allowance(owner, spender) + addedValue) */\n      jump\t// in\n    tag_181:\n        /* \"@openzeppelin/contracts/token/ERC20/ERC20.sol\":6077:6081  true */\n      0x01\n        /* \"@openzeppelin/contracts/token/ERC20/ERC20.sol\":6070:6081  return true */\n      swap2\n      pop\n      pop\n        /* \"@openzeppelin/contracts/token/ERC20/ERC20.sol\":5854:6088  function increaseAllowance(address spender, uint256 addedValue) public virtual returns (bool) {... */\n      swap3\n      swap2\n      pop\n      pop\n      jump\t// out\n        /* \"contracts/MyToken.sol\":260:286  uint public totalSales = 0 */\n    tag_77:\n      sload(0x07)\n      dup2\n      jump\t// out\n        /* \"@openzeppelin/contracts/token/ERC20/ERC20.sol\":3419:3544  function balanceOf(address account) public view virtual override returns (uint256) {... */\n    tag_82:\n        /* \"@openzeppelin/contracts/token/ERC20/ERC20.sol\":3493:3500  uint256 */\n      0x00\n        /* \"@openzeppelin/contracts/token/ERC20/ERC20.sol\":3519:3528  _balances */\n      dup1\n        /* \"@openzeppelin/contracts/token/ERC20/ERC20.sol\":3519:3537  _balances[account] */\n      0x00\n        /* \"@openzeppelin/contracts/token/ERC20/ERC20.sol\":3529:3536  account */\n      dup4\n        /* \"@openzeppelin/contracts/token/ERC20/ERC20.sol\":3519:3537  _balances[account] */\n      0xffffffffffffffffffffffffffffffffffffffff\n      and\n      0xffffffffffffffffffffffffffffffffffffffff\n      and\n      dup2\n      mstore\n      0x20\n      add\n      swap1\n      dup2\n      mstore\n      0x20\n      add\n      0x00\n      keccak256\n      sload\n        /* \"@openzeppelin/contracts/token/ERC20/ERC20.sol\":3512:3537  return _balances[account] */\n      swap1\n      pop\n        /* \"@openzeppelin/contracts/token/ERC20/ERC20.sol\":3419:3544  function balanceOf(address account) public view virtual override returns (uint256) {... */\n      swap2\n      swap1\n      pop\n      jump\t// out\n        /* \"@openzeppelin/contracts/access/Ownable.sol\":1824:1925  function renounceOwnership() public virtual onlyOwner {... */\n    tag_86:\n        /* \"@openzeppelin/contracts/access/Ownable.sol\":1094:1107  _checkOwner() */\n      tag_187\n        /* \"@openzeppelin/contracts/access/Ownable.sol\":1094:1105  _checkOwner */\n      tag_162\n        /* \"@openzeppelin/contracts/access/Ownable.sol\":1094:1107  _checkOwner() */\n      jump\t// in\n    tag_187:\n        /* \"@openzeppelin/contracts/access/Ownable.sol\":1888:1918  _transferOwnership(address(0)) */\n      tag_189\n        /* \"@openzeppelin/contracts/access/Ownable.sol\":1915:1916  0 */\n      0x00\n        /* \"@openzeppelin/contracts/access/Ownable.sol\":1888:1906  _transferOwnership */\n      tag_190\n        /* \"@openzeppelin/contracts/access/Ownable.sol\":1888:1918  _transferOwnership(address(0)) */\n      jump\t// in\n    tag_189:\n        /* \"@openzeppelin/contracts/access/Ownable.sol\":1824:1925  function renounceOwnership() public virtual onlyOwner {... */\n      jump\t// out\n        /* \"@openzeppelin/contracts/access/Ownable.sol\":1201:1286  function owner() public view virtual returns (address) {... */\n    tag_89:\n        /* \"@openzeppelin/contracts/access/Ownable.sol\":1247:1254  address */\n      0x00\n        /* \"@openzeppelin/contracts/access/Ownable.sol\":1273:1279  _owner */\n      0x05\n      0x00\n      swap1\n      sload\n      swap1\n      0x0100\n      exp\n      swap1\n      div\n      0xffffffffffffffffffffffffffffffffffffffff\n      and\n        /* \"@openzeppelin/contracts/access/Ownable.sol\":1266:1279  return _owner */\n      swap1\n      pop\n        /* \"@openzeppelin/contracts/access/Ownable.sol\":1201:1286  function owner() public view virtual returns (address) {... */\n      swap1\n      jump\t// out\n        /* \"@openzeppelin/contracts/token/ERC20/ERC20.sol\":2369:2471  function symbol() public view virtual override returns (string memory) {... */\n    tag_93:\n        /* \"@openzeppelin/contracts/token/ERC20/ERC20.sol\":2425:2438  string memory */\n      0x60\n        /* \"@openzeppelin/contracts/token/ERC20/ERC20.sol\":2457:2464  _symbol */\n      0x04\n        /* \"@openzeppelin/contracts/token/ERC20/ERC20.sol\":2450:2464  return _symbol */\n      dup1\n      sload\n      tag_193\n      swap1\n      tag_125\n      jump\t// in\n    tag_193:\n      dup1\n      0x1f\n      add\n      0x20\n      dup1\n      swap2\n      div\n      mul\n      0x20\n      add\n      mload(0x40)\n      swap1\n      dup2\n      add\n      0x40\n      mstore\n      dup1\n      swap3\n      swap2\n      swap1\n      dup2\n      dup2\n      mstore\n      0x20\n      add\n      dup3\n      dup1\n      sload\n      tag_194\n      swap1\n      tag_125\n      jump\t// in\n    tag_194:\n      dup1\n      iszero\n      tag_195\n      jumpi\n      dup1\n      0x1f\n      lt\n      tag_196\n      jumpi\n      0x0100\n      dup1\n      dup4\n      sload\n      div\n      mul\n      dup4\n      mstore\n      swap2\n      0x20\n      add\n      swap2\n      jump(tag_195)\n    tag_196:\n      dup3\n      add\n      swap2\n      swap1\n      0x00\n      mstore\n      keccak256(0x00, 0x20)\n      swap1\n    tag_197:\n      dup2\n      sload\n      dup2\n      mstore\n      swap1\n      0x01\n      add\n      swap1\n      0x20\n      add\n      dup1\n      dup4\n      gt\n      tag_197\n      jumpi\n      dup3\n      swap1\n      sub\n      0x1f\n      and\n      dup3\n      add\n      swap2\n    tag_195:\n      pop\n      pop\n      pop\n      pop\n      pop\n      swap1\n      pop\n        /* \"@openzeppelin/contracts/token/ERC20/ERC20.sol\":2369:2471  function symbol() public view virtual override returns (string memory) {... */\n      swap1\n      jump\t// out\n        /* \"@openzeppelin/contracts/token/ERC20/ERC20.sol\":6575:7002  function decreaseAllowance(address spender, uint256 subtractedValue) public virtual returns (bool) {... */\n    tag_98:\n        /* \"@openzeppelin/contracts/token/ERC20/ERC20.sol\":6668:6672  bool */\n      0x00\n        /* \"@openzeppelin/contracts/token/ERC20/ERC20.sol\":6684:6697  address owner */\n      dup1\n        /* \"@openzeppelin/contracts/token/ERC20/ERC20.sol\":6700:6712  _msgSender() */\n      tag_199\n        /* \"@openzeppelin/contracts/token/ERC20/ERC20.sol\":6700:6710  _msgSender */\n      tag_132\n        /* \"@openzeppelin/contracts/token/ERC20/ERC20.sol\":6700:6712  _msgSender() */\n      jump\t// in\n    tag_199:\n        /* \"@openzeppelin/contracts/token/ERC20/ERC20.sol\":6684:6712  address owner = _msgSender() */\n      swap1\n      pop\n        /* \"@openzeppelin/contracts/token/ERC20/ERC20.sol\":6722:6746  uint256 currentAllowance */\n      0x00\n        /* \"@openzeppelin/contracts/token/ERC20/ERC20.sol\":6749:6774  allowance(owner, spender) */\n      tag_200\n        /* \"@openzeppelin/contracts/token/ERC20/ERC20.sol\":6759:6764  owner */\n      dup3\n        /* \"@openzeppelin/contracts/token/ERC20/ERC20.sol\":6766:6773  spender */\n      dup7\n        /* \"@openzeppelin/contracts/token/ERC20/ERC20.sol\":6749:6758  allowance */\n      tag_117\n        /* \"@openzeppelin/contracts/token/ERC20/ERC20.sol\":6749:6774  allowance(owner, spender) */\n      jump\t// in\n    tag_200:\n        /* \"@openzeppelin/contracts/token/ERC20/ERC20.sol\":6722:6774  uint256 currentAllowance = allowance(owner, spender) */\n      swap1\n      pop\n        /* \"@openzeppelin/contracts/token/ERC20/ERC20.sol\":6812:6827  subtractedValue */\n      dup4\n        /* \"@openzeppelin/contracts/token/ERC20/ERC20.sol\":6792:6808  currentAllowance */\n      dup2\n        /* \"@openzeppelin/contracts/token/ERC20/ERC20.sol\":6792:6827  currentAllowance >= subtractedValue */\n      lt\n      iszero\n        /* \"@openzeppelin/contracts/token/ERC20/ERC20.sol\":6784:6869  require(currentAllowance >= subtractedValue, \"ERC20: decreased allowance below zero\") */\n      tag_201\n      jumpi\n      mload(0x40)\n      0x08c379a000000000000000000000000000000000000000000000000000000000\n      dup2\n      mstore\n      0x04\n      add\n      tag_202\n      swap1\n      tag_203\n      jump\t// in\n    tag_202:\n      mload(0x40)\n      dup1\n      swap2\n      sub\n      swap1\n      revert\n    tag_201:\n        /* \"@openzeppelin/contracts/token/ERC20/ERC20.sol\":6903:6963  _approve(owner, spender, currentAllowance - subtractedValue) */\n      tag_204\n        /* \"@openzeppelin/contracts/token/ERC20/ERC20.sol\":6912:6917  owner */\n      dup3\n        /* \"@openzeppelin/contracts/token/ERC20/ERC20.sol\":6919:6926  spender */\n      dup7\n        /* \"@openzeppelin/contracts/token/ERC20/ERC20.sol\":6947:6962  subtractedValue */\n      dup7\n        /* \"@openzeppelin/contracts/token/ERC20/ERC20.sol\":6928:6944  currentAllowance */\n      dup5\n        /* \"@openzeppelin/contracts/token/ERC20/ERC20.sol\":6928:6962  currentAllowance - subtractedValue */\n      sub\n        /* \"@openzeppelin/contracts/token/ERC20/ERC20.sol\":6903:6911  _approve */\n      tag_134\n        /* \"@openzeppelin/contracts/token/ERC20/ERC20.sol\":6903:6963  _approve(owner, spender, currentAllowance - subtractedValue) */\n      jump\t// in\n    tag_204:\n        /* \"@openzeppelin/contracts/token/ERC20/ERC20.sol\":6991:6995  true */\n      0x01\n        /* \"@openzeppelin/contracts/token/ERC20/ERC20.sol\":6984:6995  return true */\n      swap3\n      pop\n      pop\n      pop\n        /* \"@openzeppelin/contracts/token/ERC20/ERC20.sol\":6575:7002  function decreaseAllowance(address spender, uint256 subtractedValue) public virtual returns (bool) {... */\n      swap3\n      swap2\n      pop\n      pop\n      jump\t// out\n        /* \"@openzeppelin/contracts/token/ERC20/ERC20.sol\":3740:3929  function transfer(address to, uint256 amount) public virtual override returns (bool) {... */\n    tag_103:\n        /* \"@openzeppelin/contracts/token/ERC20/ERC20.sol\":3819:3823  bool */\n      0x00\n        /* \"@openzeppelin/contracts/token/ERC20/ERC20.sol\":3835:3848  address owner */\n      dup1\n        /* \"@openzeppelin/contracts/token/ERC20/ERC20.sol\":3851:3863  _msgSender() */\n      tag_206\n        /* \"@openzeppelin/contracts/token/ERC20/ERC20.sol\":3851:3861  _msgSender */\n      tag_132\n        /* \"@openzeppelin/contracts/token/ERC20/ERC20.sol\":3851:3863  _msgSender() */\n      jump\t// in\n    tag_206:\n        /* \"@openzeppelin/contracts/token/ERC20/ERC20.sol\":3835:3863  address owner = _msgSender() */\n      swap1\n      pop\n        /* \"@openzeppelin/contracts/token/ERC20/ERC20.sol\":3873:3901  _transfer(owner, to, amount) */\n      tag_207\n        /* \"@openzeppelin/contracts/token/ERC20/ERC20.sol\":3883:3888  owner */\n      dup2\n        /* \"@openzeppelin/contracts/token/ERC20/ERC20.sol\":3890:3892  to */\n      dup6\n        /* \"@openzeppelin/contracts/token/ERC20/ERC20.sol\":3894:3900  amount */\n      dup6\n        /* \"@openzeppelin/contracts/token/ERC20/ERC20.sol\":3873:3882  _transfer */\n      tag_141\n        /* \"@openzeppelin/contracts/token/ERC20/ERC20.sol\":3873:3901  _transfer(owner, to, amount) */\n      jump\t// in\n    tag_207:\n        /* \"@openzeppelin/contracts/token/ERC20/ERC20.sol\":3918:3922  true */\n      0x01\n        /* \"@openzeppelin/contracts/token/ERC20/ERC20.sol\":3911:3922  return true */\n      swap2\n      pop\n      pop\n        /* \"@openzeppelin/contracts/token/ERC20/ERC20.sol\":3740:3929  function transfer(address to, uint256 amount) public virtual override returns (bool) {... */\n      swap3\n      swap2\n      pop\n      pop\n      jump\t// out\n        /* \"contracts/MyToken.sol\":1229:1918  function registerCustomer(string memory newcName, uint newcAge, string memory newcGender, string memory newcNationality) public onlyOwner payable{... */\n    tag_108:\n        /* \"@openzeppelin/contracts/access/Ownable.sol\":1094:1107  _checkOwner() */\n      tag_209\n        /* \"@openzeppelin/contracts/access/Ownable.sol\":1094:1105  _checkOwner */\n      tag_162\n        /* \"@openzeppelin/contracts/access/Ownable.sol\":1094:1107  _checkOwner() */\n      jump\t// in\n    tag_209:\n        /* \"contracts/MyToken.sol\":1403:1405  18 */\n      0x12\n        /* \"contracts/MyToken.sol\":1392:1399  newcAge */\n      dup4\n        /* \"contracts/MyToken.sol\":1392:1405  newcAge >= 18 */\n      lt\n      iszero\n        /* \"contracts/MyToken.sol\":1384:1452  require(newcAge >= 18, \"You are not eligable to have an insurance.\") */\n      tag_211\n      jumpi\n      mload(0x40)\n      0x08c379a000000000000000000000000000000000000000000000000000000000\n      dup2\n      mstore\n      0x04\n      add\n      tag_212\n      swap1\n      tag_213\n      jump\t// in\n    tag_212:\n      mload(0x40)\n      dup1\n      swap2\n      sub\n      swap1\n      revert\n    tag_211:\n        /* \"contracts/MyToken.sol\":1495:1496  0 */\n      0x00\n        /* \"contracts/MyToken.sol\":1470:1491  balanceOf(msg.sender) */\n      tag_214\n        /* \"contracts/MyToken.sol\":1480:1490  msg.sender */\n      caller\n        /* \"contracts/MyToken.sol\":1470:1479  balanceOf */\n      tag_82\n        /* \"contracts/MyToken.sol\":1470:1491  balanceOf(msg.sender) */\n      jump\t// in\n    tag_214:\n        /* \"contracts/MyToken.sol\":1470:1496  balanceOf(msg.sender) >= 0 */\n      lt\n      iszero\n        /* \"contracts/MyToken.sol\":1462:1531  require(balanceOf(msg.sender) >= 0, \"You don't have enough balance.\") */\n      tag_215\n      jumpi\n      mload(0x40)\n      0x08c379a000000000000000000000000000000000000000000000000000000000\n      dup2\n      mstore\n      0x04\n      add\n      tag_216\n      swap1\n      tag_217\n      jump\t// in\n    tag_216:\n      mload(0x40)\n      dup1\n      swap2\n      sub\n      swap1\n      revert\n    tag_215:\n        /* \"contracts/MyToken.sol\":1589:1590  0 */\n      0x00\n        /* \"contracts/MyToken.sol\":1549:1558  customers */\n      0x06\n        /* \"contracts/MyToken.sol\":1549:1570  customers[msg.sender] */\n      0x00\n        /* \"contracts/MyToken.sol\":1559:1569  msg.sender */\n      caller\n        /* \"contracts/MyToken.sol\":1549:1570  customers[msg.sender] */\n      0xffffffffffffffffffffffffffffffffffffffff\n      and\n      0xffffffffffffffffffffffffffffffffffffffff\n      and\n      dup2\n      mstore\n      0x20\n      add\n      swap1\n      dup2\n      mstore\n      0x20\n      add\n      0x00\n      keccak256\n        /* \"contracts/MyToken.sol\":1549:1585  customers[msg.sender].startInsurance */\n      0x06\n      add\n      sload\n        /* \"contracts/MyToken.sol\":1549:1590  customers[msg.sender].startInsurance <= 0 */\n      gt\n      iszero\n        /* \"contracts/MyToken.sol\":1541:1624  require(customers[msg.sender].startInsurance <= 0, \"You already have an insurance\") */\n      tag_218\n      jumpi\n      mload(0x40)\n      0x08c379a000000000000000000000000000000000000000000000000000000000\n      dup2\n      mstore\n      0x04\n      add\n      tag_219\n      swap1\n      tag_220\n      jump\t// in\n    tag_219:\n      mload(0x40)\n      dup1\n      swap2\n      sub\n      swap1\n      revert\n    tag_218:\n        /* \"contracts/MyToken.sol\":1634:1650  uint newcBalance */\n      0x00\n        /* \"contracts/MyToken.sol\":1653:1674  balanceOf(msg.sender) */\n      tag_221\n        /* \"contracts/MyToken.sol\":1663:1673  msg.sender */\n      caller\n        /* \"contracts/MyToken.sol\":1653:1662  balanceOf */\n      tag_82\n        /* \"contracts/MyToken.sol\":1653:1674  balanceOf(msg.sender) */\n      jump\t// in\n    tag_221:\n        /* \"contracts/MyToken.sol\":1634:1674  uint newcBalance = balanceOf(msg.sender) */\n      swap1\n      pop\n        /* \"contracts/MyToken.sol\":1684:1729  transferFrom(msg.sender, insuranceAddress, 0) */\n      tag_222\n        /* \"contracts/MyToken.sol\":1697:1707  msg.sender */\n      caller\n        /* \"contracts/MyToken.sol\":1709:1725  insuranceAddress */\n      0x08\n      0x00\n      swap1\n      sload\n      swap1\n      0x0100\n      exp\n      swap1\n      div\n      0xffffffffffffffffffffffffffffffffffffffff\n      and\n        /* \"contracts/MyToken.sol\":1727:1728  0 */\n      0x00\n        /* \"contracts/MyToken.sol\":1684:1696  transferFrom */\n      tag_46\n        /* \"contracts/MyToken.sol\":1684:1729  transferFrom(msg.sender, insuranceAddress, 0) */\n      jump\t// in\n    tag_222:\n      pop\n        /* \"contracts/MyToken.sol\":1763:1889  Customer(msg.sender, newcName, newcAge, newcGender, newcNationality, newcBalance, block.timestamp, block.timestamp + 31556926) */\n      mload(0x40)\n      dup1\n      0x0100\n      add\n      0x40\n      mstore\n      dup1\n        /* \"contracts/MyToken.sol\":1772:1782  msg.sender */\n      caller\n        /* \"contracts/MyToken.sol\":1763:1889  Customer(msg.sender, newcName, newcAge, newcGender, newcNationality, newcBalance, block.timestamp, block.timestamp + 31556926) */\n      0xffffffffffffffffffffffffffffffffffffffff\n      and\n      dup2\n      mstore\n      0x20\n      add\n        /* \"contracts/MyToken.sol\":1784:1792  newcName */\n      dup7\n        /* \"contracts/MyToken.sol\":1763:1889  Customer(msg.sender, newcName, newcAge, newcGender, newcNationality, newcBalance, block.timestamp, block.timestamp + 31556926) */\n      dup2\n      mstore\n      0x20\n      add\n        /* \"contracts/MyToken.sol\":1794:1801  newcAge */\n      dup6\n        /* \"contracts/MyToken.sol\":1763:1889  Customer(msg.sender, newcName, newcAge, newcGender, newcNationality, newcBalance, block.timestamp, block.timestamp + 31556926) */\n      dup2\n      mstore\n      0x20\n      add\n        /* \"contracts/MyToken.sol\":1803:1813  newcGender */\n      dup5\n        /* \"contracts/MyToken.sol\":1763:1889  Customer(msg.sender, newcName, newcAge, newcGender, newcNationality, newcBalance, block.timestamp, block.timestamp + 31556926) */\n      dup2\n      mstore\n      0x20\n      add\n        /* \"contracts/MyToken.sol\":1815:1830  newcNationality */\n      dup4\n        /* \"contracts/MyToken.sol\":1763:1889  Customer(msg.sender, newcName, newcAge, newcGender, newcNationality, newcBalance, block.timestamp, block.timestamp + 31556926) */\n      dup2\n      mstore\n      0x20\n      add\n        /* \"contracts/MyToken.sol\":1832:1843  newcBalance */\n      dup3\n        /* \"contracts/MyToken.sol\":1763:1889  Customer(msg.sender, newcName, newcAge, newcGender, newcNationality, newcBalance, block.timestamp, block.timestamp + 31556926) */\n      dup2\n      mstore\n      0x20\n      add\n        /* \"contracts/MyToken.sol\":1845:1860  block.timestamp */\n      timestamp\n        /* \"contracts/MyToken.sol\":1763:1889  Customer(msg.sender, newcName, newcAge, newcGender, newcNationality, newcBalance, block.timestamp, block.timestamp + 31556926) */\n      dup2\n      mstore\n      0x20\n      add\n        /* \"contracts/MyToken.sol\":1880:1888  31556926 */\n      0x01e1853e\n        /* \"contracts/MyToken.sol\":1862:1877  block.timestamp */\n      timestamp\n        /* \"contracts/MyToken.sol\":1862:1888  block.timestamp + 31556926 */\n      tag_223\n      swap2\n      swap1\n      tag_184\n      jump\t// in\n    tag_223:\n        /* \"contracts/MyToken.sol\":1763:1889  Customer(msg.sender, newcName, newcAge, newcGender, newcNationality, newcBalance, block.timestamp, block.timestamp + 31556926) */\n      dup2\n      mstore\n      pop\n        /* \"contracts/MyToken.sol\":1739:1748  customers */\n      0x06\n        /* \"contracts/MyToken.sol\":1739:1760  customers[msg.sender] */\n      0x00\n        /* \"contracts/MyToken.sol\":1749:1759  msg.sender */\n      caller\n        /* \"contracts/MyToken.sol\":1739:1760  customers[msg.sender] */\n      0xffffffffffffffffffffffffffffffffffffffff\n      and\n      0xffffffffffffffffffffffffffffffffffffffff\n      and\n      dup2\n      mstore\n      0x20\n      add\n      swap1\n      dup2\n      mstore\n      0x20\n      add\n      0x00\n      keccak256\n        /* \"contracts/MyToken.sol\":1739:1889  customers[msg.sender] = Customer(msg.sender, newcName, newcAge, newcGender, newcNationality, newcBalance, block.timestamp, block.timestamp + 31556926) */\n      0x00\n      dup3\n      add\n      mload\n      dup2\n      0x00\n      add\n      exp(0x0100, 0x00)\n      dup2\n      sload\n      dup2\n      0xffffffffffffffffffffffffffffffffffffffff\n      mul\n      not\n      and\n      swap1\n      dup4\n      0xffffffffffffffffffffffffffffffffffffffff\n      and\n      mul\n      or\n      swap1\n      sstore\n      pop\n      0x20\n      dup3\n      add\n      mload\n      dup2\n      0x01\n      add\n      swap1\n      dup2\n      tag_224\n      swap2\n      swap1\n      tag_225\n      jump\t// in\n    tag_224:\n      pop\n      0x40\n      dup3\n      add\n      mload\n      dup2\n      0x02\n      add\n      sstore\n      0x60\n      dup3\n      add\n      mload\n      dup2\n      0x03\n      add\n      swap1\n      dup2\n      tag_226\n      swap2\n      swap1\n      tag_225\n      jump\t// in\n    tag_226:\n      pop\n      0x80\n      dup3\n      add\n      mload\n      dup2\n      0x04\n      add\n      swap1\n      dup2\n      tag_227\n      swap2\n      swap1\n      tag_225\n      jump\t// in\n    tag_227:\n      pop\n      0xa0\n      dup3\n      add\n      mload\n      dup2\n      0x05\n      add\n      sstore\n      0xc0\n      dup3\n      add\n      mload\n      dup2\n      0x06\n      add\n      sstore\n      0xe0\n      dup3\n      add\n      mload\n      dup2\n      0x07\n      add\n      sstore\n      swap1\n      pop\n      pop\n        /* \"contracts/MyToken.sol\":1899:1909  totalSales */\n      0x07\n      0x00\n        /* \"contracts/MyToken.sol\":1899:1911  totalSales++ */\n      dup2\n      sload\n      dup1\n      swap3\n      swap2\n      swap1\n      tag_228\n      swap1\n      tag_229\n      jump\t// in\n    tag_228:\n      swap2\n      swap1\n      pop\n      sstore\n      pop\n        /* \"contracts/MyToken.sol\":1374:1918  {... */\n      pop\n        /* \"contracts/MyToken.sol\":1229:1918  function registerCustomer(string memory newcName, uint newcAge, string memory newcGender, string memory newcNationality) public onlyOwner payable{... */\n      pop\n      pop\n      pop\n      pop\n      jump\t// out\n        /* \"contracts/MyToken.sol\":1924:2029  function checkBalance() public onlyOwner view returns (uint){... */\n    tag_111:\n        /* \"contracts/MyToken.sol\":1979:1983  uint */\n      0x00\n        /* \"@openzeppelin/contracts/access/Ownable.sol\":1094:1107  _checkOwner() */\n      tag_231\n        /* \"@openzeppelin/contracts/access/Ownable.sol\":1094:1105  _checkOwner */\n      tag_162\n        /* \"@openzeppelin/contracts/access/Ownable.sol\":1094:1107  _checkOwner() */\n      jump\t// in\n    tag_231:\n        /* \"contracts/MyToken.sol\":2001:2022  balanceOf(msg.sender) */\n      tag_233\n        /* \"contracts/MyToken.sol\":2011:2021  msg.sender */\n      caller\n        /* \"contracts/MyToken.sol\":2001:2010  balanceOf */\n      tag_82\n        /* \"contracts/MyToken.sol\":2001:2022  balanceOf(msg.sender) */\n      jump\t// in\n    tag_233:\n        /* \"contracts/MyToken.sol\":1994:2022  return balanceOf(msg.sender) */\n      swap1\n      pop\n        /* \"contracts/MyToken.sol\":1924:2029  function checkBalance() public onlyOwner view returns (uint){... */\n      swap1\n      jump\t// out\n        /* \"@openzeppelin/contracts/token/ERC20/ERC20.sol\":3987:4136  function allowance(address owner, address spender) public view virtual override returns (uint256) {... */\n    tag_117:\n        /* \"@openzeppelin/contracts/token/ERC20/ERC20.sol\":4076:4083  uint256 */\n      0x00\n        /* \"@openzeppelin/contracts/token/ERC20/ERC20.sol\":4102:4113  _allowances */\n      0x01\n        /* \"@openzeppelin/contracts/token/ERC20/ERC20.sol\":4102:4120  _allowances[owner] */\n      0x00\n        /* \"@openzeppelin/contracts/token/ERC20/ERC20.sol\":4114:4119  owner */\n      dup5\n        /* \"@openzeppelin/contracts/token/ERC20/ERC20.sol\":4102:4120  _allowances[owner] */\n      0xffffffffffffffffffffffffffffffffffffffff\n      and\n      0xffffffffffffffffffffffffffffffffffffffff\n      and\n      dup2\n      mstore\n      0x20\n      add\n      swap1\n      dup2\n      mstore\n      0x20\n      add\n      0x00\n      keccak256\n        /* \"@openzeppelin/contracts/token/ERC20/ERC20.sol\":4102:4129  _allowances[owner][spender] */\n      0x00\n        /* \"@openzeppelin/contracts/token/ERC20/ERC20.sol\":4121:4128  spender */\n      dup4\n        /* \"@openzeppelin/contracts/token/ERC20/ERC20.sol\":4102:4129  _allowances[owner][spender] */\n      0xffffffffffffffffffffffffffffffffffffffff\n      and\n      0xffffffffffffffffffffffffffffffffffffffff\n      and\n      dup2\n      mstore\n      0x20\n      add\n      swap1\n      dup2\n      mstore\n      0x20\n      add\n      0x00\n      keccak256\n      sload\n        /* \"@openzeppelin/contracts/token/ERC20/ERC20.sol\":4095:4129  return _allowances[owner][spender] */\n      swap1\n      pop\n        /* \"@openzeppelin/contracts/token/ERC20/ERC20.sol\":3987:4136  function allowance(address owner, address spender) public view virtual override returns (uint256) {... */\n      swap3\n      swap2\n      pop\n      pop\n      jump\t// out\n        /* \"@openzeppelin/contracts/access/Ownable.sol\":2074:2272  function transferOwnership(address newOwner) public virtual onlyOwner {... */\n    tag_122:\n        /* \"@openzeppelin/contracts/access/Ownable.sol\":1094:1107  _checkOwner() */\n      tag_236\n        /* \"@openzeppelin/contracts/access/Ownable.sol\":1094:1105  _checkOwner */\n      tag_162\n        /* \"@openzeppelin/contracts/access/Ownable.sol\":1094:1107  _checkOwner() */\n      jump\t// in\n    tag_236:\n        /* \"@openzeppelin/contracts/access/Ownable.sol\":2182:2183  0 */\n      0x00\n        /* \"@openzeppelin/contracts/access/Ownable.sol\":2162:2184  newOwner != address(0) */\n      0xffffffffffffffffffffffffffffffffffffffff\n      and\n        /* \"@openzeppelin/contracts/access/Ownable.sol\":2162:2170  newOwner */\n      dup2\n        /* \"@openzeppelin/contracts/access/Ownable.sol\":2162:2184  newOwner != address(0) */\n      0xffffffffffffffffffffffffffffffffffffffff\n      and\n      sub\n        /* \"@openzeppelin/contracts/access/Ownable.sol\":2154:2227  require(newOwner != address(0), \"Ownable: new owner is the zero address\") */\n      tag_238\n      jumpi\n      mload(0x40)\n      0x08c379a000000000000000000000000000000000000000000000000000000000\n      dup2\n      mstore\n      0x04\n      add\n      tag_239\n      swap1\n      tag_240\n      jump\t// in\n    tag_239:\n      mload(0x40)\n      dup1\n      swap2\n      sub\n      swap1\n      revert\n    tag_238:\n        /* \"@openzeppelin/contracts/access/Ownable.sol\":2237:2265  _transferOwnership(newOwner) */\n      tag_241\n        /* \"@openzeppelin/contracts/access/Ownable.sol\":2256:2264  newOwner */\n      dup2\n        /* \"@openzeppelin/contracts/access/Ownable.sol\":2237:2255  _transferOwnership */\n      tag_190\n        /* \"@openzeppelin/contracts/access/Ownable.sol\":2237:2265  _transferOwnership(newOwner) */\n      jump\t// in\n    tag_241:\n        /* \"@openzeppelin/contracts/access/Ownable.sol\":2074:2272  function transferOwnership(address newOwner) public virtual onlyOwner {... */\n      pop\n      jump\t// out\n        /* \"@openzeppelin/contracts/utils/Context.sol\":640:736  function _msgSender() internal view virtual returns (address) {... */\n    tag_132:\n        /* \"@openzeppelin/contracts/utils/Context.sol\":693:700  address */\n      0x00\n        /* \"@openzeppelin/contracts/utils/Context.sol\":719:729  msg.sender */\n      caller\n        /* \"@openzeppelin/contracts/utils/Context.sol\":712:729  return msg.sender */\n      swap1\n      pop\n        /* \"@openzeppelin/contracts/utils/Context.sol\":640:736  function _msgSender() internal view virtual returns (address) {... */\n      swap1\n      jump\t// out\n        /* \"@openzeppelin/contracts/token/ERC20/ERC20.sol\":10457:10797  function _approve(address owner, address spender, uint256 amount) internal virtual {... */\n    tag_134:\n        /* \"@openzeppelin/contracts/token/ERC20/ERC20.sol\":10575:10576  0 */\n      0x00\n        /* \"@openzeppelin/contracts/token/ERC20/ERC20.sol\":10558:10577  owner != address(0) */\n      0xffffffffffffffffffffffffffffffffffffffff\n      and\n        /* \"@openzeppelin/contracts/token/ERC20/ERC20.sol\":10558:10563  owner */\n      dup4\n        /* \"@openzeppelin/contracts/token/ERC20/ERC20.sol\":10558:10577  owner != address(0) */\n      0xffffffffffffffffffffffffffffffffffffffff\n      and\n      sub\n        /* \"@openzeppelin/contracts/token/ERC20/ERC20.sol\":10550:10618  require(owner != address(0), \"ERC20: approve from the zero address\") */\n      tag_244\n      jumpi\n      mload(0x40)\n      0x08c379a000000000000000000000000000000000000000000000000000000000\n      dup2\n      mstore\n      0x04\n      add\n      tag_245\n      swap1\n      tag_246\n      jump\t// in\n    tag_245:\n      mload(0x40)\n      dup1\n      swap2\n      sub\n      swap1\n      revert\n    tag_244:\n        /* \"@openzeppelin/contracts/token/ERC20/ERC20.sol\":10655:10656  0 */\n      0x00\n        /* \"@openzeppelin/contracts/token/ERC20/ERC20.sol\":10636:10657  spender != address(0) */\n      0xffffffffffffffffffffffffffffffffffffffff\n      and\n        /* \"@openzeppelin/contracts/token/ERC20/ERC20.sol\":10636:10643  spender */\n      dup3\n        /* \"@openzeppelin/contracts/token/ERC20/ERC20.sol\":10636:10657  spender != address(0) */\n      0xffffffffffffffffffffffffffffffffffffffff\n      and\n      sub\n        /* \"@openzeppelin/contracts/token/ERC20/ERC20.sol\":10628:10696  require(spender != address(0), \"ERC20: approve to the zero address\") */\n      tag_247\n      jumpi\n      mload(0x40)\n      0x08c379a000000000000000000000000000000000000000000000000000000000\n      dup2\n      mstore\n      0x04\n      add\n      tag_248\n      swap1\n      tag_249\n      jump\t// in\n    tag_248:\n      mload(0x40)\n      dup1\n      swap2\n      sub\n      swap1\n      revert\n    tag_247:\n        /* \"@openzeppelin/contracts/token/ERC20/ERC20.sol\":10737:10743  amount */\n      dup1\n        /* \"@openzeppelin/contracts/token/ERC20/ERC20.sol\":10707:10718  _allowances */\n      0x01\n        /* \"@openzeppelin/contracts/token/ERC20/ERC20.sol\":10707:10725  _allowances[owner] */\n      0x00\n        /* \"@openzeppelin/contracts/token/ERC20/ERC20.sol\":10719:10724  owner */\n      dup6\n        /* \"@openzeppelin/contracts/token/ERC20/ERC20.sol\":10707:10725  _allowances[owner] */\n      0xffffffffffffffffffffffffffffffffffffffff\n      and\n      0xffffffffffffffffffffffffffffffffffffffff\n      and\n      dup2\n      mstore\n      0x20\n      add\n      swap1\n      dup2\n      mstore\n      0x20\n      add\n      0x00\n      keccak256\n        /* \"@openzeppelin/contracts/token/ERC20/ERC20.sol\":10707:10734  _allowances[owner][spender] */\n      0x00\n        /* \"@openzeppelin/contracts/token/ERC20/ERC20.sol\":10726:10733  spender */\n      dup5\n        /* \"@openzeppelin/contracts/token/ERC20/ERC20.sol\":10707:10734  _allowances[owner][spender] */\n      0xffffffffffffffffffffffffffffffffffffffff\n      and\n      0xffffffffffffffffffffffffffffffffffffffff\n      and\n      dup2\n      mstore\n      0x20\n      add\n      swap1\n      dup2\n      mstore\n      0x20\n      add\n      0x00\n      keccak256\n        /* \"@openzeppelin/contracts/token/ERC20/ERC20.sol\":10707:10743  _allowances[owner][spender] = amount */\n      dup2\n      swap1\n      sstore\n      pop\n        /* \"@openzeppelin/contracts/token/ERC20/ERC20.sol\":10774:10781  spender */\n      dup2\n        /* \"@openzeppelin/contracts/token/ERC20/ERC20.sol\":10758:10790  Approval(owner, spender, amount) */\n      0xffffffffffffffffffffffffffffffffffffffff\n      and\n        /* \"@openzeppelin/contracts/token/ERC20/ERC20.sol\":10767:10772  owner */\n      dup4\n        /* \"@openzeppelin/contracts/token/ERC20/ERC20.sol\":10758:10790  Approval(owner, spender, amount) */\n      0xffffffffffffffffffffffffffffffffffffffff\n      and\n      0x8c5be1e5ebec7d5bd14f71427d1e84f3dd0314c0f7b2291e5b200ac8c7c3b925\n        /* \"@openzeppelin/contracts/token/ERC20/ERC20.sol\":10783:10789  amount */\n      dup4\n        /* \"@openzeppelin/contracts/token/ERC20/ERC20.sol\":10758:10790  Approval(owner, spender, amount) */\n      mload(0x40)\n      tag_250\n      swap2\n      swap1\n      tag_41\n      jump\t// in\n    tag_250:\n      mload(0x40)\n      dup1\n      swap2\n      sub\n      swap1\n      log3\n        /* \"@openzeppelin/contracts/token/ERC20/ERC20.sol\":10457:10797  function _approve(address owner, address spender, uint256 amount) internal virtual {... */\n      pop\n      pop\n      pop\n      jump\t// out\n        /* \"@openzeppelin/contracts/token/ERC20/ERC20.sol\":11078:11489  function _spendAllowance(address owner, address spender, uint256 amount) internal virtual {... */\n    tag_139:\n        /* \"@openzeppelin/contracts/token/ERC20/ERC20.sol\":11178:11202  uint256 currentAllowance */\n      0x00\n        /* \"@openzeppelin/contracts/token/ERC20/ERC20.sol\":11205:11230  allowance(owner, spender) */\n      tag_252\n        /* \"@openzeppelin/contracts/token/ERC20/ERC20.sol\":11215:11220  owner */\n      dup5\n        /* \"@openzeppelin/contracts/token/ERC20/ERC20.sol\":11222:11229  spender */\n      dup5\n        /* \"@openzeppelin/contracts/token/ERC20/ERC20.sol\":11205:11214  allowance */\n      tag_117\n        /* \"@openzeppelin/contracts/token/ERC20/ERC20.sol\":11205:11230  allowance(owner, spender) */\n      jump\t// in\n    tag_252:\n        /* \"@openzeppelin/contracts/token/ERC20/ERC20.sol\":11178:11230  uint256 currentAllowance = allowance(owner, spender) */\n      swap1\n      pop\n        /* \"@openzeppelin/contracts/token/ERC20/ERC20.sol\":11264:11281  type(uint256).max */\n      0xffffffffffffffffffffffffffffffffffffffffffffffffffffffffffffffff\n        /* \"@openzeppelin/contracts/token/ERC20/ERC20.sol\":11244:11260  currentAllowance */\n      dup2\n        /* \"@openzeppelin/contracts/token/ERC20/ERC20.sol\":11244:11281  currentAllowance != type(uint256).max */\n      eq\n        /* \"@openzeppelin/contracts/token/ERC20/ERC20.sol\":11240:11483  if (currentAllowance != type(uint256).max) {... */\n      tag_253\n      jumpi\n        /* \"@openzeppelin/contracts/token/ERC20/ERC20.sol\":11325:11331  amount */\n      dup2\n        /* \"@openzeppelin/contracts/token/ERC20/ERC20.sol\":11305:11321  currentAllowance */\n      dup2\n        /* \"@openzeppelin/contracts/token/ERC20/ERC20.sol\":11305:11331  currentAllowance >= amount */\n      lt\n      iszero\n        /* \"@openzeppelin/contracts/token/ERC20/ERC20.sol\":11297:11365  require(currentAllowance >= amount, \"ERC20: insufficient allowance\") */\n      tag_254\n      jumpi\n      mload(0x40)\n      0x08c379a000000000000000000000000000000000000000000000000000000000\n      dup2\n      mstore\n      0x04\n      add\n      tag_255\n      swap1\n      tag_256\n      jump\t// in\n    tag_255:\n      mload(0x40)\n      dup1\n      swap2\n      sub\n      swap1\n      revert\n    tag_254:\n        /* \"@openzeppelin/contracts/token/ERC20/ERC20.sol\":11407:11458  _approve(owner, spender, currentAllowance - amount) */\n      tag_257\n        /* \"@openzeppelin/contracts/token/ERC20/ERC20.sol\":11416:11421  owner */\n      dup5\n        /* \"@openzeppelin/contracts/token/ERC20/ERC20.sol\":11423:11430  spender */\n      dup5\n        /* \"@openzeppelin/contracts/token/ERC20/ERC20.sol\":11451:11457  amount */\n      dup5\n        /* \"@openzeppelin/contracts/token/ERC20/ERC20.sol\":11432:11448  currentAllowance */\n      dup5\n        /* \"@openzeppelin/contracts/token/ERC20/ERC20.sol\":11432:11457  currentAllowance - amount */\n      sub\n        /* \"@openzeppelin/contracts/token/ERC20/ERC20.sol\":11407:11415  _approve */\n      tag_134\n        /* \"@openzeppelin/contracts/token/ERC20/ERC20.sol\":11407:11458  _approve(owner, spender, currentAllowance - amount) */\n      jump\t// in\n    tag_257:\n        /* \"@openzeppelin/contracts/token/ERC20/ERC20.sol\":11240:11483  if (currentAllowance != type(uint256).max) {... */\n    tag_253:\n        /* \"@openzeppelin/contracts/token/ERC20/ERC20.sol\":11168:11489  {... */\n      pop\n        /* \"@openzeppelin/contracts/token/ERC20/ERC20.sol\":11078:11489  function _spendAllowance(address owner, address spender, uint256 amount) internal virtual {... */\n      pop\n      pop\n      pop\n      jump\t// out\n        /* \"@openzeppelin/contracts/token/ERC20/ERC20.sol\":7456:8244  function _transfer(address from, address to, uint256 amount) internal virtual {... */\n    tag_141:\n        /* \"@openzeppelin/contracts/token/ERC20/ERC20.sol\":7568:7569  0 */\n      0x00\n        /* \"@openzeppelin/contracts/token/ERC20/ERC20.sol\":7552:7570  from != address(0) */\n      0xffffffffffffffffffffffffffffffffffffffff\n      and\n        /* \"@openzeppelin/contracts/token/ERC20/ERC20.sol\":7552:7556  from */\n      dup4\n        /* \"@openzeppelin/contracts/token/ERC20/ERC20.sol\":7552:7570  from != address(0) */\n      0xffffffffffffffffffffffffffffffffffffffff\n      and\n      sub\n        /* \"@openzeppelin/contracts/token/ERC20/ERC20.sol\":7544:7612  require(from != address(0), \"ERC20: transfer from the zero address\") */\n      tag_259\n      jumpi\n      mload(0x40)\n      0x08c379a000000000000000000000000000000000000000000000000000000000\n      dup2\n      mstore\n      0x04\n      add\n      tag_260\n      swap1\n      tag_261\n      jump\t// in\n    tag_260:\n      mload(0x40)\n      dup1\n      swap2\n      sub\n      swap1\n      revert\n    tag_259:\n        /* \"@openzeppelin/contracts/token/ERC20/ERC20.sol\":7644:7645  0 */\n      0x00\n        /* \"@openzeppelin/contracts/token/ERC20/ERC20.sol\":7630:7646  to != address(0) */\n      0xffffffffffffffffffffffffffffffffffffffff\n      and\n        /* \"@openzeppelin/contracts/token/ERC20/ERC20.sol\":7630:7632  to */\n      dup3\n        /* \"@openzeppelin/contracts/token/ERC20/ERC20.sol\":7630:7646  to != address(0) */\n      0xffffffffffffffffffffffffffffffffffffffff\n      and\n      sub\n        /* \"@openzeppelin/contracts/token/ERC20/ERC20.sol\":7622:7686  require(to != address(0), \"ERC20: transfer to the zero address\") */\n      tag_262\n      jumpi\n      mload(0x40)\n      0x08c379a000000000000000000000000000000000000000000000000000000000\n      dup2\n      mstore\n      0x04\n      add\n      tag_263\n      swap1\n      tag_264\n      jump\t// in\n    tag_263:\n      mload(0x40)\n      dup1\n      swap2\n      sub\n      swap1\n      revert\n    tag_262:\n        /* \"@openzeppelin/contracts/token/ERC20/ERC20.sol\":7697:7735  _beforeTokenTransfer(from, to, amount) */\n      tag_265\n        /* \"@openzeppelin/contracts/token/ERC20/ERC20.sol\":7718:7722  from */\n      dup4\n        /* \"@openzeppelin/contracts/token/ERC20/ERC20.sol\":7724:7726  to */\n      dup4\n        /* \"@openzeppelin/contracts/token/ERC20/ERC20.sol\":7728:7734  amount */\n      dup4\n        /* \"@openzeppelin/contracts/token/ERC20/ERC20.sol\":7697:7717  _beforeTokenTransfer */\n      tag_266\n        /* \"@openzeppelin/contracts/token/ERC20/ERC20.sol\":7697:7735  _beforeTokenTransfer(from, to, amount) */\n      jump\t// in\n    tag_265:\n        /* \"@openzeppelin/contracts/token/ERC20/ERC20.sol\":7746:7765  uint256 fromBalance */\n      0x00\n        /* \"@openzeppelin/contracts/token/ERC20/ERC20.sol\":7768:7777  _balances */\n      dup1\n        /* \"@openzeppelin/contracts/token/ERC20/ERC20.sol\":7768:7783  _balances[from] */\n      0x00\n        /* \"@openzeppelin/contracts/token/ERC20/ERC20.sol\":7778:7782  from */\n      dup6\n        /* \"@openzeppelin/contracts/token/ERC20/ERC20.sol\":7768:7783  _balances[from] */\n      0xffffffffffffffffffffffffffffffffffffffff\n      and\n      0xffffffffffffffffffffffffffffffffffffffff\n      and\n      dup2\n      mstore\n      0x20\n      add\n      swap1\n      dup2\n      mstore\n      0x20\n      add\n      0x00\n      keccak256\n      sload\n        /* \"@openzeppelin/contracts/token/ERC20/ERC20.sol\":7746:7783  uint256 fromBalance = _balances[from] */\n      swap1\n      pop\n        /* \"@openzeppelin/contracts/token/ERC20/ERC20.sol\":7816:7822  amount */\n      dup2\n        /* \"@openzeppelin/contracts/token/ERC20/ERC20.sol\":7801:7812  fromBalance */\n      dup2\n        /* \"@openzeppelin/contracts/token/ERC20/ERC20.sol\":7801:7822  fromBalance >= amount */\n      lt\n      iszero\n        /* \"@openzeppelin/contracts/token/ERC20/ERC20.sol\":7793:7865  require(fromBalance >= amount, \"ERC20: transfer amount exceeds balance\") */\n      tag_267\n      jumpi\n      mload(0x40)\n      0x08c379a000000000000000000000000000000000000000000000000000000000\n      dup2\n      mstore\n      0x04\n      add\n      tag_268\n      swap1\n      tag_269\n      jump\t// in\n    tag_268:\n      mload(0x40)\n      dup1\n      swap2\n      sub\n      swap1\n      revert\n    tag_267:\n        /* \"@openzeppelin/contracts/token/ERC20/ERC20.sol\":7931:7937  amount */\n      dup2\n        /* \"@openzeppelin/contracts/token/ERC20/ERC20.sol\":7917:7928  fromBalance */\n      dup2\n        /* \"@openzeppelin/contracts/token/ERC20/ERC20.sol\":7917:7937  fromBalance - amount */\n      sub\n        /* \"@openzeppelin/contracts/token/ERC20/ERC20.sol\":7899:7908  _balances */\n      0x00\n        /* \"@openzeppelin/contracts/token/ERC20/ERC20.sol\":7899:7914  _balances[from] */\n      dup1\n        /* \"@openzeppelin/contracts/token/ERC20/ERC20.sol\":7909:7913  from */\n      dup7\n        /* \"@openzeppelin/contracts/token/ERC20/ERC20.sol\":7899:7914  _balances[from] */\n      0xffffffffffffffffffffffffffffffffffffffff\n      and\n      0xffffffffffffffffffffffffffffffffffffffff\n      and\n      dup2\n      mstore\n      0x20\n      add\n      swap1\n      dup2\n      mstore\n      0x20\n      add\n      0x00\n      keccak256\n        /* \"@openzeppelin/contracts/token/ERC20/ERC20.sol\":7899:7937  _balances[from] = fromBalance - amount */\n      dup2\n      swap1\n      sstore\n      pop\n        /* \"@openzeppelin/contracts/token/ERC20/ERC20.sol\":8131:8137  amount */\n      dup2\n        /* \"@openzeppelin/contracts/token/ERC20/ERC20.sol\":8114:8123  _balances */\n      0x00\n        /* \"@openzeppelin/contracts/token/ERC20/ERC20.sol\":8114:8127  _balances[to] */\n      dup1\n        /* \"@openzeppelin/contracts/token/ERC20/ERC20.sol\":8124:8126  to */\n      dup6\n        /* \"@openzeppelin/contracts/token/ERC20/ERC20.sol\":8114:8127  _balances[to] */\n      0xffffffffffffffffffffffffffffffffffffffff\n      and\n      0xffffffffffffffffffffffffffffffffffffffff\n      and\n      dup2\n      mstore\n      0x20\n      add\n      swap1\n      dup2\n      mstore\n      0x20\n      add\n      0x00\n      keccak256\n      0x00\n        /* \"@openzeppelin/contracts/token/ERC20/ERC20.sol\":8114:8137  _balances[to] += amount */\n      dup3\n      dup3\n      sload\n      add\n      swap3\n      pop\n      pop\n      dup2\n      swap1\n      sstore\n      pop\n        /* \"@openzeppelin/contracts/token/ERC20/ERC20.sol\":8178:8180  to */\n      dup3\n        /* \"@openzeppelin/contracts/token/ERC20/ERC20.sol\":8163:8189  Transfer(from, to, amount) */\n      0xffffffffffffffffffffffffffffffffffffffff\n      and\n        /* \"@openzeppelin/contracts/token/ERC20/ERC20.sol\":8172:8176  from */\n      dup5\n        /* \"@openzeppelin/contracts/token/ERC20/ERC20.sol\":8163:8189  Transfer(from, to, amount) */\n      0xffffffffffffffffffffffffffffffffffffffff\n      and\n      0xddf252ad1be2c89b69c2b068fc378daa952ba7f163c4a11628f55a4df523b3ef\n        /* \"@openzeppelin/contracts/token/ERC20/ERC20.sol\":8182:8188  amount */\n      dup5\n        /* \"@openzeppelin/contracts/token/ERC20/ERC20.sol\":8163:8189  Transfer(from, to, amount) */\n      mload(0x40)\n      tag_270\n      swap2\n      swap1\n      tag_41\n      jump\t// in\n    tag_270:\n      mload(0x40)\n      dup1\n      swap2\n      sub\n      swap1\n      log3\n        /* \"@openzeppelin/contracts/token/ERC20/ERC20.sol\":8200:8237  _afterTokenTransfer(from, to, amount) */\n      tag_271\n        /* \"@openzeppelin/contracts/token/ERC20/ERC20.sol\":8220:8224  from */\n      dup5\n        /* \"@openzeppelin/contracts/token/ERC20/ERC20.sol\":8226:8228  to */\n      dup5\n        /* \"@openzeppelin/contracts/token/ERC20/ERC20.sol\":8230:8236  amount */\n      dup5\n        /* \"@openzeppelin/contracts/token/ERC20/ERC20.sol\":8200:8219  _afterTokenTransfer */\n      tag_272\n        /* \"@openzeppelin/contracts/token/ERC20/ERC20.sol\":8200:8237  _afterTokenTransfer(from, to, amount) */\n      jump\t// in\n    tag_271:\n        /* \"@openzeppelin/contracts/token/ERC20/ERC20.sol\":7534:8244  {... */\n      pop\n        /* \"@openzeppelin/contracts/token/ERC20/ERC20.sol\":7456:8244  function _transfer(address from, address to, uint256 amount) internal virtual {... */\n      pop\n      pop\n      pop\n      jump\t// out\n        /* \"@openzeppelin/contracts/access/Ownable.sol\":1359:1489  function _checkOwner() internal view virtual {... */\n    tag_162:\n        /* \"@openzeppelin/contracts/access/Ownable.sol\":1433:1445  _msgSender() */\n      tag_274\n        /* \"@openzeppelin/contracts/access/Ownable.sol\":1433:1443  _msgSender */\n      tag_132\n        /* \"@openzeppelin/contracts/access/Ownable.sol\":1433:1445  _msgSender() */\n      jump\t// in\n    tag_274:\n        /* \"@openzeppelin/contracts/access/Ownable.sol\":1422:1445  owner() == _msgSender() */\n      0xffffffffffffffffffffffffffffffffffffffff\n      and\n        /* \"@openzeppelin/contracts/access/Ownable.sol\":1422:1429  owner() */\n      tag_275\n        /* \"@openzeppelin/contracts/access/Ownable.sol\":1422:1427  owner */\n      tag_89\n        /* \"@openzeppelin/contracts/access/Ownable.sol\":1422:1429  owner() */\n      jump\t// in\n    tag_275:\n        /* \"@openzeppelin/contracts/access/Ownable.sol\":1422:1445  owner() == _msgSender() */\n      0xffffffffffffffffffffffffffffffffffffffff\n      and\n      eq\n        /* \"@openzeppelin/contracts/access/Ownable.sol\":1414:1482  require(owner() == _msgSender(), \"Ownable: caller is not the owner\") */\n      tag_276\n      jumpi\n      mload(0x40)\n      0x08c379a000000000000000000000000000000000000000000000000000000000\n      dup2\n      mstore\n      0x04\n      add\n      tag_277\n      swap1\n      tag_278\n      jump\t// in\n    tag_277:\n      mload(0x40)\n      dup1\n      swap2\n      sub\n      swap1\n      revert\n    tag_276:\n        /* \"@openzeppelin/contracts/access/Ownable.sol\":1359:1489  function _checkOwner() internal view virtual {... */\n      jump\t// out\n        /* \"@openzeppelin/contracts/access/Ownable.sol\":2426:2613  function _transferOwnership(address newOwner) internal virtual {... */\n    tag_190:\n        /* \"@openzeppelin/contracts/access/Ownable.sol\":2499:2515  address oldOwner */\n      0x00\n        /* \"@openzeppelin/contracts/access/Ownable.sol\":2518:2524  _owner */\n      0x05\n      0x00\n      swap1\n      sload\n      swap1\n      0x0100\n      exp\n      swap1\n      div\n      0xffffffffffffffffffffffffffffffffffffffff\n      and\n        /* \"@openzeppelin/contracts/access/Ownable.sol\":2499:2524  address oldOwner = _owner */\n      swap1\n      pop\n        /* \"@openzeppelin/contracts/access/Ownable.sol\":2543:2551  newOwner */\n      dup2\n        /* \"@openzeppelin/contracts/access/Ownable.sol\":2534:2540  _owner */\n      0x05\n      0x00\n        /* \"@openzeppelin/contracts/access/Ownable.sol\":2534:2551  _owner = newOwner */\n      0x0100\n      exp\n      dup2\n      sload\n      dup2\n      0xffffffffffffffffffffffffffffffffffffffff\n      mul\n      not\n      and\n      swap1\n      dup4\n      0xffffffffffffffffffffffffffffffffffffffff\n      and\n      mul\n      or\n      swap1\n      sstore\n      pop\n        /* \"@openzeppelin/contracts/access/Ownable.sol\":2597:2605  newOwner */\n      dup2\n        /* \"@openzeppelin/contracts/access/Ownable.sol\":2566:2606  OwnershipTransferred(oldOwner, newOwner) */\n      0xffffffffffffffffffffffffffffffffffffffff\n      and\n        /* \"@openzeppelin/contracts/access/Ownable.sol\":2587:2595  oldOwner */\n      dup2\n        /* \"@openzeppelin/contracts/access/Ownable.sol\":2566:2606  OwnershipTransferred(oldOwner, newOwner) */\n      0xffffffffffffffffffffffffffffffffffffffff\n      and\n      0x8be0079c531659141344cd1fd0a4f28419497f9722a3daafe3b4186f6b6457e0\n      mload(0x40)\n      mload(0x40)\n      dup1\n      swap2\n      sub\n      swap1\n      log3\n        /* \"@openzeppelin/contracts/access/Ownable.sol\":2489:2613  {... */\n      pop\n        /* \"@openzeppelin/contracts/access/Ownable.sol\":2426:2613  function _transferOwnership(address newOwner) internal virtual {... */\n      pop\n      jump\t// out\n        /* \"@openzeppelin/contracts/token/ERC20/ERC20.sol\":12073:12164  function _beforeTokenTransfer(address from, address to, uint256 amount) internal virtual {} */\n    tag_266:\n      pop\n      pop\n      pop\n      jump\t// out\n        /* \"@openzeppelin/contracts/token/ERC20/ERC20.sol\":12752:12842  function _afterTokenTransfer(address from, address to, uint256 amount) internal virtual {} */\n    tag_272:\n      pop\n      pop\n      pop\n      jump\t// out\n    tag_159:\n      mload(0x40)\n      dup1\n      0x0100\n      add\n      0x40\n      mstore\n      dup1\n      and(0xffffffffffffffffffffffffffffffffffffffff, 0x00)\n      dup2\n      mstore\n      0x20\n      add\n      0x60\n      dup2\n      mstore\n      0x20\n      add\n      0x00\n      dup2\n      mstore\n      0x20\n      add\n      0x60\n      dup2\n      mstore\n      0x20\n      add\n      0x60\n      dup2\n      mstore\n      0x20\n      add\n      0x00\n      dup2\n      mstore\n      0x20\n      add\n      0x00\n      dup2\n      mstore\n      0x20\n      add\n      0x00\n      dup2\n      mstore\n      pop\n      swap1\n      jump\t// out\n        /* \"#utility.yul\":7:106   */\n    tag_282:\n        /* \"#utility.yul\":59:65   */\n      0x00\n        /* \"#utility.yul\":93:98   */\n      dup2\n        /* \"#utility.yul\":87:99   */\n      mload\n        /* \"#utility.yul\":77:99   */\n      swap1\n      pop\n        /* \"#utility.yul\":7:106   */\n      swap2\n      swap1\n      pop\n      jump\t// out\n        /* \"#utility.yul\":112:281   */\n    tag_283:\n        /* \"#utility.yul\":196:207   */\n      0x00\n        /* \"#utility.yul\":230:236   */\n      dup3\n        /* \"#utility.yul\":225:228   */\n      dup3\n        /* \"#utility.yul\":218:237   */\n      mstore\n        /* \"#utility.yul\":270:274   */\n      0x20\n        /* \"#utility.yul\":265:268   */\n      dup3\n        /* \"#utility.yul\":261:275   */\n      add\n        /* \"#utility.yul\":246:275   */\n      swap1\n      pop\n        /* \"#utility.yul\":112:281   */\n      swap3\n      swap2\n      pop\n      pop\n      jump\t// out\n        /* \"#utility.yul\":287:533   */\n    tag_284:\n        /* \"#utility.yul\":368:369   */\n      0x00\n        /* \"#utility.yul\":378:491   */\n    tag_362:\n        /* \"#utility.yul\":392:398   */\n      dup4\n        /* \"#utility.yul\":389:390   */\n      dup2\n        /* \"#utility.yul\":386:399   */\n      lt\n        /* \"#utility.yul\":378:491   */\n      iszero\n      tag_364\n      jumpi\n        /* \"#utility.yul\":477:478   */\n      dup1\n        /* \"#utility.yul\":472:475   */\n      dup3\n        /* \"#utility.yul\":468:479   */\n      add\n        /* \"#utility.yul\":462:480   */\n      mload\n        /* \"#utility.yul\":458:459   */\n      dup2\n        /* \"#utility.yul\":453:456   */\n      dup5\n        /* \"#utility.yul\":449:460   */\n      add\n        /* \"#utility.yul\":442:481   */\n      mstore\n        /* \"#utility.yul\":414:416   */\n      0x20\n        /* \"#utility.yul\":411:412   */\n      dup2\n        /* \"#utility.yul\":407:417   */\n      add\n        /* \"#utility.yul\":402:417   */\n      swap1\n      pop\n        /* \"#utility.yul\":378:491   */\n      jump(tag_362)\n    tag_364:\n        /* \"#utility.yul\":525:526   */\n      0x00\n        /* \"#utility.yul\":516:522   */\n      dup5\n        /* \"#utility.yul\":511:514   */\n      dup5\n        /* \"#utility.yul\":507:523   */\n      add\n        /* \"#utility.yul\":500:527   */\n      mstore\n        /* \"#utility.yul\":349:533   */\n      pop\n        /* \"#utility.yul\":287:533   */\n      pop\n      pop\n      pop\n      jump\t// out\n        /* \"#utility.yul\":539:641   */\n    tag_285:\n        /* \"#utility.yul\":580:586   */\n      0x00\n        /* \"#utility.yul\":631:633   */\n      0x1f\n        /* \"#utility.yul\":627:634   */\n      not\n        /* \"#utility.yul\":622:624   */\n      0x1f\n        /* \"#utility.yul\":615:620   */\n      dup4\n        /* \"#utility.yul\":611:625   */\n      add\n        /* \"#utility.yul\":607:635   */\n      and\n        /* \"#utility.yul\":597:635   */\n      swap1\n      pop\n        /* \"#utility.yul\":539:641   */\n      swap2\n      swap1\n      pop\n      jump\t// out\n        /* \"#utility.yul\":647:1024   */\n    tag_286:\n        /* \"#utility.yul\":735:738   */\n      0x00\n        /* \"#utility.yul\":763:802   */\n      tag_367\n        /* \"#utility.yul\":796:801   */\n      dup3\n        /* \"#utility.yul\":763:802   */\n      tag_282\n      jump\t// in\n    tag_367:\n        /* \"#utility.yul\":818:889   */\n      tag_368\n        /* \"#utility.yul\":882:888   */\n      dup2\n        /* \"#utility.yul\":877:880   */\n      dup6\n        /* \"#utility.yul\":818:889   */\n      tag_283\n      jump\t// in\n    tag_368:\n        /* \"#utility.yul\":811:889   */\n      swap4\n      pop\n        /* \"#utility.yul\":898:963   */\n      tag_369\n        /* \"#utility.yul\":956:962   */\n      dup2\n        /* \"#utility.yul\":951:954   */\n      dup6\n        /* \"#utility.yul\":944:948   */\n      0x20\n        /* \"#utility.yul\":937:942   */\n      dup7\n        /* \"#utility.yul\":933:949   */\n      add\n        /* \"#utility.yul\":898:963   */\n      tag_284\n      jump\t// in\n    tag_369:\n        /* \"#utility.yul\":988:1017   */\n      tag_370\n        /* \"#utility.yul\":1010:1016   */\n      dup2\n        /* \"#utility.yul\":988:1017   */\n      tag_285\n      jump\t// in\n    tag_370:\n        /* \"#utility.yul\":983:986   */\n      dup5\n        /* \"#utility.yul\":979:1018   */\n      add\n        /* \"#utility.yul\":972:1018   */\n      swap2\n      pop\n        /* \"#utility.yul\":739:1024   */\n      pop\n        /* \"#utility.yul\":647:1024   */\n      swap3\n      swap2\n      pop\n      pop\n      jump\t// out\n        /* \"#utility.yul\":1030:1343   */\n    tag_29:\n        /* \"#utility.yul\":1143:1147   */\n      0x00\n        /* \"#utility.yul\":1181:1183   */\n      0x20\n        /* \"#utility.yul\":1170:1179   */\n      dup3\n        /* \"#utility.yul\":1166:1184   */\n      add\n        /* \"#utility.yul\":1158:1184   */\n      swap1\n      pop\n        /* \"#utility.yul\":1230:1239   */\n      dup2\n        /* \"#utility.yul\":1224:1228   */\n      dup2\n        /* \"#utility.yul\":1220:1240   */\n      sub\n        /* \"#utility.yul\":1216:1217   */\n      0x00\n        /* \"#utility.yul\":1205:1214   */\n      dup4\n        /* \"#utility.yul\":1201:1218   */\n      add\n        /* \"#utility.yul\":1194:1241   */\n      mstore\n        /* \"#utility.yul\":1258:1336   */\n      tag_372\n        /* \"#utility.yul\":1331:1335   */\n      dup2\n        /* \"#utility.yul\":1322:1328   */\n      dup5\n        /* \"#utility.yul\":1258:1336   */\n      tag_286\n      jump\t// in\n    tag_372:\n        /* \"#utility.yul\":1250:1336   */\n      swap1\n      pop\n        /* \"#utility.yul\":1030:1343   */\n      swap3\n      swap2\n      pop\n      pop\n      jump\t// out\n        /* \"#utility.yul\":1349:1424   */\n    tag_287:\n        /* \"#utility.yul\":1382:1388   */\n      0x00\n        /* \"#utility.yul\":1415:1417   */\n      0x40\n        /* \"#utility.yul\":1409:1418   */\n      mload\n        /* \"#utility.yul\":1399:1418   */\n      swap1\n      pop\n        /* \"#utility.yul\":1349:1424   */\n      swap1\n      jump\t// out\n        /* \"#utility.yul\":1430:1547   */\n    tag_288:\n        /* \"#utility.yul\":1539:1540   */\n      0x00\n        /* \"#utility.yul\":1536:1537   */\n      dup1\n        /* \"#utility.yul\":1529:1541   */\n      revert\n        /* \"#utility.yul\":1553:1670   */\n    tag_289:\n        /* \"#utility.yul\":1662:1663   */\n      0x00\n        /* \"#utility.yul\":1659:1660   */\n      dup1\n        /* \"#utility.yul\":1652:1664   */\n      revert\n        /* \"#utility.yul\":1676:1802   */\n    tag_290:\n        /* \"#utility.yul\":1713:1720   */\n      0x00\n        /* \"#utility.yul\":1753:1795   */\n      0xffffffffffffffffffffffffffffffffffffffff\n        /* \"#utility.yul\":1746:1751   */\n      dup3\n        /* \"#utility.yul\":1742:1796   */\n      and\n        /* \"#utility.yul\":1731:1796   */\n      swap1\n      pop\n        /* \"#utility.yul\":1676:1802   */\n      swap2\n      swap1\n      pop\n      jump\t// out\n        /* \"#utility.yul\":1808:1904   */\n    tag_291:\n        /* \"#utility.yul\":1845:1852   */\n      0x00\n        /* \"#utility.yul\":1874:1898   */\n      tag_378\n        /* \"#utility.yul\":1892:1897   */\n      dup3\n        /* \"#utility.yul\":1874:1898   */\n      tag_290\n      jump\t// in\n    tag_378:\n        /* \"#utility.yul\":1863:1898   */\n      swap1\n      pop\n        /* \"#utility.yul\":1808:1904   */\n      swap2\n      swap1\n      pop\n      jump\t// out\n        /* \"#utility.yul\":1910:2032   */\n    tag_292:\n        /* \"#utility.yul\":1983:2007   */\n      tag_380\n        /* \"#utility.yul\":2001:2006   */\n      dup2\n        /* \"#utility.yul\":1983:2007   */\n      tag_291\n      jump\t// in\n    tag_380:\n        /* \"#utility.yul\":1976:1981   */\n      dup2\n        /* \"#utility.yul\":1973:2008   */\n      eq\n        /* \"#utility.yul\":1963:2026   */\n      tag_381\n      jumpi\n        /* \"#utility.yul\":2022:2023   */\n      0x00\n        /* \"#utility.yul\":2019:2020   */\n      dup1\n        /* \"#utility.yul\":2012:2024   */\n      revert\n        /* \"#utility.yul\":1963:2026   */\n    tag_381:\n        /* \"#utility.yul\":1910:2032   */\n      pop\n      jump\t// out\n        /* \"#utility.yul\":2038:2177   */\n    tag_293:\n        /* \"#utility.yul\":2084:2089   */\n      0x00\n        /* \"#utility.yul\":2122:2128   */\n      dup2\n        /* \"#utility.yul\":2109:2129   */\n      calldataload\n        /* \"#utility.yul\":2100:2129   */\n      swap1\n      pop\n        /* \"#utility.yul\":2138:2171   */\n      tag_383\n        /* \"#utility.yul\":2165:2170   */\n      dup2\n        /* \"#utility.yul\":2138:2171   */\n      tag_292\n      jump\t// in\n    tag_383:\n        /* \"#utility.yul\":2038:2177   */\n      swap3\n      swap2\n      pop\n      pop\n      jump\t// out\n        /* \"#utility.yul\":2183:2260   */\n    tag_294:\n        /* \"#utility.yul\":2220:2227   */\n      0x00\n        /* \"#utility.yul\":2249:2254   */\n      dup2\n        /* \"#utility.yul\":2238:2254   */\n      swap1\n      pop\n        /* \"#utility.yul\":2183:2260   */\n      swap2\n      swap1\n      pop\n      jump\t// out\n        /* \"#utility.yul\":2266:2388   */\n    tag_295:\n        /* \"#utility.yul\":2339:2363   */\n      tag_386\n        /* \"#utility.yul\":2357:2362   */\n      dup2\n        /* \"#utility.yul\":2339:2363   */\n      tag_294\n      jump\t// in\n    tag_386:\n        /* \"#utility.yul\":2332:2337   */\n      dup2\n        /* \"#utility.yul\":2329:2364   */\n      eq\n        /* \"#utility.yul\":2319:2382   */\n      tag_387\n      jumpi\n        /* \"#utility.yul\":2378:2379   */\n      0x00\n        /* \"#utility.yul\":2375:2376   */\n      dup1\n        /* \"#utility.yul\":2368:2380   */\n      revert\n        /* \"#utility.yul\":2319:2382   */\n    tag_387:\n        /* \"#utility.yul\":2266:2388   */\n      pop\n      jump\t// out\n        /* \"#utility.yul\":2394:2533   */\n    tag_296:\n        /* \"#utility.yul\":2440:2445   */\n      0x00\n        /* \"#utility.yul\":2478:2484   */\n      dup2\n        /* \"#utility.yul\":2465:2485   */\n      calldataload\n        /* \"#utility.yul\":2456:2485   */\n      swap1\n      pop\n        /* \"#utility.yul\":2494:2527   */\n      tag_389\n        /* \"#utility.yul\":2521:2526   */\n      dup2\n        /* \"#utility.yul\":2494:2527   */\n      tag_295\n      jump\t// in\n    tag_389:\n        /* \"#utility.yul\":2394:2533   */\n      swap3\n      swap2\n      pop\n      pop\n      jump\t// out\n        /* \"#utility.yul\":2539:3013   */\n    tag_33:\n        /* \"#utility.yul\":2607:2613   */\n      0x00\n        /* \"#utility.yul\":2615:2621   */\n      dup1\n        /* \"#utility.yul\":2664:2666   */\n      0x40\n        /* \"#utility.yul\":2652:2661   */\n      dup4\n        /* \"#utility.yul\":2643:2650   */\n      dup6\n        /* \"#utility.yul\":2639:2662   */\n      sub\n        /* \"#utility.yul\":2635:2667   */\n      slt\n        /* \"#utility.yul\":2632:2751   */\n      iszero\n      tag_391\n      jumpi\n        /* \"#utility.yul\":2670:2749   */\n      tag_392\n      tag_288\n      jump\t// in\n    tag_392:\n        /* \"#utility.yul\":2632:2751   */\n    tag_391:\n        /* \"#utility.yul\":2790:2791   */\n      0x00\n        /* \"#utility.yul\":2815:2868   */\n      tag_393\n        /* \"#utility.yul\":2860:2867   */\n      dup6\n        /* \"#utility.yul\":2851:2857   */\n      dup3\n        /* \"#utility.yul\":2840:2849   */\n      dup7\n        /* \"#utility.yul\":2836:2858   */\n      add\n        /* \"#utility.yul\":2815:2868   */\n      tag_293\n      jump\t// in\n    tag_393:\n        /* \"#utility.yul\":2805:2868   */\n      swap3\n      pop\n        /* \"#utility.yul\":2761:2878   */\n      pop\n        /* \"#utility.yul\":2917:2919   */\n      0x20\n        /* \"#utility.yul\":2943:2996   */\n      tag_394\n        /* \"#utility.yul\":2988:2995   */\n      dup6\n        /* \"#utility.yul\":2979:2985   */\n      dup3\n        /* \"#utility.yul\":2968:2977   */\n      dup7\n        /* \"#utility.yul\":2964:2986   */\n      add\n        /* \"#utility.yul\":2943:2996   */\n      tag_296\n      jump\t// in\n    tag_394:\n        /* \"#utility.yul\":2933:2996   */\n      swap2\n      pop\n        /* \"#utility.yul\":2888:3006   */\n      pop\n        /* \"#utility.yul\":2539:3013   */\n      swap3\n      pop\n      swap3\n      swap1\n      pop\n      jump\t// out\n        /* \"#utility.yul\":3019:3109   */\n    tag_297:\n        /* \"#utility.yul\":3053:3060   */\n      0x00\n        /* \"#utility.yul\":3096:3101   */\n      dup2\n        /* \"#utility.yul\":3089:3102   */\n      iszero\n        /* \"#utility.yul\":3082:3103   */\n      iszero\n        /* \"#utility.yul\":3071:3103   */\n      swap1\n      pop\n        /* \"#utility.yul\":3019:3109   */\n      swap2\n      swap1\n      pop\n      jump\t// out\n        /* \"#utility.yul\":3115:3224   */\n    tag_298:\n        /* \"#utility.yul\":3196:3217   */\n      tag_397\n        /* \"#utility.yul\":3211:3216   */\n      dup2\n        /* \"#utility.yul\":3196:3217   */\n      tag_297\n      jump\t// in\n    tag_397:\n        /* \"#utility.yul\":3191:3194   */\n      dup3\n        /* \"#utility.yul\":3184:3218   */\n      mstore\n        /* \"#utility.yul\":3115:3224   */\n      pop\n      pop\n      jump\t// out\n        /* \"#utility.yul\":3230:3440   */\n    tag_36:\n        /* \"#utility.yul\":3317:3321   */\n      0x00\n        /* \"#utility.yul\":3355:3357   */\n      0x20\n        /* \"#utility.yul\":3344:3353   */\n      dup3\n        /* \"#utility.yul\":3340:3358   */\n      add\n        /* \"#utility.yul\":3332:3358   */\n      swap1\n      pop\n        /* \"#utility.yul\":3368:3433   */\n      tag_399\n        /* \"#utility.yul\":3430:3431   */\n      0x00\n        /* \"#utility.yul\":3419:3428   */\n      dup4\n        /* \"#utility.yul\":3415:3432   */\n      add\n        /* \"#utility.yul\":3406:3412   */\n      dup5\n        /* \"#utility.yul\":3368:3433   */\n      tag_298\n      jump\t// in\n    tag_399:\n        /* \"#utility.yul\":3230:3440   */\n      swap3\n      swap2\n      pop\n      pop\n      jump\t// out\n        /* \"#utility.yul\":3446:3564   */\n    tag_299:\n        /* \"#utility.yul\":3533:3557   */\n      tag_401\n        /* \"#utility.yul\":3551:3556   */\n      dup2\n        /* \"#utility.yul\":3533:3557   */\n      tag_294\n      jump\t// in\n    tag_401:\n        /* \"#utility.yul\":3528:3531   */\n      dup3\n        /* \"#utility.yul\":3521:3558   */\n      mstore\n        /* \"#utility.yul\":3446:3564   */\n      pop\n      pop\n      jump\t// out\n        /* \"#utility.yul\":3570:3792   */\n    tag_41:\n        /* \"#utility.yul\":3663:3667   */\n      0x00\n        /* \"#utility.yul\":3701:3703   */\n      0x20\n        /* \"#utility.yul\":3690:3699   */\n      dup3\n        /* \"#utility.yul\":3686:3704   */\n      add\n        /* \"#utility.yul\":3678:3704   */\n      swap1\n      pop\n        /* \"#utility.yul\":3714:3785   */\n      tag_403\n        /* \"#utility.yul\":3782:3783   */\n      0x00\n        /* \"#utility.yul\":3771:3780   */\n      dup4\n        /* \"#utility.yul\":3767:3784   */\n      add\n        /* \"#utility.yul\":3758:3764   */\n      dup5\n        /* \"#utility.yul\":3714:3785   */\n      tag_299\n      jump\t// in\n    tag_403:\n        /* \"#utility.yul\":3570:3792   */\n      swap3\n      swap2\n      pop\n      pop\n      jump\t// out\n        /* \"#utility.yul\":3798:4417   */\n    tag_45:\n        /* \"#utility.yul\":3875:3881   */\n      0x00\n        /* \"#utility.yul\":3883:3889   */\n      dup1\n        /* \"#utility.yul\":3891:3897   */\n      0x00\n        /* \"#utility.yul\":3940:3942   */\n      0x60\n        /* \"#utility.yul\":3928:3937   */\n      dup5\n        /* \"#utility.yul\":3919:3926   */\n      dup7\n        /* \"#utility.yul\":3915:3938   */\n      sub\n        /* \"#utility.yul\":3911:3943   */\n      slt\n        /* \"#utility.yul\":3908:4027   */\n      iszero\n      tag_405\n      jumpi\n        /* \"#utility.yul\":3946:4025   */\n      tag_406\n      tag_288\n      jump\t// in\n    tag_406:\n        /* \"#utility.yul\":3908:4027   */\n    tag_405:\n        /* \"#utility.yul\":4066:4067   */\n      0x00\n        /* \"#utility.yul\":4091:4144   */\n      tag_407\n        /* \"#utility.yul\":4136:4143   */\n      dup7\n        /* \"#utility.yul\":4127:4133   */\n      dup3\n        /* \"#utility.yul\":4116:4125   */\n      dup8\n        /* \"#utility.yul\":4112:4134   */\n      add\n        /* \"#utility.yul\":4091:4144   */\n      tag_293\n      jump\t// in\n    tag_407:\n        /* \"#utility.yul\":4081:4144   */\n      swap4\n      pop\n        /* \"#utility.yul\":4037:4154   */\n      pop\n        /* \"#utility.yul\":4193:4195   */\n      0x20\n        /* \"#utility.yul\":4219:4272   */\n      tag_408\n        /* \"#utility.yul\":4264:4271   */\n      dup7\n        /* \"#utility.yul\":4255:4261   */\n      dup3\n        /* \"#utility.yul\":4244:4253   */\n      dup8\n        /* \"#utility.yul\":4240:4262   */\n      add\n        /* \"#utility.yul\":4219:4272   */\n      tag_293\n      jump\t// in\n    tag_408:\n        /* \"#utility.yul\":4209:4272   */\n      swap3\n      pop\n        /* \"#utility.yul\":4164:4282   */\n      pop\n        /* \"#utility.yul\":4321:4323   */\n      0x40\n        /* \"#utility.yul\":4347:4400   */\n      tag_409\n        /* \"#utility.yul\":4392:4399   */\n      dup7\n        /* \"#utility.yul\":4383:4389   */\n      dup3\n        /* \"#utility.yul\":4372:4381   */\n      dup8\n        /* \"#utility.yul\":4368:4390   */\n      add\n        /* \"#utility.yul\":4347:4400   */\n      tag_296\n      jump\t// in\n    tag_409:\n        /* \"#utility.yul\":4337:4400   */\n      swap2\n      pop\n        /* \"#utility.yul\":4292:4410   */\n      pop\n        /* \"#utility.yul\":3798:4417   */\n      swap3\n      pop\n      swap3\n      pop\n      swap3\n      jump\t// out\n        /* \"#utility.yul\":4423:4541   */\n    tag_300:\n        /* \"#utility.yul\":4510:4534   */\n      tag_411\n        /* \"#utility.yul\":4528:4533   */\n      dup2\n        /* \"#utility.yul\":4510:4534   */\n      tag_291\n      jump\t// in\n    tag_411:\n        /* \"#utility.yul\":4505:4508   */\n      dup3\n        /* \"#utility.yul\":4498:4535   */\n      mstore\n        /* \"#utility.yul\":4423:4541   */\n      pop\n      pop\n      jump\t// out\n        /* \"#utility.yul\":4547:4769   */\n    tag_52:\n        /* \"#utility.yul\":4640:4644   */\n      0x00\n        /* \"#utility.yul\":4678:4680   */\n      0x20\n        /* \"#utility.yul\":4667:4676   */\n      dup3\n        /* \"#utility.yul\":4663:4681   */\n      add\n        /* \"#utility.yul\":4655:4681   */\n      swap1\n      pop\n        /* \"#utility.yul\":4691:4762   */\n      tag_413\n        /* \"#utility.yul\":4759:4760   */\n      0x00\n        /* \"#utility.yul\":4748:4757   */\n      dup4\n        /* \"#utility.yul\":4744:4761   */\n      add\n        /* \"#utility.yul\":4735:4741   */\n      dup5\n        /* \"#utility.yul\":4691:4762   */\n      tag_300\n      jump\t// in\n    tag_413:\n        /* \"#utility.yul\":4547:4769   */\n      swap3\n      swap2\n      pop\n      pop\n      jump\t// out\n        /* \"#utility.yul\":4775:4861   */\n    tag_301:\n        /* \"#utility.yul\":4810:4817   */\n      0x00\n        /* \"#utility.yul\":4850:4854   */\n      0xff\n        /* \"#utility.yul\":4843:4848   */\n      dup3\n        /* \"#utility.yul\":4839:4855   */\n      and\n        /* \"#utility.yul\":4828:4855   */\n      swap1\n      pop\n        /* \"#utility.yul\":4775:4861   */\n      swap2\n      swap1\n      pop\n      jump\t// out\n        /* \"#utility.yul\":4867:4979   */\n    tag_302:\n        /* \"#utility.yul\":4950:4972   */\n      tag_416\n        /* \"#utility.yul\":4966:4971   */\n      dup2\n        /* \"#utility.yul\":4950:4972   */\n      tag_301\n      jump\t// in\n    tag_416:\n        /* \"#utility.yul\":4945:4948   */\n      dup3\n        /* \"#utility.yul\":4938:4973   */\n      mstore\n        /* \"#utility.yul\":4867:4979   */\n      pop\n      pop\n      jump\t// out\n        /* \"#utility.yul\":4985:5199   */\n    tag_57:\n        /* \"#utility.yul\":5074:5078   */\n      0x00\n        /* \"#utility.yul\":5112:5114   */\n      0x20\n        /* \"#utility.yul\":5101:5110   */\n      dup3\n        /* \"#utility.yul\":5097:5115   */\n      add\n        /* \"#utility.yul\":5089:5115   */\n      swap1\n      pop\n        /* \"#utility.yul\":5125:5192   */\n      tag_418\n        /* \"#utility.yul\":5189:5190   */\n      0x00\n        /* \"#utility.yul\":5178:5187   */\n      dup4\n        /* \"#utility.yul\":5174:5191   */\n      add\n        /* \"#utility.yul\":5165:5171   */\n      dup5\n        /* \"#utility.yul\":5125:5192   */\n      tag_302\n      jump\t// in\n    tag_418:\n        /* \"#utility.yul\":4985:5199   */\n      swap3\n      swap2\n      pop\n      pop\n      jump\t// out\n        /* \"#utility.yul\":5205:5534   */\n    tag_61:\n        /* \"#utility.yul\":5264:5270   */\n      0x00\n        /* \"#utility.yul\":5313:5315   */\n      0x20\n        /* \"#utility.yul\":5301:5310   */\n      dup3\n        /* \"#utility.yul\":5292:5299   */\n      dup5\n        /* \"#utility.yul\":5288:5311   */\n      sub\n        /* \"#utility.yul\":5284:5316   */\n      slt\n        /* \"#utility.yul\":5281:5400   */\n      iszero\n      tag_420\n      jumpi\n        /* \"#utility.yul\":5319:5398   */\n      tag_421\n      tag_288\n      jump\t// in\n    tag_421:\n        /* \"#utility.yul\":5281:5400   */\n    tag_420:\n        /* \"#utility.yul\":5439:5440   */\n      0x00\n        /* \"#utility.yul\":5464:5517   */\n      tag_422\n        /* \"#utility.yul\":5509:5516   */\n      dup5\n        /* \"#utility.yul\":5500:5506   */\n      dup3\n        /* \"#utility.yul\":5489:5498   */\n      dup6\n        /* \"#utility.yul\":5485:5507   */\n      add\n        /* \"#utility.yul\":5464:5517   */\n      tag_293\n      jump\t// in\n    tag_422:\n        /* \"#utility.yul\":5454:5517   */\n      swap2\n      pop\n        /* \"#utility.yul\":5410:5527   */\n      pop\n        /* \"#utility.yul\":5205:5534   */\n      swap3\n      swap2\n      pop\n      pop\n      jump\t// out\n        /* \"#utility.yul\":5540:6810   */\n    tag_64:\n        /* \"#utility.yul\":5889:5893   */\n      0x00\n        /* \"#utility.yul\":5927:5930   */\n      0x0100\n        /* \"#utility.yul\":5916:5925   */\n      dup3\n        /* \"#utility.yul\":5912:5931   */\n      add\n        /* \"#utility.yul\":5904:5931   */\n      swap1\n      pop\n        /* \"#utility.yul\":5941:6012   */\n      tag_424\n        /* \"#utility.yul\":6009:6010   */\n      0x00\n        /* \"#utility.yul\":5998:6007   */\n      dup4\n        /* \"#utility.yul\":5994:6011   */\n      add\n        /* \"#utility.yul\":5985:5991   */\n      dup12\n        /* \"#utility.yul\":5941:6012   */\n      tag_300\n      jump\t// in\n    tag_424:\n        /* \"#utility.yul\":6059:6068   */\n      dup2\n        /* \"#utility.yul\":6053:6057   */\n      dup2\n        /* \"#utility.yul\":6049:6069   */\n      sub\n        /* \"#utility.yul\":6044:6046   */\n      0x20\n        /* \"#utility.yul\":6033:6042   */\n      dup4\n        /* \"#utility.yul\":6029:6047   */\n      add\n        /* \"#utility.yul\":6022:6070   */\n      mstore\n        /* \"#utility.yul\":6087:6165   */\n      tag_425\n        /* \"#utility.yul\":6160:6164   */\n      dup2\n        /* \"#utility.yul\":6151:6157   */\n      dup11\n        /* \"#utility.yul\":6087:6165   */\n      tag_286\n      jump\t// in\n    tag_425:\n        /* \"#utility.yul\":6079:6165   */\n      swap1\n      pop\n        /* \"#utility.yul\":6175:6247   */\n      tag_426\n        /* \"#utility.yul\":6243:6245   */\n      0x40\n        /* \"#utility.yul\":6232:6241   */\n      dup4\n        /* \"#utility.yul\":6228:6246   */\n      add\n        /* \"#utility.yul\":6219:6225   */\n      dup10\n        /* \"#utility.yul\":6175:6247   */\n      tag_299\n      jump\t// in\n    tag_426:\n        /* \"#utility.yul\":6294:6303   */\n      dup2\n        /* \"#utility.yul\":6288:6292   */\n      dup2\n        /* \"#utility.yul\":6284:6304   */\n      sub\n        /* \"#utility.yul\":6279:6281   */\n      0x60\n        /* \"#utility.yul\":6268:6277   */\n      dup4\n        /* \"#utility.yul\":6264:6282   */\n      add\n        /* \"#utility.yul\":6257:6305   */\n      mstore\n        /* \"#utility.yul\":6322:6400   */\n      tag_427\n        /* \"#utility.yul\":6395:6399   */\n      dup2\n        /* \"#utility.yul\":6386:6392   */\n      dup9\n        /* \"#utility.yul\":6322:6400   */\n      tag_286\n      jump\t// in\n    tag_427:\n        /* \"#utility.yul\":6314:6400   */\n      swap1\n      pop\n        /* \"#utility.yul\":6448:6457   */\n      dup2\n        /* \"#utility.yul\":6442:6446   */\n      dup2\n        /* \"#utility.yul\":6438:6458   */\n      sub\n        /* \"#utility.yul\":6432:6435   */\n      0x80\n        /* \"#utility.yul\":6421:6430   */\n      dup4\n        /* \"#utility.yul\":6417:6436   */\n      add\n        /* \"#utility.yul\":6410:6459   */\n      mstore\n        /* \"#utility.yul\":6476:6554   */\n      tag_428\n        /* \"#utility.yul\":6549:6553   */\n      dup2\n        /* \"#utility.yul\":6540:6546   */\n      dup8\n        /* \"#utility.yul\":6476:6554   */\n      tag_286\n      jump\t// in\n    tag_428:\n        /* \"#utility.yul\":6468:6554   */\n      swap1\n      pop\n        /* \"#utility.yul\":6564:6637   */\n      tag_429\n        /* \"#utility.yul\":6632:6635   */\n      0xa0\n        /* \"#utility.yul\":6621:6630   */\n      dup4\n        /* \"#utility.yul\":6617:6636   */\n      add\n        /* \"#utility.yul\":6608:6614   */\n      dup7\n        /* \"#utility.yul\":6564:6637   */\n      tag_299\n      jump\t// in\n    tag_429:\n        /* \"#utility.yul\":6647:6720   */\n      tag_430\n        /* \"#utility.yul\":6715:6718   */\n      0xc0\n        /* \"#utility.yul\":6704:6713   */\n      dup4\n        /* \"#utility.yul\":6700:6719   */\n      add\n        /* \"#utility.yul\":6691:6697   */\n      dup6\n        /* \"#utility.yul\":6647:6720   */\n      tag_299\n      jump\t// in\n    tag_430:\n        /* \"#utility.yul\":6730:6803   */\n      tag_431\n        /* \"#utility.yul\":6798:6801   */\n      0xe0\n        /* \"#utility.yul\":6787:6796   */\n      dup4\n        /* \"#utility.yul\":6783:6802   */\n      add\n        /* \"#utility.yul\":6774:6780   */\n      dup5\n        /* \"#utility.yul\":6730:6803   */\n      tag_299\n      jump\t// in\n    tag_431:\n        /* \"#utility.yul\":5540:6810   */\n      swap10\n      swap9\n      pop\n      pop\n      pop\n      pop\n      pop\n      pop\n      pop\n      pop\n      pop\n      jump\t// out\n        /* \"#utility.yul\":6816:6924   */\n    tag_303:\n        /* \"#utility.yul\":6893:6917   */\n      tag_433\n        /* \"#utility.yul\":6911:6916   */\n      dup2\n        /* \"#utility.yul\":6893:6917   */\n      tag_291\n      jump\t// in\n    tag_433:\n        /* \"#utility.yul\":6888:6891   */\n      dup3\n        /* \"#utility.yul\":6881:6918   */\n      mstore\n        /* \"#utility.yul\":6816:6924   */\n      pop\n      pop\n      jump\t// out\n        /* \"#utility.yul\":6930:7089   */\n    tag_304:\n        /* \"#utility.yul\":7004:7015   */\n      0x00\n        /* \"#utility.yul\":7038:7044   */\n      dup3\n        /* \"#utility.yul\":7033:7036   */\n      dup3\n        /* \"#utility.yul\":7026:7045   */\n      mstore\n        /* \"#utility.yul\":7078:7082   */\n      0x20\n        /* \"#utility.yul\":7073:7076   */\n      dup3\n        /* \"#utility.yul\":7069:7083   */\n      add\n        /* \"#utility.yul\":7054:7083   */\n      swap1\n      pop\n        /* \"#utility.yul\":6930:7089   */\n      swap3\n      swap2\n      pop\n      pop\n      jump\t// out\n        /* \"#utility.yul\":7095:7452   */\n    tag_305:\n        /* \"#utility.yul\":7173:7176   */\n      0x00\n        /* \"#utility.yul\":7201:7240   */\n      tag_436\n        /* \"#utility.yul\":7234:7239   */\n      dup3\n        /* \"#utility.yul\":7201:7240   */\n      tag_282\n      jump\t// in\n    tag_436:\n        /* \"#utility.yul\":7256:7317   */\n      tag_437\n        /* \"#utility.yul\":7310:7316   */\n      dup2\n        /* \"#utility.yul\":7305:7308   */\n      dup6\n        /* \"#utility.yul\":7256:7317   */\n      tag_304\n      jump\t// in\n    tag_437:\n        /* \"#utility.yul\":7249:7317   */\n      swap4\n      pop\n        /* \"#utility.yul\":7326:7391   */\n      tag_438\n        /* \"#utility.yul\":7384:7390   */\n      dup2\n        /* \"#utility.yul\":7379:7382   */\n      dup6\n        /* \"#utility.yul\":7372:7376   */\n      0x20\n        /* \"#utility.yul\":7365:7370   */\n      dup7\n        /* \"#utility.yul\":7361:7377   */\n      add\n        /* \"#utility.yul\":7326:7391   */\n      tag_284\n      jump\t// in\n    tag_438:\n        /* \"#utility.yul\":7416:7445   */\n      tag_439\n        /* \"#utility.yul\":7438:7444   */\n      dup2\n        /* \"#utility.yul\":7416:7445   */\n      tag_285\n      jump\t// in\n    tag_439:\n        /* \"#utility.yul\":7411:7414   */\n      dup5\n        /* \"#utility.yul\":7407:7446   */\n      add\n        /* \"#utility.yul\":7400:7446   */\n      swap2\n      pop\n        /* \"#utility.yul\":7177:7452   */\n      pop\n        /* \"#utility.yul\":7095:7452   */\n      swap3\n      swap2\n      pop\n      pop\n      jump\t// out\n        /* \"#utility.yul\":7458:7566   */\n    tag_306:\n        /* \"#utility.yul\":7535:7559   */\n      tag_441\n        /* \"#utility.yul\":7553:7558   */\n      dup2\n        /* \"#utility.yul\":7535:7559   */\n      tag_294\n      jump\t// in\n    tag_441:\n        /* \"#utility.yul\":7530:7533   */\n      dup3\n        /* \"#utility.yul\":7523:7560   */\n      mstore\n        /* \"#utility.yul\":7458:7566   */\n      pop\n      pop\n      jump\t// out\n        /* \"#utility.yul\":7630:9462   */\n    tag_307:\n        /* \"#utility.yul\":7749:7752   */\n      0x00\n        /* \"#utility.yul\":7785:7791   */\n      0x0100\n        /* \"#utility.yul\":7780:7783   */\n      dup4\n        /* \"#utility.yul\":7776:7792   */\n      add\n        /* \"#utility.yul\":7878:7882   */\n      0x00\n        /* \"#utility.yul\":7871:7876   */\n      dup4\n        /* \"#utility.yul\":7867:7883   */\n      add\n        /* \"#utility.yul\":7861:7884   */\n      mload\n        /* \"#utility.yul\":7897:7960   */\n      tag_443\n        /* \"#utility.yul\":7954:7958   */\n      0x00\n        /* \"#utility.yul\":7949:7952   */\n      dup7\n        /* \"#utility.yul\":7945:7959   */\n      add\n        /* \"#utility.yul\":7931:7943   */\n      dup3\n        /* \"#utility.yul\":7897:7960   */\n      tag_303\n      jump\t// in\n    tag_443:\n        /* \"#utility.yul\":7802:7970   */\n      pop\n        /* \"#utility.yul\":8053:8057   */\n      0x20\n        /* \"#utility.yul\":8046:8051   */\n      dup4\n        /* \"#utility.yul\":8042:8058   */\n      add\n        /* \"#utility.yul\":8036:8059   */\n      mload\n        /* \"#utility.yul\":8106:8109   */\n      dup5\n        /* \"#utility.yul\":8100:8104   */\n      dup3\n        /* \"#utility.yul\":8096:8110   */\n      sub\n        /* \"#utility.yul\":8089:8093   */\n      0x20\n        /* \"#utility.yul\":8084:8087   */\n      dup7\n        /* \"#utility.yul\":8080:8094   */\n      add\n        /* \"#utility.yul\":8073:8111   */\n      mstore\n        /* \"#utility.yul\":8132:8205   */\n      tag_444\n        /* \"#utility.yul\":8200:8204   */\n      dup3\n        /* \"#utility.yul\":8186:8198   */\n      dup3\n        /* \"#utility.yul\":8132:8205   */\n      tag_305\n      jump\t// in\n    tag_444:\n        /* \"#utility.yul\":8124:8205   */\n      swap2\n      pop\n        /* \"#utility.yul\":7980:8216   */\n      pop\n        /* \"#utility.yul\":8298:8302   */\n      0x40\n        /* \"#utility.yul\":8291:8296   */\n      dup4\n        /* \"#utility.yul\":8287:8303   */\n      add\n        /* \"#utility.yul\":8281:8304   */\n      mload\n        /* \"#utility.yul\":8317:8380   */\n      tag_445\n        /* \"#utility.yul\":8374:8378   */\n      0x40\n        /* \"#utility.yul\":8369:8372   */\n      dup7\n        /* \"#utility.yul\":8365:8379   */\n      add\n        /* \"#utility.yul\":8351:8363   */\n      dup3\n        /* \"#utility.yul\":8317:8380   */\n      tag_306\n      jump\t// in\n    tag_445:\n        /* \"#utility.yul\":8226:8390   */\n      pop\n        /* \"#utility.yul\":8475:8479   */\n      0x60\n        /* \"#utility.yul\":8468:8473   */\n      dup4\n        /* \"#utility.yul\":8464:8480   */\n      add\n        /* \"#utility.yul\":8458:8481   */\n      mload\n        /* \"#utility.yul\":8528:8531   */\n      dup5\n        /* \"#utility.yul\":8522:8526   */\n      dup3\n        /* \"#utility.yul\":8518:8532   */\n      sub\n        /* \"#utility.yul\":8511:8515   */\n      0x60\n        /* \"#utility.yul\":8506:8509   */\n      dup7\n        /* \"#utility.yul\":8502:8516   */\n      add\n        /* \"#utility.yul\":8495:8533   */\n      mstore\n        /* \"#utility.yul\":8554:8627   */\n      tag_446\n        /* \"#utility.yul\":8622:8626   */\n      dup3\n        /* \"#utility.yul\":8608:8620   */\n      dup3\n        /* \"#utility.yul\":8554:8627   */\n      tag_305\n      jump\t// in\n    tag_446:\n        /* \"#utility.yul\":8546:8627   */\n      swap2\n      pop\n        /* \"#utility.yul\":8400:8638   */\n      pop\n        /* \"#utility.yul\":8728:8732   */\n      0x80\n        /* \"#utility.yul\":8721:8726   */\n      dup4\n        /* \"#utility.yul\":8717:8733   */\n      add\n        /* \"#utility.yul\":8711:8734   */\n      mload\n        /* \"#utility.yul\":8781:8784   */\n      dup5\n        /* \"#utility.yul\":8775:8779   */\n      dup3\n        /* \"#utility.yul\":8771:8785   */\n      sub\n        /* \"#utility.yul\":8764:8768   */\n      0x80\n        /* \"#utility.yul\":8759:8762   */\n      dup7\n        /* \"#utility.yul\":8755:8769   */\n      add\n        /* \"#utility.yul\":8748:8786   */\n      mstore\n        /* \"#utility.yul\":8807:8880   */\n      tag_447\n        /* \"#utility.yul\":8875:8879   */\n      dup3\n        /* \"#utility.yul\":8861:8873   */\n      dup3\n        /* \"#utility.yul\":8807:8880   */\n      tag_305\n      jump\t// in\n    tag_447:\n        /* \"#utility.yul\":8799:8880   */\n      swap2\n      pop\n        /* \"#utility.yul\":8648:8891   */\n      pop\n        /* \"#utility.yul\":8977:8981   */\n      0xa0\n        /* \"#utility.yul\":8970:8975   */\n      dup4\n        /* \"#utility.yul\":8966:8982   */\n      add\n        /* \"#utility.yul\":8960:8983   */\n      mload\n        /* \"#utility.yul\":8996:9059   */\n      tag_448\n        /* \"#utility.yul\":9053:9057   */\n      0xa0\n        /* \"#utility.yul\":9048:9051   */\n      dup7\n        /* \"#utility.yul\":9044:9058   */\n      add\n        /* \"#utility.yul\":9030:9042   */\n      dup3\n        /* \"#utility.yul\":8996:9059   */\n      tag_306\n      jump\t// in\n    tag_448:\n        /* \"#utility.yul\":8901:9069   */\n      pop\n        /* \"#utility.yul\":9161:9165   */\n      0xc0\n        /* \"#utility.yul\":9154:9159   */\n      dup4\n        /* \"#utility.yul\":9150:9166   */\n      add\n        /* \"#utility.yul\":9144:9167   */\n      mload\n        /* \"#utility.yul\":9180:9243   */\n      tag_449\n        /* \"#utility.yul\":9237:9241   */\n      0xc0\n        /* \"#utility.yul\":9232:9235   */\n      dup7\n        /* \"#utility.yul\":9228:9242   */\n      add\n        /* \"#utility.yul\":9214:9226   */\n      dup3\n        /* \"#utility.yul\":9180:9243   */\n      tag_306\n      jump\t// in\n    tag_449:\n        /* \"#utility.yul\":9079:9253   */\n      pop\n        /* \"#utility.yul\":9343:9347   */\n      0xe0\n        /* \"#utility.yul\":9336:9341   */\n      dup4\n        /* \"#utility.yul\":9332:9348   */\n      add\n        /* \"#utility.yul\":9326:9349   */\n      mload\n        /* \"#utility.yul\":9362:9425   */\n      tag_450\n        /* \"#utility.yul\":9419:9423   */\n      0xe0\n        /* \"#utility.yul\":9414:9417   */\n      dup7\n        /* \"#utility.yul\":9410:9424   */\n      add\n        /* \"#utility.yul\":9396:9408   */\n      dup3\n        /* \"#utility.yul\":9362:9425   */\n      tag_306\n      jump\t// in\n    tag_450:\n        /* \"#utility.yul\":9263:9435   */\n      pop\n        /* \"#utility.yul\":9452:9456   */\n      dup1\n        /* \"#utility.yul\":9445:9456   */\n      swap2\n      pop\n        /* \"#utility.yul\":7754:9462   */\n      pop\n        /* \"#utility.yul\":7630:9462   */\n      swap3\n      swap2\n      pop\n      pop\n      jump\t// out\n        /* \"#utility.yul\":9468:9841   */\n    tag_69:\n        /* \"#utility.yul\":9611:9615   */\n      0x00\n        /* \"#utility.yul\":9649:9651   */\n      0x20\n        /* \"#utility.yul\":9638:9647   */\n      dup3\n        /* \"#utility.yul\":9634:9652   */\n      add\n        /* \"#utility.yul\":9626:9652   */\n      swap1\n      pop\n        /* \"#utility.yul\":9698:9707   */\n      dup2\n        /* \"#utility.yul\":9692:9696   */\n      dup2\n        /* \"#utility.yul\":9688:9708   */\n      sub\n        /* \"#utility.yul\":9684:9685   */\n      0x00\n        /* \"#utility.yul\":9673:9682   */\n      dup4\n        /* \"#utility.yul\":9669:9686   */\n      add\n        /* \"#utility.yul\":9662:9709   */\n      mstore\n        /* \"#utility.yul\":9726:9834   */\n      tag_452\n        /* \"#utility.yul\":9829:9833   */\n      dup2\n        /* \"#utility.yul\":9820:9826   */\n      dup5\n        /* \"#utility.yul\":9726:9834   */\n      tag_307\n      jump\t// in\n    tag_452:\n        /* \"#utility.yul\":9718:9834   */\n      swap1\n      pop\n        /* \"#utility.yul\":9468:9841   */\n      swap3\n      swap2\n      pop\n      pop\n      jump\t// out\n        /* \"#utility.yul\":9847:9964   */\n    tag_308:\n        /* \"#utility.yul\":9956:9957   */\n      0x00\n        /* \"#utility.yul\":9953:9954   */\n      dup1\n        /* \"#utility.yul\":9946:9958   */\n      revert\n        /* \"#utility.yul\":9970:10087   */\n    tag_309:\n        /* \"#utility.yul\":10079:10080   */\n      0x00\n        /* \"#utility.yul\":10076:10077   */\n      dup1\n        /* \"#utility.yul\":10069:10081   */\n      revert\n        /* \"#utility.yul\":10093:10273   */\n    tag_310:\n        /* \"#utility.yul\":10141:10218   */\n      0x4e487b7100000000000000000000000000000000000000000000000000000000\n        /* \"#utility.yul\":10138:10139   */\n      0x00\n        /* \"#utility.yul\":10131:10219   */\n      mstore\n        /* \"#utility.yul\":10238:10242   */\n      0x41\n        /* \"#utility.yul\":10235:10236   */\n      0x04\n        /* \"#utility.yul\":10228:10243   */\n      mstore\n        /* \"#utility.yul\":10262:10266   */\n      0x24\n        /* \"#utility.yul\":10259:10260   */\n      0x00\n        /* \"#utility.yul\":10252:10267   */\n      revert\n        /* \"#utility.yul\":10279:10560   */\n    tag_311:\n        /* \"#utility.yul\":10362:10389   */\n      tag_457\n        /* \"#utility.yul\":10384:10388   */\n      dup3\n        /* \"#utility.yul\":10362:10389   */\n      tag_285\n      jump\t// in\n    tag_457:\n        /* \"#utility.yul\":10354:10360   */\n      dup2\n        /* \"#utility.yul\":10350:10390   */\n      add\n        /* \"#utility.yul\":10492:10498   */\n      dup2\n        /* \"#utility.yul\":10480:10490   */\n      dup2\n        /* \"#utility.yul\":10477:10499   */\n      lt\n        /* \"#utility.yul\":10456:10474   */\n      0xffffffffffffffff\n        /* \"#utility.yul\":10444:10454   */\n      dup3\n        /* \"#utility.yul\":10441:10475   */\n      gt\n        /* \"#utility.yul\":10438:10500   */\n      or\n        /* \"#utility.yul\":10435:10523   */\n      iszero\n      tag_458\n      jumpi\n        /* \"#utility.yul\":10503:10521   */\n      tag_459\n      tag_310\n      jump\t// in\n    tag_459:\n        /* \"#utility.yul\":10435:10523   */\n    tag_458:\n        /* \"#utility.yul\":10543:10553   */\n      dup1\n        /* \"#utility.yul\":10539:10541   */\n      0x40\n        /* \"#utility.yul\":10532:10554   */\n      mstore\n        /* \"#utility.yul\":10322:10560   */\n      pop\n        /* \"#utility.yul\":10279:10560   */\n      pop\n      pop\n      jump\t// out\n        /* \"#utility.yul\":10566:10695   */\n    tag_312:\n        /* \"#utility.yul\":10600:10606   */\n      0x00\n        /* \"#utility.yul\":10627:10647   */\n      tag_461\n      tag_287\n      jump\t// in\n    tag_461:\n        /* \"#utility.yul\":10617:10647   */\n      swap1\n      pop\n        /* \"#utility.yul\":10656:10689   */\n      tag_462\n        /* \"#utility.yul\":10684:10688   */\n      dup3\n        /* \"#utility.yul\":10676:10682   */\n      dup3\n        /* \"#utility.yul\":10656:10689   */\n      tag_311\n      jump\t// in\n    tag_462:\n        /* \"#utility.yul\":10566:10695   */\n      swap2\n      swap1\n      pop\n      jump\t// out\n        /* \"#utility.yul\":10701:11009   */\n    tag_313:\n        /* \"#utility.yul\":10763:10767   */\n      0x00\n        /* \"#utility.yul\":10853:10871   */\n      0xffffffffffffffff\n        /* \"#utility.yul\":10845:10851   */\n      dup3\n        /* \"#utility.yul\":10842:10872   */\n      gt\n        /* \"#utility.yul\":10839:10895   */\n      iszero\n      tag_464\n      jumpi\n        /* \"#utility.yul\":10875:10893   */\n      tag_465\n      tag_310\n      jump\t// in\n    tag_465:\n        /* \"#utility.yul\":10839:10895   */\n    tag_464:\n        /* \"#utility.yul\":10913:10942   */\n      tag_466\n        /* \"#utility.yul\":10935:10941   */\n      dup3\n        /* \"#utility.yul\":10913:10942   */\n      tag_285\n      jump\t// in\n    tag_466:\n        /* \"#utility.yul\":10905:10942   */\n      swap1\n      pop\n        /* \"#utility.yul\":10997:11001   */\n      0x20\n        /* \"#utility.yul\":10991:10995   */\n      dup2\n        /* \"#utility.yul\":10987:11002   */\n      add\n        /* \"#utility.yul\":10979:11002   */\n      swap1\n      pop\n        /* \"#utility.yul\":10701:11009   */\n      swap2\n      swap1\n      pop\n      jump\t// out\n        /* \"#utility.yul\":11015:11161   */\n    tag_314:\n        /* \"#utility.yul\":11112:11118   */\n      dup3\n        /* \"#utility.yul\":11107:11110   */\n      dup2\n        /* \"#utility.yul\":11102:11105   */\n      dup4\n        /* \"#utility.yul\":11089:11119   */\n      calldatacopy\n        /* \"#utility.yul\":11153:11154   */\n      0x00\n        /* \"#utility.yul\":11144:11150   */\n      dup4\n        /* \"#utility.yul\":11139:11142   */\n      dup4\n        /* \"#utility.yul\":11135:11151   */\n      add\n        /* \"#utility.yul\":11128:11155   */\n      mstore\n        /* \"#utility.yul\":11015:11161   */\n      pop\n      pop\n      pop\n      jump\t// out\n        /* \"#utility.yul\":11167:11592   */\n    tag_315:\n        /* \"#utility.yul\":11245:11250   */\n      0x00\n        /* \"#utility.yul\":11270:11336   */\n      tag_469\n        /* \"#utility.yul\":11286:11335   */\n      tag_470\n        /* \"#utility.yul\":11328:11334   */\n      dup5\n        /* \"#utility.yul\":11286:11335   */\n      tag_313\n      jump\t// in\n    tag_470:\n        /* \"#utility.yul\":11270:11336   */\n      tag_312\n      jump\t// in\n    tag_469:\n        /* \"#utility.yul\":11261:11336   */\n      swap1\n      pop\n        /* \"#utility.yul\":11359:11365   */\n      dup3\n        /* \"#utility.yul\":11352:11357   */\n      dup2\n        /* \"#utility.yul\":11345:11366   */\n      mstore\n        /* \"#utility.yul\":11397:11401   */\n      0x20\n        /* \"#utility.yul\":11390:11395   */\n      dup2\n        /* \"#utility.yul\":11386:11402   */\n      add\n        /* \"#utility.yul\":11435:11438   */\n      dup5\n        /* \"#utility.yul\":11426:11432   */\n      dup5\n        /* \"#utility.yul\":11421:11424   */\n      dup5\n        /* \"#utility.yul\":11417:11433   */\n      add\n        /* \"#utility.yul\":11414:11439   */\n      gt\n        /* \"#utility.yul\":11411:11523   */\n      iszero\n      tag_471\n      jumpi\n        /* \"#utility.yul\":11442:11521   */\n      tag_472\n      tag_309\n      jump\t// in\n    tag_472:\n        /* \"#utility.yul\":11411:11523   */\n    tag_471:\n        /* \"#utility.yul\":11532:11586   */\n      tag_473\n        /* \"#utility.yul\":11579:11585   */\n      dup5\n        /* \"#utility.yul\":11574:11577   */\n      dup3\n        /* \"#utility.yul\":11569:11572   */\n      dup6\n        /* \"#utility.yul\":11532:11586   */\n      tag_314\n      jump\t// in\n    tag_473:\n        /* \"#utility.yul\":11251:11592   */\n      pop\n        /* \"#utility.yul\":11167:11592   */\n      swap4\n      swap3\n      pop\n      pop\n      pop\n      jump\t// out\n        /* \"#utility.yul\":11612:11952   */\n    tag_316:\n        /* \"#utility.yul\":11668:11673   */\n      0x00\n        /* \"#utility.yul\":11717:11720   */\n      dup3\n        /* \"#utility.yul\":11710:11714   */\n      0x1f\n        /* \"#utility.yul\":11702:11708   */\n      dup4\n        /* \"#utility.yul\":11698:11715   */\n      add\n        /* \"#utility.yul\":11694:11721   */\n      slt\n        /* \"#utility.yul\":11684:11806   */\n      tag_475\n      jumpi\n        /* \"#utility.yul\":11725:11804   */\n      tag_476\n      tag_308\n      jump\t// in\n    tag_476:\n        /* \"#utility.yul\":11684:11806   */\n    tag_475:\n        /* \"#utility.yul\":11842:11848   */\n      dup2\n        /* \"#utility.yul\":11829:11849   */\n      calldataload\n        /* \"#utility.yul\":11867:11946   */\n      tag_477\n        /* \"#utility.yul\":11942:11945   */\n      dup5\n        /* \"#utility.yul\":11934:11940   */\n      dup3\n        /* \"#utility.yul\":11927:11931   */\n      0x20\n        /* \"#utility.yul\":11919:11925   */\n      dup7\n        /* \"#utility.yul\":11915:11932   */\n      add\n        /* \"#utility.yul\":11867:11946   */\n      tag_315\n      jump\t// in\n    tag_477:\n        /* \"#utility.yul\":11858:11946   */\n      swap2\n      pop\n        /* \"#utility.yul\":11674:11952   */\n      pop\n        /* \"#utility.yul\":11612:11952   */\n      swap3\n      swap2\n      pop\n      pop\n      jump\t// out\n        /* \"#utility.yul\":11958:13263   */\n    tag_107:\n        /* \"#utility.yul\":12074:12080   */\n      0x00\n        /* \"#utility.yul\":12082:12088   */\n      dup1\n        /* \"#utility.yul\":12090:12096   */\n      0x00\n        /* \"#utility.yul\":12098:12104   */\n      dup1\n        /* \"#utility.yul\":12147:12150   */\n      0x80\n        /* \"#utility.yul\":12135:12144   */\n      dup6\n        /* \"#utility.yul\":12126:12133   */\n      dup8\n        /* \"#utility.yul\":12122:12145   */\n      sub\n        /* \"#utility.yul\":12118:12151   */\n      slt\n        /* \"#utility.yul\":12115:12235   */\n      iszero\n      tag_479\n      jumpi\n        /* \"#utility.yul\":12154:12233   */\n      tag_480\n      tag_288\n      jump\t// in\n    tag_480:\n        /* \"#utility.yul\":12115:12235   */\n    tag_479:\n        /* \"#utility.yul\":12302:12303   */\n      0x00\n        /* \"#utility.yul\":12291:12300   */\n      dup6\n        /* \"#utility.yul\":12287:12304   */\n      add\n        /* \"#utility.yul\":12274:12305   */\n      calldataload\n        /* \"#utility.yul\":12332:12350   */\n      0xffffffffffffffff\n        /* \"#utility.yul\":12324:12330   */\n      dup2\n        /* \"#utility.yul\":12321:12351   */\n      gt\n        /* \"#utility.yul\":12318:12435   */\n      iszero\n      tag_481\n      jumpi\n        /* \"#utility.yul\":12354:12433   */\n      tag_482\n      tag_289\n      jump\t// in\n    tag_482:\n        /* \"#utility.yul\":12318:12435   */\n    tag_481:\n        /* \"#utility.yul\":12459:12522   */\n      tag_483\n        /* \"#utility.yul\":12514:12521   */\n      dup8\n        /* \"#utility.yul\":12505:12511   */\n      dup3\n        /* \"#utility.yul\":12494:12503   */\n      dup9\n        /* \"#utility.yul\":12490:12512   */\n      add\n        /* \"#utility.yul\":12459:12522   */\n      tag_316\n      jump\t// in\n    tag_483:\n        /* \"#utility.yul\":12449:12522   */\n      swap5\n      pop\n        /* \"#utility.yul\":12245:12532   */\n      pop\n        /* \"#utility.yul\":12571:12573   */\n      0x20\n        /* \"#utility.yul\":12597:12650   */\n      tag_484\n        /* \"#utility.yul\":12642:12649   */\n      dup8\n        /* \"#utility.yul\":12633:12639   */\n      dup3\n        /* \"#utility.yul\":12622:12631   */\n      dup9\n        /* \"#utility.yul\":12618:12640   */\n      add\n        /* \"#utility.yul\":12597:12650   */\n      tag_296\n      jump\t// in\n    tag_484:\n        /* \"#utility.yul\":12587:12650   */\n      swap4\n      pop\n        /* \"#utility.yul\":12542:12660   */\n      pop\n        /* \"#utility.yul\":12727:12729   */\n      0x40\n        /* \"#utility.yul\":12716:12725   */\n      dup6\n        /* \"#utility.yul\":12712:12730   */\n      add\n        /* \"#utility.yul\":12699:12731   */\n      calldataload\n        /* \"#utility.yul\":12758:12776   */\n      0xffffffffffffffff\n        /* \"#utility.yul\":12750:12756   */\n      dup2\n        /* \"#utility.yul\":12747:12777   */\n      gt\n        /* \"#utility.yul\":12744:12861   */\n      iszero\n      tag_485\n      jumpi\n        /* \"#utility.yul\":12780:12859   */\n      tag_486\n      tag_289\n      jump\t// in\n    tag_486:\n        /* \"#utility.yul\":12744:12861   */\n    tag_485:\n        /* \"#utility.yul\":12885:12948   */\n      tag_487\n        /* \"#utility.yul\":12940:12947   */\n      dup8\n        /* \"#utility.yul\":12931:12937   */\n      dup3\n        /* \"#utility.yul\":12920:12929   */\n      dup9\n        /* \"#utility.yul\":12916:12938   */\n      add\n        /* \"#utility.yul\":12885:12948   */\n      tag_316\n      jump\t// in\n    tag_487:\n        /* \"#utility.yul\":12875:12948   */\n      swap3\n      pop\n        /* \"#utility.yul\":12670:12958   */\n      pop\n        /* \"#utility.yul\":13025:13027   */\n      0x60\n        /* \"#utility.yul\":13014:13023   */\n      dup6\n        /* \"#utility.yul\":13010:13028   */\n      add\n        /* \"#utility.yul\":12997:13029   */\n      calldataload\n        /* \"#utility.yul\":13056:13074   */\n      0xffffffffffffffff\n        /* \"#utility.yul\":13048:13054   */\n      dup2\n        /* \"#utility.yul\":13045:13075   */\n      gt\n        /* \"#utility.yul\":13042:13159   */\n      iszero\n      tag_488\n      jumpi\n        /* \"#utility.yul\":13078:13157   */\n      tag_489\n      tag_289\n      jump\t// in\n    tag_489:\n        /* \"#utility.yul\":13042:13159   */\n    tag_488:\n        /* \"#utility.yul\":13183:13246   */\n      tag_490\n        /* \"#utility.yul\":13238:13245   */\n      dup8\n        /* \"#utility.yul\":13229:13235   */\n      dup3\n        /* \"#utility.yul\":13218:13227   */\n      dup9\n        /* \"#utility.yul\":13214:13236   */\n      add\n        /* \"#utility.yul\":13183:13246   */\n      tag_316\n      jump\t// in\n    tag_490:\n        /* \"#utility.yul\":13173:13246   */\n      swap2\n      pop\n        /* \"#utility.yul\":12968:13256   */\n      pop\n        /* \"#utility.yul\":11958:13263   */\n      swap3\n      swap6\n      swap2\n      swap5\n      pop\n      swap3\n      pop\n      jump\t// out\n        /* \"#utility.yul\":13269:13743   */\n    tag_116:\n        /* \"#utility.yul\":13337:13343   */\n      0x00\n        /* \"#utility.yul\":13345:13351   */\n      dup1\n        /* \"#utility.yul\":13394:13396   */\n      0x40\n        /* \"#utility.yul\":13382:13391   */\n      dup4\n        /* \"#utility.yul\":13373:13380   */\n      dup6\n        /* \"#utility.yul\":13369:13392   */\n      sub\n        /* \"#utility.yul\":13365:13397   */\n      slt\n        /* \"#utility.yul\":13362:13481   */\n      iszero\n      tag_492\n      jumpi\n        /* \"#utility.yul\":13400:13479   */\n      tag_493\n      tag_288\n      jump\t// in\n    tag_493:\n        /* \"#utility.yul\":13362:13481   */\n    tag_492:\n        /* \"#utility.yul\":13520:13521   */\n      0x00\n        /* \"#utility.yul\":13545:13598   */\n      tag_494\n        /* \"#utility.yul\":13590:13597   */\n      dup6\n        /* \"#utility.yul\":13581:13587   */\n      dup3\n        /* \"#utility.yul\":13570:13579   */\n      dup7\n        /* \"#utility.yul\":13566:13588   */\n      add\n        /* \"#utility.yul\":13545:13598   */\n      tag_293\n      jump\t// in\n    tag_494:\n        /* \"#utility.yul\":13535:13598   */\n      swap3\n      pop\n        /* \"#utility.yul\":13491:13608   */\n      pop\n        /* \"#utility.yul\":13647:13649   */\n      0x20\n        /* \"#utility.yul\":13673:13726   */\n      tag_495\n        /* \"#utility.yul\":13718:13725   */\n      dup6\n        /* \"#utility.yul\":13709:13715   */\n      dup3\n        /* \"#utility.yul\":13698:13707   */\n      dup7\n        /* \"#utility.yul\":13694:13716   */\n      add\n        /* \"#utility.yul\":13673:13726   */\n      tag_293\n      jump\t// in\n    tag_495:\n        /* \"#utility.yul\":13663:13726   */\n      swap2\n      pop\n        /* \"#utility.yul\":13618:13736   */\n      pop\n        /* \"#utility.yul\":13269:13743   */\n      swap3\n      pop\n      swap3\n      swap1\n      pop\n      jump\t// out\n        /* \"#utility.yul\":13749:13929   */\n    tag_317:\n        /* \"#utility.yul\":13797:13874   */\n      0x4e487b7100000000000000000000000000000000000000000000000000000000\n        /* \"#utility.yul\":13794:13795   */\n      0x00\n        /* \"#utility.yul\":13787:13875   */\n      mstore\n        /* \"#utility.yul\":13894:13898   */\n      0x22\n        /* \"#utility.yul\":13891:13892   */\n      0x04\n        /* \"#utility.yul\":13884:13899   */\n      mstore\n        /* \"#utility.yul\":13918:13922   */\n      0x24\n        /* \"#utility.yul\":13915:13916   */\n      0x00\n        /* \"#utility.yul\":13908:13923   */\n      revert\n        /* \"#utility.yul\":13935:14255   */\n    tag_125:\n        /* \"#utility.yul\":13979:13985   */\n      0x00\n        /* \"#utility.yul\":14016:14017   */\n      0x02\n        /* \"#utility.yul\":14010:14014   */\n      dup3\n        /* \"#utility.yul\":14006:14018   */\n      div\n        /* \"#utility.yul\":13996:14018   */\n      swap1\n      pop\n        /* \"#utility.yul\":14063:14064   */\n      0x01\n        /* \"#utility.yul\":14057:14061   */\n      dup3\n        /* \"#utility.yul\":14053:14065   */\n      and\n        /* \"#utility.yul\":14084:14102   */\n      dup1\n        /* \"#utility.yul\":14074:14155   */\n      tag_498\n      jumpi\n        /* \"#utility.yul\":14140:14144   */\n      0x7f\n        /* \"#utility.yul\":14132:14138   */\n      dup3\n        /* \"#utility.yul\":14128:14145   */\n      and\n        /* \"#utility.yul\":14118:14145   */\n      swap2\n      pop\n        /* \"#utility.yul\":14074:14155   */\n    tag_498:\n        /* \"#utility.yul\":14202:14204   */\n      0x20\n        /* \"#utility.yul\":14194:14200   */\n      dup3\n        /* \"#utility.yul\":14191:14205   */\n      lt\n        /* \"#utility.yul\":14171:14189   */\n      dup2\n        /* \"#utility.yul\":14168:14206   */\n      sub\n        /* \"#utility.yul\":14165:14249   */\n      tag_499\n      jumpi\n        /* \"#utility.yul\":14221:14239   */\n      tag_500\n      tag_317\n      jump\t// in\n    tag_500:\n        /* \"#utility.yul\":14165:14249   */\n    tag_499:\n        /* \"#utility.yul\":13986:14255   */\n      pop\n        /* \"#utility.yul\":13935:14255   */\n      swap2\n      swap1\n      pop\n      jump\t// out\n        /* \"#utility.yul\":14261:14441   */\n    tag_318:\n        /* \"#utility.yul\":14309:14386   */\n      0x4e487b7100000000000000000000000000000000000000000000000000000000\n        /* \"#utility.yul\":14306:14307   */\n      0x00\n        /* \"#utility.yul\":14299:14387   */\n      mstore\n        /* \"#utility.yul\":14406:14410   */\n      0x11\n        /* \"#utility.yul\":14403:14404   */\n      0x04\n        /* \"#utility.yul\":14396:14411   */\n      mstore\n        /* \"#utility.yul\":14430:14434   */\n      0x24\n        /* \"#utility.yul\":14427:14428   */\n      0x00\n        /* \"#utility.yul\":14420:14435   */\n      revert\n        /* \"#utility.yul\":14447:14638   */\n    tag_184:\n        /* \"#utility.yul\":14487:14490   */\n      0x00\n        /* \"#utility.yul\":14506:14526   */\n      tag_503\n        /* \"#utility.yul\":14524:14525   */\n      dup3\n        /* \"#utility.yul\":14506:14526   */\n      tag_294\n      jump\t// in\n    tag_503:\n        /* \"#utility.yul\":14501:14526   */\n      swap2\n      pop\n        /* \"#utility.yul\":14540:14560   */\n      tag_504\n        /* \"#utility.yul\":14558:14559   */\n      dup4\n        /* \"#utility.yul\":14540:14560   */\n      tag_294\n      jump\t// in\n    tag_504:\n        /* \"#utility.yul\":14535:14560   */\n      swap3\n      pop\n        /* \"#utility.yul\":14583:14584   */\n      dup3\n        /* \"#utility.yul\":14580:14581   */\n      dup3\n        /* \"#utility.yul\":14576:14585   */\n      add\n        /* \"#utility.yul\":14569:14585   */\n      swap1\n      pop\n        /* \"#utility.yul\":14604:14607   */\n      dup1\n        /* \"#utility.yul\":14601:14602   */\n      dup3\n        /* \"#utility.yul\":14598:14608   */\n      gt\n        /* \"#utility.yul\":14595:14631   */\n      iszero\n      tag_505\n      jumpi\n        /* \"#utility.yul\":14611:14629   */\n      tag_506\n      tag_318\n      jump\t// in\n    tag_506:\n        /* \"#utility.yul\":14595:14631   */\n    tag_505:\n        /* \"#utility.yul\":14447:14638   */\n      swap3\n      swap2\n      pop\n      pop\n      jump\t// out\n        /* \"#utility.yul\":14644:14868   */\n    tag_319:\n        /* \"#utility.yul\":14784:14818   */\n      0x45524332303a2064656372656173656420616c6c6f77616e63652062656c6f77\n        /* \"#utility.yul\":14780:14781   */\n      0x00\n        /* \"#utility.yul\":14772:14778   */\n      dup3\n        /* \"#utility.yul\":14768:14782   */\n      add\n        /* \"#utility.yul\":14761:14819   */\n      mstore\n        /* \"#utility.yul\":14853:14860   */\n      0x207a65726f000000000000000000000000000000000000000000000000000000\n        /* \"#utility.yul\":14848:14850   */\n      0x20\n        /* \"#utility.yul\":14840:14846   */\n      dup3\n        /* \"#utility.yul\":14836:14851   */\n      add\n        /* \"#utility.yul\":14829:14861   */\n      mstore\n        /* \"#utility.yul\":14644:14868   */\n      pop\n      jump\t// out\n        /* \"#utility.yul\":14874:15240   */\n    tag_320:\n        /* \"#utility.yul\":15016:15019   */\n      0x00\n        /* \"#utility.yul\":15037:15104   */\n      tag_509\n        /* \"#utility.yul\":15101:15103   */\n      0x25\n        /* \"#utility.yul\":15096:15099   */\n      dup4\n        /* \"#utility.yul\":15037:15104   */\n      tag_283\n      jump\t// in\n    tag_509:\n        /* \"#utility.yul\":15030:15104   */\n      swap2\n      pop\n        /* \"#utility.yul\":15113:15206   */\n      tag_510\n        /* \"#utility.yul\":15202:15205   */\n      dup3\n        /* \"#utility.yul\":15113:15206   */\n      tag_319\n      jump\t// in\n    tag_510:\n        /* \"#utility.yul\":15231:15233   */\n      0x40\n        /* \"#utility.yul\":15226:15229   */\n      dup3\n        /* \"#utility.yul\":15222:15234   */\n      add\n        /* \"#utility.yul\":15215:15234   */\n      swap1\n      pop\n        /* \"#utility.yul\":14874:15240   */\n      swap2\n      swap1\n      pop\n      jump\t// out\n        /* \"#utility.yul\":15246:15665   */\n    tag_203:\n        /* \"#utility.yul\":15412:15416   */\n      0x00\n        /* \"#utility.yul\":15450:15452   */\n      0x20\n        /* \"#utility.yul\":15439:15448   */\n      dup3\n        /* \"#utility.yul\":15435:15453   */\n      add\n        /* \"#utility.yul\":15427:15453   */\n      swap1\n      pop\n        /* \"#utility.yul\":15499:15508   */\n      dup2\n        /* \"#utility.yul\":15493:15497   */\n      dup2\n        /* \"#utility.yul\":15489:15509   */\n      sub\n        /* \"#utility.yul\":15485:15486   */\n      0x00\n        /* \"#utility.yul\":15474:15483   */\n      dup4\n        /* \"#utility.yul\":15470:15487   */\n      add\n        /* \"#utility.yul\":15463:15510   */\n      mstore\n        /* \"#utility.yul\":15527:15658   */\n      tag_512\n        /* \"#utility.yul\":15653:15657   */\n      dup2\n        /* \"#utility.yul\":15527:15658   */\n      tag_320\n      jump\t// in\n    tag_512:\n        /* \"#utility.yul\":15519:15658   */\n      swap1\n      pop\n        /* \"#utility.yul\":15246:15665   */\n      swap2\n      swap1\n      pop\n      jump\t// out\n        /* \"#utility.yul\":15671:15900   */\n    tag_321:\n        /* \"#utility.yul\":15811:15845   */\n      0x596f7520617265206e6f7420656c696761626c6520746f206861766520616e20\n        /* \"#utility.yul\":15807:15808   */\n      0x00\n        /* \"#utility.yul\":15799:15805   */\n      dup3\n        /* \"#utility.yul\":15795:15809   */\n      add\n        /* \"#utility.yul\":15788:15846   */\n      mstore\n        /* \"#utility.yul\":15880:15892   */\n      0x696e737572616e63652e00000000000000000000000000000000000000000000\n        /* \"#utility.yul\":15875:15877   */\n      0x20\n        /* \"#utility.yul\":15867:15873   */\n      dup3\n        /* \"#utility.yul\":15863:15878   */\n      add\n        /* \"#utility.yul\":15856:15893   */\n      mstore\n        /* \"#utility.yul\":15671:15900   */\n      pop\n      jump\t// out\n        /* \"#utility.yul\":15906:16272   */\n    tag_322:\n        /* \"#utility.yul\":16048:16051   */\n      0x00\n        /* \"#utility.yul\":16069:16136   */\n      tag_515\n        /* \"#utility.yul\":16133:16135   */\n      0x2a\n        /* \"#utility.yul\":16128:16131   */\n      dup4\n        /* \"#utility.yul\":16069:16136   */\n      tag_283\n      jump\t// in\n    tag_515:\n        /* \"#utility.yul\":16062:16136   */\n      swap2\n      pop\n        /* \"#utility.yul\":16145:16238   */\n      tag_516\n        /* \"#utility.yul\":16234:16237   */\n      dup3\n        /* \"#utility.yul\":16145:16238   */\n      tag_321\n      jump\t// in\n    tag_516:\n        /* \"#utility.yul\":16263:16265   */\n      0x40\n        /* \"#utility.yul\":16258:16261   */\n      dup3\n        /* \"#utility.yul\":16254:16266   */\n      add\n        /* \"#utility.yul\":16247:16266   */\n      swap1\n      pop\n        /* \"#utility.yul\":15906:16272   */\n      swap2\n      swap1\n      pop\n      jump\t// out\n        /* \"#utility.yul\":16278:16697   */\n    tag_213:\n        /* \"#utility.yul\":16444:16448   */\n      0x00\n        /* \"#utility.yul\":16482:16484   */\n      0x20\n        /* \"#utility.yul\":16471:16480   */\n      dup3\n        /* \"#utility.yul\":16467:16485   */\n      add\n        /* \"#utility.yul\":16459:16485   */\n      swap1\n      pop\n        /* \"#utility.yul\":16531:16540   */\n      dup2\n        /* \"#utility.yul\":16525:16529   */\n      dup2\n        /* \"#utility.yul\":16521:16541   */\n      sub\n        /* \"#utility.yul\":16517:16518   */\n      0x00\n        /* \"#utility.yul\":16506:16515   */\n      dup4\n        /* \"#utility.yul\":16502:16519   */\n      add\n        /* \"#utility.yul\":16495:16542   */\n      mstore\n        /* \"#utility.yul\":16559:16690   */\n      tag_518\n        /* \"#utility.yul\":16685:16689   */\n      dup2\n        /* \"#utility.yul\":16559:16690   */\n      tag_322\n      jump\t// in\n    tag_518:\n        /* \"#utility.yul\":16551:16690   */\n      swap1\n      pop\n        /* \"#utility.yul\":16278:16697   */\n      swap2\n      swap1\n      pop\n      jump\t// out\n        /* \"#utility.yul\":16703:16883   */\n    tag_323:\n        /* \"#utility.yul\":16843:16875   */\n      0x596f7520646f6e2774206861766520656e6f7567682062616c616e63652e0000\n        /* \"#utility.yul\":16839:16840   */\n      0x00\n        /* \"#utility.yul\":16831:16837   */\n      dup3\n        /* \"#utility.yul\":16827:16841   */\n      add\n        /* \"#utility.yul\":16820:16876   */\n      mstore\n        /* \"#utility.yul\":16703:16883   */\n      pop\n      jump\t// out\n        /* \"#utility.yul\":16889:17255   */\n    tag_324:\n        /* \"#utility.yul\":17031:17034   */\n      0x00\n        /* \"#utility.yul\":17052:17119   */\n      tag_521\n        /* \"#utility.yul\":17116:17118   */\n      0x1e\n        /* \"#utility.yul\":17111:17114   */\n      dup4\n        /* \"#utility.yul\":17052:17119   */\n      tag_283\n      jump\t// in\n    tag_521:\n        /* \"#utility.yul\":17045:17119   */\n      swap2\n      pop\n        /* \"#utility.yul\":17128:17221   */\n      tag_522\n        /* \"#utility.yul\":17217:17220   */\n      dup3\n        /* \"#utility.yul\":17128:17221   */\n      tag_323\n      jump\t// in\n    tag_522:\n        /* \"#utility.yul\":17246:17248   */\n      0x20\n        /* \"#utility.yul\":17241:17244   */\n      dup3\n        /* \"#utility.yul\":17237:17249   */\n      add\n        /* \"#utility.yul\":17230:17249   */\n      swap1\n      pop\n        /* \"#utility.yul\":16889:17255   */\n      swap2\n      swap1\n      pop\n      jump\t// out\n        /* \"#utility.yul\":17261:17680   */\n    tag_217:\n        /* \"#utility.yul\":17427:17431   */\n      0x00\n        /* \"#utility.yul\":17465:17467   */\n      0x20\n        /* \"#utility.yul\":17454:17463   */\n      dup3\n        /* \"#utility.yul\":17450:17468   */\n      add\n        /* \"#utility.yul\":17442:17468   */\n      swap1\n      pop\n        /* \"#utility.yul\":17514:17523   */\n      dup2\n        /* \"#utility.yul\":17508:17512   */\n      dup2\n        /* \"#utility.yul\":17504:17524   */\n      sub\n        /* \"#utility.yul\":17500:17501   */\n      0x00\n        /* \"#utility.yul\":17489:17498   */\n      dup4\n        /* \"#utility.yul\":17485:17502   */\n      add\n        /* \"#utility.yul\":17478:17525   */\n      mstore\n        /* \"#utility.yul\":17542:17673   */\n      tag_524\n        /* \"#utility.yul\":17668:17672   */\n      dup2\n        /* \"#utility.yul\":17542:17673   */\n      tag_324\n      jump\t// in\n    tag_524:\n        /* \"#utility.yul\":17534:17673   */\n      swap1\n      pop\n        /* \"#utility.yul\":17261:17680   */\n      swap2\n      swap1\n      pop\n      jump\t// out\n        /* \"#utility.yul\":17686:17865   */\n    tag_325:\n        /* \"#utility.yul\":17826:17857   */\n      0x596f7520616c7265616479206861766520616e20696e737572616e6365000000\n        /* \"#utility.yul\":17822:17823   */\n      0x00\n        /* \"#utility.yul\":17814:17820   */\n      dup3\n        /* \"#utility.yul\":17810:17824   */\n      add\n        /* \"#utility.yul\":17803:17858   */\n      mstore\n        /* \"#utility.yul\":17686:17865   */\n      pop\n      jump\t// out\n        /* \"#utility.yul\":17871:18237   */\n    tag_326:\n        /* \"#utility.yul\":18013:18016   */\n      0x00\n        /* \"#utility.yul\":18034:18101   */\n      tag_527\n        /* \"#utility.yul\":18098:18100   */\n      0x1d\n        /* \"#utility.yul\":18093:18096   */\n      dup4\n        /* \"#utility.yul\":18034:18101   */\n      tag_283\n      jump\t// in\n    tag_527:\n        /* \"#utility.yul\":18027:18101   */\n      swap2\n      pop\n        /* \"#utility.yul\":18110:18203   */\n      tag_528\n        /* \"#utility.yul\":18199:18202   */\n      dup3\n        /* \"#utility.yul\":18110:18203   */\n      tag_325\n      jump\t// in\n    tag_528:\n        /* \"#utility.yul\":18228:18230   */\n      0x20\n        /* \"#utility.yul\":18223:18226   */\n      dup3\n        /* \"#utility.yul\":18219:18231   */\n      add\n        /* \"#utility.yul\":18212:18231   */\n      swap1\n      pop\n        /* \"#utility.yul\":17871:18237   */\n      swap2\n      swap1\n      pop\n      jump\t// out\n        /* \"#utility.yul\":18243:18662   */\n    tag_220:\n        /* \"#utility.yul\":18409:18413   */\n      0x00\n        /* \"#utility.yul\":18447:18449   */\n      0x20\n        /* \"#utility.yul\":18436:18445   */\n      dup3\n        /* \"#utility.yul\":18432:18450   */\n      add\n        /* \"#utility.yul\":18424:18450   */\n      swap1\n      pop\n        /* \"#utility.yul\":18496:18505   */\n      dup2\n        /* \"#utility.yul\":18490:18494   */\n      dup2\n        /* \"#utility.yul\":18486:18506   */\n      sub\n        /* \"#utility.yul\":18482:18483   */\n      0x00\n        /* \"#utility.yul\":18471:18480   */\n      dup4\n        /* \"#utility.yul\":18467:18484   */\n      add\n        /* \"#utility.yul\":18460:18507   */\n      mstore\n        /* \"#utility.yul\":18524:18655   */\n      tag_530\n        /* \"#utility.yul\":18650:18654   */\n      dup2\n        /* \"#utility.yul\":18524:18655   */\n      tag_326\n      jump\t// in\n    tag_530:\n        /* \"#utility.yul\":18516:18655   */\n      swap1\n      pop\n        /* \"#utility.yul\":18243:18662   */\n      swap2\n      swap1\n      pop\n      jump\t// out\n        /* \"#utility.yul\":18668:18809   */\n    tag_327:\n        /* \"#utility.yul\":18717:18721   */\n      0x00\n        /* \"#utility.yul\":18740:18743   */\n      dup2\n        /* \"#utility.yul\":18732:18743   */\n      swap1\n      pop\n        /* \"#utility.yul\":18763:18766   */\n      dup2\n        /* \"#utility.yul\":18760:18761   */\n      0x00\n        /* \"#utility.yul\":18753:18767   */\n      mstore\n        /* \"#utility.yul\":18797:18801   */\n      0x20\n        /* \"#utility.yul\":18794:18795   */\n      0x00\n        /* \"#utility.yul\":18784:18802   */\n      keccak256\n        /* \"#utility.yul\":18776:18802   */\n      swap1\n      pop\n        /* \"#utility.yul\":18668:18809   */\n      swap2\n      swap1\n      pop\n      jump\t// out\n        /* \"#utility.yul\":18815:18908   */\n    tag_328:\n        /* \"#utility.yul\":18852:18858   */\n      0x00\n        /* \"#utility.yul\":18899:18901   */\n      0x20\n        /* \"#utility.yul\":18894:18896   */\n      0x1f\n        /* \"#utility.yul\":18887:18892   */\n      dup4\n        /* \"#utility.yul\":18883:18897   */\n      add\n        /* \"#utility.yul\":18879:18902   */\n      div\n        /* \"#utility.yul\":18869:18902   */\n      swap1\n      pop\n        /* \"#utility.yul\":18815:18908   */\n      swap2\n      swap1\n      pop\n      jump\t// out\n        /* \"#utility.yul\":18914:19021   */\n    tag_329:\n        /* \"#utility.yul\":18958:18966   */\n      0x00\n        /* \"#utility.yul\":19008:19013   */\n      dup3\n        /* \"#utility.yul\":19002:19006   */\n      dup3\n        /* \"#utility.yul\":18998:19014   */\n      shl\n        /* \"#utility.yul\":18977:19014   */\n      swap1\n      pop\n        /* \"#utility.yul\":18914:19021   */\n      swap3\n      swap2\n      pop\n      pop\n      jump\t// out\n        /* \"#utility.yul\":19027:19420   */\n    tag_330:\n        /* \"#utility.yul\":19096:19102   */\n      0x00\n        /* \"#utility.yul\":19146:19147   */\n      0x08\n        /* \"#utility.yul\":19134:19144   */\n      dup4\n        /* \"#utility.yul\":19130:19148   */\n      mul\n        /* \"#utility.yul\":19169:19266   */\n      tag_535\n        /* \"#utility.yul\":19199:19265   */\n      0xffffffffffffffffffffffffffffffffffffffffffffffffffffffffffffffff\n        /* \"#utility.yul\":19188:19197   */\n      dup3\n        /* \"#utility.yul\":19169:19266   */\n      tag_329\n      jump\t// in\n    tag_535:\n        /* \"#utility.yul\":19287:19326   */\n      tag_536\n        /* \"#utility.yul\":19317:19325   */\n      dup7\n        /* \"#utility.yul\":19306:19315   */\n      dup4\n        /* \"#utility.yul\":19287:19326   */\n      tag_329\n      jump\t// in\n    tag_536:\n        /* \"#utility.yul\":19275:19326   */\n      swap6\n      pop\n        /* \"#utility.yul\":19359:19363   */\n      dup1\n        /* \"#utility.yul\":19355:19364   */\n      not\n        /* \"#utility.yul\":19348:19353   */\n      dup5\n        /* \"#utility.yul\":19344:19365   */\n      and\n        /* \"#utility.yul\":19335:19365   */\n      swap4\n      pop\n        /* \"#utility.yul\":19408:19412   */\n      dup1\n        /* \"#utility.yul\":19398:19406   */\n      dup7\n        /* \"#utility.yul\":19394:19413   */\n      and\n        /* \"#utility.yul\":19387:19392   */\n      dup5\n        /* \"#utility.yul\":19384:19414   */\n      or\n        /* \"#utility.yul\":19374:19414   */\n      swap3\n      pop\n        /* \"#utility.yul\":19103:19420   */\n      pop\n      pop\n        /* \"#utility.yul\":19027:19420   */\n      swap4\n      swap3\n      pop\n      pop\n      pop\n      jump\t// out\n        /* \"#utility.yul\":19426:19486   */\n    tag_331:\n        /* \"#utility.yul\":19454:19457   */\n      0x00\n        /* \"#utility.yul\":19475:19480   */\n      dup2\n        /* \"#utility.yul\":19468:19480   */\n      swap1\n      pop\n        /* \"#utility.yul\":19426:19486   */\n      swap2\n      swap1\n      pop\n      jump\t// out\n        /* \"#utility.yul\":19492:19634   */\n    tag_332:\n        /* \"#utility.yul\":19542:19551   */\n      0x00\n        /* \"#utility.yul\":19575:19628   */\n      tag_539\n        /* \"#utility.yul\":19593:19627   */\n      tag_540\n        /* \"#utility.yul\":19602:19626   */\n      tag_541\n        /* \"#utility.yul\":19620:19625   */\n      dup5\n        /* \"#utility.yul\":19602:19626   */\n      tag_294\n      jump\t// in\n    tag_541:\n        /* \"#utility.yul\":19593:19627   */\n      tag_331\n      jump\t// in\n    tag_540:\n        /* \"#utility.yul\":19575:19628   */\n      tag_294\n      jump\t// in\n    tag_539:\n        /* \"#utility.yul\":19562:19628   */\n      swap1\n      pop\n        /* \"#utility.yul\":19492:19634   */\n      swap2\n      swap1\n      pop\n      jump\t// out\n        /* \"#utility.yul\":19640:19715   */\n    tag_333:\n        /* \"#utility.yul\":19683:19686   */\n      0x00\n        /* \"#utility.yul\":19704:19709   */\n      dup2\n        /* \"#utility.yul\":19697:19709   */\n      swap1\n      pop\n        /* \"#utility.yul\":19640:19715   */\n      swap2\n      swap1\n      pop\n      jump\t// out\n        /* \"#utility.yul\":19721:19990   */\n    tag_334:\n        /* \"#utility.yul\":19831:19870   */\n      tag_544\n        /* \"#utility.yul\":19862:19869   */\n      dup4\n        /* \"#utility.yul\":19831:19870   */\n      tag_332\n      jump\t// in\n    tag_544:\n        /* \"#utility.yul\":19892:19983   */\n      tag_545\n        /* \"#utility.yul\":19941:19982   */\n      tag_546\n        /* \"#utility.yul\":19965:19981   */\n      dup3\n        /* \"#utility.yul\":19941:19982   */\n      tag_333\n      jump\t// in\n    tag_546:\n        /* \"#utility.yul\":19933:19939   */\n      dup5\n        /* \"#utility.yul\":19926:19930   */\n      dup5\n        /* \"#utility.yul\":19920:19931   */\n      sload\n        /* \"#utility.yul\":19892:19983   */\n      tag_330\n      jump\t// in\n    tag_545:\n        /* \"#utility.yul\":19886:19890   */\n      dup3\n        /* \"#utility.yul\":19879:19984   */\n      sstore\n        /* \"#utility.yul\":19797:19990   */\n      pop\n        /* \"#utility.yul\":19721:19990   */\n      pop\n      pop\n      pop\n      jump\t// out\n        /* \"#utility.yul\":19996:20069   */\n    tag_335:\n        /* \"#utility.yul\":20041:20044   */\n      0x00\n        /* \"#utility.yul\":19996:20069   */\n      swap1\n      jump\t// out\n        /* \"#utility.yul\":20075:20264   */\n    tag_336:\n        /* \"#utility.yul\":20152:20184   */\n      tag_549\n      tag_335\n      jump\t// in\n    tag_549:\n        /* \"#utility.yul\":20193:20258   */\n      tag_550\n        /* \"#utility.yul\":20251:20257   */\n      dup2\n        /* \"#utility.yul\":20243:20249   */\n      dup5\n        /* \"#utility.yul\":20237:20241   */\n      dup5\n        /* \"#utility.yul\":20193:20258   */\n      tag_334\n      jump\t// in\n    tag_550:\n        /* \"#utility.yul\":20128:20264   */\n      pop\n        /* \"#utility.yul\":20075:20264   */\n      pop\n      pop\n      jump\t// out\n        /* \"#utility.yul\":20270:20456   */\n    tag_337:\n        /* \"#utility.yul\":20330:20450   */\n    tag_552:\n        /* \"#utility.yul\":20347:20350   */\n      dup2\n        /* \"#utility.yul\":20340:20345   */\n      dup2\n        /* \"#utility.yul\":20337:20351   */\n      lt\n        /* \"#utility.yul\":20330:20450   */\n      iszero\n      tag_554\n      jumpi\n        /* \"#utility.yul\":20401:20440   */\n      tag_555\n        /* \"#utility.yul\":20438:20439   */\n      0x00\n        /* \"#utility.yul\":20431:20436   */\n      dup3\n        /* \"#utility.yul\":20401:20440   */\n      tag_336\n      jump\t// in\n    tag_555:\n        /* \"#utility.yul\":20374:20375   */\n      0x01\n        /* \"#utility.yul\":20367:20372   */\n      dup2\n        /* \"#utility.yul\":20363:20376   */\n      add\n        /* \"#utility.yul\":20354:20376   */\n      swap1\n      pop\n        /* \"#utility.yul\":20330:20450   */\n      jump(tag_552)\n    tag_554:\n        /* \"#utility.yul\":20270:20456   */\n      pop\n      pop\n      jump\t// out\n        /* \"#utility.yul\":20462:21005   */\n    tag_338:\n        /* \"#utility.yul\":20563:20565   */\n      0x1f\n        /* \"#utility.yul\":20558:20561   */\n      dup3\n        /* \"#utility.yul\":20555:20566   */\n      gt\n        /* \"#utility.yul\":20552:20998   */\n      iszero\n      tag_557\n      jumpi\n        /* \"#utility.yul\":20597:20635   */\n      tag_558\n        /* \"#utility.yul\":20629:20634   */\n      dup2\n        /* \"#utility.yul\":20597:20635   */\n      tag_327\n      jump\t// in\n    tag_558:\n        /* \"#utility.yul\":20681:20710   */\n      tag_559\n        /* \"#utility.yul\":20699:20709   */\n      dup5\n        /* \"#utility.yul\":20681:20710   */\n      tag_328\n      jump\t// in\n    tag_559:\n        /* \"#utility.yul\":20671:20679   */\n      dup2\n        /* \"#utility.yul\":20667:20711   */\n      add\n        /* \"#utility.yul\":20864:20866   */\n      0x20\n        /* \"#utility.yul\":20852:20862   */\n      dup6\n        /* \"#utility.yul\":20849:20867   */\n      lt\n        /* \"#utility.yul\":20846:20895   */\n      iszero\n      tag_560\n      jumpi\n        /* \"#utility.yul\":20885:20893   */\n      dup2\n        /* \"#utility.yul\":20870:20893   */\n      swap1\n      pop\n        /* \"#utility.yul\":20846:20895   */\n    tag_560:\n        /* \"#utility.yul\":20908:20988   */\n      tag_561\n        /* \"#utility.yul\":20964:20986   */\n      tag_562\n        /* \"#utility.yul\":20982:20985   */\n      dup6\n        /* \"#utility.yul\":20964:20986   */\n      tag_328\n      jump\t// in\n    tag_562:\n        /* \"#utility.yul\":20954:20962   */\n      dup4\n        /* \"#utility.yul\":20950:20987   */\n      add\n        /* \"#utility.yul\":20937:20948   */\n      dup3\n        /* \"#utility.yul\":20908:20988   */\n      tag_337\n      jump\t// in\n    tag_561:\n        /* \"#utility.yul\":20567:20998   */\n      pop\n      pop\n        /* \"#utility.yul\":20552:20998   */\n    tag_557:\n        /* \"#utility.yul\":20462:21005   */\n      pop\n      pop\n      pop\n      jump\t// out\n        /* \"#utility.yul\":21011:21128   */\n    tag_339:\n        /* \"#utility.yul\":21065:21073   */\n      0x00\n        /* \"#utility.yul\":21115:21120   */\n      dup3\n        /* \"#utility.yul\":21109:21113   */\n      dup3\n        /* \"#utility.yul\":21105:21121   */\n      shr\n        /* \"#utility.yul\":21084:21121   */\n      swap1\n      pop\n        /* \"#utility.yul\":21011:21128   */\n      swap3\n      swap2\n      pop\n      pop\n      jump\t// out\n        /* \"#utility.yul\":21134:21303   */\n    tag_340:\n        /* \"#utility.yul\":21178:21184   */\n      0x00\n        /* \"#utility.yul\":21211:21262   */\n      tag_565\n        /* \"#utility.yul\":21259:21260   */\n      0x00\n        /* \"#utility.yul\":21255:21261   */\n      not\n        /* \"#utility.yul\":21247:21252   */\n      dup5\n        /* \"#utility.yul\":21244:21245   */\n      0x08\n        /* \"#utility.yul\":21240:21253   */\n      mul\n        /* \"#utility.yul\":21211:21262   */\n      tag_339\n      jump\t// in\n    tag_565:\n        /* \"#utility.yul\":21207:21263   */\n      not\n        /* \"#utility.yul\":21292:21296   */\n      dup1\n        /* \"#utility.yul\":21286:21290   */\n      dup4\n        /* \"#utility.yul\":21282:21297   */\n      and\n        /* \"#utility.yul\":21272:21297   */\n      swap2\n      pop\n        /* \"#utility.yul\":21185:21303   */\n      pop\n        /* \"#utility.yul\":21134:21303   */\n      swap3\n      swap2\n      pop\n      pop\n      jump\t// out\n        /* \"#utility.yul\":21308:21603   */\n    tag_341:\n        /* \"#utility.yul\":21384:21388   */\n      0x00\n        /* \"#utility.yul\":21530:21559   */\n      tag_567\n        /* \"#utility.yul\":21555:21558   */\n      dup4\n        /* \"#utility.yul\":21549:21553   */\n      dup4\n        /* \"#utility.yul\":21530:21559   */\n      tag_340\n      jump\t// in\n    tag_567:\n        /* \"#utility.yul\":21522:21559   */\n      swap2\n      pop\n        /* \"#utility.yul\":21592:21595   */\n      dup3\n        /* \"#utility.yul\":21589:21590   */\n      0x02\n        /* \"#utility.yul\":21585:21596   */\n      mul\n        /* \"#utility.yul\":21579:21583   */\n      dup3\n        /* \"#utility.yul\":21576:21597   */\n      or\n        /* \"#utility.yul\":21568:21597   */\n      swap1\n      pop\n        /* \"#utility.yul\":21308:21603   */\n      swap3\n      swap2\n      pop\n      pop\n      jump\t// out\n        /* \"#utility.yul\":21608:23003   */\n    tag_225:\n        /* \"#utility.yul\":21725:21762   */\n      tag_569\n        /* \"#utility.yul\":21758:21761   */\n      dup3\n        /* \"#utility.yul\":21725:21762   */\n      tag_282\n      jump\t// in\n    tag_569:\n        /* \"#utility.yul\":21827:21845   */\n      0xffffffffffffffff\n        /* \"#utility.yul\":21819:21825   */\n      dup2\n        /* \"#utility.yul\":21816:21846   */\n      gt\n        /* \"#utility.yul\":21813:21869   */\n      iszero\n      tag_570\n      jumpi\n        /* \"#utility.yul\":21849:21867   */\n      tag_571\n      tag_310\n      jump\t// in\n    tag_571:\n        /* \"#utility.yul\":21813:21869   */\n    tag_570:\n        /* \"#utility.yul\":21893:21931   */\n      tag_572\n        /* \"#utility.yul\":21925:21929   */\n      dup3\n        /* \"#utility.yul\":21919:21930   */\n      sload\n        /* \"#utility.yul\":21893:21931   */\n      tag_125\n      jump\t// in\n    tag_572:\n        /* \"#utility.yul\":21978:22045   */\n      tag_573\n        /* \"#utility.yul\":22038:22044   */\n      dup3\n        /* \"#utility.yul\":22030:22036   */\n      dup3\n        /* \"#utility.yul\":22024:22028   */\n      dup6\n        /* \"#utility.yul\":21978:22045   */\n      tag_338\n      jump\t// in\n    tag_573:\n        /* \"#utility.yul\":22072:22073   */\n      0x00\n        /* \"#utility.yul\":22096:22100   */\n      0x20\n        /* \"#utility.yul\":22083:22100   */\n      swap1\n      pop\n        /* \"#utility.yul\":22128:22130   */\n      0x1f\n        /* \"#utility.yul\":22120:22126   */\n      dup4\n        /* \"#utility.yul\":22117:22131   */\n      gt\n        /* \"#utility.yul\":22145:22146   */\n      0x01\n        /* \"#utility.yul\":22140:22758   */\n      dup2\n      eq\n      tag_575\n      jumpi\n        /* \"#utility.yul\":22802:22803   */\n      0x00\n        /* \"#utility.yul\":22819:22825   */\n      dup5\n        /* \"#utility.yul\":22816:22893   */\n      iszero\n      tag_576\n      jumpi\n        /* \"#utility.yul\":22868:22877   */\n      dup3\n        /* \"#utility.yul\":22863:22866   */\n      dup8\n        /* \"#utility.yul\":22859:22878   */\n      add\n        /* \"#utility.yul\":22853:22879   */\n      mload\n        /* \"#utility.yul\":22844:22879   */\n      swap1\n      pop\n        /* \"#utility.yul\":22816:22893   */\n    tag_576:\n        /* \"#utility.yul\":22919:22986   */\n      tag_577\n        /* \"#utility.yul\":22979:22985   */\n      dup6\n        /* \"#utility.yul\":22972:22977   */\n      dup3\n        /* \"#utility.yul\":22919:22986   */\n      tag_341\n      jump\t// in\n    tag_577:\n        /* \"#utility.yul\":22913:22917   */\n      dup7\n        /* \"#utility.yul\":22906:22987   */\n      sstore\n        /* \"#utility.yul\":22775:22997   */\n      pop\n        /* \"#utility.yul\":22110:22997   */\n      jump(tag_574)\n        /* \"#utility.yul\":22140:22758   */\n    tag_575:\n        /* \"#utility.yul\":22192:22196   */\n      0x1f\n        /* \"#utility.yul\":22188:22197   */\n      not\n        /* \"#utility.yul\":22180:22186   */\n      dup5\n        /* \"#utility.yul\":22176:22198   */\n      and\n        /* \"#utility.yul\":22226:22263   */\n      tag_578\n        /* \"#utility.yul\":22258:22262   */\n      dup7\n        /* \"#utility.yul\":22226:22263   */\n      tag_327\n      jump\t// in\n    tag_578:\n        /* \"#utility.yul\":22285:22286   */\n      0x00\n        /* \"#utility.yul\":22299:22507   */\n    tag_579:\n        /* \"#utility.yul\":22313:22320   */\n      dup3\n        /* \"#utility.yul\":22310:22311   */\n      dup2\n        /* \"#utility.yul\":22307:22321   */\n      lt\n        /* \"#utility.yul\":22299:22507   */\n      iszero\n      tag_581\n      jumpi\n        /* \"#utility.yul\":22392:22401   */\n      dup5\n        /* \"#utility.yul\":22387:22390   */\n      dup10\n        /* \"#utility.yul\":22383:22402   */\n      add\n        /* \"#utility.yul\":22377:22403   */\n      mload\n        /* \"#utility.yul\":22369:22375   */\n      dup3\n        /* \"#utility.yul\":22362:22404   */\n      sstore\n        /* \"#utility.yul\":22443:22444   */\n      0x01\n        /* \"#utility.yul\":22435:22441   */\n      dup3\n        /* \"#utility.yul\":22431:22445   */\n      add\n        /* \"#utility.yul\":22421:22445   */\n      swap2\n      pop\n        /* \"#utility.yul\":22490:22492   */\n      0x20\n        /* \"#utility.yul\":22479:22488   */\n      dup6\n        /* \"#utility.yul\":22475:22493   */\n      add\n        /* \"#utility.yul\":22462:22493   */\n      swap5\n      pop\n        /* \"#utility.yul\":22336:22340   */\n      0x20\n        /* \"#utility.yul\":22333:22334   */\n      dup2\n        /* \"#utility.yul\":22329:22341   */\n      add\n        /* \"#utility.yul\":22324:22341   */\n      swap1\n      pop\n        /* \"#utility.yul\":22299:22507   */\n      jump(tag_579)\n    tag_581:\n        /* \"#utility.yul\":22535:22541   */\n      dup7\n        /* \"#utility.yul\":22526:22533   */\n      dup4\n        /* \"#utility.yul\":22523:22542   */\n      lt\n        /* \"#utility.yul\":22520:22699   */\n      iszero\n      tag_582\n      jumpi\n        /* \"#utility.yul\":22593:22602   */\n      dup5\n        /* \"#utility.yul\":22588:22591   */\n      dup10\n        /* \"#utility.yul\":22584:22603   */\n      add\n        /* \"#utility.yul\":22578:22604   */\n      mload\n        /* \"#utility.yul\":22636:22684   */\n      tag_583\n        /* \"#utility.yul\":22678:22682   */\n      0x1f\n        /* \"#utility.yul\":22670:22676   */\n      dup10\n        /* \"#utility.yul\":22666:22683   */\n      and\n        /* \"#utility.yul\":22655:22664   */\n      dup3\n        /* \"#utility.yul\":22636:22684   */\n      tag_340\n      jump\t// in\n    tag_583:\n        /* \"#utility.yul\":22628:22634   */\n      dup4\n        /* \"#utility.yul\":22621:22685   */\n      sstore\n        /* \"#utility.yul\":22543:22699   */\n      pop\n        /* \"#utility.yul\":22520:22699   */\n    tag_582:\n        /* \"#utility.yul\":22745:22746   */\n      0x01\n        /* \"#utility.yul\":22741:22742   */\n      0x02\n        /* \"#utility.yul\":22733:22739   */\n      dup9\n        /* \"#utility.yul\":22729:22743   */\n      mul\n        /* \"#utility.yul\":22725:22747   */\n      add\n        /* \"#utility.yul\":22719:22723   */\n      dup9\n        /* \"#utility.yul\":22712:22748   */\n      sstore\n        /* \"#utility.yul\":22147:22758   */\n      pop\n      pop\n      pop\n        /* \"#utility.yul\":22110:22997   */\n    tag_574:\n      pop\n        /* \"#utility.yul\":21700:23003   */\n      pop\n      pop\n      pop\n        /* \"#utility.yul\":21608:23003   */\n      pop\n      pop\n      jump\t// out\n        /* \"#utility.yul\":23009:23242   */\n    tag_229:\n        /* \"#utility.yul\":23048:23051   */\n      0x00\n        /* \"#utility.yul\":23071:23095   */\n      tag_585\n        /* \"#utility.yul\":23089:23094   */\n      dup3\n        /* \"#utility.yul\":23071:23095   */\n      tag_294\n      jump\t// in\n    tag_585:\n        /* \"#utility.yul\":23062:23095   */\n      swap2\n      pop\n        /* \"#utility.yul\":23117:23183   */\n      0xffffffffffffffffffffffffffffffffffffffffffffffffffffffffffffffff\n        /* \"#utility.yul\":23110:23115   */\n      dup3\n        /* \"#utility.yul\":23107:23184   */\n      sub\n        /* \"#utility.yul\":23104:23207   */\n      tag_586\n      jumpi\n        /* \"#utility.yul\":23187:23205   */\n      tag_587\n      tag_318\n      jump\t// in\n    tag_587:\n        /* \"#utility.yul\":23104:23207   */\n    tag_586:\n        /* \"#utility.yul\":23234:23235   */\n      0x01\n        /* \"#utility.yul\":23227:23232   */\n      dup3\n        /* \"#utility.yul\":23223:23236   */\n      add\n        /* \"#utility.yul\":23216:23236   */\n      swap1\n      pop\n        /* \"#utility.yul\":23009:23242   */\n      swap2\n      swap1\n      pop\n      jump\t// out\n        /* \"#utility.yul\":23248:23473   */\n    tag_342:\n        /* \"#utility.yul\":23388:23422   */\n      0x4f776e61626c653a206e6577206f776e657220697320746865207a65726f2061\n        /* \"#utility.yul\":23384:23385   */\n      0x00\n        /* \"#utility.yul\":23376:23382   */\n      dup3\n        /* \"#utility.yul\":23372:23386   */\n      add\n        /* \"#utility.yul\":23365:23423   */\n      mstore\n        /* \"#utility.yul\":23457:23465   */\n      0x6464726573730000000000000000000000000000000000000000000000000000\n        /* \"#utility.yul\":23452:23454   */\n      0x20\n        /* \"#utility.yul\":23444:23450   */\n      dup3\n        /* \"#utility.yul\":23440:23455   */\n      add\n        /* \"#utility.yul\":23433:23466   */\n      mstore\n        /* \"#utility.yul\":23248:23473   */\n      pop\n      jump\t// out\n        /* \"#utility.yul\":23479:23845   */\n    tag_343:\n        /* \"#utility.yul\":23621:23624   */\n      0x00\n        /* \"#utility.yul\":23642:23709   */\n      tag_590\n        /* \"#utility.yul\":23706:23708   */\n      0x26\n        /* \"#utility.yul\":23701:23704   */\n      dup4\n        /* \"#utility.yul\":23642:23709   */\n      tag_283\n      jump\t// in\n    tag_590:\n        /* \"#utility.yul\":23635:23709   */\n      swap2\n      pop\n        /* \"#utility.yul\":23718:23811   */\n      tag_591\n        /* \"#utility.yul\":23807:23810   */\n      dup3\n        /* \"#utility.yul\":23718:23811   */\n      tag_342\n      jump\t// in\n    tag_591:\n        /* \"#utility.yul\":23836:23838   */\n      0x40\n        /* \"#utility.yul\":23831:23834   */\n      dup3\n        /* \"#utility.yul\":23827:23839   */\n      add\n        /* \"#utility.yul\":23820:23839   */\n      swap1\n      pop\n        /* \"#utility.yul\":23479:23845   */\n      swap2\n      swap1\n      pop\n      jump\t// out\n        /* \"#utility.yul\":23851:24270   */\n    tag_240:\n        /* \"#utility.yul\":24017:24021   */\n      0x00\n        /* \"#utility.yul\":24055:24057   */\n      0x20\n        /* \"#utility.yul\":24044:24053   */\n      dup3\n        /* \"#utility.yul\":24040:24058   */\n      add\n        /* \"#utility.yul\":24032:24058   */\n      swap1\n      pop\n        /* \"#utility.yul\":24104:24113   */\n      dup2\n        /* \"#utility.yul\":24098:24102   */\n      dup2\n        /* \"#utility.yul\":24094:24114   */\n      sub\n        /* \"#utility.yul\":24090:24091   */\n      0x00\n        /* \"#utility.yul\":24079:24088   */\n      dup4\n        /* \"#utility.yul\":24075:24092   */\n      add\n        /* \"#utility.yul\":24068:24115   */\n      mstore\n        /* \"#utility.yul\":24132:24263   */\n      tag_593\n        /* \"#utility.yul\":24258:24262   */\n      dup2\n        /* \"#utility.yul\":24132:24263   */\n      tag_343\n      jump\t// in\n    tag_593:\n        /* \"#utility.yul\":24124:24263   */\n      swap1\n      pop\n        /* \"#utility.yul\":23851:24270   */\n      swap2\n      swap1\n      pop\n      jump\t// out\n        /* \"#utility.yul\":24276:24499   */\n    tag_344:\n        /* \"#utility.yul\":24416:24450   */\n      0x45524332303a20617070726f76652066726f6d20746865207a65726f20616464\n        /* \"#utility.yul\":24412:24413   */\n      0x00\n        /* \"#utility.yul\":24404:24410   */\n      dup3\n        /* \"#utility.yul\":24400:24414   */\n      add\n        /* \"#utility.yul\":24393:24451   */\n      mstore\n        /* \"#utility.yul\":24485:24491   */\n      0x7265737300000000000000000000000000000000000000000000000000000000\n        /* \"#utility.yul\":24480:24482   */\n      0x20\n        /* \"#utility.yul\":24472:24478   */\n      dup3\n        /* \"#utility.yul\":24468:24483   */\n      add\n        /* \"#utility.yul\":24461:24492   */\n      mstore\n        /* \"#utility.yul\":24276:24499   */\n      pop\n      jump\t// out\n        /* \"#utility.yul\":24505:24871   */\n    tag_345:\n        /* \"#utility.yul\":24647:24650   */\n      0x00\n        /* \"#utility.yul\":24668:24735   */\n      tag_596\n        /* \"#utility.yul\":24732:24734   */\n      0x24\n        /* \"#utility.yul\":24727:24730   */\n      dup4\n        /* \"#utility.yul\":24668:24735   */\n      tag_283\n      jump\t// in\n    tag_596:\n        /* \"#utility.yul\":24661:24735   */\n      swap2\n      pop\n        /* \"#utility.yul\":24744:24837   */\n      tag_597\n        /* \"#utility.yul\":24833:24836   */\n      dup3\n        /* \"#utility.yul\":24744:24837   */\n      tag_344\n      jump\t// in\n    tag_597:\n        /* \"#utility.yul\":24862:24864   */\n      0x40\n        /* \"#utility.yul\":24857:24860   */\n      dup3\n        /* \"#utility.yul\":24853:24865   */\n      add\n        /* \"#utility.yul\":24846:24865   */\n      swap1\n      pop\n        /* \"#utility.yul\":24505:24871   */\n      swap2\n      swap1\n      pop\n      jump\t// out\n        /* \"#utility.yul\":24877:25296   */\n    tag_246:\n        /* \"#utility.yul\":25043:25047   */\n      0x00\n        /* \"#utility.yul\":25081:25083   */\n      0x20\n        /* \"#utility.yul\":25070:25079   */\n      dup3\n        /* \"#utility.yul\":25066:25084   */\n      add\n        /* \"#utility.yul\":25058:25084   */\n      swap1\n      pop\n        /* \"#utility.yul\":25130:25139   */\n      dup2\n        /* \"#utility.yul\":25124:25128   */\n      dup2\n        /* \"#utility.yul\":25120:25140   */\n      sub\n        /* \"#utility.yul\":25116:25117   */\n      0x00\n        /* \"#utility.yul\":25105:25114   */\n      dup4\n        /* \"#utility.yul\":25101:25118   */\n      add\n        /* \"#utility.yul\":25094:25141   */\n      mstore\n        /* \"#utility.yul\":25158:25289   */\n      tag_599\n        /* \"#utility.yul\":25284:25288   */\n      dup2\n        /* \"#utility.yul\":25158:25289   */\n      tag_345\n      jump\t// in\n    tag_599:\n        /* \"#utility.yul\":25150:25289   */\n      swap1\n      pop\n        /* \"#utility.yul\":24877:25296   */\n      swap2\n      swap1\n      pop\n      jump\t// out\n        /* \"#utility.yul\":25302:25523   */\n    tag_346:\n        /* \"#utility.yul\":25442:25476   */\n      0x45524332303a20617070726f766520746f20746865207a65726f206164647265\n        /* \"#utility.yul\":25438:25439   */\n      0x00\n        /* \"#utility.yul\":25430:25436   */\n      dup3\n        /* \"#utility.yul\":25426:25440   */\n      add\n        /* \"#utility.yul\":25419:25477   */\n      mstore\n        /* \"#utility.yul\":25511:25515   */\n      0x7373000000000000000000000000000000000000000000000000000000000000\n        /* \"#utility.yul\":25506:25508   */\n      0x20\n        /* \"#utility.yul\":25498:25504   */\n      dup3\n        /* \"#utility.yul\":25494:25509   */\n      add\n        /* \"#utility.yul\":25487:25516   */\n      mstore\n        /* \"#utility.yul\":25302:25523   */\n      pop\n      jump\t// out\n        /* \"#utility.yul\":25529:25895   */\n    tag_347:\n        /* \"#utility.yul\":25671:25674   */\n      0x00\n        /* \"#utility.yul\":25692:25759   */\n      tag_602\n        /* \"#utility.yul\":25756:25758   */\n      0x22\n        /* \"#utility.yul\":25751:25754   */\n      dup4\n        /* \"#utility.yul\":25692:25759   */\n      tag_283\n      jump\t// in\n    tag_602:\n        /* \"#utility.yul\":25685:25759   */\n      swap2\n      pop\n        /* \"#utility.yul\":25768:25861   */\n      tag_603\n        /* \"#utility.yul\":25857:25860   */\n      dup3\n        /* \"#utility.yul\":25768:25861   */\n      tag_346\n      jump\t// in\n    tag_603:\n        /* \"#utility.yul\":25886:25888   */\n      0x40\n        /* \"#utility.yul\":25881:25884   */\n      dup3\n        /* \"#utility.yul\":25877:25889   */\n      add\n        /* \"#utility.yul\":25870:25889   */\n      swap1\n      pop\n        /* \"#utility.yul\":25529:25895   */\n      swap2\n      swap1\n      pop\n      jump\t// out\n        /* \"#utility.yul\":25901:26320   */\n    tag_249:\n        /* \"#utility.yul\":26067:26071   */\n      0x00\n        /* \"#utility.yul\":26105:26107   */\n      0x20\n        /* \"#utility.yul\":26094:26103   */\n      dup3\n        /* \"#utility.yul\":26090:26108   */\n      add\n        /* \"#utility.yul\":26082:26108   */\n      swap1\n      pop\n        /* \"#utility.yul\":26154:26163   */\n      dup2\n        /* \"#utility.yul\":26148:26152   */\n      dup2\n        /* \"#utility.yul\":26144:26164   */\n      sub\n        /* \"#utility.yul\":26140:26141   */\n      0x00\n        /* \"#utility.yul\":26129:26138   */\n      dup4\n        /* \"#utility.yul\":26125:26142   */\n      add\n        /* \"#utility.yul\":26118:26165   */\n      mstore\n        /* \"#utility.yul\":26182:26313   */\n      tag_605\n        /* \"#utility.yul\":26308:26312   */\n      dup2\n        /* \"#utility.yul\":26182:26313   */\n      tag_347\n      jump\t// in\n    tag_605:\n        /* \"#utility.yul\":26174:26313   */\n      swap1\n      pop\n        /* \"#utility.yul\":25901:26320   */\n      swap2\n      swap1\n      pop\n      jump\t// out\n        /* \"#utility.yul\":26326:26505   */\n    tag_348:\n        /* \"#utility.yul\":26466:26497   */\n      0x45524332303a20696e73756666696369656e7420616c6c6f77616e6365000000\n        /* \"#utility.yul\":26462:26463   */\n      0x00\n        /* \"#utility.yul\":26454:26460   */\n      dup3\n        /* \"#utility.yul\":26450:26464   */\n      add\n        /* \"#utility.yul\":26443:26498   */\n      mstore\n        /* \"#utility.yul\":26326:26505   */\n      pop\n      jump\t// out\n        /* \"#utility.yul\":26511:26877   */\n    tag_349:\n        /* \"#utility.yul\":26653:26656   */\n      0x00\n        /* \"#utility.yul\":26674:26741   */\n      tag_608\n        /* \"#utility.yul\":26738:26740   */\n      0x1d\n        /* \"#utility.yul\":26733:26736   */\n      dup4\n        /* \"#utility.yul\":26674:26741   */\n      tag_283\n      jump\t// in\n    tag_608:\n        /* \"#utility.yul\":26667:26741   */\n      swap2\n      pop\n        /* \"#utility.yul\":26750:26843   */\n      tag_609\n        /* \"#utility.yul\":26839:26842   */\n      dup3\n        /* \"#utility.yul\":26750:26843   */\n      tag_348\n      jump\t// in\n    tag_609:\n        /* \"#utility.yul\":26868:26870   */\n      0x20\n        /* \"#utility.yul\":26863:26866   */\n      dup3\n        /* \"#utility.yul\":26859:26871   */\n      add\n        /* \"#utility.yul\":26852:26871   */\n      swap1\n      pop\n        /* \"#utility.yul\":26511:26877   */\n      swap2\n      swap1\n      pop\n      jump\t// out\n        /* \"#utility.yul\":26883:27302   */\n    tag_256:\n        /* \"#utility.yul\":27049:27053   */\n      0x00\n        /* \"#utility.yul\":27087:27089   */\n      0x20\n        /* \"#utility.yul\":27076:27085   */\n      dup3\n        /* \"#utility.yul\":27072:27090   */\n      add\n        /* \"#utility.yul\":27064:27090   */\n      swap1\n      pop\n        /* \"#utility.yul\":27136:27145   */\n      dup2\n        /* \"#utility.yul\":27130:27134   */\n      dup2\n        /* \"#utility.yul\":27126:27146   */\n      sub\n        /* \"#utility.yul\":27122:27123   */\n      0x00\n        /* \"#utility.yul\":27111:27120   */\n      dup4\n        /* \"#utility.yul\":27107:27124   */\n      add\n        /* \"#utility.yul\":27100:27147   */\n      mstore\n        /* \"#utility.yul\":27164:27295   */\n      tag_611\n        /* \"#utility.yul\":27290:27294   */\n      dup2\n        /* \"#utility.yul\":27164:27295   */\n      tag_349\n      jump\t// in\n    tag_611:\n        /* \"#utility.yul\":27156:27295   */\n      swap1\n      pop\n        /* \"#utility.yul\":26883:27302   */\n      swap2\n      swap1\n      pop\n      jump\t// out\n        /* \"#utility.yul\":27308:27532   */\n    tag_350:\n        /* \"#utility.yul\":27448:27482   */\n      0x45524332303a207472616e736665722066726f6d20746865207a65726f206164\n        /* \"#utility.yul\":27444:27445   */\n      0x00\n        /* \"#utility.yul\":27436:27442   */\n      dup3\n        /* \"#utility.yul\":27432:27446   */\n      add\n        /* \"#utility.yul\":27425:27483   */\n      mstore\n        /* \"#utility.yul\":27517:27524   */\n      0x6472657373000000000000000000000000000000000000000000000000000000\n        /* \"#utility.yul\":27512:27514   */\n      0x20\n        /* \"#utility.yul\":27504:27510   */\n      dup3\n        /* \"#utility.yul\":27500:27515   */\n      add\n        /* \"#utility.yul\":27493:27525   */\n      mstore\n        /* \"#utility.yul\":27308:27532   */\n      pop\n      jump\t// out\n        /* \"#utility.yul\":27538:27904   */\n    tag_351:\n        /* \"#utility.yul\":27680:27683   */\n      0x00\n        /* \"#utility.yul\":27701:27768   */\n      tag_614\n        /* \"#utility.yul\":27765:27767   */\n      0x25\n        /* \"#utility.yul\":27760:27763   */\n      dup4\n        /* \"#utility.yul\":27701:27768   */\n      tag_283\n      jump\t// in\n    tag_614:\n        /* \"#utility.yul\":27694:27768   */\n      swap2\n      pop\n        /* \"#utility.yul\":27777:27870   */\n      tag_615\n        /* \"#utility.yul\":27866:27869   */\n      dup3\n        /* \"#utility.yul\":27777:27870   */\n      tag_350\n      jump\t// in\n    tag_615:\n        /* \"#utility.yul\":27895:27897   */\n      0x40\n        /* \"#utility.yul\":27890:27893   */\n      dup3\n        /* \"#utility.yul\":27886:27898   */\n      add\n        /* \"#utility.yul\":27879:27898   */\n      swap1\n      pop\n        /* \"#utility.yul\":27538:27904   */\n      swap2\n      swap1\n      pop\n      jump\t// out\n        /* \"#utility.yul\":27910:28329   */\n    tag_261:\n        /* \"#utility.yul\":28076:28080   */\n      0x00\n        /* \"#utility.yul\":28114:28116   */\n      0x20\n        /* \"#utility.yul\":28103:28112   */\n      dup3\n        /* \"#utility.yul\":28099:28117   */\n      add\n        /* \"#utility.yul\":28091:28117   */\n      swap1\n      pop\n        /* \"#utility.yul\":28163:28172   */\n      dup2\n        /* \"#utility.yul\":28157:28161   */\n      dup2\n        /* \"#utility.yul\":28153:28173   */\n      sub\n        /* \"#utility.yul\":28149:28150   */\n      0x00\n        /* \"#utility.yul\":28138:28147   */\n      dup4\n        /* \"#utility.yul\":28134:28151   */\n      add\n        /* \"#utility.yul\":28127:28174   */\n      mstore\n        /* \"#utility.yul\":28191:28322   */\n      tag_617\n        /* \"#utility.yul\":28317:28321   */\n      dup2\n        /* \"#utility.yul\":28191:28322   */\n      tag_351\n      jump\t// in\n    tag_617:\n        /* \"#utility.yul\":28183:28322   */\n      swap1\n      pop\n        /* \"#utility.yul\":27910:28329   */\n      swap2\n      swap1\n      pop\n      jump\t// out\n        /* \"#utility.yul\":28335:28557   */\n    tag_352:\n        /* \"#utility.yul\":28475:28509   */\n      0x45524332303a207472616e7366657220746f20746865207a65726f2061646472\n        /* \"#utility.yul\":28471:28472   */\n      0x00\n        /* \"#utility.yul\":28463:28469   */\n      dup3\n        /* \"#utility.yul\":28459:28473   */\n      add\n        /* \"#utility.yul\":28452:28510   */\n      mstore\n        /* \"#utility.yul\":28544:28549   */\n      0x6573730000000000000000000000000000000000000000000000000000000000\n        /* \"#utility.yul\":28539:28541   */\n      0x20\n        /* \"#utility.yul\":28531:28537   */\n      dup3\n        /* \"#utility.yul\":28527:28542   */\n      add\n        /* \"#utility.yul\":28520:28550   */\n      mstore\n        /* \"#utility.yul\":28335:28557   */\n      pop\n      jump\t// out\n        /* \"#utility.yul\":28563:28929   */\n    tag_353:\n        /* \"#utility.yul\":28705:28708   */\n      0x00\n        /* \"#utility.yul\":28726:28793   */\n      tag_620\n        /* \"#utility.yul\":28790:28792   */\n      0x23\n        /* \"#utility.yul\":28785:28788   */\n      dup4\n        /* \"#utility.yul\":28726:28793   */\n      tag_283\n      jump\t// in\n    tag_620:\n        /* \"#utility.yul\":28719:28793   */\n      swap2\n      pop\n        /* \"#utility.yul\":28802:28895   */\n      tag_621\n        /* \"#utility.yul\":28891:28894   */\n      dup3\n        /* \"#utility.yul\":28802:28895   */\n      tag_352\n      jump\t// in\n    tag_621:\n        /* \"#utility.yul\":28920:28922   */\n      0x40\n        /* \"#utility.yul\":28915:28918   */\n      dup3\n        /* \"#utility.yul\":28911:28923   */\n      add\n        /* \"#utility.yul\":28904:28923   */\n      swap1\n      pop\n        /* \"#utility.yul\":28563:28929   */\n      swap2\n      swap1\n      pop\n      jump\t// out\n        /* \"#utility.yul\":28935:29354   */\n    tag_264:\n        /* \"#utility.yul\":29101:29105   */\n      0x00\n        /* \"#utility.yul\":29139:29141   */\n      0x20\n        /* \"#utility.yul\":29128:29137   */\n      dup3\n        /* \"#utility.yul\":29124:29142   */\n      add\n        /* \"#utility.yul\":29116:29142   */\n      swap1\n      pop\n        /* \"#utility.yul\":29188:29197   */\n      dup2\n        /* \"#utility.yul\":29182:29186   */\n      dup2\n        /* \"#utility.yul\":29178:29198   */\n      sub\n        /* \"#utility.yul\":29174:29175   */\n      0x00\n        /* \"#utility.yul\":29163:29172   */\n      dup4\n        /* \"#utility.yul\":29159:29176   */\n      add\n        /* \"#utility.yul\":29152:29199   */\n      mstore\n        /* \"#utility.yul\":29216:29347   */\n      tag_623\n        /* \"#utility.yul\":29342:29346   */\n      dup2\n        /* \"#utility.yul\":29216:29347   */\n      tag_353\n      jump\t// in\n    tag_623:\n        /* \"#utility.yul\":29208:29347   */\n      swap1\n      pop\n        /* \"#utility.yul\":28935:29354   */\n      swap2\n      swap1\n      pop\n      jump\t// out\n        /* \"#utility.yul\":29360:29585   */\n    tag_354:\n        /* \"#utility.yul\":29500:29534   */\n      0x45524332303a207472616e7366657220616d6f756e7420657863656564732062\n        /* \"#utility.yul\":29496:29497   */\n      0x00\n        /* \"#utility.yul\":29488:29494   */\n      dup3\n        /* \"#utility.yul\":29484:29498   */\n      add\n        /* \"#utility.yul\":29477:29535   */\n      mstore\n        /* \"#utility.yul\":29569:29577   */\n      0x616c616e63650000000000000000000000000000000000000000000000000000\n        /* \"#utility.yul\":29564:29566   */\n      0x20\n        /* \"#utility.yul\":29556:29562   */\n      dup3\n        /* \"#utility.yul\":29552:29567   */\n      add\n        /* \"#utility.yul\":29545:29578   */\n      mstore\n        /* \"#utility.yul\":29360:29585   */\n      pop\n      jump\t// out\n        /* \"#utility.yul\":29591:29957   */\n    tag_355:\n        /* \"#utility.yul\":29733:29736   */\n      0x00\n        /* \"#utility.yul\":29754:29821   */\n      tag_626\n        /* \"#utility.yul\":29818:29820   */\n      0x26\n        /* \"#utility.yul\":29813:29816   */\n      dup4\n        /* \"#utility.yul\":29754:29821   */\n      tag_283\n      jump\t// in\n    tag_626:\n        /* \"#utility.yul\":29747:29821   */\n      swap2\n      pop\n        /* \"#utility.yul\":29830:29923   */\n      tag_627\n        /* \"#utility.yul\":29919:29922   */\n      dup3\n        /* \"#utility.yul\":29830:29923   */\n      tag_354\n      jump\t// in\n    tag_627:\n        /* \"#utility.yul\":29948:29950   */\n      0x40\n        /* \"#utility.yul\":29943:29946   */\n      dup3\n        /* \"#utility.yul\":29939:29951   */\n      add\n        /* \"#utility.yul\":29932:29951   */\n      swap1\n      pop\n        /* \"#utility.yul\":29591:29957   */\n      swap2\n      swap1\n      pop\n      jump\t// out\n        /* \"#utility.yul\":29963:30382   */\n    tag_269:\n        /* \"#utility.yul\":30129:30133   */\n      0x00\n        /* \"#utility.yul\":30167:30169   */\n      0x20\n        /* \"#utility.yul\":30156:30165   */\n      dup3\n        /* \"#utility.yul\":30152:30170   */\n      add\n        /* \"#utility.yul\":30144:30170   */\n      swap1\n      pop\n        /* \"#utility.yul\":30216:30225   */\n      dup2\n        /* \"#utility.yul\":30210:30214   */\n      dup2\n        /* \"#utility.yul\":30206:30226   */\n      sub\n        /* \"#utility.yul\":30202:30203   */\n      0x00\n        /* \"#utility.yul\":30191:30200   */\n      dup4\n        /* \"#utility.yul\":30187:30204   */\n      add\n        /* \"#utility.yul\":30180:30227   */\n      mstore\n        /* \"#utility.yul\":30244:30375   */\n      tag_629\n        /* \"#utility.yul\":30370:30374   */\n      dup2\n        /* \"#utility.yul\":30244:30375   */\n      tag_355\n      jump\t// in\n    tag_629:\n        /* \"#utility.yul\":30236:30375   */\n      swap1\n      pop\n        /* \"#utility.yul\":29963:30382   */\n      swap2\n      swap1\n      pop\n      jump\t// out\n        /* \"#utility.yul\":30388:30570   */\n    tag_356:\n        /* \"#utility.yul\":30528:30562   */\n      0x4f776e61626c653a2063616c6c6572206973206e6f7420746865206f776e6572\n        /* \"#utility.yul\":30524:30525   */\n      0x00\n        /* \"#utility.yul\":30516:30522   */\n      dup3\n        /* \"#utility.yul\":30512:30526   */\n      add\n        /* \"#utility.yul\":30505:30563   */\n      mstore\n        /* \"#utility.yul\":30388:30570   */\n      pop\n      jump\t// out\n        /* \"#utility.yul\":30576:30942   */\n    tag_357:\n        /* \"#utility.yul\":30718:30721   */\n      0x00\n        /* \"#utility.yul\":30739:30806   */\n      tag_632\n        /* \"#utility.yul\":30803:30805   */\n      0x20\n        /* \"#utility.yul\":30798:30801   */\n      dup4\n        /* \"#utility.yul\":30739:30806   */\n      tag_283\n      jump\t// in\n    tag_632:\n        /* \"#utility.yul\":30732:30806   */\n      swap2\n      pop\n        /* \"#utility.yul\":30815:30908   */\n      tag_633\n        /* \"#utility.yul\":30904:30907   */\n      dup3\n        /* \"#utility.yul\":30815:30908   */\n      tag_356\n      jump\t// in\n    tag_633:\n        /* \"#utility.yul\":30933:30935   */\n      0x20\n        /* \"#utility.yul\":30928:30931   */\n      dup3\n        /* \"#utility.yul\":30924:30936   */\n      add\n        /* \"#utility.yul\":30917:30936   */\n      swap1\n      pop\n        /* \"#utility.yul\":30576:30942   */\n      swap2\n      swap1\n      pop\n      jump\t// out\n        /* \"#utility.yul\":30948:31367   */\n    tag_278:\n        /* \"#utility.yul\":31114:31118   */\n      0x00\n        /* \"#utility.yul\":31152:31154   */\n      0x20\n        /* \"#utility.yul\":31141:31150   */\n      dup3\n        /* \"#utility.yul\":31137:31155   */\n      add\n        /* \"#utility.yul\":31129:31155   */\n      swap1\n      pop\n        /* \"#utility.yul\":31201:31210   */\n      dup2\n        /* \"#utility.yul\":31195:31199   */\n      dup2\n        /* \"#utility.yul\":31191:31211   */\n      sub\n        /* \"#utility.yul\":31187:31188   */\n      0x00\n        /* \"#utility.yul\":31176:31185   */\n      dup4\n        /* \"#utility.yul\":31172:31189   */\n      add\n        /* \"#utility.yul\":31165:31212   */\n      mstore\n        /* \"#utility.yul\":31229:31360   */\n      tag_635\n        /* \"#utility.yul\":31355:31359   */\n      dup2\n        /* \"#utility.yul\":31229:31360   */\n      tag_357\n      jump\t// in\n    tag_635:\n        /* \"#utility.yul\":31221:31360   */\n      swap1\n      pop\n        /* \"#utility.yul\":30948:31367   */\n      swap2\n      swap1\n      pop\n      jump\t// out\n\n    auxdata: 0xa2646970667358221220010112e947c4a12cb95928a9953e62d68dcaff230256b8c6cb403aca8ffa7c5564736f6c63430008140033\n}\n",
				"bytecode": {
					"linkReferences": {},
					"object": "60806040526000600755732eb004dde18e064725717a31d74f2027da5b4fa4600860006101000a81548173ffffffffffffffffffffffffffffffffffffffff021916908373ffffffffffffffffffffffffffffffffffffffff1602179055503480156200006b57600080fd5b506040518060400160405280601e81526020017f4f73616d6120496e737572616e636520536d61727420436f6e747261637400008152506040518060400160405280600481526020017f4f495343000000000000000000000000000000000000000000000000000000008152508160039081620000e991906200046c565b508060049081620000fb91906200046c565b5050506200011e620001126200012460201b60201c565b6200012c60201b60201c565b62000553565b600033905090565b6000600560009054906101000a900473ffffffffffffffffffffffffffffffffffffffff16905081600560006101000a81548173ffffffffffffffffffffffffffffffffffffffff021916908373ffffffffffffffffffffffffffffffffffffffff1602179055508173ffffffffffffffffffffffffffffffffffffffff168173ffffffffffffffffffffffffffffffffffffffff167f8be0079c531659141344cd1fd0a4f28419497f9722a3daafe3b4186f6b6457e060405160405180910390a35050565b600081519050919050565b7f4e487b7100000000000000000000000000000000000000000000000000000000600052604160045260246000fd5b7f4e487b7100000000000000000000000000000000000000000000000000000000600052602260045260246000fd5b600060028204905060018216806200027457607f821691505b6020821081036200028a57620002896200022c565b5b50919050565b60008190508160005260206000209050919050565b60006020601f8301049050919050565b600082821b905092915050565b600060088302620002f47fffffffffffffffffffffffffffffffffffffffffffffffffffffffffffffffff82620002b5565b620003008683620002b5565b95508019841693508086168417925050509392505050565b6000819050919050565b6000819050919050565b60006200034d62000347620003418462000318565b62000322565b62000318565b9050919050565b6000819050919050565b62000369836200032c565b62000381620003788262000354565b848454620002c2565b825550505050565b600090565b6200039862000389565b620003a58184846200035e565b505050565b5b81811015620003cd57620003c16000826200038e565b600181019050620003ab565b5050565b601f8211156200041c57620003e68162000290565b620003f184620002a5565b8101602085101562000401578190505b620004196200041085620002a5565b830182620003aa565b50505b505050565b600082821c905092915050565b6000620004416000198460080262000421565b1980831691505092915050565b60006200045c83836200042e565b9150826002028217905092915050565b6200047782620001f2565b67ffffffffffffffff811115620004935762000492620001fd565b5b6200049f82546200025b565b620004ac828285620003d1565b600060209050601f831160018114620004e45760008415620004cf578287015190505b620004db85826200044e565b8655506200054b565b601f198416620004f48662000290565b60005b828110156200051e57848901518255600182019150602085019450602081019050620004f7565b868310156200053e57848901516200053a601f8916826200042e565b8355505b6001600288020188555050505b505050505050565b6127e080620005636000396000f3fe60806040526004361061011f5760003560e01c806370a08231116100a0578063a9059cbb11610064578063a9059cbb14610408578063b3523b0b14610445578063c71daccb14610461578063dd62ed3e1461048c578063f2fde38b146104c95761011f565b806370a0823114610321578063715018a61461035e5780638da5cb5b1461037557806395d89b41146103a0578063a457c2d7146103cb5761011f565b8063313ce567116100e7578063313ce5671461021f578063336989ae1461024a57806336fdde7c1461028e57806339509351146102b95780636605ff66146102f65761011f565b806306fdde0314610124578063095ea7b31461014f57806318160ddd1461018c57806323b872dd146101b75780632401273c146101f4575b600080fd5b34801561013057600080fd5b506101396104f2565b604051610146919061178b565b60405180910390f35b34801561015b57600080fd5b5061017660048036038101906101719190611855565b610584565b60405161018391906118b0565b60405180910390f35b34801561019857600080fd5b506101a16105a7565b6040516101ae91906118da565b60405180910390f35b3480156101c357600080fd5b506101de60048036038101906101d991906118f5565b6105b1565b6040516101eb91906118b0565b60405180910390f35b34801561020057600080fd5b506102096105e0565b6040516102169190611957565b60405180910390f35b34801561022b57600080fd5b50610234610606565b604051610241919061198e565b60405180910390f35b34801561025657600080fd5b50610271600480360381019061026c91906119a9565b61060f565b6040516102859897969594939291906119d6565b60405180910390f35b34801561029a57600080fd5b506102a361080f565b6040516102b09190611b8f565b60405180910390f35b3480156102c557600080fd5b506102e060048036038101906102db9190611855565b610aa3565b6040516102ed91906118b0565b60405180910390f35b34801561030257600080fd5b5061030b610ada565b60405161031891906118da565b60405180910390f35b34801561032d57600080fd5b50610348600480360381019061034391906119a9565b610ae0565b60405161035591906118da565b60405180910390f35b34801561036a57600080fd5b50610373610b28565b005b34801561038157600080fd5b5061038a610b3c565b6040516103979190611957565b60405180910390f35b3480156103ac57600080fd5b506103b5610b66565b6040516103c2919061178b565b60405180910390f35b3480156103d757600080fd5b506103f260048036038101906103ed9190611855565b610bf8565b6040516103ff91906118b0565b60405180910390f35b34801561041457600080fd5b5061042f600480360381019061042a9190611855565b610c6f565b60405161043c91906118b0565b60405180910390f35b61045f600480360381019061045a9190611ce6565b610c92565b005b34801561046d57600080fd5b50610476610f5d565b60405161048391906118da565b60405180910390f35b34801561049857600080fd5b506104b360048036038101906104ae9190611da1565b610f75565b6040516104c091906118da565b60405180910390f35b3480156104d557600080fd5b506104f060048036038101906104eb91906119a9565b610ffc565b005b60606003805461050190611e10565b80601f016020809104026020016040519081016040528092919081815260200182805461052d90611e10565b801561057a5780601f1061054f5761010080835404028352916020019161057a565b820191906000526020600020905b81548152906001019060200180831161055d57829003601f168201915b5050505050905090565b60008061058f61107f565b905061059c818585611087565b600191505092915050565b6000600254905090565b6000806105bc61107f565b90506105c9858285611250565b6105d48585856112dc565b60019150509392505050565b600860009054906101000a900473ffffffffffffffffffffffffffffffffffffffff1681565b60006012905090565b60066020528060005260406000206000915090508060000160009054906101000a900473ffffffffffffffffffffffffffffffffffffffff169080600101805461065890611e10565b80601f016020809104026020016040519081016040528092919081815260200182805461068490611e10565b80156106d15780601f106106a6576101008083540402835291602001916106d1565b820191906000526020600020905b8154815290600101906020018083116106b457829003601f168201915b5050505050908060020154908060030180546106ec90611e10565b80601f016020809104026020016040519081016040528092919081815260200182805461071890611e10565b80156107655780601f1061073a57610100808354040283529160200191610765565b820191906000526020600020905b81548152906001019060200180831161074857829003601f168201915b50505050509080600401805461077a90611e10565b80601f01602080910402602001604051908101604052809291908181526020018280546107a690611e10565b80156107f35780601f106107c8576101008083540402835291602001916107f3565b820191906000526020600020905b8154815290600101906020018083116107d657829003601f168201915b5050505050908060050154908060060154908060070154905088565b6108176116a0565b61081f611552565b600660003373ffffffffffffffffffffffffffffffffffffffff1673ffffffffffffffffffffffffffffffffffffffff168152602001908152602001600020604051806101000160405290816000820160009054906101000a900473ffffffffffffffffffffffffffffffffffffffff1673ffffffffffffffffffffffffffffffffffffffff1673ffffffffffffffffffffffffffffffffffffffff1681526020016001820180546108d090611e10565b80601f01602080910402602001604051908101604052809291908181526020018280546108fc90611e10565b80156109495780601f1061091e57610100808354040283529160200191610949565b820191906000526020600020905b81548152906001019060200180831161092c57829003601f168201915b505050505081526020016002820154815260200160038201805461096c90611e10565b80601f016020809104026020016040519081016040528092919081815260200182805461099890611e10565b80156109e55780601f106109ba576101008083540402835291602001916109e5565b820191906000526020600020905b8154815290600101906020018083116109c857829003601f168201915b505050505081526020016004820180546109fe90611e10565b80601f0160208091040260200160405190810160405280929190818152602001828054610a2a90611e10565b8015610a775780601f10610a4c57610100808354040283529160200191610a77565b820191906000526020600020905b815481529060010190602001808311610a5a57829003601f168201915b505050505081526020016005820154815260200160068201548152602001600782015481525050905090565b600080610aae61107f565b9050610acf818585610ac08589610f75565b610aca9190611e70565b611087565b600191505092915050565b60075481565b60008060008373ffffffffffffffffffffffffffffffffffffffff1673ffffffffffffffffffffffffffffffffffffffff168152602001908152602001600020549050919050565b610b30611552565b610b3a60006115d0565b565b6000600560009054906101000a900473ffffffffffffffffffffffffffffffffffffffff16905090565b606060048054610b7590611e10565b80601f0160208091040260200160405190810160405280929190818152602001828054610ba190611e10565b8015610bee5780601f10610bc357610100808354040283529160200191610bee565b820191906000526020600020905b815481529060010190602001808311610bd157829003601f168201915b5050505050905090565b600080610c0361107f565b90506000610c118286610f75565b905083811015610c56576040517f08c379a0000000000000000000000000000000000000000000000000000000008152600401610c4d90611f16565b60405180910390fd5b610c638286868403611087565b60019250505092915050565b600080610c7a61107f565b9050610c878185856112dc565b600191505092915050565b610c9a611552565b6012831015610cde576040517f08c379a0000000000000000000000000000000000000000000000000000000008152600401610cd590611fa8565b60405180910390fd5b6000610ce933610ae0565b1015610d2a576040517f08c379a0000000000000000000000000000000000000000000000000000000008152600401610d2190612014565b60405180910390fd5b6000600660003373ffffffffffffffffffffffffffffffffffffffff1673ffffffffffffffffffffffffffffffffffffffff168152602001908152602001600020600601541115610db0576040517f08c379a0000000000000000000000000000000000000000000000000000000008152600401610da790612080565b60405180910390fd5b6000610dbb33610ae0565b9050610deb33600860009054906101000a900473ffffffffffffffffffffffffffffffffffffffff1660006105b1565b506040518061010001604052803373ffffffffffffffffffffffffffffffffffffffff1681526020018681526020018581526020018481526020018381526020018281526020014281526020016301e1853e42610e489190611e70565b815250600660003373ffffffffffffffffffffffffffffffffffffffff1673ffffffffffffffffffffffffffffffffffffffff16815260200190815260200160002060008201518160000160006101000a81548173ffffffffffffffffffffffffffffffffffffffff021916908373ffffffffffffffffffffffffffffffffffffffff1602179055506020820151816001019081610ee6919061224c565b50604082015181600201556060820151816003019081610f06919061224c565b506080820151816004019081610f1c919061224c565b5060a0820151816005015560c0820151816006015560e0820151816007015590505060076000815480929190610f519061231e565b91905055505050505050565b6000610f67611552565b610f7033610ae0565b905090565b6000600160008473ffffffffffffffffffffffffffffffffffffffff1673ffffffffffffffffffffffffffffffffffffffff16815260200190815260200160002060008373ffffffffffffffffffffffffffffffffffffffff1673ffffffffffffffffffffffffffffffffffffffff16815260200190815260200160002054905092915050565b611004611552565b600073ffffffffffffffffffffffffffffffffffffffff168173ffffffffffffffffffffffffffffffffffffffff1603611073576040517f08c379a000000000000000000000000000000000000000000000000000000000815260040161106a906123d8565b60405180910390fd5b61107c816115d0565b50565b600033905090565b600073ffffffffffffffffffffffffffffffffffffffff168373ffffffffffffffffffffffffffffffffffffffff16036110f6576040517f08c379a00000000000000000000000000000000000000000000000000000000081526004016110ed9061246a565b60405180910390fd5b600073ffffffffffffffffffffffffffffffffffffffff168273ffffffffffffffffffffffffffffffffffffffff1603611165576040517f08c379a000000000000000000000000000000000000000000000000000000000815260040161115c906124fc565b60405180910390fd5b80600160008573ffffffffffffffffffffffffffffffffffffffff1673ffffffffffffffffffffffffffffffffffffffff16815260200190815260200160002060008473ffffffffffffffffffffffffffffffffffffffff1673ffffffffffffffffffffffffffffffffffffffff168152602001908152602001600020819055508173ffffffffffffffffffffffffffffffffffffffff168373ffffffffffffffffffffffffffffffffffffffff167f8c5be1e5ebec7d5bd14f71427d1e84f3dd0314c0f7b2291e5b200ac8c7c3b9258360405161124391906118da565b60405180910390a3505050565b600061125c8484610f75565b90507fffffffffffffffffffffffffffffffffffffffffffffffffffffffffffffffff81146112d657818110156112c8576040517f08c379a00000000000000000000000000000000000000000000000000000000081526004016112bf90612568565b60405180910390fd5b6112d58484848403611087565b5b50505050565b600073ffffffffffffffffffffffffffffffffffffffff168373ffffffffffffffffffffffffffffffffffffffff160361134b576040517f08c379a0000000000000000000000000000000000000000000000000000000008152600401611342906125fa565b60405180910390fd5b600073ffffffffffffffffffffffffffffffffffffffff168273ffffffffffffffffffffffffffffffffffffffff16036113ba576040517f08c379a00000000000000000000000000000000000000000000000000000000081526004016113b19061268c565b60405180910390fd5b6113c5838383611696565b60008060008573ffffffffffffffffffffffffffffffffffffffff1673ffffffffffffffffffffffffffffffffffffffff1681526020019081526020016000205490508181101561144b576040517f08c379a00000000000000000000000000000000000000000000000000000000081526004016114429061271e565b60405180910390fd5b8181036000808673ffffffffffffffffffffffffffffffffffffffff1673ffffffffffffffffffffffffffffffffffffffff16815260200190815260200160002081905550816000808573ffffffffffffffffffffffffffffffffffffffff1673ffffffffffffffffffffffffffffffffffffffff168152602001908152602001600020600082825401925050819055508273ffffffffffffffffffffffffffffffffffffffff168473ffffffffffffffffffffffffffffffffffffffff167fddf252ad1be2c89b69c2b068fc378daa952ba7f163c4a11628f55a4df523b3ef8460405161153991906118da565b60405180910390a361154c84848461169b565b50505050565b61155a61107f565b73ffffffffffffffffffffffffffffffffffffffff16611578610b3c565b73ffffffffffffffffffffffffffffffffffffffff16146115ce576040517f08c379a00000000000000000000000000000000000000000000000000000000081526004016115c59061278a565b60405180910390fd5b565b6000600560009054906101000a900473ffffffffffffffffffffffffffffffffffffffff16905081600560006101000a81548173ffffffffffffffffffffffffffffffffffffffff021916908373ffffffffffffffffffffffffffffffffffffffff1602179055508173ffffffffffffffffffffffffffffffffffffffff168173ffffffffffffffffffffffffffffffffffffffff167f8be0079c531659141344cd1fd0a4f28419497f9722a3daafe3b4186f6b6457e060405160405180910390a35050565b505050565b505050565b604051806101000160405280600073ffffffffffffffffffffffffffffffffffffffff168152602001606081526020016000815260200160608152602001606081526020016000815260200160008152602001600081525090565b600081519050919050565b600082825260208201905092915050565b60005b8381101561173557808201518184015260208101905061171a565b60008484015250505050565b6000601f19601f8301169050919050565b600061175d826116fb565b6117678185611706565b9350611777818560208601611717565b61178081611741565b840191505092915050565b600060208201905081810360008301526117a58184611752565b905092915050565b6000604051905090565b600080fd5b600080fd5b600073ffffffffffffffffffffffffffffffffffffffff82169050919050565b60006117ec826117c1565b9050919050565b6117fc816117e1565b811461180757600080fd5b50565b600081359050611819816117f3565b92915050565b6000819050919050565b6118328161181f565b811461183d57600080fd5b50565b60008135905061184f81611829565b92915050565b6000806040838503121561186c5761186b6117b7565b5b600061187a8582860161180a565b925050602061188b85828601611840565b9150509250929050565b60008115159050919050565b6118aa81611895565b82525050565b60006020820190506118c560008301846118a1565b92915050565b6118d48161181f565b82525050565b60006020820190506118ef60008301846118cb565b92915050565b60008060006060848603121561190e5761190d6117b7565b5b600061191c8682870161180a565b935050602061192d8682870161180a565b925050604061193e86828701611840565b9150509250925092565b611951816117e1565b82525050565b600060208201905061196c6000830184611948565b92915050565b600060ff82169050919050565b61198881611972565b82525050565b60006020820190506119a3600083018461197f565b92915050565b6000602082840312156119bf576119be6117b7565b5b60006119cd8482850161180a565b91505092915050565b6000610100820190506119ec600083018b611948565b81810360208301526119fe818a611752565b9050611a0d60408301896118cb565b8181036060830152611a1f8188611752565b90508181036080830152611a338187611752565b9050611a4260a08301866118cb565b611a4f60c08301856118cb565b611a5c60e08301846118cb565b9998505050505050505050565b611a72816117e1565b82525050565b600082825260208201905092915050565b6000611a94826116fb565b611a9e8185611a78565b9350611aae818560208601611717565b611ab781611741565b840191505092915050565b611acb8161181f565b82525050565b600061010083016000830151611aea6000860182611a69565b5060208301518482036020860152611b028282611a89565b9150506040830151611b176040860182611ac2565b5060608301518482036060860152611b2f8282611a89565b91505060808301518482036080860152611b498282611a89565b91505060a0830151611b5e60a0860182611ac2565b5060c0830151611b7160c0860182611ac2565b5060e0830151611b8460e0860182611ac2565b508091505092915050565b60006020820190508181036000830152611ba98184611ad1565b905092915050565b600080fd5b600080fd5b7f4e487b7100000000000000000000000000000000000000000000000000000000600052604160045260246000fd5b611bf382611741565b810181811067ffffffffffffffff82111715611c1257611c11611bbb565b5b80604052505050565b6000611c256117ad565b9050611c318282611bea565b919050565b600067ffffffffffffffff821115611c5157611c50611bbb565b5b611c5a82611741565b9050602081019050919050565b82818337600083830152505050565b6000611c89611c8484611c36565b611c1b565b905082815260208101848484011115611ca557611ca4611bb6565b5b611cb0848285611c67565b509392505050565b600082601f830112611ccd57611ccc611bb1565b5b8135611cdd848260208601611c76565b91505092915050565b60008060008060808587031215611d0057611cff6117b7565b5b600085013567ffffffffffffffff811115611d1e57611d1d6117bc565b5b611d2a87828801611cb8565b9450506020611d3b87828801611840565b935050604085013567ffffffffffffffff811115611d5c57611d5b6117bc565b5b611d6887828801611cb8565b925050606085013567ffffffffffffffff811115611d8957611d886117bc565b5b611d9587828801611cb8565b91505092959194509250565b60008060408385031215611db857611db76117b7565b5b6000611dc68582860161180a565b9250506020611dd78582860161180a565b9150509250929050565b7f4e487b7100000000000000000000000000000000000000000000000000000000600052602260045260246000fd5b60006002820490506001821680611e2857607f821691505b602082108103611e3b57611e3a611de1565b5b50919050565b7f4e487b7100000000000000000000000000000000000000000000000000000000600052601160045260246000fd5b6000611e7b8261181f565b9150611e868361181f565b9250828201905080821115611e9e57611e9d611e41565b5b92915050565b7f45524332303a2064656372656173656420616c6c6f77616e63652062656c6f7760008201527f207a65726f000000000000000000000000000000000000000000000000000000602082015250565b6000611f00602583611706565b9150611f0b82611ea4565b604082019050919050565b60006020820190508181036000830152611f2f81611ef3565b9050919050565b7f596f7520617265206e6f7420656c696761626c6520746f206861766520616e2060008201527f696e737572616e63652e00000000000000000000000000000000000000000000602082015250565b6000611f92602a83611706565b9150611f9d82611f36565b604082019050919050565b60006020820190508181036000830152611fc181611f85565b9050919050565b7f596f7520646f6e2774206861766520656e6f7567682062616c616e63652e0000600082015250565b6000611ffe601e83611706565b915061200982611fc8565b602082019050919050565b6000602082019050818103600083015261202d81611ff1565b9050919050565b7f596f7520616c7265616479206861766520616e20696e737572616e6365000000600082015250565b600061206a601d83611706565b915061207582612034565b602082019050919050565b600060208201905081810360008301526120998161205d565b9050919050565b60008190508160005260206000209050919050565b60006020601f8301049050919050565b600082821b905092915050565b6000600883026121027fffffffffffffffffffffffffffffffffffffffffffffffffffffffffffffffff826120c5565b61210c86836120c5565b95508019841693508086168417925050509392505050565b6000819050919050565b600061214961214461213f8461181f565b612124565b61181f565b9050919050565b6000819050919050565b6121638361212e565b61217761216f82612150565b8484546120d2565b825550505050565b600090565b61218c61217f565b61219781848461215a565b505050565b5b818110156121bb576121b0600082612184565b60018101905061219d565b5050565b601f821115612200576121d1816120a0565b6121da846120b5565b810160208510156121e9578190505b6121fd6121f5856120b5565b83018261219c565b50505b505050565b600082821c905092915050565b600061222360001984600802612205565b1980831691505092915050565b600061223c8383612212565b9150826002028217905092915050565b612255826116fb565b67ffffffffffffffff81111561226e5761226d611bbb565b5b6122788254611e10565b6122838282856121bf565b600060209050601f8311600181146122b657600084156122a4578287015190505b6122ae8582612230565b865550612316565b601f1984166122c4866120a0565b60005b828110156122ec578489015182556001820191506020850194506020810190506122c7565b868310156123095784890151612305601f891682612212565b8355505b6001600288020188555050505b505050505050565b60006123298261181f565b91507fffffffffffffffffffffffffffffffffffffffffffffffffffffffffffffffff820361235b5761235a611e41565b5b600182019050919050565b7f4f776e61626c653a206e6577206f776e657220697320746865207a65726f206160008201527f6464726573730000000000000000000000000000000000000000000000000000602082015250565b60006123c2602683611706565b91506123cd82612366565b604082019050919050565b600060208201905081810360008301526123f1816123b5565b9050919050565b7f45524332303a20617070726f76652066726f6d20746865207a65726f2061646460008201527f7265737300000000000000000000000000000000000000000000000000000000602082015250565b6000612454602483611706565b915061245f826123f8565b604082019050919050565b6000602082019050818103600083015261248381612447565b9050919050565b7f45524332303a20617070726f766520746f20746865207a65726f20616464726560008201527f7373000000000000000000000000000000000000000000000000000000000000602082015250565b60006124e6602283611706565b91506124f18261248a565b604082019050919050565b60006020820190508181036000830152612515816124d9565b9050919050565b7f45524332303a20696e73756666696369656e7420616c6c6f77616e6365000000600082015250565b6000612552601d83611706565b915061255d8261251c565b602082019050919050565b6000602082019050818103600083015261258181612545565b9050919050565b7f45524332303a207472616e736665722066726f6d20746865207a65726f20616460008201527f6472657373000000000000000000000000000000000000000000000000000000602082015250565b60006125e4602583611706565b91506125ef82612588565b604082019050919050565b60006020820190508181036000830152612613816125d7565b9050919050565b7f45524332303a207472616e7366657220746f20746865207a65726f206164647260008201527f6573730000000000000000000000000000000000000000000000000000000000602082015250565b6000612676602383611706565b91506126818261261a565b604082019050919050565b600060208201905081810360008301526126a581612669565b9050919050565b7f45524332303a207472616e7366657220616d6f756e742065786365656473206260008201527f616c616e63650000000000000000000000000000000000000000000000000000602082015250565b6000612708602683611706565b9150612713826126ac565b604082019050919050565b60006020820190508181036000830152612737816126fb565b9050919050565b7f4f776e61626c653a2063616c6c6572206973206e6f7420746865206f776e6572600082015250565b6000612774602083611706565b915061277f8261273e565b602082019050919050565b600060208201905081810360008301526127a381612767565b905091905056fea2646970667358221220010112e947c4a12cb95928a9953e62d68dcaff230256b8c6cb403aca8ffa7c5564736f6c63430008140033",
					"opcodes": "PUSH1 0x80 PUSH1 0x40 MSTORE PUSH1 0x0 PUSH1 0x7 SSTORE PUSH20 0x2EB004DDE18E064725717A31D74F2027DA5B4FA4 PUSH1 0x8 PUSH1 0x0 PUSH2 0x100 EXP DUP2 SLOAD DUP2 PUSH20 0xFFFFFFFFFFFFFFFFFFFFFFFFFFFFFFFFFFFFFFFF MUL NOT AND SWAP1 DUP4 PUSH20 0xFFFFFFFFFFFFFFFFFFFFFFFFFFFFFFFFFFFFFFFF AND MUL OR SWAP1 SSTORE POP CALLVALUE DUP1 ISZERO PUSH3 0x6B JUMPI PUSH1 0x0 DUP1 REVERT JUMPDEST POP PUSH1 0x40 MLOAD DUP1 PUSH1 0x40 ADD PUSH1 0x40 MSTORE DUP1 PUSH1 0x1E DUP2 MSTORE PUSH1 0x20 ADD PUSH32 0x4F73616D6120496E737572616E636520536D61727420436F6E74726163740000 DUP2 MSTORE POP PUSH1 0x40 MLOAD DUP1 PUSH1 0x40 ADD PUSH1 0x40 MSTORE DUP1 PUSH1 0x4 DUP2 MSTORE PUSH1 0x20 ADD PUSH32 0x4F49534300000000000000000000000000000000000000000000000000000000 DUP2 MSTORE POP DUP2 PUSH1 0x3 SWAP1 DUP2 PUSH3 0xE9 SWAP2 SWAP1 PUSH3 0x46C JUMP JUMPDEST POP DUP1 PUSH1 0x4 SWAP1 DUP2 PUSH3 0xFB SWAP2 SWAP1 PUSH3 0x46C JUMP JUMPDEST POP POP POP PUSH3 0x11E PUSH3 0x112 PUSH3 0x124 PUSH1 0x20 SHL PUSH1 0x20 SHR JUMP JUMPDEST PUSH3 0x12C PUSH1 0x20 SHL PUSH1 0x20 SHR JUMP JUMPDEST PUSH3 0x553 JUMP JUMPDEST PUSH1 0x0 CALLER SWAP1 POP SWAP1 JUMP JUMPDEST PUSH1 0x0 PUSH1 0x5 PUSH1 0x0 SWAP1 SLOAD SWAP1 PUSH2 0x100 EXP SWAP1 DIV PUSH20 0xFFFFFFFFFFFFFFFFFFFFFFFFFFFFFFFFFFFFFFFF AND SWAP1 POP DUP2 PUSH1 0x5 PUSH1 0x0 PUSH2 0x100 EXP DUP2 SLOAD DUP2 PUSH20 0xFFFFFFFFFFFFFFFFFFFFFFFFFFFFFFFFFFFFFFFF MUL NOT AND SWAP1 DUP4 PUSH20 0xFFFFFFFFFFFFFFFFFFFFFFFFFFFFFFFFFFFFFFFF AND MUL OR SWAP1 SSTORE POP DUP2 PUSH20 0xFFFFFFFFFFFFFFFFFFFFFFFFFFFFFFFFFFFFFFFF AND DUP2 PUSH20 0xFFFFFFFFFFFFFFFFFFFFFFFFFFFFFFFFFFFFFFFF AND PUSH32 0x8BE0079C531659141344CD1FD0A4F28419497F9722A3DAAFE3B4186F6B6457E0 PUSH1 0x40 MLOAD PUSH1 0x40 MLOAD DUP1 SWAP2 SUB SWAP1 LOG3 POP POP JUMP JUMPDEST PUSH1 0x0 DUP2 MLOAD SWAP1 POP SWAP2 SWAP1 POP JUMP JUMPDEST PUSH32 0x4E487B7100000000000000000000000000000000000000000000000000000000 PUSH1 0x0 MSTORE PUSH1 0x41 PUSH1 0x4 MSTORE PUSH1 0x24 PUSH1 0x0 REVERT JUMPDEST PUSH32 0x4E487B7100000000000000000000000000000000000000000000000000000000 PUSH1 0x0 MSTORE PUSH1 0x22 PUSH1 0x4 MSTORE PUSH1 0x24 PUSH1 0x0 REVERT JUMPDEST PUSH1 0x0 PUSH1 0x2 DUP3 DIV SWAP1 POP PUSH1 0x1 DUP3 AND DUP1 PUSH3 0x274 JUMPI PUSH1 0x7F DUP3 AND SWAP2 POP JUMPDEST PUSH1 0x20 DUP3 LT DUP2 SUB PUSH3 0x28A JUMPI PUSH3 0x289 PUSH3 0x22C JUMP JUMPDEST JUMPDEST POP SWAP2 SWAP1 POP JUMP JUMPDEST PUSH1 0x0 DUP2 SWAP1 POP DUP2 PUSH1 0x0 MSTORE PUSH1 0x20 PUSH1 0x0 KECCAK256 SWAP1 POP SWAP2 SWAP1 POP JUMP JUMPDEST PUSH1 0x0 PUSH1 0x20 PUSH1 0x1F DUP4 ADD DIV SWAP1 POP SWAP2 SWAP1 POP JUMP JUMPDEST PUSH1 0x0 DUP3 DUP3 SHL SWAP1 POP SWAP3 SWAP2 POP POP JUMP JUMPDEST PUSH1 0x0 PUSH1 0x8 DUP4 MUL PUSH3 0x2F4 PUSH32 0xFFFFFFFFFFFFFFFFFFFFFFFFFFFFFFFFFFFFFFFFFFFFFFFFFFFFFFFFFFFFFFFF DUP3 PUSH3 0x2B5 JUMP JUMPDEST PUSH3 0x300 DUP7 DUP4 PUSH3 0x2B5 JUMP JUMPDEST SWAP6 POP DUP1 NOT DUP5 AND SWAP4 POP DUP1 DUP7 AND DUP5 OR SWAP3 POP POP POP SWAP4 SWAP3 POP POP POP JUMP JUMPDEST PUSH1 0x0 DUP2 SWAP1 POP SWAP2 SWAP1 POP JUMP JUMPDEST PUSH1 0x0 DUP2 SWAP1 POP SWAP2 SWAP1 POP JUMP JUMPDEST PUSH1 0x0 PUSH3 0x34D PUSH3 0x347 PUSH3 0x341 DUP5 PUSH3 0x318 JUMP JUMPDEST PUSH3 0x322 JUMP JUMPDEST PUSH3 0x318 JUMP JUMPDEST SWAP1 POP SWAP2 SWAP1 POP JUMP JUMPDEST PUSH1 0x0 DUP2 SWAP1 POP SWAP2 SWAP1 POP JUMP JUMPDEST PUSH3 0x369 DUP4 PUSH3 0x32C JUMP JUMPDEST PUSH3 0x381 PUSH3 0x378 DUP3 PUSH3 0x354 JUMP JUMPDEST DUP5 DUP5 SLOAD PUSH3 0x2C2 JUMP JUMPDEST DUP3 SSTORE POP POP POP POP JUMP JUMPDEST PUSH1 0x0 SWAP1 JUMP JUMPDEST PUSH3 0x398 PUSH3 0x389 JUMP JUMPDEST PUSH3 0x3A5 DUP2 DUP5 DUP5 PUSH3 0x35E JUMP JUMPDEST POP POP POP JUMP JUMPDEST JUMPDEST DUP2 DUP2 LT ISZERO PUSH3 0x3CD JUMPI PUSH3 0x3C1 PUSH1 0x0 DUP3 PUSH3 0x38E JUMP JUMPDEST PUSH1 0x1 DUP2 ADD SWAP1 POP PUSH3 0x3AB JUMP JUMPDEST POP POP JUMP JUMPDEST PUSH1 0x1F DUP3 GT ISZERO PUSH3 0x41C JUMPI PUSH3 0x3E6 DUP2 PUSH3 0x290 JUMP JUMPDEST PUSH3 0x3F1 DUP5 PUSH3 0x2A5 JUMP JUMPDEST DUP2 ADD PUSH1 0x20 DUP6 LT ISZERO PUSH3 0x401 JUMPI DUP2 SWAP1 POP JUMPDEST PUSH3 0x419 PUSH3 0x410 DUP6 PUSH3 0x2A5 JUMP JUMPDEST DUP4 ADD DUP3 PUSH3 0x3AA JUMP JUMPDEST POP POP JUMPDEST POP POP POP JUMP JUMPDEST PUSH1 0x0 DUP3 DUP3 SHR SWAP1 POP SWAP3 SWAP2 POP POP JUMP JUMPDEST PUSH1 0x0 PUSH3 0x441 PUSH1 0x0 NOT DUP5 PUSH1 0x8 MUL PUSH3 0x421 JUMP JUMPDEST NOT DUP1 DUP4 AND SWAP2 POP POP SWAP3 SWAP2 POP POP JUMP JUMPDEST PUSH1 0x0 PUSH3 0x45C DUP4 DUP4 PUSH3 0x42E JUMP JUMPDEST SWAP2 POP DUP3 PUSH1 0x2 MUL DUP3 OR SWAP1 POP SWAP3 SWAP2 POP POP JUMP JUMPDEST PUSH3 0x477 DUP3 PUSH3 0x1F2 JUMP JUMPDEST PUSH8 0xFFFFFFFFFFFFFFFF DUP2 GT ISZERO PUSH3 0x493 JUMPI PUSH3 0x492 PUSH3 0x1FD JUMP JUMPDEST JUMPDEST PUSH3 0x49F DUP3 SLOAD PUSH3 0x25B JUMP JUMPDEST PUSH3 0x4AC DUP3 DUP3 DUP6 PUSH3 0x3D1 JUMP JUMPDEST PUSH1 0x0 PUSH1 0x20 SWAP1 POP PUSH1 0x1F DUP4 GT PUSH1 0x1 DUP2 EQ PUSH3 0x4E4 JUMPI PUSH1 0x0 DUP5 ISZERO PUSH3 0x4CF JUMPI DUP3 DUP8 ADD MLOAD SWAP1 POP JUMPDEST PUSH3 0x4DB DUP6 DUP3 PUSH3 0x44E JUMP JUMPDEST DUP7 SSTORE POP PUSH3 0x54B JUMP JUMPDEST PUSH1 0x1F NOT DUP5 AND PUSH3 0x4F4 DUP7 PUSH3 0x290 JUMP JUMPDEST PUSH1 0x0 JUMPDEST DUP3 DUP2 LT ISZERO PUSH3 0x51E JUMPI DUP5 DUP10 ADD MLOAD DUP3 SSTORE PUSH1 0x1 DUP3 ADD SWAP2 POP PUSH1 0x20 DUP6 ADD SWAP5 POP PUSH1 0x20 DUP2 ADD SWAP1 POP PUSH3 0x4F7 JUMP JUMPDEST DUP7 DUP4 LT ISZERO PUSH3 0x53E JUMPI DUP5 DUP10 ADD MLOAD PUSH3 0x53A PUSH1 0x1F DUP10 AND DUP3 PUSH3 0x42E JUMP JUMPDEST DUP4 SSTORE POP JUMPDEST PUSH1 0x1 PUSH1 0x2 DUP9 MUL ADD DUP9 SSTORE POP POP POP JUMPDEST POP POP POP POP POP POP JUMP JUMPDEST PUSH2 0x27E0 DUP1 PUSH3 0x563 PUSH1 0x0 CODECOPY PUSH1 0x0 RETURN INVALID PUSH1 0x80 PUSH1 0x40 MSTORE PUSH1 0x4 CALLDATASIZE LT PUSH2 0x11F JUMPI PUSH1 0x0 CALLDATALOAD PUSH1 0xE0 SHR DUP1 PUSH4 0x70A08231 GT PUSH2 0xA0 JUMPI DUP1 PUSH4 0xA9059CBB GT PUSH2 0x64 JUMPI DUP1 PUSH4 0xA9059CBB EQ PUSH2 0x408 JUMPI DUP1 PUSH4 0xB3523B0B EQ PUSH2 0x445 JUMPI DUP1 PUSH4 0xC71DACCB EQ PUSH2 0x461 JUMPI DUP1 PUSH4 0xDD62ED3E EQ PUSH2 0x48C JUMPI DUP1 PUSH4 0xF2FDE38B EQ PUSH2 0x4C9 JUMPI PUSH2 0x11F JUMP JUMPDEST DUP1 PUSH4 0x70A08231 EQ PUSH2 0x321 JUMPI DUP1 PUSH4 0x715018A6 EQ PUSH2 0x35E JUMPI DUP1 PUSH4 0x8DA5CB5B EQ PUSH2 0x375 JUMPI DUP1 PUSH4 0x95D89B41 EQ PUSH2 0x3A0 JUMPI DUP1 PUSH4 0xA457C2D7 EQ PUSH2 0x3CB JUMPI PUSH2 0x11F JUMP JUMPDEST DUP1 PUSH4 0x313CE567 GT PUSH2 0xE7 JUMPI DUP1 PUSH4 0x313CE567 EQ PUSH2 0x21F JUMPI DUP1 PUSH4 0x336989AE EQ PUSH2 0x24A JUMPI DUP1 PUSH4 0x36FDDE7C EQ PUSH2 0x28E JUMPI DUP1 PUSH4 0x39509351 EQ PUSH2 0x2B9 JUMPI DUP1 PUSH4 0x6605FF66 EQ PUSH2 0x2F6 JUMPI PUSH2 0x11F JUMP JUMPDEST DUP1 PUSH4 0x6FDDE03 EQ PUSH2 0x124 JUMPI DUP1 PUSH4 0x95EA7B3 EQ PUSH2 0x14F JUMPI DUP1 PUSH4 0x18160DDD EQ PUSH2 0x18C JUMPI DUP1 PUSH4 0x23B872DD EQ PUSH2 0x1B7 JUMPI DUP1 PUSH4 0x2401273C EQ PUSH2 0x1F4 JUMPI JUMPDEST PUSH1 0x0 DUP1 REVERT JUMPDEST CALLVALUE DUP1 ISZERO PUSH2 0x130 JUMPI PUSH1 0x0 DUP1 REVERT JUMPDEST POP PUSH2 0x139 PUSH2 0x4F2 JUMP JUMPDEST PUSH1 0x40 MLOAD PUSH2 0x146 SWAP2 SWAP1 PUSH2 0x178B JUMP JUMPDEST PUSH1 0x40 MLOAD DUP1 SWAP2 SUB SWAP1 RETURN JUMPDEST CALLVALUE DUP1 ISZERO PUSH2 0x15B JUMPI PUSH1 0x0 DUP1 REVERT JUMPDEST POP PUSH2 0x176 PUSH1 0x4 DUP1 CALLDATASIZE SUB DUP2 ADD SWAP1 PUSH2 0x171 SWAP2 SWAP1 PUSH2 0x1855 JUMP JUMPDEST PUSH2 0x584 JUMP JUMPDEST PUSH1 0x40 MLOAD PUSH2 0x183 SWAP2 SWAP1 PUSH2 0x18B0 JUMP JUMPDEST PUSH1 0x40 MLOAD DUP1 SWAP2 SUB SWAP1 RETURN JUMPDEST CALLVALUE DUP1 ISZERO PUSH2 0x198 JUMPI PUSH1 0x0 DUP1 REVERT JUMPDEST POP PUSH2 0x1A1 PUSH2 0x5A7 JUMP JUMPDEST PUSH1 0x40 MLOAD PUSH2 0x1AE SWAP2 SWAP1 PUSH2 0x18DA JUMP JUMPDEST PUSH1 0x40 MLOAD DUP1 SWAP2 SUB SWAP1 RETURN JUMPDEST CALLVALUE DUP1 ISZERO PUSH2 0x1C3 JUMPI PUSH1 0x0 DUP1 REVERT JUMPDEST POP PUSH2 0x1DE PUSH1 0x4 DUP1 CALLDATASIZE SUB DUP2 ADD SWAP1 PUSH2 0x1D9 SWAP2 SWAP1 PUSH2 0x18F5 JUMP JUMPDEST PUSH2 0x5B1 JUMP JUMPDEST PUSH1 0x40 MLOAD PUSH2 0x1EB SWAP2 SWAP1 PUSH2 0x18B0 JUMP JUMPDEST PUSH1 0x40 MLOAD DUP1 SWAP2 SUB SWAP1 RETURN JUMPDEST CALLVALUE DUP1 ISZERO PUSH2 0x200 JUMPI PUSH1 0x0 DUP1 REVERT JUMPDEST POP PUSH2 0x209 PUSH2 0x5E0 JUMP JUMPDEST PUSH1 0x40 MLOAD PUSH2 0x216 SWAP2 SWAP1 PUSH2 0x1957 JUMP JUMPDEST PUSH1 0x40 MLOAD DUP1 SWAP2 SUB SWAP1 RETURN JUMPDEST CALLVALUE DUP1 ISZERO PUSH2 0x22B JUMPI PUSH1 0x0 DUP1 REVERT JUMPDEST POP PUSH2 0x234 PUSH2 0x606 JUMP JUMPDEST PUSH1 0x40 MLOAD PUSH2 0x241 SWAP2 SWAP1 PUSH2 0x198E JUMP JUMPDEST PUSH1 0x40 MLOAD DUP1 SWAP2 SUB SWAP1 RETURN JUMPDEST CALLVALUE DUP1 ISZERO PUSH2 0x256 JUMPI PUSH1 0x0 DUP1 REVERT JUMPDEST POP PUSH2 0x271 PUSH1 0x4 DUP1 CALLDATASIZE SUB DUP2 ADD SWAP1 PUSH2 0x26C SWAP2 SWAP1 PUSH2 0x19A9 JUMP JUMPDEST PUSH2 0x60F JUMP JUMPDEST PUSH1 0x40 MLOAD PUSH2 0x285 SWAP9 SWAP8 SWAP7 SWAP6 SWAP5 SWAP4 SWAP3 SWAP2 SWAP1 PUSH2 0x19D6 JUMP JUMPDEST PUSH1 0x40 MLOAD DUP1 SWAP2 SUB SWAP1 RETURN JUMPDEST CALLVALUE DUP1 ISZERO PUSH2 0x29A JUMPI PUSH1 0x0 DUP1 REVERT JUMPDEST POP PUSH2 0x2A3 PUSH2 0x80F JUMP JUMPDEST PUSH1 0x40 MLOAD PUSH2 0x2B0 SWAP2 SWAP1 PUSH2 0x1B8F JUMP JUMPDEST PUSH1 0x40 MLOAD DUP1 SWAP2 SUB SWAP1 RETURN JUMPDEST CALLVALUE DUP1 ISZERO PUSH2 0x2C5 JUMPI PUSH1 0x0 DUP1 REVERT JUMPDEST POP PUSH2 0x2E0 PUSH1 0x4 DUP1 CALLDATASIZE SUB DUP2 ADD SWAP1 PUSH2 0x2DB SWAP2 SWAP1 PUSH2 0x1855 JUMP JUMPDEST PUSH2 0xAA3 JUMP JUMPDEST PUSH1 0x40 MLOAD PUSH2 0x2ED SWAP2 SWAP1 PUSH2 0x18B0 JUMP JUMPDEST PUSH1 0x40 MLOAD DUP1 SWAP2 SUB SWAP1 RETURN JUMPDEST CALLVALUE DUP1 ISZERO PUSH2 0x302 JUMPI PUSH1 0x0 DUP1 REVERT JUMPDEST POP PUSH2 0x30B PUSH2 0xADA JUMP JUMPDEST PUSH1 0x40 MLOAD PUSH2 0x318 SWAP2 SWAP1 PUSH2 0x18DA JUMP JUMPDEST PUSH1 0x40 MLOAD DUP1 SWAP2 SUB SWAP1 RETURN JUMPDEST CALLVALUE DUP1 ISZERO PUSH2 0x32D JUMPI PUSH1 0x0 DUP1 REVERT JUMPDEST POP PUSH2 0x348 PUSH1 0x4 DUP1 CALLDATASIZE SUB DUP2 ADD SWAP1 PUSH2 0x343 SWAP2 SWAP1 PUSH2 0x19A9 JUMP JUMPDEST PUSH2 0xAE0 JUMP JUMPDEST PUSH1 0x40 MLOAD PUSH2 0x355 SWAP2 SWAP1 PUSH2 0x18DA JUMP JUMPDEST PUSH1 0x40 MLOAD DUP1 SWAP2 SUB SWAP1 RETURN JUMPDEST CALLVALUE DUP1 ISZERO PUSH2 0x36A JUMPI PUSH1 0x0 DUP1 REVERT JUMPDEST POP PUSH2 0x373 PUSH2 0xB28 JUMP JUMPDEST STOP JUMPDEST CALLVALUE DUP1 ISZERO PUSH2 0x381 JUMPI PUSH1 0x0 DUP1 REVERT JUMPDEST POP PUSH2 0x38A PUSH2 0xB3C JUMP JUMPDEST PUSH1 0x40 MLOAD PUSH2 0x397 SWAP2 SWAP1 PUSH2 0x1957 JUMP JUMPDEST PUSH1 0x40 MLOAD DUP1 SWAP2 SUB SWAP1 RETURN JUMPDEST CALLVALUE DUP1 ISZERO PUSH2 0x3AC JUMPI PUSH1 0x0 DUP1 REVERT JUMPDEST POP PUSH2 0x3B5 PUSH2 0xB66 JUMP JUMPDEST PUSH1 0x40 MLOAD PUSH2 0x3C2 SWAP2 SWAP1 PUSH2 0x178B JUMP JUMPDEST PUSH1 0x40 MLOAD DUP1 SWAP2 SUB SWAP1 RETURN JUMPDEST CALLVALUE DUP1 ISZERO PUSH2 0x3D7 JUMPI PUSH1 0x0 DUP1 REVERT JUMPDEST POP PUSH2 0x3F2 PUSH1 0x4 DUP1 CALLDATASIZE SUB DUP2 ADD SWAP1 PUSH2 0x3ED SWAP2 SWAP1 PUSH2 0x1855 JUMP JUMPDEST PUSH2 0xBF8 JUMP JUMPDEST PUSH1 0x40 MLOAD PUSH2 0x3FF SWAP2 SWAP1 PUSH2 0x18B0 JUMP JUMPDEST PUSH1 0x40 MLOAD DUP1 SWAP2 SUB SWAP1 RETURN JUMPDEST CALLVALUE DUP1 ISZERO PUSH2 0x414 JUMPI PUSH1 0x0 DUP1 REVERT JUMPDEST POP PUSH2 0x42F PUSH1 0x4 DUP1 CALLDATASIZE SUB DUP2 ADD SWAP1 PUSH2 0x42A SWAP2 SWAP1 PUSH2 0x1855 JUMP JUMPDEST PUSH2 0xC6F JUMP JUMPDEST PUSH1 0x40 MLOAD PUSH2 0x43C SWAP2 SWAP1 PUSH2 0x18B0 JUMP JUMPDEST PUSH1 0x40 MLOAD DUP1 SWAP2 SUB SWAP1 RETURN JUMPDEST PUSH2 0x45F PUSH1 0x4 DUP1 CALLDATASIZE SUB DUP2 ADD SWAP1 PUSH2 0x45A SWAP2 SWAP1 PUSH2 0x1CE6 JUMP JUMPDEST PUSH2 0xC92 JUMP JUMPDEST STOP JUMPDEST CALLVALUE DUP1 ISZERO PUSH2 0x46D JUMPI PUSH1 0x0 DUP1 REVERT JUMPDEST POP PUSH2 0x476 PUSH2 0xF5D JUMP JUMPDEST PUSH1 0x40 MLOAD PUSH2 0x483 SWAP2 SWAP1 PUSH2 0x18DA JUMP JUMPDEST PUSH1 0x40 MLOAD DUP1 SWAP2 SUB SWAP1 RETURN JUMPDEST CALLVALUE DUP1 ISZERO PUSH2 0x498 JUMPI PUSH1 0x0 DUP1 REVERT JUMPDEST POP PUSH2 0x4B3 PUSH1 0x4 DUP1 CALLDATASIZE SUB DUP2 ADD SWAP1 PUSH2 0x4AE SWAP2 SWAP1 PUSH2 0x1DA1 JUMP JUMPDEST PUSH2 0xF75 JUMP JUMPDEST PUSH1 0x40 MLOAD PUSH2 0x4C0 SWAP2 SWAP1 PUSH2 0x18DA JUMP JUMPDEST PUSH1 0x40 MLOAD DUP1 SWAP2 SUB SWAP1 RETURN JUMPDEST CALLVALUE DUP1 ISZERO PUSH2 0x4D5 JUMPI PUSH1 0x0 DUP1 REVERT JUMPDEST POP PUSH2 0x4F0 PUSH1 0x4 DUP1 CALLDATASIZE SUB DUP2 ADD SWAP1 PUSH2 0x4EB SWAP2 SWAP1 PUSH2 0x19A9 JUMP JUMPDEST PUSH2 0xFFC JUMP JUMPDEST STOP JUMPDEST PUSH1 0x60 PUSH1 0x3 DUP1 SLOAD PUSH2 0x501 SWAP1 PUSH2 0x1E10 JUMP JUMPDEST DUP1 PUSH1 0x1F ADD PUSH1 0x20 DUP1 SWAP2 DIV MUL PUSH1 0x20 ADD PUSH1 0x40 MLOAD SWAP1 DUP2 ADD PUSH1 0x40 MSTORE DUP1 SWAP3 SWAP2 SWAP1 DUP2 DUP2 MSTORE PUSH1 0x20 ADD DUP3 DUP1 SLOAD PUSH2 0x52D SWAP1 PUSH2 0x1E10 JUMP JUMPDEST DUP1 ISZERO PUSH2 0x57A JUMPI DUP1 PUSH1 0x1F LT PUSH2 0x54F JUMPI PUSH2 0x100 DUP1 DUP4 SLOAD DIV MUL DUP4 MSTORE SWAP2 PUSH1 0x20 ADD SWAP2 PUSH2 0x57A JUMP JUMPDEST DUP3 ADD SWAP2 SWAP1 PUSH1 0x0 MSTORE PUSH1 0x20 PUSH1 0x0 KECCAK256 SWAP1 JUMPDEST DUP2 SLOAD DUP2 MSTORE SWAP1 PUSH1 0x1 ADD SWAP1 PUSH1 0x20 ADD DUP1 DUP4 GT PUSH2 0x55D JUMPI DUP3 SWAP1 SUB PUSH1 0x1F AND DUP3 ADD SWAP2 JUMPDEST POP POP POP POP POP SWAP1 POP SWAP1 JUMP JUMPDEST PUSH1 0x0 DUP1 PUSH2 0x58F PUSH2 0x107F JUMP JUMPDEST SWAP1 POP PUSH2 0x59C DUP2 DUP6 DUP6 PUSH2 0x1087 JUMP JUMPDEST PUSH1 0x1 SWAP2 POP POP SWAP3 SWAP2 POP POP JUMP JUMPDEST PUSH1 0x0 PUSH1 0x2 SLOAD SWAP1 POP SWAP1 JUMP JUMPDEST PUSH1 0x0 DUP1 PUSH2 0x5BC PUSH2 0x107F JUMP JUMPDEST SWAP1 POP PUSH2 0x5C9 DUP6 DUP3 DUP6 PUSH2 0x1250 JUMP JUMPDEST PUSH2 0x5D4 DUP6 DUP6 DUP6 PUSH2 0x12DC JUMP JUMPDEST PUSH1 0x1 SWAP2 POP POP SWAP4 SWAP3 POP POP POP JUMP JUMPDEST PUSH1 0x8 PUSH1 0x0 SWAP1 SLOAD SWAP1 PUSH2 0x100 EXP SWAP1 DIV PUSH20 0xFFFFFFFFFFFFFFFFFFFFFFFFFFFFFFFFFFFFFFFF AND DUP2 JUMP JUMPDEST PUSH1 0x0 PUSH1 0x12 SWAP1 POP SWAP1 JUMP JUMPDEST PUSH1 0x6 PUSH1 0x20 MSTORE DUP1 PUSH1 0x0 MSTORE PUSH1 0x40 PUSH1 0x0 KECCAK256 PUSH1 0x0 SWAP2 POP SWAP1 POP DUP1 PUSH1 0x0 ADD PUSH1 0x0 SWAP1 SLOAD SWAP1 PUSH2 0x100 EXP SWAP1 DIV PUSH20 0xFFFFFFFFFFFFFFFFFFFFFFFFFFFFFFFFFFFFFFFF AND SWAP1 DUP1 PUSH1 0x1 ADD DUP1 SLOAD PUSH2 0x658 SWAP1 PUSH2 0x1E10 JUMP JUMPDEST DUP1 PUSH1 0x1F ADD PUSH1 0x20 DUP1 SWAP2 DIV MUL PUSH1 0x20 ADD PUSH1 0x40 MLOAD SWAP1 DUP2 ADD PUSH1 0x40 MSTORE DUP1 SWAP3 SWAP2 SWAP1 DUP2 DUP2 MSTORE PUSH1 0x20 ADD DUP3 DUP1 SLOAD PUSH2 0x684 SWAP1 PUSH2 0x1E10 JUMP JUMPDEST DUP1 ISZERO PUSH2 0x6D1 JUMPI DUP1 PUSH1 0x1F LT PUSH2 0x6A6 JUMPI PUSH2 0x100 DUP1 DUP4 SLOAD DIV MUL DUP4 MSTORE SWAP2 PUSH1 0x20 ADD SWAP2 PUSH2 0x6D1 JUMP JUMPDEST DUP3 ADD SWAP2 SWAP1 PUSH1 0x0 MSTORE PUSH1 0x20 PUSH1 0x0 KECCAK256 SWAP1 JUMPDEST DUP2 SLOAD DUP2 MSTORE SWAP1 PUSH1 0x1 ADD SWAP1 PUSH1 0x20 ADD DUP1 DUP4 GT PUSH2 0x6B4 JUMPI DUP3 SWAP1 SUB PUSH1 0x1F AND DUP3 ADD SWAP2 JUMPDEST POP POP POP POP POP SWAP1 DUP1 PUSH1 0x2 ADD SLOAD SWAP1 DUP1 PUSH1 0x3 ADD DUP1 SLOAD PUSH2 0x6EC SWAP1 PUSH2 0x1E10 JUMP JUMPDEST DUP1 PUSH1 0x1F ADD PUSH1 0x20 DUP1 SWAP2 DIV MUL PUSH1 0x20 ADD PUSH1 0x40 MLOAD SWAP1 DUP2 ADD PUSH1 0x40 MSTORE DUP1 SWAP3 SWAP2 SWAP1 DUP2 DUP2 MSTORE PUSH1 0x20 ADD DUP3 DUP1 SLOAD PUSH2 0x718 SWAP1 PUSH2 0x1E10 JUMP JUMPDEST DUP1 ISZERO PUSH2 0x765 JUMPI DUP1 PUSH1 0x1F LT PUSH2 0x73A JUMPI PUSH2 0x100 DUP1 DUP4 SLOAD DIV MUL DUP4 MSTORE SWAP2 PUSH1 0x20 ADD SWAP2 PUSH2 0x765 JUMP JUMPDEST DUP3 ADD SWAP2 SWAP1 PUSH1 0x0 MSTORE PUSH1 0x20 PUSH1 0x0 KECCAK256 SWAP1 JUMPDEST DUP2 SLOAD DUP2 MSTORE SWAP1 PUSH1 0x1 ADD SWAP1 PUSH1 0x20 ADD DUP1 DUP4 GT PUSH2 0x748 JUMPI DUP3 SWAP1 SUB PUSH1 0x1F AND DUP3 ADD SWAP2 JUMPDEST POP POP POP POP POP SWAP1 DUP1 PUSH1 0x4 ADD DUP1 SLOAD PUSH2 0x77A SWAP1 PUSH2 0x1E10 JUMP JUMPDEST DUP1 PUSH1 0x1F ADD PUSH1 0x20 DUP1 SWAP2 DIV MUL PUSH1 0x20 ADD PUSH1 0x40 MLOAD SWAP1 DUP2 ADD PUSH1 0x40 MSTORE DUP1 SWAP3 SWAP2 SWAP1 DUP2 DUP2 MSTORE PUSH1 0x20 ADD DUP3 DUP1 SLOAD PUSH2 0x7A6 SWAP1 PUSH2 0x1E10 JUMP JUMPDEST DUP1 ISZERO PUSH2 0x7F3 JUMPI DUP1 PUSH1 0x1F LT PUSH2 0x7C8 JUMPI PUSH2 0x100 DUP1 DUP4 SLOAD DIV MUL DUP4 MSTORE SWAP2 PUSH1 0x20 ADD SWAP2 PUSH2 0x7F3 JUMP JUMPDEST DUP3 ADD SWAP2 SWAP1 PUSH1 0x0 MSTORE PUSH1 0x20 PUSH1 0x0 KECCAK256 SWAP1 JUMPDEST DUP2 SLOAD DUP2 MSTORE SWAP1 PUSH1 0x1 ADD SWAP1 PUSH1 0x20 ADD DUP1 DUP4 GT PUSH2 0x7D6 JUMPI DUP3 SWAP1 SUB PUSH1 0x1F AND DUP3 ADD SWAP2 JUMPDEST POP POP POP POP POP SWAP1 DUP1 PUSH1 0x5 ADD SLOAD SWAP1 DUP1 PUSH1 0x6 ADD SLOAD SWAP1 DUP1 PUSH1 0x7 ADD SLOAD SWAP1 POP DUP9 JUMP JUMPDEST PUSH2 0x817 PUSH2 0x16A0 JUMP JUMPDEST PUSH2 0x81F PUSH2 0x1552 JUMP JUMPDEST PUSH1 0x6 PUSH1 0x0 CALLER PUSH20 0xFFFFFFFFFFFFFFFFFFFFFFFFFFFFFFFFFFFFFFFF AND PUSH20 0xFFFFFFFFFFFFFFFFFFFFFFFFFFFFFFFFFFFFFFFF AND DUP2 MSTORE PUSH1 0x20 ADD SWAP1 DUP2 MSTORE PUSH1 0x20 ADD PUSH1 0x0 KECCAK256 PUSH1 0x40 MLOAD DUP1 PUSH2 0x100 ADD PUSH1 0x40 MSTORE SWAP1 DUP2 PUSH1 0x0 DUP3 ADD PUSH1 0x0 SWAP1 SLOAD SWAP1 PUSH2 0x100 EXP SWAP1 DIV PUSH20 0xFFFFFFFFFFFFFFFFFFFFFFFFFFFFFFFFFFFFFFFF AND PUSH20 0xFFFFFFFFFFFFFFFFFFFFFFFFFFFFFFFFFFFFFFFF AND PUSH20 0xFFFFFFFFFFFFFFFFFFFFFFFFFFFFFFFFFFFFFFFF AND DUP2 MSTORE PUSH1 0x20 ADD PUSH1 0x1 DUP3 ADD DUP1 SLOAD PUSH2 0x8D0 SWAP1 PUSH2 0x1E10 JUMP JUMPDEST DUP1 PUSH1 0x1F ADD PUSH1 0x20 DUP1 SWAP2 DIV MUL PUSH1 0x20 ADD PUSH1 0x40 MLOAD SWAP1 DUP2 ADD PUSH1 0x40 MSTORE DUP1 SWAP3 SWAP2 SWAP1 DUP2 DUP2 MSTORE PUSH1 0x20 ADD DUP3 DUP1 SLOAD PUSH2 0x8FC SWAP1 PUSH2 0x1E10 JUMP JUMPDEST DUP1 ISZERO PUSH2 0x949 JUMPI DUP1 PUSH1 0x1F LT PUSH2 0x91E JUMPI PUSH2 0x100 DUP1 DUP4 SLOAD DIV MUL DUP4 MSTORE SWAP2 PUSH1 0x20 ADD SWAP2 PUSH2 0x949 JUMP JUMPDEST DUP3 ADD SWAP2 SWAP1 PUSH1 0x0 MSTORE PUSH1 0x20 PUSH1 0x0 KECCAK256 SWAP1 JUMPDEST DUP2 SLOAD DUP2 MSTORE SWAP1 PUSH1 0x1 ADD SWAP1 PUSH1 0x20 ADD DUP1 DUP4 GT PUSH2 0x92C JUMPI DUP3 SWAP1 SUB PUSH1 0x1F AND DUP3 ADD SWAP2 JUMPDEST POP POP POP POP POP DUP2 MSTORE PUSH1 0x20 ADD PUSH1 0x2 DUP3 ADD SLOAD DUP2 MSTORE PUSH1 0x20 ADD PUSH1 0x3 DUP3 ADD DUP1 SLOAD PUSH2 0x96C SWAP1 PUSH2 0x1E10 JUMP JUMPDEST DUP1 PUSH1 0x1F ADD PUSH1 0x20 DUP1 SWAP2 DIV MUL PUSH1 0x20 ADD PUSH1 0x40 MLOAD SWAP1 DUP2 ADD PUSH1 0x40 MSTORE DUP1 SWAP3 SWAP2 SWAP1 DUP2 DUP2 MSTORE PUSH1 0x20 ADD DUP3 DUP1 SLOAD PUSH2 0x998 SWAP1 PUSH2 0x1E10 JUMP JUMPDEST DUP1 ISZERO PUSH2 0x9E5 JUMPI DUP1 PUSH1 0x1F LT PUSH2 0x9BA JUMPI PUSH2 0x100 DUP1 DUP4 SLOAD DIV MUL DUP4 MSTORE SWAP2 PUSH1 0x20 ADD SWAP2 PUSH2 0x9E5 JUMP JUMPDEST DUP3 ADD SWAP2 SWAP1 PUSH1 0x0 MSTORE PUSH1 0x20 PUSH1 0x0 KECCAK256 SWAP1 JUMPDEST DUP2 SLOAD DUP2 MSTORE SWAP1 PUSH1 0x1 ADD SWAP1 PUSH1 0x20 ADD DUP1 DUP4 GT PUSH2 0x9C8 JUMPI DUP3 SWAP1 SUB PUSH1 0x1F AND DUP3 ADD SWAP2 JUMPDEST POP POP POP POP POP DUP2 MSTORE PUSH1 0x20 ADD PUSH1 0x4 DUP3 ADD DUP1 SLOAD PUSH2 0x9FE SWAP1 PUSH2 0x1E10 JUMP JUMPDEST DUP1 PUSH1 0x1F ADD PUSH1 0x20 DUP1 SWAP2 DIV MUL PUSH1 0x20 ADD PUSH1 0x40 MLOAD SWAP1 DUP2 ADD PUSH1 0x40 MSTORE DUP1 SWAP3 SWAP2 SWAP1 DUP2 DUP2 MSTORE PUSH1 0x20 ADD DUP3 DUP1 SLOAD PUSH2 0xA2A SWAP1 PUSH2 0x1E10 JUMP JUMPDEST DUP1 ISZERO PUSH2 0xA77 JUMPI DUP1 PUSH1 0x1F LT PUSH2 0xA4C JUMPI PUSH2 0x100 DUP1 DUP4 SLOAD DIV MUL DUP4 MSTORE SWAP2 PUSH1 0x20 ADD SWAP2 PUSH2 0xA77 JUMP JUMPDEST DUP3 ADD SWAP2 SWAP1 PUSH1 0x0 MSTORE PUSH1 0x20 PUSH1 0x0 KECCAK256 SWAP1 JUMPDEST DUP2 SLOAD DUP2 MSTORE SWAP1 PUSH1 0x1 ADD SWAP1 PUSH1 0x20 ADD DUP1 DUP4 GT PUSH2 0xA5A JUMPI DUP3 SWAP1 SUB PUSH1 0x1F AND DUP3 ADD SWAP2 JUMPDEST POP POP POP POP POP DUP2 MSTORE PUSH1 0x20 ADD PUSH1 0x5 DUP3 ADD SLOAD DUP2 MSTORE PUSH1 0x20 ADD PUSH1 0x6 DUP3 ADD SLOAD DUP2 MSTORE PUSH1 0x20 ADD PUSH1 0x7 DUP3 ADD SLOAD DUP2 MSTORE POP POP SWAP1 POP SWAP1 JUMP JUMPDEST PUSH1 0x0 DUP1 PUSH2 0xAAE PUSH2 0x107F JUMP JUMPDEST SWAP1 POP PUSH2 0xACF DUP2 DUP6 DUP6 PUSH2 0xAC0 DUP6 DUP10 PUSH2 0xF75 JUMP JUMPDEST PUSH2 0xACA SWAP2 SWAP1 PUSH2 0x1E70 JUMP JUMPDEST PUSH2 0x1087 JUMP JUMPDEST PUSH1 0x1 SWAP2 POP POP SWAP3 SWAP2 POP POP JUMP JUMPDEST PUSH1 0x7 SLOAD DUP2 JUMP JUMPDEST PUSH1 0x0 DUP1 PUSH1 0x0 DUP4 PUSH20 0xFFFFFFFFFFFFFFFFFFFFFFFFFFFFFFFFFFFFFFFF AND PUSH20 0xFFFFFFFFFFFFFFFFFFFFFFFFFFFFFFFFFFFFFFFF AND DUP2 MSTORE PUSH1 0x20 ADD SWAP1 DUP2 MSTORE PUSH1 0x20 ADD PUSH1 0x0 KECCAK256 SLOAD SWAP1 POP SWAP2 SWAP1 POP JUMP JUMPDEST PUSH2 0xB30 PUSH2 0x1552 JUMP JUMPDEST PUSH2 0xB3A PUSH1 0x0 PUSH2 0x15D0 JUMP JUMPDEST JUMP JUMPDEST PUSH1 0x0 PUSH1 0x5 PUSH1 0x0 SWAP1 SLOAD SWAP1 PUSH2 0x100 EXP SWAP1 DIV PUSH20 0xFFFFFFFFFFFFFFFFFFFFFFFFFFFFFFFFFFFFFFFF AND SWAP1 POP SWAP1 JUMP JUMPDEST PUSH1 0x60 PUSH1 0x4 DUP1 SLOAD PUSH2 0xB75 SWAP1 PUSH2 0x1E10 JUMP JUMPDEST DUP1 PUSH1 0x1F ADD PUSH1 0x20 DUP1 SWAP2 DIV MUL PUSH1 0x20 ADD PUSH1 0x40 MLOAD SWAP1 DUP2 ADD PUSH1 0x40 MSTORE DUP1 SWAP3 SWAP2 SWAP1 DUP2 DUP2 MSTORE PUSH1 0x20 ADD DUP3 DUP1 SLOAD PUSH2 0xBA1 SWAP1 PUSH2 0x1E10 JUMP JUMPDEST DUP1 ISZERO PUSH2 0xBEE JUMPI DUP1 PUSH1 0x1F LT PUSH2 0xBC3 JUMPI PUSH2 0x100 DUP1 DUP4 SLOAD DIV MUL DUP4 MSTORE SWAP2 PUSH1 0x20 ADD SWAP2 PUSH2 0xBEE JUMP JUMPDEST DUP3 ADD SWAP2 SWAP1 PUSH1 0x0 MSTORE PUSH1 0x20 PUSH1 0x0 KECCAK256 SWAP1 JUMPDEST DUP2 SLOAD DUP2 MSTORE SWAP1 PUSH1 0x1 ADD SWAP1 PUSH1 0x20 ADD DUP1 DUP4 GT PUSH2 0xBD1 JUMPI DUP3 SWAP1 SUB PUSH1 0x1F AND DUP3 ADD SWAP2 JUMPDEST POP POP POP POP POP SWAP1 POP SWAP1 JUMP JUMPDEST PUSH1 0x0 DUP1 PUSH2 0xC03 PUSH2 0x107F JUMP JUMPDEST SWAP1 POP PUSH1 0x0 PUSH2 0xC11 DUP3 DUP7 PUSH2 0xF75 JUMP JUMPDEST SWAP1 POP DUP4 DUP2 LT ISZERO PUSH2 0xC56 JUMPI PUSH1 0x40 MLOAD PUSH32 0x8C379A000000000000000000000000000000000000000000000000000000000 DUP2 MSTORE PUSH1 0x4 ADD PUSH2 0xC4D SWAP1 PUSH2 0x1F16 JUMP JUMPDEST PUSH1 0x40 MLOAD DUP1 SWAP2 SUB SWAP1 REVERT JUMPDEST PUSH2 0xC63 DUP3 DUP7 DUP7 DUP5 SUB PUSH2 0x1087 JUMP JUMPDEST PUSH1 0x1 SWAP3 POP POP POP SWAP3 SWAP2 POP POP JUMP JUMPDEST PUSH1 0x0 DUP1 PUSH2 0xC7A PUSH2 0x107F JUMP JUMPDEST SWAP1 POP PUSH2 0xC87 DUP2 DUP6 DUP6 PUSH2 0x12DC JUMP JUMPDEST PUSH1 0x1 SWAP2 POP POP SWAP3 SWAP2 POP POP JUMP JUMPDEST PUSH2 0xC9A PUSH2 0x1552 JUMP JUMPDEST PUSH1 0x12 DUP4 LT ISZERO PUSH2 0xCDE JUMPI PUSH1 0x40 MLOAD PUSH32 0x8C379A000000000000000000000000000000000000000000000000000000000 DUP2 MSTORE PUSH1 0x4 ADD PUSH2 0xCD5 SWAP1 PUSH2 0x1FA8 JUMP JUMPDEST PUSH1 0x40 MLOAD DUP1 SWAP2 SUB SWAP1 REVERT JUMPDEST PUSH1 0x0 PUSH2 0xCE9 CALLER PUSH2 0xAE0 JUMP JUMPDEST LT ISZERO PUSH2 0xD2A JUMPI PUSH1 0x40 MLOAD PUSH32 0x8C379A000000000000000000000000000000000000000000000000000000000 DUP2 MSTORE PUSH1 0x4 ADD PUSH2 0xD21 SWAP1 PUSH2 0x2014 JUMP JUMPDEST PUSH1 0x40 MLOAD DUP1 SWAP2 SUB SWAP1 REVERT JUMPDEST PUSH1 0x0 PUSH1 0x6 PUSH1 0x0 CALLER PUSH20 0xFFFFFFFFFFFFFFFFFFFFFFFFFFFFFFFFFFFFFFFF AND PUSH20 0xFFFFFFFFFFFFFFFFFFFFFFFFFFFFFFFFFFFFFFFF AND DUP2 MSTORE PUSH1 0x20 ADD SWAP1 DUP2 MSTORE PUSH1 0x20 ADD PUSH1 0x0 KECCAK256 PUSH1 0x6 ADD SLOAD GT ISZERO PUSH2 0xDB0 JUMPI PUSH1 0x40 MLOAD PUSH32 0x8C379A000000000000000000000000000000000000000000000000000000000 DUP2 MSTORE PUSH1 0x4 ADD PUSH2 0xDA7 SWAP1 PUSH2 0x2080 JUMP JUMPDEST PUSH1 0x40 MLOAD DUP1 SWAP2 SUB SWAP1 REVERT JUMPDEST PUSH1 0x0 PUSH2 0xDBB CALLER PUSH2 0xAE0 JUMP JUMPDEST SWAP1 POP PUSH2 0xDEB CALLER PUSH1 0x8 PUSH1 0x0 SWAP1 SLOAD SWAP1 PUSH2 0x100 EXP SWAP1 DIV PUSH20 0xFFFFFFFFFFFFFFFFFFFFFFFFFFFFFFFFFFFFFFFF AND PUSH1 0x0 PUSH2 0x5B1 JUMP JUMPDEST POP PUSH1 0x40 MLOAD DUP1 PUSH2 0x100 ADD PUSH1 0x40 MSTORE DUP1 CALLER PUSH20 0xFFFFFFFFFFFFFFFFFFFFFFFFFFFFFFFFFFFFFFFF AND DUP2 MSTORE PUSH1 0x20 ADD DUP7 DUP2 MSTORE PUSH1 0x20 ADD DUP6 DUP2 MSTORE PUSH1 0x20 ADD DUP5 DUP2 MSTORE PUSH1 0x20 ADD DUP4 DUP2 MSTORE PUSH1 0x20 ADD DUP3 DUP2 MSTORE PUSH1 0x20 ADD TIMESTAMP DUP2 MSTORE PUSH1 0x20 ADD PUSH4 0x1E1853E TIMESTAMP PUSH2 0xE48 SWAP2 SWAP1 PUSH2 0x1E70 JUMP JUMPDEST DUP2 MSTORE POP PUSH1 0x6 PUSH1 0x0 CALLER PUSH20 0xFFFFFFFFFFFFFFFFFFFFFFFFFFFFFFFFFFFFFFFF AND PUSH20 0xFFFFFFFFFFFFFFFFFFFFFFFFFFFFFFFFFFFFFFFF AND DUP2 MSTORE PUSH1 0x20 ADD SWAP1 DUP2 MSTORE PUSH1 0x20 ADD PUSH1 0x0 KECCAK256 PUSH1 0x0 DUP3 ADD MLOAD DUP2 PUSH1 0x0 ADD PUSH1 0x0 PUSH2 0x100 EXP DUP2 SLOAD DUP2 PUSH20 0xFFFFFFFFFFFFFFFFFFFFFFFFFFFFFFFFFFFFFFFF MUL NOT AND SWAP1 DUP4 PUSH20 0xFFFFFFFFFFFFFFFFFFFFFFFFFFFFFFFFFFFFFFFF AND MUL OR SWAP1 SSTORE POP PUSH1 0x20 DUP3 ADD MLOAD DUP2 PUSH1 0x1 ADD SWAP1 DUP2 PUSH2 0xEE6 SWAP2 SWAP1 PUSH2 0x224C JUMP JUMPDEST POP PUSH1 0x40 DUP3 ADD MLOAD DUP2 PUSH1 0x2 ADD SSTORE PUSH1 0x60 DUP3 ADD MLOAD DUP2 PUSH1 0x3 ADD SWAP1 DUP2 PUSH2 0xF06 SWAP2 SWAP1 PUSH2 0x224C JUMP JUMPDEST POP PUSH1 0x80 DUP3 ADD MLOAD DUP2 PUSH1 0x4 ADD SWAP1 DUP2 PUSH2 0xF1C SWAP2 SWAP1 PUSH2 0x224C JUMP JUMPDEST POP PUSH1 0xA0 DUP3 ADD MLOAD DUP2 PUSH1 0x5 ADD SSTORE PUSH1 0xC0 DUP3 ADD MLOAD DUP2 PUSH1 0x6 ADD SSTORE PUSH1 0xE0 DUP3 ADD MLOAD DUP2 PUSH1 0x7 ADD SSTORE SWAP1 POP POP PUSH1 0x7 PUSH1 0x0 DUP2 SLOAD DUP1 SWAP3 SWAP2 SWAP1 PUSH2 0xF51 SWAP1 PUSH2 0x231E JUMP JUMPDEST SWAP2 SWAP1 POP SSTORE POP POP POP POP POP POP JUMP JUMPDEST PUSH1 0x0 PUSH2 0xF67 PUSH2 0x1552 JUMP JUMPDEST PUSH2 0xF70 CALLER PUSH2 0xAE0 JUMP JUMPDEST SWAP1 POP SWAP1 JUMP JUMPDEST PUSH1 0x0 PUSH1 0x1 PUSH1 0x0 DUP5 PUSH20 0xFFFFFFFFFFFFFFFFFFFFFFFFFFFFFFFFFFFFFFFF AND PUSH20 0xFFFFFFFFFFFFFFFFFFFFFFFFFFFFFFFFFFFFFFFF AND DUP2 MSTORE PUSH1 0x20 ADD SWAP1 DUP2 MSTORE PUSH1 0x20 ADD PUSH1 0x0 KECCAK256 PUSH1 0x0 DUP4 PUSH20 0xFFFFFFFFFFFFFFFFFFFFFFFFFFFFFFFFFFFFFFFF AND PUSH20 0xFFFFFFFFFFFFFFFFFFFFFFFFFFFFFFFFFFFFFFFF AND DUP2 MSTORE PUSH1 0x20 ADD SWAP1 DUP2 MSTORE PUSH1 0x20 ADD PUSH1 0x0 KECCAK256 SLOAD SWAP1 POP SWAP3 SWAP2 POP POP JUMP JUMPDEST PUSH2 0x1004 PUSH2 0x1552 JUMP JUMPDEST PUSH1 0x0 PUSH20 0xFFFFFFFFFFFFFFFFFFFFFFFFFFFFFFFFFFFFFFFF AND DUP2 PUSH20 0xFFFFFFFFFFFFFFFFFFFFFFFFFFFFFFFFFFFFFFFF AND SUB PUSH2 0x1073 JUMPI PUSH1 0x40 MLOAD PUSH32 0x8C379A000000000000000000000000000000000000000000000000000000000 DUP2 MSTORE PUSH1 0x4 ADD PUSH2 0x106A SWAP1 PUSH2 0x23D8 JUMP JUMPDEST PUSH1 0x40 MLOAD DUP1 SWAP2 SUB SWAP1 REVERT JUMPDEST PUSH2 0x107C DUP2 PUSH2 0x15D0 JUMP JUMPDEST POP JUMP JUMPDEST PUSH1 0x0 CALLER SWAP1 POP SWAP1 JUMP JUMPDEST PUSH1 0x0 PUSH20 0xFFFFFFFFFFFFFFFFFFFFFFFFFFFFFFFFFFFFFFFF AND DUP4 PUSH20 0xFFFFFFFFFFFFFFFFFFFFFFFFFFFFFFFFFFFFFFFF AND SUB PUSH2 0x10F6 JUMPI PUSH1 0x40 MLOAD PUSH32 0x8C379A000000000000000000000000000000000000000000000000000000000 DUP2 MSTORE PUSH1 0x4 ADD PUSH2 0x10ED SWAP1 PUSH2 0x246A JUMP JUMPDEST PUSH1 0x40 MLOAD DUP1 SWAP2 SUB SWAP1 REVERT JUMPDEST PUSH1 0x0 PUSH20 0xFFFFFFFFFFFFFFFFFFFFFFFFFFFFFFFFFFFFFFFF AND DUP3 PUSH20 0xFFFFFFFFFFFFFFFFFFFFFFFFFFFFFFFFFFFFFFFF AND SUB PUSH2 0x1165 JUMPI PUSH1 0x40 MLOAD PUSH32 0x8C379A000000000000000000000000000000000000000000000000000000000 DUP2 MSTORE PUSH1 0x4 ADD PUSH2 0x115C SWAP1 PUSH2 0x24FC JUMP JUMPDEST PUSH1 0x40 MLOAD DUP1 SWAP2 SUB SWAP1 REVERT JUMPDEST DUP1 PUSH1 0x1 PUSH1 0x0 DUP6 PUSH20 0xFFFFFFFFFFFFFFFFFFFFFFFFFFFFFFFFFFFFFFFF AND PUSH20 0xFFFFFFFFFFFFFFFFFFFFFFFFFFFFFFFFFFFFFFFF AND DUP2 MSTORE PUSH1 0x20 ADD SWAP1 DUP2 MSTORE PUSH1 0x20 ADD PUSH1 0x0 KECCAK256 PUSH1 0x0 DUP5 PUSH20 0xFFFFFFFFFFFFFFFFFFFFFFFFFFFFFFFFFFFFFFFF AND PUSH20 0xFFFFFFFFFFFFFFFFFFFFFFFFFFFFFFFFFFFFFFFF AND DUP2 MSTORE PUSH1 0x20 ADD SWAP1 DUP2 MSTORE PUSH1 0x20 ADD PUSH1 0x0 KECCAK256 DUP2 SWAP1 SSTORE POP DUP2 PUSH20 0xFFFFFFFFFFFFFFFFFFFFFFFFFFFFFFFFFFFFFFFF AND DUP4 PUSH20 0xFFFFFFFFFFFFFFFFFFFFFFFFFFFFFFFFFFFFFFFF AND PUSH32 0x8C5BE1E5EBEC7D5BD14F71427D1E84F3DD0314C0F7B2291E5B200AC8C7C3B925 DUP4 PUSH1 0x40 MLOAD PUSH2 0x1243 SWAP2 SWAP1 PUSH2 0x18DA JUMP JUMPDEST PUSH1 0x40 MLOAD DUP1 SWAP2 SUB SWAP1 LOG3 POP POP POP JUMP JUMPDEST PUSH1 0x0 PUSH2 0x125C DUP5 DUP5 PUSH2 0xF75 JUMP JUMPDEST SWAP1 POP PUSH32 0xFFFFFFFFFFFFFFFFFFFFFFFFFFFFFFFFFFFFFFFFFFFFFFFFFFFFFFFFFFFFFFFF DUP2 EQ PUSH2 0x12D6 JUMPI DUP2 DUP2 LT ISZERO PUSH2 0x12C8 JUMPI PUSH1 0x40 MLOAD PUSH32 0x8C379A000000000000000000000000000000000000000000000000000000000 DUP2 MSTORE PUSH1 0x4 ADD PUSH2 0x12BF SWAP1 PUSH2 0x2568 JUMP JUMPDEST PUSH1 0x40 MLOAD DUP1 SWAP2 SUB SWAP1 REVERT JUMPDEST PUSH2 0x12D5 DUP5 DUP5 DUP5 DUP5 SUB PUSH2 0x1087 JUMP JUMPDEST JUMPDEST POP POP POP POP JUMP JUMPDEST PUSH1 0x0 PUSH20 0xFFFFFFFFFFFFFFFFFFFFFFFFFFFFFFFFFFFFFFFF AND DUP4 PUSH20 0xFFFFFFFFFFFFFFFFFFFFFFFFFFFFFFFFFFFFFFFF AND SUB PUSH2 0x134B JUMPI PUSH1 0x40 MLOAD PUSH32 0x8C379A000000000000000000000000000000000000000000000000000000000 DUP2 MSTORE PUSH1 0x4 ADD PUSH2 0x1342 SWAP1 PUSH2 0x25FA JUMP JUMPDEST PUSH1 0x40 MLOAD DUP1 SWAP2 SUB SWAP1 REVERT JUMPDEST PUSH1 0x0 PUSH20 0xFFFFFFFFFFFFFFFFFFFFFFFFFFFFFFFFFFFFFFFF AND DUP3 PUSH20 0xFFFFFFFFFFFFFFFFFFFFFFFFFFFFFFFFFFFFFFFF AND SUB PUSH2 0x13BA JUMPI PUSH1 0x40 MLOAD PUSH32 0x8C379A000000000000000000000000000000000000000000000000000000000 DUP2 MSTORE PUSH1 0x4 ADD PUSH2 0x13B1 SWAP1 PUSH2 0x268C JUMP JUMPDEST PUSH1 0x40 MLOAD DUP1 SWAP2 SUB SWAP1 REVERT JUMPDEST PUSH2 0x13C5 DUP4 DUP4 DUP4 PUSH2 0x1696 JUMP JUMPDEST PUSH1 0x0 DUP1 PUSH1 0x0 DUP6 PUSH20 0xFFFFFFFFFFFFFFFFFFFFFFFFFFFFFFFFFFFFFFFF AND PUSH20 0xFFFFFFFFFFFFFFFFFFFFFFFFFFFFFFFFFFFFFFFF AND DUP2 MSTORE PUSH1 0x20 ADD SWAP1 DUP2 MSTORE PUSH1 0x20 ADD PUSH1 0x0 KECCAK256 SLOAD SWAP1 POP DUP2 DUP2 LT ISZERO PUSH2 0x144B JUMPI PUSH1 0x40 MLOAD PUSH32 0x8C379A000000000000000000000000000000000000000000000000000000000 DUP2 MSTORE PUSH1 0x4 ADD PUSH2 0x1442 SWAP1 PUSH2 0x271E JUMP JUMPDEST PUSH1 0x40 MLOAD DUP1 SWAP2 SUB SWAP1 REVERT JUMPDEST DUP2 DUP2 SUB PUSH1 0x0 DUP1 DUP7 PUSH20 0xFFFFFFFFFFFFFFFFFFFFFFFFFFFFFFFFFFFFFFFF AND PUSH20 0xFFFFFFFFFFFFFFFFFFFFFFFFFFFFFFFFFFFFFFFF AND DUP2 MSTORE PUSH1 0x20 ADD SWAP1 DUP2 MSTORE PUSH1 0x20 ADD PUSH1 0x0 KECCAK256 DUP2 SWAP1 SSTORE POP DUP2 PUSH1 0x0 DUP1 DUP6 PUSH20 0xFFFFFFFFFFFFFFFFFFFFFFFFFFFFFFFFFFFFFFFF AND PUSH20 0xFFFFFFFFFFFFFFFFFFFFFFFFFFFFFFFFFFFFFFFF AND DUP2 MSTORE PUSH1 0x20 ADD SWAP1 DUP2 MSTORE PUSH1 0x20 ADD PUSH1 0x0 KECCAK256 PUSH1 0x0 DUP3 DUP3 SLOAD ADD SWAP3 POP POP DUP2 SWAP1 SSTORE POP DUP3 PUSH20 0xFFFFFFFFFFFFFFFFFFFFFFFFFFFFFFFFFFFFFFFF AND DUP5 PUSH20 0xFFFFFFFFFFFFFFFFFFFFFFFFFFFFFFFFFFFFFFFF AND PUSH32 0xDDF252AD1BE2C89B69C2B068FC378DAA952BA7F163C4A11628F55A4DF523B3EF DUP5 PUSH1 0x40 MLOAD PUSH2 0x1539 SWAP2 SWAP1 PUSH2 0x18DA JUMP JUMPDEST PUSH1 0x40 MLOAD DUP1 SWAP2 SUB SWAP1 LOG3 PUSH2 0x154C DUP5 DUP5 DUP5 PUSH2 0x169B JUMP JUMPDEST POP POP POP POP JUMP JUMPDEST PUSH2 0x155A PUSH2 0x107F JUMP JUMPDEST PUSH20 0xFFFFFFFFFFFFFFFFFFFFFFFFFFFFFFFFFFFFFFFF AND PUSH2 0x1578 PUSH2 0xB3C JUMP JUMPDEST PUSH20 0xFFFFFFFFFFFFFFFFFFFFFFFFFFFFFFFFFFFFFFFF AND EQ PUSH2 0x15CE JUMPI PUSH1 0x40 MLOAD PUSH32 0x8C379A000000000000000000000000000000000000000000000000000000000 DUP2 MSTORE PUSH1 0x4 ADD PUSH2 0x15C5 SWAP1 PUSH2 0x278A JUMP JUMPDEST PUSH1 0x40 MLOAD DUP1 SWAP2 SUB SWAP1 REVERT JUMPDEST JUMP JUMPDEST PUSH1 0x0 PUSH1 0x5 PUSH1 0x0 SWAP1 SLOAD SWAP1 PUSH2 0x100 EXP SWAP1 DIV PUSH20 0xFFFFFFFFFFFFFFFFFFFFFFFFFFFFFFFFFFFFFFFF AND SWAP1 POP DUP2 PUSH1 0x5 PUSH1 0x0 PUSH2 0x100 EXP DUP2 SLOAD DUP2 PUSH20 0xFFFFFFFFFFFFFFFFFFFFFFFFFFFFFFFFFFFFFFFF MUL NOT AND SWAP1 DUP4 PUSH20 0xFFFFFFFFFFFFFFFFFFFFFFFFFFFFFFFFFFFFFFFF AND MUL OR SWAP1 SSTORE POP DUP2 PUSH20 0xFFFFFFFFFFFFFFFFFFFFFFFFFFFFFFFFFFFFFFFF AND DUP2 PUSH20 0xFFFFFFFFFFFFFFFFFFFFFFFFFFFFFFFFFFFFFFFF AND PUSH32 0x8BE0079C531659141344CD1FD0A4F28419497F9722A3DAAFE3B4186F6B6457E0 PUSH1 0x40 MLOAD PUSH1 0x40 MLOAD DUP1 SWAP2 SUB SWAP1 LOG3 POP POP JUMP JUMPDEST POP POP POP JUMP JUMPDEST POP POP POP JUMP JUMPDEST PUSH1 0x40 MLOAD DUP1 PUSH2 0x100 ADD PUSH1 0x40 MSTORE DUP1 PUSH1 0x0 PUSH20 0xFFFFFFFFFFFFFFFFFFFFFFFFFFFFFFFFFFFFFFFF AND DUP2 MSTORE PUSH1 0x20 ADD PUSH1 0x60 DUP2 MSTORE PUSH1 0x20 ADD PUSH1 0x0 DUP2 MSTORE PUSH1 0x20 ADD PUSH1 0x60 DUP2 MSTORE PUSH1 0x20 ADD PUSH1 0x60 DUP2 MSTORE PUSH1 0x20 ADD PUSH1 0x0 DUP2 MSTORE PUSH1 0x20 ADD PUSH1 0x0 DUP2 MSTORE PUSH1 0x20 ADD PUSH1 0x0 DUP2 MSTORE POP SWAP1 JUMP JUMPDEST PUSH1 0x0 DUP2 MLOAD SWAP1 POP SWAP2 SWAP1 POP JUMP JUMPDEST PUSH1 0x0 DUP3 DUP3 MSTORE PUSH1 0x20 DUP3 ADD SWAP1 POP SWAP3 SWAP2 POP POP JUMP JUMPDEST PUSH1 0x0 JUMPDEST DUP4 DUP2 LT ISZERO PUSH2 0x1735 JUMPI DUP1 DUP3 ADD MLOAD DUP2 DUP5 ADD MSTORE PUSH1 0x20 DUP2 ADD SWAP1 POP PUSH2 0x171A JUMP JUMPDEST PUSH1 0x0 DUP5 DUP5 ADD MSTORE POP POP POP POP JUMP JUMPDEST PUSH1 0x0 PUSH1 0x1F NOT PUSH1 0x1F DUP4 ADD AND SWAP1 POP SWAP2 SWAP1 POP JUMP JUMPDEST PUSH1 0x0 PUSH2 0x175D DUP3 PUSH2 0x16FB JUMP JUMPDEST PUSH2 0x1767 DUP2 DUP6 PUSH2 0x1706 JUMP JUMPDEST SWAP4 POP PUSH2 0x1777 DUP2 DUP6 PUSH1 0x20 DUP7 ADD PUSH2 0x1717 JUMP JUMPDEST PUSH2 0x1780 DUP2 PUSH2 0x1741 JUMP JUMPDEST DUP5 ADD SWAP2 POP POP SWAP3 SWAP2 POP POP JUMP JUMPDEST PUSH1 0x0 PUSH1 0x20 DUP3 ADD SWAP1 POP DUP2 DUP2 SUB PUSH1 0x0 DUP4 ADD MSTORE PUSH2 0x17A5 DUP2 DUP5 PUSH2 0x1752 JUMP JUMPDEST SWAP1 POP SWAP3 SWAP2 POP POP JUMP JUMPDEST PUSH1 0x0 PUSH1 0x40 MLOAD SWAP1 POP SWAP1 JUMP JUMPDEST PUSH1 0x0 DUP1 REVERT JUMPDEST PUSH1 0x0 DUP1 REVERT JUMPDEST PUSH1 0x0 PUSH20 0xFFFFFFFFFFFFFFFFFFFFFFFFFFFFFFFFFFFFFFFF DUP3 AND SWAP1 POP SWAP2 SWAP1 POP JUMP JUMPDEST PUSH1 0x0 PUSH2 0x17EC DUP3 PUSH2 0x17C1 JUMP JUMPDEST SWAP1 POP SWAP2 SWAP1 POP JUMP JUMPDEST PUSH2 0x17FC DUP2 PUSH2 0x17E1 JUMP JUMPDEST DUP2 EQ PUSH2 0x1807 JUMPI PUSH1 0x0 DUP1 REVERT JUMPDEST POP JUMP JUMPDEST PUSH1 0x0 DUP2 CALLDATALOAD SWAP1 POP PUSH2 0x1819 DUP2 PUSH2 0x17F3 JUMP JUMPDEST SWAP3 SWAP2 POP POP JUMP JUMPDEST PUSH1 0x0 DUP2 SWAP1 POP SWAP2 SWAP1 POP JUMP JUMPDEST PUSH2 0x1832 DUP2 PUSH2 0x181F JUMP JUMPDEST DUP2 EQ PUSH2 0x183D JUMPI PUSH1 0x0 DUP1 REVERT JUMPDEST POP JUMP JUMPDEST PUSH1 0x0 DUP2 CALLDATALOAD SWAP1 POP PUSH2 0x184F DUP2 PUSH2 0x1829 JUMP JUMPDEST SWAP3 SWAP2 POP POP JUMP JUMPDEST PUSH1 0x0 DUP1 PUSH1 0x40 DUP4 DUP6 SUB SLT ISZERO PUSH2 0x186C JUMPI PUSH2 0x186B PUSH2 0x17B7 JUMP JUMPDEST JUMPDEST PUSH1 0x0 PUSH2 0x187A DUP6 DUP3 DUP7 ADD PUSH2 0x180A JUMP JUMPDEST SWAP3 POP POP PUSH1 0x20 PUSH2 0x188B DUP6 DUP3 DUP7 ADD PUSH2 0x1840 JUMP JUMPDEST SWAP2 POP POP SWAP3 POP SWAP3 SWAP1 POP JUMP JUMPDEST PUSH1 0x0 DUP2 ISZERO ISZERO SWAP1 POP SWAP2 SWAP1 POP JUMP JUMPDEST PUSH2 0x18AA DUP2 PUSH2 0x1895 JUMP JUMPDEST DUP3 MSTORE POP POP JUMP JUMPDEST PUSH1 0x0 PUSH1 0x20 DUP3 ADD SWAP1 POP PUSH2 0x18C5 PUSH1 0x0 DUP4 ADD DUP5 PUSH2 0x18A1 JUMP JUMPDEST SWAP3 SWAP2 POP POP JUMP JUMPDEST PUSH2 0x18D4 DUP2 PUSH2 0x181F JUMP JUMPDEST DUP3 MSTORE POP POP JUMP JUMPDEST PUSH1 0x0 PUSH1 0x20 DUP3 ADD SWAP1 POP PUSH2 0x18EF PUSH1 0x0 DUP4 ADD DUP5 PUSH2 0x18CB JUMP JUMPDEST SWAP3 SWAP2 POP POP JUMP JUMPDEST PUSH1 0x0 DUP1 PUSH1 0x0 PUSH1 0x60 DUP5 DUP7 SUB SLT ISZERO PUSH2 0x190E JUMPI PUSH2 0x190D PUSH2 0x17B7 JUMP JUMPDEST JUMPDEST PUSH1 0x0 PUSH2 0x191C DUP7 DUP3 DUP8 ADD PUSH2 0x180A JUMP JUMPDEST SWAP4 POP POP PUSH1 0x20 PUSH2 0x192D DUP7 DUP3 DUP8 ADD PUSH2 0x180A JUMP JUMPDEST SWAP3 POP POP PUSH1 0x40 PUSH2 0x193E DUP7 DUP3 DUP8 ADD PUSH2 0x1840 JUMP JUMPDEST SWAP2 POP POP SWAP3 POP SWAP3 POP SWAP3 JUMP JUMPDEST PUSH2 0x1951 DUP2 PUSH2 0x17E1 JUMP JUMPDEST DUP3 MSTORE POP POP JUMP JUMPDEST PUSH1 0x0 PUSH1 0x20 DUP3 ADD SWAP1 POP PUSH2 0x196C PUSH1 0x0 DUP4 ADD DUP5 PUSH2 0x1948 JUMP JUMPDEST SWAP3 SWAP2 POP POP JUMP JUMPDEST PUSH1 0x0 PUSH1 0xFF DUP3 AND SWAP1 POP SWAP2 SWAP1 POP JUMP JUMPDEST PUSH2 0x1988 DUP2 PUSH2 0x1972 JUMP JUMPDEST DUP3 MSTORE POP POP JUMP JUMPDEST PUSH1 0x0 PUSH1 0x20 DUP3 ADD SWAP1 POP PUSH2 0x19A3 PUSH1 0x0 DUP4 ADD DUP5 PUSH2 0x197F JUMP JUMPDEST SWAP3 SWAP2 POP POP JUMP JUMPDEST PUSH1 0x0 PUSH1 0x20 DUP3 DUP5 SUB SLT ISZERO PUSH2 0x19BF JUMPI PUSH2 0x19BE PUSH2 0x17B7 JUMP JUMPDEST JUMPDEST PUSH1 0x0 PUSH2 0x19CD DUP5 DUP3 DUP6 ADD PUSH2 0x180A JUMP JUMPDEST SWAP2 POP POP SWAP3 SWAP2 POP POP JUMP JUMPDEST PUSH1 0x0 PUSH2 0x100 DUP3 ADD SWAP1 POP PUSH2 0x19EC PUSH1 0x0 DUP4 ADD DUP12 PUSH2 0x1948 JUMP JUMPDEST DUP2 DUP2 SUB PUSH1 0x20 DUP4 ADD MSTORE PUSH2 0x19FE DUP2 DUP11 PUSH2 0x1752 JUMP JUMPDEST SWAP1 POP PUSH2 0x1A0D PUSH1 0x40 DUP4 ADD DUP10 PUSH2 0x18CB JUMP JUMPDEST DUP2 DUP2 SUB PUSH1 0x60 DUP4 ADD MSTORE PUSH2 0x1A1F DUP2 DUP9 PUSH2 0x1752 JUMP JUMPDEST SWAP1 POP DUP2 DUP2 SUB PUSH1 0x80 DUP4 ADD MSTORE PUSH2 0x1A33 DUP2 DUP8 PUSH2 0x1752 JUMP JUMPDEST SWAP1 POP PUSH2 0x1A42 PUSH1 0xA0 DUP4 ADD DUP7 PUSH2 0x18CB JUMP JUMPDEST PUSH2 0x1A4F PUSH1 0xC0 DUP4 ADD DUP6 PUSH2 0x18CB JUMP JUMPDEST PUSH2 0x1A5C PUSH1 0xE0 DUP4 ADD DUP5 PUSH2 0x18CB JUMP JUMPDEST SWAP10 SWAP9 POP POP POP POP POP POP POP POP POP JUMP JUMPDEST PUSH2 0x1A72 DUP2 PUSH2 0x17E1 JUMP JUMPDEST DUP3 MSTORE POP POP JUMP JUMPDEST PUSH1 0x0 DUP3 DUP3 MSTORE PUSH1 0x20 DUP3 ADD SWAP1 POP SWAP3 SWAP2 POP POP JUMP JUMPDEST PUSH1 0x0 PUSH2 0x1A94 DUP3 PUSH2 0x16FB JUMP JUMPDEST PUSH2 0x1A9E DUP2 DUP6 PUSH2 0x1A78 JUMP JUMPDEST SWAP4 POP PUSH2 0x1AAE DUP2 DUP6 PUSH1 0x20 DUP7 ADD PUSH2 0x1717 JUMP JUMPDEST PUSH2 0x1AB7 DUP2 PUSH2 0x1741 JUMP JUMPDEST DUP5 ADD SWAP2 POP POP SWAP3 SWAP2 POP POP JUMP JUMPDEST PUSH2 0x1ACB DUP2 PUSH2 0x181F JUMP JUMPDEST DUP3 MSTORE POP POP JUMP JUMPDEST PUSH1 0x0 PUSH2 0x100 DUP4 ADD PUSH1 0x0 DUP4 ADD MLOAD PUSH2 0x1AEA PUSH1 0x0 DUP7 ADD DUP3 PUSH2 0x1A69 JUMP JUMPDEST POP PUSH1 0x20 DUP4 ADD MLOAD DUP5 DUP3 SUB PUSH1 0x20 DUP7 ADD MSTORE PUSH2 0x1B02 DUP3 DUP3 PUSH2 0x1A89 JUMP JUMPDEST SWAP2 POP POP PUSH1 0x40 DUP4 ADD MLOAD PUSH2 0x1B17 PUSH1 0x40 DUP7 ADD DUP3 PUSH2 0x1AC2 JUMP JUMPDEST POP PUSH1 0x60 DUP4 ADD MLOAD DUP5 DUP3 SUB PUSH1 0x60 DUP7 ADD MSTORE PUSH2 0x1B2F DUP3 DUP3 PUSH2 0x1A89 JUMP JUMPDEST SWAP2 POP POP PUSH1 0x80 DUP4 ADD MLOAD DUP5 DUP3 SUB PUSH1 0x80 DUP7 ADD MSTORE PUSH2 0x1B49 DUP3 DUP3 PUSH2 0x1A89 JUMP JUMPDEST SWAP2 POP POP PUSH1 0xA0 DUP4 ADD MLOAD PUSH2 0x1B5E PUSH1 0xA0 DUP7 ADD DUP3 PUSH2 0x1AC2 JUMP JUMPDEST POP PUSH1 0xC0 DUP4 ADD MLOAD PUSH2 0x1B71 PUSH1 0xC0 DUP7 ADD DUP3 PUSH2 0x1AC2 JUMP JUMPDEST POP PUSH1 0xE0 DUP4 ADD MLOAD PUSH2 0x1B84 PUSH1 0xE0 DUP7 ADD DUP3 PUSH2 0x1AC2 JUMP JUMPDEST POP DUP1 SWAP2 POP POP SWAP3 SWAP2 POP POP JUMP JUMPDEST PUSH1 0x0 PUSH1 0x20 DUP3 ADD SWAP1 POP DUP2 DUP2 SUB PUSH1 0x0 DUP4 ADD MSTORE PUSH2 0x1BA9 DUP2 DUP5 PUSH2 0x1AD1 JUMP JUMPDEST SWAP1 POP SWAP3 SWAP2 POP POP JUMP JUMPDEST PUSH1 0x0 DUP1 REVERT JUMPDEST PUSH1 0x0 DUP1 REVERT JUMPDEST PUSH32 0x4E487B7100000000000000000000000000000000000000000000000000000000 PUSH1 0x0 MSTORE PUSH1 0x41 PUSH1 0x4 MSTORE PUSH1 0x24 PUSH1 0x0 REVERT JUMPDEST PUSH2 0x1BF3 DUP3 PUSH2 0x1741 JUMP JUMPDEST DUP2 ADD DUP2 DUP2 LT PUSH8 0xFFFFFFFFFFFFFFFF DUP3 GT OR ISZERO PUSH2 0x1C12 JUMPI PUSH2 0x1C11 PUSH2 0x1BBB JUMP JUMPDEST JUMPDEST DUP1 PUSH1 0x40 MSTORE POP POP POP JUMP JUMPDEST PUSH1 0x0 PUSH2 0x1C25 PUSH2 0x17AD JUMP JUMPDEST SWAP1 POP PUSH2 0x1C31 DUP3 DUP3 PUSH2 0x1BEA JUMP JUMPDEST SWAP2 SWAP1 POP JUMP JUMPDEST PUSH1 0x0 PUSH8 0xFFFFFFFFFFFFFFFF DUP3 GT ISZERO PUSH2 0x1C51 JUMPI PUSH2 0x1C50 PUSH2 0x1BBB JUMP JUMPDEST JUMPDEST PUSH2 0x1C5A DUP3 PUSH2 0x1741 JUMP JUMPDEST SWAP1 POP PUSH1 0x20 DUP2 ADD SWAP1 POP SWAP2 SWAP1 POP JUMP JUMPDEST DUP3 DUP2 DUP4 CALLDATACOPY PUSH1 0x0 DUP4 DUP4 ADD MSTORE POP POP POP JUMP JUMPDEST PUSH1 0x0 PUSH2 0x1C89 PUSH2 0x1C84 DUP5 PUSH2 0x1C36 JUMP JUMPDEST PUSH2 0x1C1B JUMP JUMPDEST SWAP1 POP DUP3 DUP2 MSTORE PUSH1 0x20 DUP2 ADD DUP5 DUP5 DUP5 ADD GT ISZERO PUSH2 0x1CA5 JUMPI PUSH2 0x1CA4 PUSH2 0x1BB6 JUMP JUMPDEST JUMPDEST PUSH2 0x1CB0 DUP5 DUP3 DUP6 PUSH2 0x1C67 JUMP JUMPDEST POP SWAP4 SWAP3 POP POP POP JUMP JUMPDEST PUSH1 0x0 DUP3 PUSH1 0x1F DUP4 ADD SLT PUSH2 0x1CCD JUMPI PUSH2 0x1CCC PUSH2 0x1BB1 JUMP JUMPDEST JUMPDEST DUP2 CALLDATALOAD PUSH2 0x1CDD DUP5 DUP3 PUSH1 0x20 DUP7 ADD PUSH2 0x1C76 JUMP JUMPDEST SWAP2 POP POP SWAP3 SWAP2 POP POP JUMP JUMPDEST PUSH1 0x0 DUP1 PUSH1 0x0 DUP1 PUSH1 0x80 DUP6 DUP8 SUB SLT ISZERO PUSH2 0x1D00 JUMPI PUSH2 0x1CFF PUSH2 0x17B7 JUMP JUMPDEST JUMPDEST PUSH1 0x0 DUP6 ADD CALLDATALOAD PUSH8 0xFFFFFFFFFFFFFFFF DUP2 GT ISZERO PUSH2 0x1D1E JUMPI PUSH2 0x1D1D PUSH2 0x17BC JUMP JUMPDEST JUMPDEST PUSH2 0x1D2A DUP8 DUP3 DUP9 ADD PUSH2 0x1CB8 JUMP JUMPDEST SWAP5 POP POP PUSH1 0x20 PUSH2 0x1D3B DUP8 DUP3 DUP9 ADD PUSH2 0x1840 JUMP JUMPDEST SWAP4 POP POP PUSH1 0x40 DUP6 ADD CALLDATALOAD PUSH8 0xFFFFFFFFFFFFFFFF DUP2 GT ISZERO PUSH2 0x1D5C JUMPI PUSH2 0x1D5B PUSH2 0x17BC JUMP JUMPDEST JUMPDEST PUSH2 0x1D68 DUP8 DUP3 DUP9 ADD PUSH2 0x1CB8 JUMP JUMPDEST SWAP3 POP POP PUSH1 0x60 DUP6 ADD CALLDATALOAD PUSH8 0xFFFFFFFFFFFFFFFF DUP2 GT ISZERO PUSH2 0x1D89 JUMPI PUSH2 0x1D88 PUSH2 0x17BC JUMP JUMPDEST JUMPDEST PUSH2 0x1D95 DUP8 DUP3 DUP9 ADD PUSH2 0x1CB8 JUMP JUMPDEST SWAP2 POP POP SWAP3 SWAP6 SWAP2 SWAP5 POP SWAP3 POP JUMP JUMPDEST PUSH1 0x0 DUP1 PUSH1 0x40 DUP4 DUP6 SUB SLT ISZERO PUSH2 0x1DB8 JUMPI PUSH2 0x1DB7 PUSH2 0x17B7 JUMP JUMPDEST JUMPDEST PUSH1 0x0 PUSH2 0x1DC6 DUP6 DUP3 DUP7 ADD PUSH2 0x180A JUMP JUMPDEST SWAP3 POP POP PUSH1 0x20 PUSH2 0x1DD7 DUP6 DUP3 DUP7 ADD PUSH2 0x180A JUMP JUMPDEST SWAP2 POP POP SWAP3 POP SWAP3 SWAP1 POP JUMP JUMPDEST PUSH32 0x4E487B7100000000000000000000000000000000000000000000000000000000 PUSH1 0x0 MSTORE PUSH1 0x22 PUSH1 0x4 MSTORE PUSH1 0x24 PUSH1 0x0 REVERT JUMPDEST PUSH1 0x0 PUSH1 0x2 DUP3 DIV SWAP1 POP PUSH1 0x1 DUP3 AND DUP1 PUSH2 0x1E28 JUMPI PUSH1 0x7F DUP3 AND SWAP2 POP JUMPDEST PUSH1 0x20 DUP3 LT DUP2 SUB PUSH2 0x1E3B JUMPI PUSH2 0x1E3A PUSH2 0x1DE1 JUMP JUMPDEST JUMPDEST POP SWAP2 SWAP1 POP JUMP JUMPDEST PUSH32 0x4E487B7100000000000000000000000000000000000000000000000000000000 PUSH1 0x0 MSTORE PUSH1 0x11 PUSH1 0x4 MSTORE PUSH1 0x24 PUSH1 0x0 REVERT JUMPDEST PUSH1 0x0 PUSH2 0x1E7B DUP3 PUSH2 0x181F JUMP JUMPDEST SWAP2 POP PUSH2 0x1E86 DUP4 PUSH2 0x181F JUMP JUMPDEST SWAP3 POP DUP3 DUP3 ADD SWAP1 POP DUP1 DUP3 GT ISZERO PUSH2 0x1E9E JUMPI PUSH2 0x1E9D PUSH2 0x1E41 JUMP JUMPDEST JUMPDEST SWAP3 SWAP2 POP POP JUMP JUMPDEST PUSH32 0x45524332303A2064656372656173656420616C6C6F77616E63652062656C6F77 PUSH1 0x0 DUP3 ADD MSTORE PUSH32 0x207A65726F000000000000000000000000000000000000000000000000000000 PUSH1 0x20 DUP3 ADD MSTORE POP JUMP JUMPDEST PUSH1 0x0 PUSH2 0x1F00 PUSH1 0x25 DUP4 PUSH2 0x1706 JUMP JUMPDEST SWAP2 POP PUSH2 0x1F0B DUP3 PUSH2 0x1EA4 JUMP JUMPDEST PUSH1 0x40 DUP3 ADD SWAP1 POP SWAP2 SWAP1 POP JUMP JUMPDEST PUSH1 0x0 PUSH1 0x20 DUP3 ADD SWAP1 POP DUP2 DUP2 SUB PUSH1 0x0 DUP4 ADD MSTORE PUSH2 0x1F2F DUP2 PUSH2 0x1EF3 JUMP JUMPDEST SWAP1 POP SWAP2 SWAP1 POP JUMP JUMPDEST PUSH32 0x596F7520617265206E6F7420656C696761626C6520746F206861766520616E20 PUSH1 0x0 DUP3 ADD MSTORE PUSH32 0x696E737572616E63652E00000000000000000000000000000000000000000000 PUSH1 0x20 DUP3 ADD MSTORE POP JUMP JUMPDEST PUSH1 0x0 PUSH2 0x1F92 PUSH1 0x2A DUP4 PUSH2 0x1706 JUMP JUMPDEST SWAP2 POP PUSH2 0x1F9D DUP3 PUSH2 0x1F36 JUMP JUMPDEST PUSH1 0x40 DUP3 ADD SWAP1 POP SWAP2 SWAP1 POP JUMP JUMPDEST PUSH1 0x0 PUSH1 0x20 DUP3 ADD SWAP1 POP DUP2 DUP2 SUB PUSH1 0x0 DUP4 ADD MSTORE PUSH2 0x1FC1 DUP2 PUSH2 0x1F85 JUMP JUMPDEST SWAP1 POP SWAP2 SWAP1 POP JUMP JUMPDEST PUSH32 0x596F7520646F6E2774206861766520656E6F7567682062616C616E63652E0000 PUSH1 0x0 DUP3 ADD MSTORE POP JUMP JUMPDEST PUSH1 0x0 PUSH2 0x1FFE PUSH1 0x1E DUP4 PUSH2 0x1706 JUMP JUMPDEST SWAP2 POP PUSH2 0x2009 DUP3 PUSH2 0x1FC8 JUMP JUMPDEST PUSH1 0x20 DUP3 ADD SWAP1 POP SWAP2 SWAP1 POP JUMP JUMPDEST PUSH1 0x0 PUSH1 0x20 DUP3 ADD SWAP1 POP DUP2 DUP2 SUB PUSH1 0x0 DUP4 ADD MSTORE PUSH2 0x202D DUP2 PUSH2 0x1FF1 JUMP JUMPDEST SWAP1 POP SWAP2 SWAP1 POP JUMP JUMPDEST PUSH32 0x596F7520616C7265616479206861766520616E20696E737572616E6365000000 PUSH1 0x0 DUP3 ADD MSTORE POP JUMP JUMPDEST PUSH1 0x0 PUSH2 0x206A PUSH1 0x1D DUP4 PUSH2 0x1706 JUMP JUMPDEST SWAP2 POP PUSH2 0x2075 DUP3 PUSH2 0x2034 JUMP JUMPDEST PUSH1 0x20 DUP3 ADD SWAP1 POP SWAP2 SWAP1 POP JUMP JUMPDEST PUSH1 0x0 PUSH1 0x20 DUP3 ADD SWAP1 POP DUP2 DUP2 SUB PUSH1 0x0 DUP4 ADD MSTORE PUSH2 0x2099 DUP2 PUSH2 0x205D JUMP JUMPDEST SWAP1 POP SWAP2 SWAP1 POP JUMP JUMPDEST PUSH1 0x0 DUP2 SWAP1 POP DUP2 PUSH1 0x0 MSTORE PUSH1 0x20 PUSH1 0x0 KECCAK256 SWAP1 POP SWAP2 SWAP1 POP JUMP JUMPDEST PUSH1 0x0 PUSH1 0x20 PUSH1 0x1F DUP4 ADD DIV SWAP1 POP SWAP2 SWAP1 POP JUMP JUMPDEST PUSH1 0x0 DUP3 DUP3 SHL SWAP1 POP SWAP3 SWAP2 POP POP JUMP JUMPDEST PUSH1 0x0 PUSH1 0x8 DUP4 MUL PUSH2 0x2102 PUSH32 0xFFFFFFFFFFFFFFFFFFFFFFFFFFFFFFFFFFFFFFFFFFFFFFFFFFFFFFFFFFFFFFFF DUP3 PUSH2 0x20C5 JUMP JUMPDEST PUSH2 0x210C DUP7 DUP4 PUSH2 0x20C5 JUMP JUMPDEST SWAP6 POP DUP1 NOT DUP5 AND SWAP4 POP DUP1 DUP7 AND DUP5 OR SWAP3 POP POP POP SWAP4 SWAP3 POP POP POP JUMP JUMPDEST PUSH1 0x0 DUP2 SWAP1 POP SWAP2 SWAP1 POP JUMP JUMPDEST PUSH1 0x0 PUSH2 0x2149 PUSH2 0x2144 PUSH2 0x213F DUP5 PUSH2 0x181F JUMP JUMPDEST PUSH2 0x2124 JUMP JUMPDEST PUSH2 0x181F JUMP JUMPDEST SWAP1 POP SWAP2 SWAP1 POP JUMP JUMPDEST PUSH1 0x0 DUP2 SWAP1 POP SWAP2 SWAP1 POP JUMP JUMPDEST PUSH2 0x2163 DUP4 PUSH2 0x212E JUMP JUMPDEST PUSH2 0x2177 PUSH2 0x216F DUP3 PUSH2 0x2150 JUMP JUMPDEST DUP5 DUP5 SLOAD PUSH2 0x20D2 JUMP JUMPDEST DUP3 SSTORE POP POP POP POP JUMP JUMPDEST PUSH1 0x0 SWAP1 JUMP JUMPDEST PUSH2 0x218C PUSH2 0x217F JUMP JUMPDEST PUSH2 0x2197 DUP2 DUP5 DUP5 PUSH2 0x215A JUMP JUMPDEST POP POP POP JUMP JUMPDEST JUMPDEST DUP2 DUP2 LT ISZERO PUSH2 0x21BB JUMPI PUSH2 0x21B0 PUSH1 0x0 DUP3 PUSH2 0x2184 JUMP JUMPDEST PUSH1 0x1 DUP2 ADD SWAP1 POP PUSH2 0x219D JUMP JUMPDEST POP POP JUMP JUMPDEST PUSH1 0x1F DUP3 GT ISZERO PUSH2 0x2200 JUMPI PUSH2 0x21D1 DUP2 PUSH2 0x20A0 JUMP JUMPDEST PUSH2 0x21DA DUP5 PUSH2 0x20B5 JUMP JUMPDEST DUP2 ADD PUSH1 0x20 DUP6 LT ISZERO PUSH2 0x21E9 JUMPI DUP2 SWAP1 POP JUMPDEST PUSH2 0x21FD PUSH2 0x21F5 DUP6 PUSH2 0x20B5 JUMP JUMPDEST DUP4 ADD DUP3 PUSH2 0x219C JUMP JUMPDEST POP POP JUMPDEST POP POP POP JUMP JUMPDEST PUSH1 0x0 DUP3 DUP3 SHR SWAP1 POP SWAP3 SWAP2 POP POP JUMP JUMPDEST PUSH1 0x0 PUSH2 0x2223 PUSH1 0x0 NOT DUP5 PUSH1 0x8 MUL PUSH2 0x2205 JUMP JUMPDEST NOT DUP1 DUP4 AND SWAP2 POP POP SWAP3 SWAP2 POP POP JUMP JUMPDEST PUSH1 0x0 PUSH2 0x223C DUP4 DUP4 PUSH2 0x2212 JUMP JUMPDEST SWAP2 POP DUP3 PUSH1 0x2 MUL DUP3 OR SWAP1 POP SWAP3 SWAP2 POP POP JUMP JUMPDEST PUSH2 0x2255 DUP3 PUSH2 0x16FB JUMP JUMPDEST PUSH8 0xFFFFFFFFFFFFFFFF DUP2 GT ISZERO PUSH2 0x226E JUMPI PUSH2 0x226D PUSH2 0x1BBB JUMP JUMPDEST JUMPDEST PUSH2 0x2278 DUP3 SLOAD PUSH2 0x1E10 JUMP JUMPDEST PUSH2 0x2283 DUP3 DUP3 DUP6 PUSH2 0x21BF JUMP JUMPDEST PUSH1 0x0 PUSH1 0x20 SWAP1 POP PUSH1 0x1F DUP4 GT PUSH1 0x1 DUP2 EQ PUSH2 0x22B6 JUMPI PUSH1 0x0 DUP5 ISZERO PUSH2 0x22A4 JUMPI DUP3 DUP8 ADD MLOAD SWAP1 POP JUMPDEST PUSH2 0x22AE DUP6 DUP3 PUSH2 0x2230 JUMP JUMPDEST DUP7 SSTORE POP PUSH2 0x2316 JUMP JUMPDEST PUSH1 0x1F NOT DUP5 AND PUSH2 0x22C4 DUP7 PUSH2 0x20A0 JUMP JUMPDEST PUSH1 0x0 JUMPDEST DUP3 DUP2 LT ISZERO PUSH2 0x22EC JUMPI DUP5 DUP10 ADD MLOAD DUP3 SSTORE PUSH1 0x1 DUP3 ADD SWAP2 POP PUSH1 0x20 DUP6 ADD SWAP5 POP PUSH1 0x20 DUP2 ADD SWAP1 POP PUSH2 0x22C7 JUMP JUMPDEST DUP7 DUP4 LT ISZERO PUSH2 0x2309 JUMPI DUP5 DUP10 ADD MLOAD PUSH2 0x2305 PUSH1 0x1F DUP10 AND DUP3 PUSH2 0x2212 JUMP JUMPDEST DUP4 SSTORE POP JUMPDEST PUSH1 0x1 PUSH1 0x2 DUP9 MUL ADD DUP9 SSTORE POP POP POP JUMPDEST POP POP POP POP POP POP JUMP JUMPDEST PUSH1 0x0 PUSH2 0x2329 DUP3 PUSH2 0x181F JUMP JUMPDEST SWAP2 POP PUSH32 0xFFFFFFFFFFFFFFFFFFFFFFFFFFFFFFFFFFFFFFFFFFFFFFFFFFFFFFFFFFFFFFFF DUP3 SUB PUSH2 0x235B JUMPI PUSH2 0x235A PUSH2 0x1E41 JUMP JUMPDEST JUMPDEST PUSH1 0x1 DUP3 ADD SWAP1 POP SWAP2 SWAP1 POP JUMP JUMPDEST PUSH32 0x4F776E61626C653A206E6577206F776E657220697320746865207A65726F2061 PUSH1 0x0 DUP3 ADD MSTORE PUSH32 0x6464726573730000000000000000000000000000000000000000000000000000 PUSH1 0x20 DUP3 ADD MSTORE POP JUMP JUMPDEST PUSH1 0x0 PUSH2 0x23C2 PUSH1 0x26 DUP4 PUSH2 0x1706 JUMP JUMPDEST SWAP2 POP PUSH2 0x23CD DUP3 PUSH2 0x2366 JUMP JUMPDEST PUSH1 0x40 DUP3 ADD SWAP1 POP SWAP2 SWAP1 POP JUMP JUMPDEST PUSH1 0x0 PUSH1 0x20 DUP3 ADD SWAP1 POP DUP2 DUP2 SUB PUSH1 0x0 DUP4 ADD MSTORE PUSH2 0x23F1 DUP2 PUSH2 0x23B5 JUMP JUMPDEST SWAP1 POP SWAP2 SWAP1 POP JUMP JUMPDEST PUSH32 0x45524332303A20617070726F76652066726F6D20746865207A65726F20616464 PUSH1 0x0 DUP3 ADD MSTORE PUSH32 0x7265737300000000000000000000000000000000000000000000000000000000 PUSH1 0x20 DUP3 ADD MSTORE POP JUMP JUMPDEST PUSH1 0x0 PUSH2 0x2454 PUSH1 0x24 DUP4 PUSH2 0x1706 JUMP JUMPDEST SWAP2 POP PUSH2 0x245F DUP3 PUSH2 0x23F8 JUMP JUMPDEST PUSH1 0x40 DUP3 ADD SWAP1 POP SWAP2 SWAP1 POP JUMP JUMPDEST PUSH1 0x0 PUSH1 0x20 DUP3 ADD SWAP1 POP DUP2 DUP2 SUB PUSH1 0x0 DUP4 ADD MSTORE PUSH2 0x2483 DUP2 PUSH2 0x2447 JUMP JUMPDEST SWAP1 POP SWAP2 SWAP1 POP JUMP JUMPDEST PUSH32 0x45524332303A20617070726F766520746F20746865207A65726F206164647265 PUSH1 0x0 DUP3 ADD MSTORE PUSH32 0x7373000000000000000000000000000000000000000000000000000000000000 PUSH1 0x20 DUP3 ADD MSTORE POP JUMP JUMPDEST PUSH1 0x0 PUSH2 0x24E6 PUSH1 0x22 DUP4 PUSH2 0x1706 JUMP JUMPDEST SWAP2 POP PUSH2 0x24F1 DUP3 PUSH2 0x248A JUMP JUMPDEST PUSH1 0x40 DUP3 ADD SWAP1 POP SWAP2 SWAP1 POP JUMP JUMPDEST PUSH1 0x0 PUSH1 0x20 DUP3 ADD SWAP1 POP DUP2 DUP2 SUB PUSH1 0x0 DUP4 ADD MSTORE PUSH2 0x2515 DUP2 PUSH2 0x24D9 JUMP JUMPDEST SWAP1 POP SWAP2 SWAP1 POP JUMP JUMPDEST PUSH32 0x45524332303A20696E73756666696369656E7420616C6C6F77616E6365000000 PUSH1 0x0 DUP3 ADD MSTORE POP JUMP JUMPDEST PUSH1 0x0 PUSH2 0x2552 PUSH1 0x1D DUP4 PUSH2 0x1706 JUMP JUMPDEST SWAP2 POP PUSH2 0x255D DUP3 PUSH2 0x251C JUMP JUMPDEST PUSH1 0x20 DUP3 ADD SWAP1 POP SWAP2 SWAP1 POP JUMP JUMPDEST PUSH1 0x0 PUSH1 0x20 DUP3 ADD SWAP1 POP DUP2 DUP2 SUB PUSH1 0x0 DUP4 ADD MSTORE PUSH2 0x2581 DUP2 PUSH2 0x2545 JUMP JUMPDEST SWAP1 POP SWAP2 SWAP1 POP JUMP JUMPDEST PUSH32 0x45524332303A207472616E736665722066726F6D20746865207A65726F206164 PUSH1 0x0 DUP3 ADD MSTORE PUSH32 0x6472657373000000000000000000000000000000000000000000000000000000 PUSH1 0x20 DUP3 ADD MSTORE POP JUMP JUMPDEST PUSH1 0x0 PUSH2 0x25E4 PUSH1 0x25 DUP4 PUSH2 0x1706 JUMP JUMPDEST SWAP2 POP PUSH2 0x25EF DUP3 PUSH2 0x2588 JUMP JUMPDEST PUSH1 0x40 DUP3 ADD SWAP1 POP SWAP2 SWAP1 POP JUMP JUMPDEST PUSH1 0x0 PUSH1 0x20 DUP3 ADD SWAP1 POP DUP2 DUP2 SUB PUSH1 0x0 DUP4 ADD MSTORE PUSH2 0x2613 DUP2 PUSH2 0x25D7 JUMP JUMPDEST SWAP1 POP SWAP2 SWAP1 POP JUMP JUMPDEST PUSH32 0x45524332303A207472616E7366657220746F20746865207A65726F2061646472 PUSH1 0x0 DUP3 ADD MSTORE PUSH32 0x6573730000000000000000000000000000000000000000000000000000000000 PUSH1 0x20 DUP3 ADD MSTORE POP JUMP JUMPDEST PUSH1 0x0 PUSH2 0x2676 PUSH1 0x23 DUP4 PUSH2 0x1706 JUMP JUMPDEST SWAP2 POP PUSH2 0x2681 DUP3 PUSH2 0x261A JUMP JUMPDEST PUSH1 0x40 DUP3 ADD SWAP1 POP SWAP2 SWAP1 POP JUMP JUMPDEST PUSH1 0x0 PUSH1 0x20 DUP3 ADD SWAP1 POP DUP2 DUP2 SUB PUSH1 0x0 DUP4 ADD MSTORE PUSH2 0x26A5 DUP2 PUSH2 0x2669 JUMP JUMPDEST SWAP1 POP SWAP2 SWAP1 POP JUMP JUMPDEST PUSH32 0x45524332303A207472616E7366657220616D6F756E7420657863656564732062 PUSH1 0x0 DUP3 ADD MSTORE PUSH32 0x616C616E63650000000000000000000000000000000000000000000000000000 PUSH1 0x20 DUP3 ADD MSTORE POP JUMP JUMPDEST PUSH1 0x0 PUSH2 0x2708 PUSH1 0x26 DUP4 PUSH2 0x1706 JUMP JUMPDEST SWAP2 POP PUSH2 0x2713 DUP3 PUSH2 0x26AC JUMP JUMPDEST PUSH1 0x40 DUP3 ADD SWAP1 POP SWAP2 SWAP1 POP JUMP JUMPDEST PUSH1 0x0 PUSH1 0x20 DUP3 ADD SWAP1 POP DUP2 DUP2 SUB PUSH1 0x0 DUP4 ADD MSTORE PUSH2 0x2737 DUP2 PUSH2 0x26FB JUMP JUMPDEST SWAP1 POP SWAP2 SWAP1 POP JUMP JUMPDEST PUSH32 0x4F776E61626C653A2063616C6C6572206973206E6F7420746865206F776E6572 PUSH1 0x0 DUP3 ADD MSTORE POP JUMP JUMPDEST PUSH1 0x0 PUSH2 0x2774 PUSH1 0x20 DUP4 PUSH2 0x1706 JUMP JUMPDEST SWAP2 POP PUSH2 0x277F DUP3 PUSH2 0x273E JUMP JUMPDEST PUSH1 0x20 DUP3 ADD SWAP1 POP SWAP2 SWAP1 POP JUMP JUMPDEST PUSH1 0x0 PUSH1 0x20 DUP3 ADD SWAP1 POP DUP2 DUP2 SUB PUSH1 0x0 DUP4 ADD MSTORE PUSH2 0x27A3 DUP2 PUSH2 0x2767 JUMP JUMPDEST SWAP1 POP SWAP2 SWAP1 POP JUMP INVALID LOG2 PUSH5 0x6970667358 0x22 SLT KECCAK256 ADD ADD SLT 0xE9 SELFBALANCE 0xC4 LOG1 0x2C 0xB9 MSIZE 0x28 0xA9 SWAP6 RETURNDATACOPY PUSH3 0xD68DCA SELFDESTRUCT 0x23 MUL JUMP 0xB8 0xC6 0xCB BLOCKHASH GASPRICE 0xCA DUP16 STATICCALL PUSH29 0x5564736F6C634300081400330000000000000000000000000000000000 "
				},
				"gasEstimates": {
					"creation": {
						"codeDepositCost": "2041600",
						"executionCost": "infinite",
						"totalCost": "infinite"
					},
					"external": {
						"allowance(address,address)": "infinite",
						"approve(address,uint256)": "infinite",
						"balanceOf(address)": "2864",
						"checkBalance()": "4899",
						"checkInsurance()": "infinite",
						"customers(address)": "infinite",
						"decimals()": "366",
						"decreaseAllowance(address,uint256)": "infinite",
						"increaseAllowance(address,uint256)": "infinite",
						"insuranceAddress()": "2626",
						"name()": "infinite",
						"owner()": "2589",
						"registerCustomer(string,uint256,string,string)": "infinite",
						"renounceOwnership()": "30443",
						"symbol()": "infinite",
						"totalSales()": "2540",
						"totalSupply()": "2505",
						"transfer(address,uint256)": "infinite",
						"transferFrom(address,address,uint256)": "infinite",
						"transferOwnership(address)": "30854"
					}
				},
				"methodIdentifiers": {
					"allowance(address,address)": "dd62ed3e",
					"approve(address,uint256)": "095ea7b3",
					"balanceOf(address)": "70a08231",
					"checkBalance()": "c71daccb",
					"checkInsurance()": "36fdde7c",
					"customers(address)": "336989ae",
					"decimals()": "313ce567",
					"decreaseAllowance(address,uint256)": "a457c2d7",
					"increaseAllowance(address,uint256)": "39509351",
					"insuranceAddress()": "2401273c",
					"name()": "06fdde03",
					"owner()": "8da5cb5b",
					"registerCustomer(string,uint256,string,string)": "b3523b0b",
					"renounceOwnership()": "715018a6",
					"symbol()": "95d89b41",
					"totalSales()": "6605ff66",
					"totalSupply()": "18160ddd",
					"transfer(address,uint256)": "a9059cbb",
					"transferFrom(address,address,uint256)": "23b872dd",
					"transferOwnership(address)": "f2fde38b"
				}
			},
			"storageLayout": {
				"storage": [
					{
						"astId": 128,
						"contract": "contracts/MyToken.sol:MyToken",
						"label": "_balances",
						"offset": 0,
						"slot": "0",
						"type": "t_mapping(t_address,t_uint256)"
					},
					{
						"astId": 134,
						"contract": "contracts/MyToken.sol:MyToken",
						"label": "_allowances",
						"offset": 0,
						"slot": "1",
						"type": "t_mapping(t_address,t_mapping(t_address,t_uint256))"
					},
					{
						"astId": 136,
						"contract": "contracts/MyToken.sol:MyToken",
						"label": "_totalSupply",
						"offset": 0,
						"slot": "2",
						"type": "t_uint256"
					},
					{
						"astId": 138,
						"contract": "contracts/MyToken.sol:MyToken",
						"label": "_name",
						"offset": 0,
						"slot": "3",
						"type": "t_string_storage"
					},
					{
						"astId": 140,
						"contract": "contracts/MyToken.sol:MyToken",
						"label": "_symbol",
						"offset": 0,
						"slot": "4",
						"type": "t_string_storage"
					},
					{
						"astId": 7,
						"contract": "contracts/MyToken.sol:MyToken",
						"label": "_owner",
						"offset": 0,
						"slot": "5",
						"type": "t_address"
					},
					{
						"astId": 837,
						"contract": "contracts/MyToken.sol:MyToken",
						"label": "customers",
						"offset": 0,
						"slot": "6",
						"type": "t_mapping(t_address,t_struct(Customer)860_storage)"
					},
					{
						"astId": 840,
						"contract": "contracts/MyToken.sol:MyToken",
						"label": "totalSales",
						"offset": 0,
						"slot": "7",
						"type": "t_uint256"
					},
					{
						"astId": 843,
						"contract": "contracts/MyToken.sol:MyToken",
						"label": "insuranceAddress",
						"offset": 0,
						"slot": "8",
						"type": "t_address"
					}
				],
				"types": {
					"t_address": {
						"encoding": "inplace",
						"label": "address",
						"numberOfBytes": "20"
					},
					"t_mapping(t_address,t_mapping(t_address,t_uint256))": {
						"encoding": "mapping",
						"key": "t_address",
						"label": "mapping(address => mapping(address => uint256))",
						"numberOfBytes": "32",
						"value": "t_mapping(t_address,t_uint256)"
					},
					"t_mapping(t_address,t_struct(Customer)860_storage)": {
						"encoding": "mapping",
						"key": "t_address",
						"label": "mapping(address => struct MyToken.Customer)",
						"numberOfBytes": "32",
						"value": "t_struct(Customer)860_storage"
					},
					"t_mapping(t_address,t_uint256)": {
						"encoding": "mapping",
						"key": "t_address",
						"label": "mapping(address => uint256)",
						"numberOfBytes": "32",
						"value": "t_uint256"
					},
					"t_string_storage": {
						"encoding": "bytes",
						"label": "string",
						"numberOfBytes": "32"
					},
					"t_struct(Customer)860_storage": {
						"encoding": "inplace",
						"label": "struct MyToken.Customer",
						"members": [
							{
								"astId": 845,
								"contract": "contracts/MyToken.sol:MyToken",
								"label": "cAddress",
								"offset": 0,
								"slot": "0",
								"type": "t_address"
							},
							{
								"astId": 847,
								"contract": "contracts/MyToken.sol:MyToken",
								"label": "cName",
								"offset": 0,
								"slot": "1",
								"type": "t_string_storage"
							},
							{
								"astId": 849,
								"contract": "contracts/MyToken.sol:MyToken",
								"label": "cAge",
								"offset": 0,
								"slot": "2",
								"type": "t_uint256"
							},
							{
								"astId": 851,
								"contract": "contracts/MyToken.sol:MyToken",
								"label": "cGender",
								"offset": 0,
								"slot": "3",
								"type": "t_string_storage"
							},
							{
								"astId": 853,
								"contract": "contracts/MyToken.sol:MyToken",
								"label": "cNationality",
								"offset": 0,
								"slot": "4",
								"type": "t_string_storage"
							},
							{
								"astId": 855,
								"contract": "contracts/MyToken.sol:MyToken",
								"label": "cBalance",
								"offset": 0,
								"slot": "5",
								"type": "t_uint256"
							},
							{
								"astId": 857,
								"contract": "contracts/MyToken.sol:MyToken",
								"label": "startInsurance",
								"offset": 0,
								"slot": "6",
								"type": "t_uint256"
							},
							{
								"astId": 859,
								"contract": "contracts/MyToken.sol:MyToken",
								"label": "endInsurance",
								"offset": 0,
								"slot": "7",
								"type": "t_uint256"
							}
						],
						"numberOfBytes": "256"
					},
					"t_uint256": {
						"encoding": "inplace",
						"label": "uint256",
						"numberOfBytes": "32"
					}
				}
			},
			"userdoc": {
				"kind": "user",
				"methods": {},
				"version": 1
			}
		}
	}
}